{
	"finger.sol": {
		"FingerGuess": {
			"abi": [
				{
					"anonymous": false,
					"inputs": [
						{
							"indexed": true,
							"internalType": "address",
							"name": "previousOwner",
							"type": "address"
						},
						{
							"indexed": true,
							"internalType": "address",
							"name": "newOwner",
							"type": "address"
						}
					],
					"name": "OwnershipTransferred",
					"type": "event"
				},
				{
					"inputs": [
						{
							"internalType": "uint256",
							"name": "_gameId",
							"type": "uint256"
						},
						{
							"internalType": "enum FingerGuess.FingerType[]",
							"name": "_guessResult",
							"type": "uint8[]"
						}
					],
					"name": "joinGame",
					"outputs": [],
					"stateMutability": "payable",
					"type": "function"
				},
				{
					"inputs": [],
					"name": "owner",
					"outputs": [
						{
							"internalType": "address",
							"name": "",
							"type": "address"
						}
					],
					"stateMutability": "view",
					"type": "function"
				},
				{
					"inputs": [],
					"name": "renounceOwnership",
					"outputs": [],
					"stateMutability": "nonpayable",
					"type": "function"
				},
				{
					"inputs": [
						{
							"internalType": "address",
							"name": "_tokenAddress",
							"type": "address"
						},
						{
							"internalType": "uint256",
							"name": "_bonus",
							"type": "uint256"
						},
						{
							"internalType": "uint256",
							"name": "_gameType",
							"type": "uint256"
						},
						{
							"internalType": "enum FingerGuess.FingerType[]",
							"name": "_guessResult",
							"type": "uint8[]"
						}
					],
					"name": "startGame",
					"outputs": [],
					"stateMutability": "payable",
					"type": "function"
				},
				{
					"inputs": [
						{
							"internalType": "address",
							"name": "newOwner",
							"type": "address"
						}
					],
					"name": "transferOwnership",
					"outputs": [],
					"stateMutability": "nonpayable",
					"type": "function"
				}
			],
			"devdoc": {
				"kind": "dev",
				"methods": {
					"owner()": {
						"details": "Returns the address of the current owner."
					},
					"renounceOwnership()": {
						"details": "Leaves the contract without owner. It will not be possible to call `onlyOwner` functions. Can only be called by the current owner. NOTE: Renouncing ownership will leave the contract without an owner, thereby disabling any functionality that is only available to the owner."
					},
					"transferOwnership(address)": {
						"details": "Transfers ownership of the contract to a new account (`newOwner`). Can only be called by the current owner."
					}
				},
				"version": 1
			},
			"evm": {
				"assembly": "    /* \"finger.sol\":166:7180  contract FingerGuess is Ownable{... */\n  mstore(0x40, 0x80)\n    /* \"finger.sol\":957:958  5 */\n  0x05\n    /* \"finger.sol\":939:958  uint256 feeRate = 5 */\n  0x02\n  sstore\n    /* \"finger.sol\":166:7180  contract FingerGuess is Ownable{... */\n  callvalue\n  dup1\n  iszero\n  tag_1\n  jumpi\n  0x00\n  dup1\n  revert\ntag_1:\n  pop\n    /* \"@openzeppelin/contracts/access/Ownable.sol\":936:968  _transferOwnership(_msgSender()) */\n  tag_4\n    /* \"@openzeppelin/contracts/access/Ownable.sol\":955:967  _msgSender() */\n  tag_5\n    /* \"@openzeppelin/contracts/access/Ownable.sol\":955:965  _msgSender */\n  shl(0x20, tag_6)\n    /* \"@openzeppelin/contracts/access/Ownable.sol\":955:967  _msgSender() */\n  0x20\n  shr\n  jump\t// in\ntag_5:\n    /* \"@openzeppelin/contracts/access/Ownable.sol\":936:954  _transferOwnership */\n  shl(0x20, tag_7)\n    /* \"@openzeppelin/contracts/access/Ownable.sol\":936:968  _transferOwnership(_msgSender()) */\n  0x20\n  shr\n  jump\t// in\ntag_4:\n    /* \"finger.sol\":166:7180  contract FingerGuess is Ownable{... */\n  jump(tag_8)\n    /* \"@openzeppelin/contracts/utils/Context.sol\":640:736  function _msgSender() internal view virtual returns (address) {... */\ntag_6:\n    /* \"@openzeppelin/contracts/utils/Context.sol\":693:700  address */\n  0x00\n    /* \"@openzeppelin/contracts/utils/Context.sol\":719:729  msg.sender */\n  caller\n    /* \"@openzeppelin/contracts/utils/Context.sol\":712:729  return msg.sender */\n  swap1\n  pop\n    /* \"@openzeppelin/contracts/utils/Context.sol\":640:736  function _msgSender() internal view virtual returns (address) {... */\n  swap1\n  jump\t// out\n    /* \"@openzeppelin/contracts/access/Ownable.sol\":2426:2613  function _transferOwnership(address newOwner) internal virtual {... */\ntag_7:\n    /* \"@openzeppelin/contracts/access/Ownable.sol\":2499:2515  address oldOwner */\n  0x00\n    /* \"@openzeppelin/contracts/access/Ownable.sol\":2518:2524  _owner */\n  dup1\n  0x00\n  swap1\n  sload\n  swap1\n  0x0100\n  exp\n  swap1\n  div\n  0xffffffffffffffffffffffffffffffffffffffff\n  and\n    /* \"@openzeppelin/contracts/access/Ownable.sol\":2499:2524  address oldOwner = _owner */\n  swap1\n  pop\n    /* \"@openzeppelin/contracts/access/Ownable.sol\":2543:2551  newOwner */\n  dup2\n    /* \"@openzeppelin/contracts/access/Ownable.sol\":2534:2540  _owner */\n  0x00\n  dup1\n    /* \"@openzeppelin/contracts/access/Ownable.sol\":2534:2551  _owner = newOwner */\n  0x0100\n  exp\n  dup2\n  sload\n  dup2\n  0xffffffffffffffffffffffffffffffffffffffff\n  mul\n  not\n  and\n  swap1\n  dup4\n  0xffffffffffffffffffffffffffffffffffffffff\n  and\n  mul\n  or\n  swap1\n  sstore\n  pop\n    /* \"@openzeppelin/contracts/access/Ownable.sol\":2597:2605  newOwner */\n  dup2\n    /* \"@openzeppelin/contracts/access/Ownable.sol\":2566:2606  OwnershipTransferred(oldOwner, newOwner) */\n  0xffffffffffffffffffffffffffffffffffffffff\n  and\n    /* \"@openzeppelin/contracts/access/Ownable.sol\":2587:2595  oldOwner */\n  dup2\n    /* \"@openzeppelin/contracts/access/Ownable.sol\":2566:2606  OwnershipTransferred(oldOwner, newOwner) */\n  0xffffffffffffffffffffffffffffffffffffffff\n  and\n  0x8be0079c531659141344cd1fd0a4f28419497f9722a3daafe3b4186f6b6457e0\n  mload(0x40)\n  mload(0x40)\n  dup1\n  swap2\n  sub\n  swap1\n  log3\n    /* \"@openzeppelin/contracts/access/Ownable.sol\":2489:2613  {... */\n  pop\n    /* \"@openzeppelin/contracts/access/Ownable.sol\":2426:2613  function _transferOwnership(address newOwner) internal virtual {... */\n  pop\n  jump\t// out\n    /* \"finger.sol\":166:7180  contract FingerGuess is Ownable{... */\ntag_8:\n  dataSize(sub_0)\n  dup1\n  dataOffset(sub_0)\n  0x00\n  codecopy\n  0x00\n  return\nstop\n\nsub_0: assembly {\n        /* \"finger.sol\":166:7180  contract FingerGuess is Ownable{... */\n      mstore(0x40, 0x80)\n      jumpi(tag_1, lt(calldatasize, 0x04))\n      shr(0xe0, calldataload(0x00))\n      dup1\n      0x4aaaa9c9\n      eq\n      tag_2\n      jumpi\n      dup1\n      0x715018a6\n      eq\n      tag_3\n      jumpi\n      dup1\n      0x8da5cb5b\n      eq\n      tag_4\n      jumpi\n      dup1\n      0xca99760e\n      eq\n      tag_5\n      jumpi\n      dup1\n      0xf2fde38b\n      eq\n      tag_6\n      jumpi\n    tag_1:\n      0x00\n      dup1\n      revert\n        /* \"finger.sol\":2945:3770  function joinGame(uint256 _gameId, FingerType[] calldata _guessResult)external payable {... */\n    tag_2:\n      tag_7\n      0x04\n      dup1\n      calldatasize\n      sub\n      dup2\n      add\n      swap1\n      tag_8\n      swap2\n      swap1\n      tag_9\n      jump\t// in\n    tag_8:\n      tag_10\n      jump\t// in\n    tag_7:\n      stop\n        /* \"@openzeppelin/contracts/access/Ownable.sol\":1824:1925  function renounceOwnership() public virtual onlyOwner {... */\n    tag_3:\n      callvalue\n      dup1\n      iszero\n      tag_11\n      jumpi\n      0x00\n      dup1\n      revert\n    tag_11:\n      pop\n      tag_12\n      tag_13\n      jump\t// in\n    tag_12:\n      stop\n        /* \"@openzeppelin/contracts/access/Ownable.sol\":1201:1286  function owner() public view virtual returns (address) {... */\n    tag_4:\n      callvalue\n      dup1\n      iszero\n      tag_14\n      jumpi\n      0x00\n      dup1\n      revert\n    tag_14:\n      pop\n      tag_15\n      tag_16\n      jump\t// in\n    tag_15:\n      mload(0x40)\n      tag_17\n      swap2\n      swap1\n      tag_18\n      jump\t// in\n    tag_17:\n      mload(0x40)\n      dup1\n      swap2\n      sub\n      swap1\n      return\n        /* \"finger.sol\":1089:1829  function startGame(address _tokenAddress, uint256 _bonus,uint256 _gameType,FingerType[] calldata _guessResult)external payable gameChecker(_tokenAddress,_bonus,_gameType,_guessResult) {... */\n    tag_5:\n      tag_19\n      0x04\n      dup1\n      calldatasize\n      sub\n      dup2\n      add\n      swap1\n      tag_20\n      swap2\n      swap1\n      tag_21\n      jump\t// in\n    tag_20:\n      tag_22\n      jump\t// in\n    tag_19:\n      stop\n        /* \"@openzeppelin/contracts/access/Ownable.sol\":2074:2272  function transferOwnership(address newOwner) public virtual onlyOwner {... */\n    tag_6:\n      callvalue\n      dup1\n      iszero\n      tag_23\n      jumpi\n      0x00\n      dup1\n      revert\n    tag_23:\n      pop\n      tag_24\n      0x04\n      dup1\n      calldatasize\n      sub\n      dup2\n      add\n      swap1\n      tag_25\n      swap2\n      swap1\n      tag_26\n      jump\t// in\n    tag_25:\n      tag_27\n      jump\t// in\n    tag_24:\n      stop\n        /* \"finger.sol\":2945:3770  function joinGame(uint256 _gameId, FingerType[] calldata _guessResult)external payable {... */\n    tag_10:\n        /* \"finger.sol\":3042:3060  Game storage _game */\n      0x00\n        /* \"finger.sol\":3063:3068  games */\n      0x04\n        /* \"finger.sol\":3069:3076  _gameId */\n      dup5\n        /* \"finger.sol\":3063:3077  games[_gameId] */\n      dup2\n      sload\n      dup2\n      lt\n      tag_29\n      jumpi\n      tag_30\n      tag_31\n      jump\t// in\n    tag_30:\n    tag_29:\n      swap1\n      0x00\n      mstore\n      keccak256(0x00, 0x20)\n      swap1\n      0x07\n      mul\n      add\n        /* \"finger.sol\":3042:3077  Game storage _game = games[_gameId] */\n      swap1\n      pop\n        /* \"finger.sol\":3120:3121  0 */\n      0x00\n        /* \"finger.sol\":3095:3122  _game.sponsor != address(0) */\n      0xffffffffffffffffffffffffffffffffffffffff\n      and\n        /* \"finger.sol\":3095:3100  _game */\n      dup2\n        /* \"finger.sol\":3095:3108  _game.sponsor */\n      0x00\n      add\n      0x00\n      swap1\n      sload\n      swap1\n      0x0100\n      exp\n      swap1\n      div\n      0xffffffffffffffffffffffffffffffffffffffff\n      and\n        /* \"finger.sol\":3095:3122  _game.sponsor != address(0) */\n      0xffffffffffffffffffffffffffffffffffffffff\n      and\n      sub\n        /* \"finger.sol\":3087:3142  require(_game.sponsor != address(0), \"Game not exists\") */\n      tag_33\n      jumpi\n      mload(0x40)\n      0x08c379a000000000000000000000000000000000000000000000000000000000\n      dup2\n      mstore\n      0x04\n      add\n      tag_34\n      swap1\n      tag_35\n      jump\t// in\n    tag_34:\n      mload(0x40)\n      dup1\n      swap2\n      sub\n      swap1\n      revert\n    tag_33:\n        /* \"finger.sol\":3176:3177  0 */\n      0x00\n        /* \"finger.sol\":3160:3165  _game */\n      dup2\n        /* \"finger.sol\":3160:3172  _game.status */\n      0x05\n      add\n      sload\n        /* \"finger.sol\":3160:3177  _game.status == 0 */\n      eq\n        /* \"finger.sol\":3152:3200  require(_game.status == 0, \"Game has been over\") */\n      tag_36\n      jumpi\n      mload(0x40)\n      0x08c379a000000000000000000000000000000000000000000000000000000000\n      dup2\n      mstore\n      0x04\n      add\n      tag_37\n      swap1\n      tag_38\n      jump\t// in\n    tag_37:\n      mload(0x40)\n      dup1\n      swap2\n      sub\n      swap1\n      revert\n    tag_36:\n        /* \"finger.sol\":3218:3264  checkFingerGuess(_game.gameType, _guessResult) */\n      tag_39\n        /* \"finger.sol\":3235:3240  _game */\n      dup2\n        /* \"finger.sol\":3235:3249  _game.gameType */\n      0x04\n      add\n      sload\n        /* \"finger.sol\":3251:3263  _guessResult */\n      dup5\n      dup5\n        /* \"finger.sol\":3218:3234  checkFingerGuess */\n      tag_40\n        /* \"finger.sol\":3218:3264  checkFingerGuess(_game.gameType, _guessResult) */\n      jump\t// in\n    tag_39:\n        /* \"finger.sol\":3210:3284  require(checkFingerGuess(_game.gameType, _guessResult), \"Guessing error\" ) */\n      tag_41\n      jumpi\n      mload(0x40)\n      0x08c379a000000000000000000000000000000000000000000000000000000000\n      dup2\n      mstore\n      0x04\n      add\n      tag_42\n      swap1\n      tag_43\n      jump\t// in\n    tag_42:\n      mload(0x40)\n      dup1\n      swap2\n      sub\n      swap1\n      revert\n    tag_41:\n        /* \"finger.sol\":3323:3351  FingerType[] storage fingers */\n      0x00\n        /* \"finger.sol\":3354:3365  guessResult */\n      0x01\n        /* \"finger.sol\":3354:3374  guessResult[_gameId] */\n      0x00\n        /* \"finger.sol\":3366:3373  _gameId */\n      dup7\n        /* \"finger.sol\":3354:3374  guessResult[_gameId] */\n      dup2\n      mstore\n      0x20\n      add\n      swap1\n      dup2\n      mstore\n      0x20\n      add\n      0x00\n      keccak256\n        /* \"finger.sol\":3323:3374  FingerType[] storage fingers = guessResult[_gameId] */\n      swap1\n      pop\n        /* \"finger.sol\":3397:3409  _guessResult */\n      dup4\n      dup4\n        /* \"finger.sol\":3410:3411  0 */\n      0x00\n        /* \"finger.sol\":3397:3412  _guessResult[0] */\n      dup2\n      dup2\n      lt\n      tag_44\n      jumpi\n      tag_45\n      tag_31\n      jump\t// in\n    tag_45:\n    tag_44:\n      swap1\n      pop\n      0x20\n      mul\n      add\n      0x20\n      dup2\n      add\n      swap1\n      tag_46\n      swap2\n      swap1\n      tag_47\n      jump\t// in\n    tag_46:\n        /* \"finger.sol\":3384:3391  fingers */\n      dup2\n        /* \"finger.sol\":3392:3393  3 */\n      0x03\n        /* \"finger.sol\":3384:3394  fingers[3] */\n      dup2\n      sload\n      dup2\n      lt\n      tag_48\n      jumpi\n      tag_49\n      tag_31\n      jump\t// in\n    tag_49:\n    tag_48:\n      swap1\n      0x00\n      mstore\n      keccak256(0x00, 0x20)\n      swap1\n      0x20\n      swap2\n      dup3\n      dup3\n      div\n      add\n      swap2\n      swap1\n      mod\n        /* \"finger.sol\":3384:3412  fingers[3] = _guessResult[0] */\n      0x0100\n      exp\n      dup2\n      sload\n      dup2\n      0xff\n      mul\n      not\n      and\n      swap1\n      dup4\n      0x03\n      dup2\n      gt\n      iszero\n      tag_51\n      jumpi\n      tag_52\n      tag_53\n      jump\t// in\n    tag_52:\n    tag_51:\n      mul\n      or\n      swap1\n      sstore\n      pop\n        /* \"finger.sol\":3435:3447  _guessResult */\n      dup4\n      dup4\n        /* \"finger.sol\":3448:3449  1 */\n      0x01\n        /* \"finger.sol\":3435:3450  _guessResult[1] */\n      dup2\n      dup2\n      lt\n      tag_54\n      jumpi\n      tag_55\n      tag_31\n      jump\t// in\n    tag_55:\n    tag_54:\n      swap1\n      pop\n      0x20\n      mul\n      add\n      0x20\n      dup2\n      add\n      swap1\n      tag_56\n      swap2\n      swap1\n      tag_47\n      jump\t// in\n    tag_56:\n        /* \"finger.sol\":3422:3429  fingers */\n      dup2\n        /* \"finger.sol\":3430:3431  4 */\n      0x04\n        /* \"finger.sol\":3422:3432  fingers[4] */\n      dup2\n      sload\n      dup2\n      lt\n      tag_57\n      jumpi\n      tag_58\n      tag_31\n      jump\t// in\n    tag_58:\n    tag_57:\n      swap1\n      0x00\n      mstore\n      keccak256(0x00, 0x20)\n      swap1\n      0x20\n      swap2\n      dup3\n      dup3\n      div\n      add\n      swap2\n      swap1\n      mod\n        /* \"finger.sol\":3422:3450  fingers[4] = _guessResult[1] */\n      0x0100\n      exp\n      dup2\n      sload\n      dup2\n      0xff\n      mul\n      not\n      and\n      swap1\n      dup4\n      0x03\n      dup2\n      gt\n      iszero\n      tag_60\n      jumpi\n      tag_61\n      tag_53\n      jump\t// in\n    tag_61:\n    tag_60:\n      mul\n      or\n      swap1\n      sstore\n      pop\n        /* \"finger.sol\":3473:3485  _guessResult */\n      dup4\n      dup4\n        /* \"finger.sol\":3486:3487  2 */\n      0x02\n        /* \"finger.sol\":3473:3488  _guessResult[2] */\n      dup2\n      dup2\n      lt\n      tag_62\n      jumpi\n      tag_63\n      tag_31\n      jump\t// in\n    tag_63:\n    tag_62:\n      swap1\n      pop\n      0x20\n      mul\n      add\n      0x20\n      dup2\n      add\n      swap1\n      tag_64\n      swap2\n      swap1\n      tag_47\n      jump\t// in\n    tag_64:\n        /* \"finger.sol\":3460:3467  fingers */\n      dup2\n        /* \"finger.sol\":3468:3469  5 */\n      0x05\n        /* \"finger.sol\":3460:3470  fingers[5] */\n      dup2\n      sload\n      dup2\n      lt\n      tag_65\n      jumpi\n      tag_66\n      tag_31\n      jump\t// in\n    tag_66:\n    tag_65:\n      swap1\n      0x00\n      mstore\n      keccak256(0x00, 0x20)\n      swap1\n      0x20\n      swap2\n      dup3\n      dup3\n      div\n      add\n      swap2\n      swap1\n      mod\n        /* \"finger.sol\":3460:3488  fingers[5] = _guessResult[2] */\n      0x0100\n      exp\n      dup2\n      sload\n      dup2\n      0xff\n      mul\n      not\n      and\n      swap1\n      dup4\n      0x03\n      dup2\n      gt\n      iszero\n      tag_68\n      jumpi\n      tag_69\n      tag_53\n      jump\t// in\n    tag_69:\n    tag_68:\n      mul\n      or\n      swap1\n      sstore\n      pop\n        /* \"finger.sol\":3531:3532  0 */\n      0x00\n        /* \"finger.sol\":3501:3533  _game.tokenAddress == address(0) */\n      0xffffffffffffffffffffffffffffffffffffffff\n      and\n        /* \"finger.sol\":3501:3506  _game */\n      dup3\n        /* \"finger.sol\":3501:3519  _game.tokenAddress */\n      0x02\n      add\n      0x00\n      swap1\n      sload\n      swap1\n      0x0100\n      exp\n      swap1\n      div\n      0xffffffffffffffffffffffffffffffffffffffff\n      and\n        /* \"finger.sol\":3501:3533  _game.tokenAddress == address(0) */\n      0xffffffffffffffffffffffffffffffffffffffff\n      and\n      sub\n        /* \"finger.sol\":3498:3688  if(_game.tokenAddress == address(0)){... */\n      tag_70\n      jumpi\n        /* \"finger.sol\":3569:3574  _game */\n      dup2\n        /* \"finger.sol\":3569:3580  _game.bonus */\n      0x03\n      add\n      sload\n        /* \"finger.sol\":3556:3565  msg.value */\n      callvalue\n        /* \"finger.sol\":3556:3580  msg.value >= _game.bonus */\n      lt\n      iszero\n        /* \"finger.sol\":3548:3604  require(msg.value >= _game.bonus, \"Insufficient amount\") */\n      tag_71\n      jumpi\n      mload(0x40)\n      0x08c379a000000000000000000000000000000000000000000000000000000000\n      dup2\n      mstore\n      0x04\n      add\n      tag_72\n      swap1\n      tag_73\n      jump\t// in\n    tag_72:\n      mload(0x40)\n      dup1\n      swap2\n      sub\n      swap1\n      revert\n    tag_71:\n        /* \"finger.sol\":3498:3688  if(_game.tokenAddress == address(0)){... */\n      jump(tag_74)\n    tag_70:\n        /* \"finger.sol\":3633:3677  reciveToken(_game.tokenAddress, _game.bonus) */\n      tag_75\n        /* \"finger.sol\":3645:3650  _game */\n      dup3\n        /* \"finger.sol\":3645:3663  _game.tokenAddress */\n      0x02\n      add\n      0x00\n      swap1\n      sload\n      swap1\n      0x0100\n      exp\n      swap1\n      div\n      0xffffffffffffffffffffffffffffffffffffffff\n      and\n        /* \"finger.sol\":3665:3670  _game */\n      dup4\n        /* \"finger.sol\":3665:3676  _game.bonus */\n      0x03\n      add\n      sload\n        /* \"finger.sol\":3633:3644  reciveToken */\n      tag_76\n        /* \"finger.sol\":3633:3677  reciveToken(_game.tokenAddress, _game.bonus) */\n      jump\t// in\n    tag_75:\n        /* \"finger.sol\":3498:3688  if(_game.tokenAddress == address(0)){... */\n    tag_74:\n        /* \"finger.sol\":3726:3754  compareLogic(_game, fingers) */\n      tag_77\n        /* \"finger.sol\":3739:3744  _game */\n      dup3\n        /* \"finger.sol\":3746:3753  fingers */\n      dup3\n        /* \"finger.sol\":3726:3738  compareLogic */\n      tag_78\n        /* \"finger.sol\":3726:3754  compareLogic(_game, fingers) */\n      jump\t// in\n    tag_77:\n        /* \"finger.sol\":3032:3770  {... */\n      pop\n      pop\n        /* \"finger.sol\":2945:3770  function joinGame(uint256 _gameId, FingerType[] calldata _guessResult)external payable {... */\n      pop\n      pop\n      pop\n      jump\t// out\n        /* \"@openzeppelin/contracts/access/Ownable.sol\":1824:1925  function renounceOwnership() public virtual onlyOwner {... */\n    tag_13:\n        /* \"@openzeppelin/contracts/access/Ownable.sol\":1094:1107  _checkOwner() */\n      tag_80\n        /* \"@openzeppelin/contracts/access/Ownable.sol\":1094:1105  _checkOwner */\n      tag_81\n        /* \"@openzeppelin/contracts/access/Ownable.sol\":1094:1107  _checkOwner() */\n      jump\t// in\n    tag_80:\n        /* \"@openzeppelin/contracts/access/Ownable.sol\":1888:1918  _transferOwnership(address(0)) */\n      tag_83\n        /* \"@openzeppelin/contracts/access/Ownable.sol\":1915:1916  0 */\n      0x00\n        /* \"@openzeppelin/contracts/access/Ownable.sol\":1888:1906  _transferOwnership */\n      tag_84\n        /* \"@openzeppelin/contracts/access/Ownable.sol\":1888:1918  _transferOwnership(address(0)) */\n      jump\t// in\n    tag_83:\n        /* \"@openzeppelin/contracts/access/Ownable.sol\":1824:1925  function renounceOwnership() public virtual onlyOwner {... */\n      jump\t// out\n        /* \"@openzeppelin/contracts/access/Ownable.sol\":1201:1286  function owner() public view virtual returns (address) {... */\n    tag_16:\n        /* \"@openzeppelin/contracts/access/Ownable.sol\":1247:1254  address */\n      0x00\n        /* \"@openzeppelin/contracts/access/Ownable.sol\":1273:1279  _owner */\n      dup1\n      0x00\n      swap1\n      sload\n      swap1\n      0x0100\n      exp\n      swap1\n      div\n      0xffffffffffffffffffffffffffffffffffffffff\n      and\n        /* \"@openzeppelin/contracts/access/Ownable.sol\":1266:1279  return _owner */\n      swap1\n      pop\n        /* \"@openzeppelin/contracts/access/Ownable.sol\":1201:1286  function owner() public view virtual returns (address) {... */\n      swap1\n      jump\t// out\n        /* \"finger.sol\":1089:1829  function startGame(address _tokenAddress, uint256 _bonus,uint256 _gameType,FingerType[] calldata _guessResult)external payable gameChecker(_tokenAddress,_bonus,_gameType,_guessResult) {... */\n    tag_22:\n        /* \"finger.sol\":1228:1241  _tokenAddress */\n      dup5\n        /* \"finger.sol\":1242:1248  _bonus */\n      dup5\n        /* \"finger.sol\":1249:1258  _gameType */\n      dup5\n        /* \"finger.sol\":1259:1271  _guessResult */\n      dup5\n      dup5\n        /* \"finger.sol\":6686:6687  0 */\n      0x00\n        /* \"finger.sol\":6661:6688  _tokenAddress != address(0) */\n      0xffffffffffffffffffffffffffffffffffffffff\n      and\n        /* \"finger.sol\":6661:6674  _tokenAddress */\n      dup6\n        /* \"finger.sol\":6661:6688  _tokenAddress != address(0) */\n      0xffffffffffffffffffffffffffffffffffffffff\n      and\n      eq\n      iszero\n        /* \"finger.sol\":6661:6702  _tokenAddress != address(0) && _bonus > 0 */\n      dup1\n      iszero\n      tag_87\n      jumpi\n      pop\n        /* \"finger.sol\":6701:6702  0 */\n      0x00\n        /* \"finger.sol\":6692:6698  _bonus */\n      dup5\n        /* \"finger.sol\":6692:6702  _bonus > 0 */\n      gt\n        /* \"finger.sol\":6661:6702  _tokenAddress != address(0) && _bonus > 0 */\n    tag_87:\n        /* \"finger.sol\":6660:6753  (_tokenAddress != address(0) && _bonus > 0) || (_tokenAddress == address(0) && msg.value >0 ) */\n      dup1\n      tag_88\n      jumpi\n      pop\n        /* \"finger.sol\":6733:6734  0 */\n      0x00\n        /* \"finger.sol\":6708:6735  _tokenAddress == address(0) */\n      0xffffffffffffffffffffffffffffffffffffffff\n      and\n        /* \"finger.sol\":6708:6721  _tokenAddress */\n      dup6\n        /* \"finger.sol\":6708:6735  _tokenAddress == address(0) */\n      0xffffffffffffffffffffffffffffffffffffffff\n      and\n      eq\n        /* \"finger.sol\":6708:6751  _tokenAddress == address(0) && msg.value >0 */\n      dup1\n      iszero\n      tag_89\n      jumpi\n      pop\n        /* \"finger.sol\":6750:6751  0 */\n      0x00\n        /* \"finger.sol\":6739:6748  msg.value */\n      callvalue\n        /* \"finger.sol\":6739:6751  msg.value >0 */\n      gt\n        /* \"finger.sol\":6708:6751  _tokenAddress == address(0) && msg.value >0 */\n    tag_89:\n        /* \"finger.sol\":6660:6753  (_tokenAddress != address(0) && _bonus > 0) || (_tokenAddress == address(0) && msg.value >0 ) */\n    tag_88:\n        /* \"finger.sol\":6652:6782  require((_tokenAddress != address(0) && _bonus > 0) || (_tokenAddress == address(0) && msg.value >0 ),\"Game bonus cannot be zero\") */\n      tag_90\n      jumpi\n      mload(0x40)\n      0x08c379a000000000000000000000000000000000000000000000000000000000\n      dup2\n      mstore\n      0x04\n      add\n      tag_91\n      swap1\n      tag_92\n      jump\t// in\n    tag_91:\n      mload(0x40)\n      dup1\n      swap2\n      sub\n      swap1\n      revert\n    tag_90:\n        /* \"finger.sol\":7004:7005  0 */\n      0x00\n        /* \"finger.sol\":6991:7000  _gameType */\n      dup4\n        /* \"finger.sol\":6991:7005  _gameType == 0 */\n      eq\n        /* \"finger.sol\":6991:7023  _gameType == 0 || _gameType == 1 */\n      dup1\n      tag_93\n      jumpi\n      pop\n        /* \"finger.sol\":7022:7023  1 */\n      0x01\n        /* \"finger.sol\":7009:7018  _gameType */\n      dup4\n        /* \"finger.sol\":7009:7023  _gameType == 1 */\n      eq\n        /* \"finger.sol\":6991:7023  _gameType == 0 || _gameType == 1 */\n    tag_93:\n        /* \"finger.sol\":6990:7069  (_gameType == 0 || _gameType == 1) && checkFingerGuess(_gameType, _guessResult) */\n      dup1\n      iszero\n      tag_94\n      jumpi\n      pop\n        /* \"finger.sol\":7028:7069  checkFingerGuess(_gameType, _guessResult) */\n      tag_95\n        /* \"finger.sol\":7045:7054  _gameType */\n      dup4\n        /* \"finger.sol\":7056:7068  _guessResult */\n      dup4\n      dup4\n        /* \"finger.sol\":7028:7044  checkFingerGuess */\n      tag_40\n        /* \"finger.sol\":7028:7069  checkFingerGuess(_gameType, _guessResult) */\n      jump\t// in\n    tag_95:\n        /* \"finger.sol\":6990:7069  (_gameType == 0 || _gameType == 1) && checkFingerGuess(_gameType, _guessResult) */\n    tag_94:\n        /* \"finger.sol\":6982:7089  require((_gameType == 0 || _gameType == 1) && checkFingerGuess(_gameType, _guessResult), \"Guessing error\" ) */\n      tag_96\n      jumpi\n      mload(0x40)\n      0x08c379a000000000000000000000000000000000000000000000000000000000\n      dup2\n      mstore\n      0x04\n      add\n      tag_97\n      swap1\n      tag_43\n      jump\t// in\n    tag_97:\n      mload(0x40)\n      dup1\n      swap2\n      sub\n      swap1\n      revert\n    tag_96:\n        /* \"finger.sol\":1283:1300  Game memory _game */\n      0x00\n        /* \"finger.sol\":1303:1591  Game({... */\n      mload(0x40)\n      dup1\n      0xe0\n      add\n      0x40\n      mstore\n      dup1\n        /* \"finger.sol\":1331:1341  msg.sender */\n      caller\n        /* \"finger.sol\":1303:1591  Game({... */\n      0xffffffffffffffffffffffffffffffffffffffff\n      and\n      dup2\n      mstore\n      0x20\n      add\n        /* \"finger.sol\":1371:1372  0 */\n      0x00\n        /* \"finger.sol\":1303:1591  Game({... */\n      0xffffffffffffffffffffffffffffffffffffffff\n      and\n      dup2\n      mstore\n      0x20\n      add\n        /* \"finger.sol\":1401:1414  _tokenAddress */\n      dup13\n        /* \"finger.sol\":1303:1591  Game({... */\n      0xffffffffffffffffffffffffffffffffffffffff\n      and\n      dup2\n      mstore\n      0x20\n      add\n        /* \"finger.sol\":1460:1461  0 */\n      0x00\n        /* \"finger.sol\":1435:1462  _tokenAddress == address(0) */\n      0xffffffffffffffffffffffffffffffffffffffff\n      and\n        /* \"finger.sol\":1435:1448  _tokenAddress */\n      dup14\n        /* \"finger.sol\":1435:1462  _tokenAddress == address(0) */\n      0xffffffffffffffffffffffffffffffffffffffff\n      and\n      eq\n        /* \"finger.sol\":1435:1483  _tokenAddress == address(0) ? msg.value : _bonus */\n      tag_99\n      jumpi\n        /* \"finger.sol\":1477:1483  _bonus */\n      dup12\n        /* \"finger.sol\":1435:1483  _tokenAddress == address(0) ? msg.value : _bonus */\n      jump(tag_100)\n    tag_99:\n        /* \"finger.sol\":1465:1474  msg.value */\n      callvalue\n        /* \"finger.sol\":1435:1483  _tokenAddress == address(0) ? msg.value : _bonus */\n    tag_100:\n        /* \"finger.sol\":1303:1591  Game({... */\n      dup2\n      mstore\n      0x20\n      add\n        /* \"finger.sol\":1507:1516  _gameType */\n      dup11\n        /* \"finger.sol\":1303:1591  Game({... */\n      dup2\n      mstore\n      0x20\n      add\n        /* \"finger.sol\":1538:1539  0 */\n      0x00\n        /* \"finger.sol\":1303:1591  Game({... */\n      dup2\n      mstore\n      0x20\n      add\n        /* \"finger.sol\":1565:1580  block.timestamp */\n      timestamp\n        /* \"finger.sol\":1303:1591  Game({... */\n      dup2\n      mstore\n      pop\n        /* \"finger.sol\":1283:1591  Game memory _game = Game({... */\n      swap1\n      pop\n        /* \"finger.sol\":1600:1605  games */\n      0x04\n        /* \"finger.sol\":1611:1616  _game */\n      dup2\n        /* \"finger.sol\":1600:1617  games.push(_game) */\n      swap1\n      dup1\n      0x01\n      dup2\n      sload\n      add\n      dup1\n      dup3\n      sstore\n      dup1\n      swap2\n      pop\n      pop\n      0x01\n      swap1\n      sub\n      swap1\n      0x00\n      mstore\n      keccak256(0x00, 0x20)\n      swap1\n      0x07\n      mul\n      add\n      0x00\n      swap1\n      swap2\n      swap1\n      swap2\n      swap1\n      swap2\n      pop\n      0x00\n      dup3\n      add\n      mload\n      dup2\n      0x00\n      add\n      exp(0x0100, 0x00)\n      dup2\n      sload\n      dup2\n      0xffffffffffffffffffffffffffffffffffffffff\n      mul\n      not\n      and\n      swap1\n      dup4\n      0xffffffffffffffffffffffffffffffffffffffff\n      and\n      mul\n      or\n      swap1\n      sstore\n      pop\n      0x20\n      dup3\n      add\n      mload\n      dup2\n      0x01\n      add\n      exp(0x0100, 0x00)\n      dup2\n      sload\n      dup2\n      0xffffffffffffffffffffffffffffffffffffffff\n      mul\n      not\n      and\n      swap1\n      dup4\n      0xffffffffffffffffffffffffffffffffffffffff\n      and\n      mul\n      or\n      swap1\n      sstore\n      pop\n      0x40\n      dup3\n      add\n      mload\n      dup2\n      0x02\n      add\n      exp(0x0100, 0x00)\n      dup2\n      sload\n      dup2\n      0xffffffffffffffffffffffffffffffffffffffff\n      mul\n      not\n      and\n      swap1\n      dup4\n      0xffffffffffffffffffffffffffffffffffffffff\n      and\n      mul\n      or\n      swap1\n      sstore\n      pop\n      0x60\n      dup3\n      add\n      mload\n      dup2\n      0x03\n      add\n      sstore\n      0x80\n      dup3\n      add\n      mload\n      dup2\n      0x04\n      add\n      sstore\n      0xa0\n      dup3\n      add\n      mload\n      dup2\n      0x05\n      add\n      sstore\n      0xc0\n      dup3\n      add\n      mload\n      dup2\n      0x06\n      add\n      sstore\n      pop\n      pop\n        /* \"finger.sol\":1680:1692  _guessResult */\n      dup8\n      dup8\n        /* \"finger.sol\":1650:1661  guessResult */\n      0x01\n        /* \"finger.sol\":1650:1677  guessResult[games.length-1] */\n      0x00\n        /* \"finger.sol\":1675:1676  1 */\n      0x01\n        /* \"finger.sol\":1662:1667  games */\n      0x04\n        /* \"finger.sol\":1662:1674  games.length */\n      dup1\n      sload\n      swap1\n      pop\n        /* \"finger.sol\":1662:1676  games.length-1 */\n      tag_102\n      swap2\n      swap1\n      tag_103\n      jump\t// in\n    tag_102:\n        /* \"finger.sol\":1650:1677  guessResult[games.length-1] */\n      dup2\n      mstore\n      0x20\n      add\n      swap1\n      dup2\n      mstore\n      0x20\n      add\n      0x00\n      keccak256\n        /* \"finger.sol\":1650:1692  guessResult[games.length-1] = _guessResult */\n      swap2\n      swap1\n      tag_104\n      swap3\n      swap2\n      swap1\n      tag_105\n      jump\t// in\n    tag_104:\n      pop\n        /* \"finger.sol\":1737:1771  reciveToken(_tokenAddress, _bonus) */\n      tag_106\n        /* \"finger.sol\":1749:1762  _tokenAddress */\n      dup12\n        /* \"finger.sol\":1764:1770  _bonus */\n      dup12\n        /* \"finger.sol\":1737:1748  reciveToken */\n      tag_76\n        /* \"finger.sol\":1737:1771  reciveToken(_tokenAddress, _bonus) */\n      jump\t// in\n    tag_106:\n        /* \"finger.sol\":1273:1829  {... */\n      pop\n        /* \"finger.sol\":1089:1829  function startGame(address _tokenAddress, uint256 _bonus,uint256 _gameType,FingerType[] calldata _guessResult)external payable gameChecker(_tokenAddress,_bonus,_gameType,_guessResult) {... */\n      pop\n      pop\n      pop\n      pop\n      pop\n      pop\n      pop\n      pop\n      pop\n      pop\n      jump\t// out\n        /* \"@openzeppelin/contracts/access/Ownable.sol\":2074:2272  function transferOwnership(address newOwner) public virtual onlyOwner {... */\n    tag_27:\n        /* \"@openzeppelin/contracts/access/Ownable.sol\":1094:1107  _checkOwner() */\n      tag_108\n        /* \"@openzeppelin/contracts/access/Ownable.sol\":1094:1105  _checkOwner */\n      tag_81\n        /* \"@openzeppelin/contracts/access/Ownable.sol\":1094:1107  _checkOwner() */\n      jump\t// in\n    tag_108:\n        /* \"@openzeppelin/contracts/access/Ownable.sol\":2182:2183  0 */\n      0x00\n        /* \"@openzeppelin/contracts/access/Ownable.sol\":2162:2184  newOwner != address(0) */\n      0xffffffffffffffffffffffffffffffffffffffff\n      and\n        /* \"@openzeppelin/contracts/access/Ownable.sol\":2162:2170  newOwner */\n      dup2\n        /* \"@openzeppelin/contracts/access/Ownable.sol\":2162:2184  newOwner != address(0) */\n      0xffffffffffffffffffffffffffffffffffffffff\n      and\n      sub\n        /* \"@openzeppelin/contracts/access/Ownable.sol\":2154:2227  require(newOwner != address(0), \"Ownable: new owner is the zero address\") */\n      tag_110\n      jumpi\n      mload(0x40)\n      0x08c379a000000000000000000000000000000000000000000000000000000000\n      dup2\n      mstore\n      0x04\n      add\n      tag_111\n      swap1\n      tag_112\n      jump\t// in\n    tag_111:\n      mload(0x40)\n      dup1\n      swap2\n      sub\n      swap1\n      revert\n    tag_110:\n        /* \"@openzeppelin/contracts/access/Ownable.sol\":2237:2265  _transferOwnership(newOwner) */\n      tag_113\n        /* \"@openzeppelin/contracts/access/Ownable.sol\":2256:2264  newOwner */\n      dup2\n        /* \"@openzeppelin/contracts/access/Ownable.sol\":2237:2255  _transferOwnership */\n      tag_84\n        /* \"@openzeppelin/contracts/access/Ownable.sol\":2237:2265  _transferOwnership(newOwner) */\n      jump\t// in\n    tag_113:\n        /* \"@openzeppelin/contracts/access/Ownable.sol\":2074:2272  function transferOwnership(address newOwner) public virtual onlyOwner {... */\n      pop\n      jump\t// out\n        /* \"finger.sol\":1859:2523  function checkFingerGuess(uint256 _gameType, FingerType[] calldata _guessResult)internal pure returns ( bool ) {... */\n    tag_40:\n        /* \"finger.sol\":1963:1967  bool */\n      0x00\n        /* \"finger.sol\":1980:1992  bool _result */\n      dup1\n        /* \"finger.sol\":1995:1999  true */\n      0x01\n        /* \"finger.sol\":1980:1999  bool _result = true */\n      swap1\n      pop\n        /* \"finger.sol\":2025:2026  0 */\n      0x00\n        /* \"finger.sol\":2012:2021  _gameType */\n      dup6\n        /* \"finger.sol\":2012:2026  _gameType == 0 */\n      sub\n        /* \"finger.sol\":2009:2177  if(_gameType == 0){... */\n      tag_115\n      jumpi\n        /* \"finger.sol\":2070:2088  FingerType.Scissor */\n      0x01\n        /* \"finger.sol\":2051:2088  _guessResult[0] == FingerType.Scissor */\n      0x03\n      dup2\n      gt\n      iszero\n      tag_116\n      jumpi\n      tag_117\n      tag_53\n      jump\t// in\n    tag_117:\n    tag_116:\n        /* \"finger.sol\":2051:2063  _guessResult */\n      dup5\n      dup5\n        /* \"finger.sol\":2064:2065  0 */\n      0x00\n        /* \"finger.sol\":2051:2066  _guessResult[0] */\n      dup2\n      dup2\n      lt\n      tag_118\n      jumpi\n      tag_119\n      tag_31\n      jump\t// in\n    tag_119:\n    tag_118:\n      swap1\n      pop\n      0x20\n      mul\n      add\n      0x20\n      dup2\n      add\n      swap1\n      tag_120\n      swap2\n      swap1\n      tag_47\n      jump\t// in\n    tag_120:\n        /* \"finger.sol\":2051:2088  _guessResult[0] == FingerType.Scissor */\n      0x03\n      dup2\n      gt\n      iszero\n      tag_121\n      jumpi\n      tag_122\n      tag_53\n      jump\t// in\n    tag_122:\n    tag_121:\n      eq\n        /* \"finger.sol\":2051:2127  _guessResult[0] == FingerType.Scissor || _guessResult[0] == FingerType.Stone */\n      dup1\n      tag_123\n      jumpi\n      pop\n        /* \"finger.sol\":2111:2127  FingerType.Stone */\n      0x02\n        /* \"finger.sol\":2092:2127  _guessResult[0] == FingerType.Stone */\n      0x03\n      dup2\n      gt\n      iszero\n      tag_124\n      jumpi\n      tag_125\n      tag_53\n      jump\t// in\n    tag_125:\n    tag_124:\n        /* \"finger.sol\":2092:2104  _guessResult */\n      dup5\n      dup5\n        /* \"finger.sol\":2105:2106  0 */\n      0x00\n        /* \"finger.sol\":2092:2107  _guessResult[0] */\n      dup2\n      dup2\n      lt\n      tag_126\n      jumpi\n      tag_127\n      tag_31\n      jump\t// in\n    tag_127:\n    tag_126:\n      swap1\n      pop\n      0x20\n      mul\n      add\n      0x20\n      dup2\n      add\n      swap1\n      tag_128\n      swap2\n      swap1\n      tag_47\n      jump\t// in\n    tag_128:\n        /* \"finger.sol\":2092:2127  _guessResult[0] == FingerType.Stone */\n      0x03\n      dup2\n      gt\n      iszero\n      tag_129\n      jumpi\n      tag_130\n      tag_53\n      jump\t// in\n    tag_130:\n    tag_129:\n      eq\n        /* \"finger.sol\":2051:2127  _guessResult[0] == FingerType.Scissor || _guessResult[0] == FingerType.Stone */\n    tag_123:\n        /* \"finger.sol\":2051:2166  _guessResult[0] == FingerType.Scissor || _guessResult[0] == FingerType.Stone || _guessResult[0] == FingerType.Cloth */\n      dup1\n      tag_131\n      jumpi\n      pop\n        /* \"finger.sol\":2150:2166  FingerType.Cloth */\n      0x03\n        /* \"finger.sol\":2131:2166  _guessResult[0] == FingerType.Cloth */\n      dup1\n      dup2\n      gt\n      iszero\n      tag_132\n      jumpi\n      tag_133\n      tag_53\n      jump\t// in\n    tag_133:\n    tag_132:\n        /* \"finger.sol\":2131:2143  _guessResult */\n      dup5\n      dup5\n        /* \"finger.sol\":2144:2145  0 */\n      0x00\n        /* \"finger.sol\":2131:2146  _guessResult[0] */\n      dup2\n      dup2\n      lt\n      tag_134\n      jumpi\n      tag_135\n      tag_31\n      jump\t// in\n    tag_135:\n    tag_134:\n      swap1\n      pop\n      0x20\n      mul\n      add\n      0x20\n      dup2\n      add\n      swap1\n      tag_136\n      swap2\n      swap1\n      tag_47\n      jump\t// in\n    tag_136:\n        /* \"finger.sol\":2131:2166  _guessResult[0] == FingerType.Cloth */\n      0x03\n      dup2\n      gt\n      iszero\n      tag_137\n      jumpi\n      tag_138\n      tag_53\n      jump\t// in\n    tag_138:\n    tag_137:\n      eq\n        /* \"finger.sol\":2051:2166  _guessResult[0] == FingerType.Scissor || _guessResult[0] == FingerType.Stone || _guessResult[0] == FingerType.Cloth */\n    tag_131:\n        /* \"finger.sol\":2041:2166  _result = _guessResult[0] == FingerType.Scissor || _guessResult[0] == FingerType.Stone || _guessResult[0] == FingerType.Cloth */\n      swap1\n      pop\n        /* \"finger.sol\":2009:2177  if(_gameType == 0){... */\n    tag_115:\n        /* \"finger.sol\":2202:2203  1 */\n      0x01\n        /* \"finger.sol\":2189:2198  _gameType */\n      dup6\n        /* \"finger.sol\":2189:2203  _gameType == 1 */\n      sub\n        /* \"finger.sol\":2186:2485  if(_gameType == 1){... */\n      tag_139\n      jumpi\n        /* \"finger.sol\":2222:2231  uint256 i */\n      0x00\n        /* \"finger.sol\":2218:2475  for(uint256 i=0;i<3;i++){... */\n    tag_140:\n        /* \"finger.sol\":2236:2237  3 */\n      0x03\n        /* \"finger.sol\":2234:2235  i */\n      dup2\n        /* \"finger.sol\":2234:2237  i<3 */\n      lt\n        /* \"finger.sol\":2218:2475  for(uint256 i=0;i<3;i++){... */\n      iszero\n      tag_141\n      jumpi\n        /* \"finger.sol\":2289:2307  FingerType.Scissor */\n      0x01\n        /* \"finger.sol\":2270:2307  _guessResult[i] == FingerType.Scissor */\n      0x03\n      dup2\n      gt\n      iszero\n      tag_143\n      jumpi\n      tag_144\n      tag_53\n      jump\t// in\n    tag_144:\n    tag_143:\n        /* \"finger.sol\":2270:2282  _guessResult */\n      dup6\n      dup6\n        /* \"finger.sol\":2283:2284  i */\n      dup4\n        /* \"finger.sol\":2270:2285  _guessResult[i] */\n      dup2\n      dup2\n      lt\n      tag_145\n      jumpi\n      tag_146\n      tag_31\n      jump\t// in\n    tag_146:\n    tag_145:\n      swap1\n      pop\n      0x20\n      mul\n      add\n      0x20\n      dup2\n      add\n      swap1\n      tag_147\n      swap2\n      swap1\n      tag_47\n      jump\t// in\n    tag_147:\n        /* \"finger.sol\":2270:2307  _guessResult[i] == FingerType.Scissor */\n      0x03\n      dup2\n      gt\n      iszero\n      tag_148\n      jumpi\n      tag_149\n      tag_53\n      jump\t// in\n    tag_149:\n    tag_148:\n      eq\n        /* \"finger.sol\":2270:2346  _guessResult[i] == FingerType.Scissor || _guessResult[i] == FingerType.Stone */\n      dup1\n      tag_150\n      jumpi\n      pop\n        /* \"finger.sol\":2330:2346  FingerType.Stone */\n      0x02\n        /* \"finger.sol\":2311:2346  _guessResult[i] == FingerType.Stone */\n      0x03\n      dup2\n      gt\n      iszero\n      tag_151\n      jumpi\n      tag_152\n      tag_53\n      jump\t// in\n    tag_152:\n    tag_151:\n        /* \"finger.sol\":2311:2323  _guessResult */\n      dup6\n      dup6\n        /* \"finger.sol\":2324:2325  i */\n      dup4\n        /* \"finger.sol\":2311:2326  _guessResult[i] */\n      dup2\n      dup2\n      lt\n      tag_153\n      jumpi\n      tag_154\n      tag_31\n      jump\t// in\n    tag_154:\n    tag_153:\n      swap1\n      pop\n      0x20\n      mul\n      add\n      0x20\n      dup2\n      add\n      swap1\n      tag_155\n      swap2\n      swap1\n      tag_47\n      jump\t// in\n    tag_155:\n        /* \"finger.sol\":2311:2346  _guessResult[i] == FingerType.Stone */\n      0x03\n      dup2\n      gt\n      iszero\n      tag_156\n      jumpi\n      tag_157\n      tag_53\n      jump\t// in\n    tag_157:\n    tag_156:\n      eq\n        /* \"finger.sol\":2270:2346  _guessResult[i] == FingerType.Scissor || _guessResult[i] == FingerType.Stone */\n    tag_150:\n        /* \"finger.sol\":2270:2385  _guessResult[i] == FingerType.Scissor || _guessResult[i] == FingerType.Stone || _guessResult[i] == FingerType.Cloth */\n      dup1\n      tag_158\n      jumpi\n      pop\n        /* \"finger.sol\":2369:2385  FingerType.Cloth */\n      0x03\n        /* \"finger.sol\":2350:2385  _guessResult[i] == FingerType.Cloth */\n      dup1\n      dup2\n      gt\n      iszero\n      tag_159\n      jumpi\n      tag_160\n      tag_53\n      jump\t// in\n    tag_160:\n    tag_159:\n        /* \"finger.sol\":2350:2362  _guessResult */\n      dup6\n      dup6\n        /* \"finger.sol\":2363:2364  i */\n      dup4\n        /* \"finger.sol\":2350:2365  _guessResult[i] */\n      dup2\n      dup2\n      lt\n      tag_161\n      jumpi\n      tag_162\n      tag_31\n      jump\t// in\n    tag_162:\n    tag_161:\n      swap1\n      pop\n      0x20\n      mul\n      add\n      0x20\n      dup2\n      add\n      swap1\n      tag_163\n      swap2\n      swap1\n      tag_47\n      jump\t// in\n    tag_163:\n        /* \"finger.sol\":2350:2385  _guessResult[i] == FingerType.Cloth */\n      0x03\n      dup2\n      gt\n      iszero\n      tag_164\n      jumpi\n      tag_165\n      tag_53\n      jump\t// in\n    tag_165:\n    tag_164:\n      eq\n        /* \"finger.sol\":2270:2385  _guessResult[i] == FingerType.Scissor || _guessResult[i] == FingerType.Stone || _guessResult[i] == FingerType.Cloth */\n    tag_158:\n        /* \"finger.sol\":2260:2385  _result = _guessResult[i] == FingerType.Scissor || _guessResult[i] == FingerType.Stone || _guessResult[i] == FingerType.Cloth */\n      swap2\n      pop\n        /* \"finger.sol\":2407:2414  _result */\n      dup2\n        /* \"finger.sol\":2403:2461  if(!_result){... */\n      iszero\n        /* \"finger.sol\":2437:2442  break */\n      tag_141\n        /* \"finger.sol\":2403:2461  if(!_result){... */\n      jumpi\n        /* \"finger.sol\":2238:2241  i++ */\n      dup1\n      dup1\n      tag_167\n      swap1\n      tag_168\n      jump\t// in\n    tag_167:\n      swap2\n      pop\n      pop\n        /* \"finger.sol\":2218:2475  for(uint256 i=0;i<3;i++){... */\n      jump(tag_140)\n    tag_141:\n      pop\n        /* \"finger.sol\":2186:2485  if(_gameType == 1){... */\n    tag_139:\n        /* \"finger.sol\":2501:2508  _result */\n      dup1\n        /* \"finger.sol\":2494:2508  return _result */\n      swap2\n      pop\n      pop\n        /* \"finger.sol\":1859:2523  function checkFingerGuess(uint256 _gameType, FingerType[] calldata _guessResult)internal pure returns ( bool ) {... */\n      swap4\n      swap3\n      pop\n      pop\n      pop\n      jump\t// out\n        /* \"finger.sol\":2552:2915  function reciveToken(address _tokenAddress, uint256 _bonus)internal {... */\n    tag_76:\n        /* \"finger.sol\":2715:2716  0 */\n      0x00\n        /* \"finger.sol\":2690:2717  _tokenAddress != address(0) */\n      0xffffffffffffffffffffffffffffffffffffffff\n      and\n        /* \"finger.sol\":2690:2703  _tokenAddress */\n      dup3\n        /* \"finger.sol\":2690:2717  _tokenAddress != address(0) */\n      0xffffffffffffffffffffffffffffffffffffffff\n      and\n      eq\n        /* \"finger.sol\":2687:2909  if(_tokenAddress != address(0)){... */\n      tag_170\n      jumpi\n        /* \"finger.sol\":2732:2743  ERC20 token */\n      0x00\n        /* \"finger.sol\":2752:2765  _tokenAddress */\n      dup3\n        /* \"finger.sol\":2732:2766  ERC20 token = ERC20(_tokenAddress) */\n      swap1\n      pop\n        /* \"finger.sol\":2780:2796  uint256 _decimal */\n      0x00\n        /* \"finger.sol\":2799:2804  token */\n      dup2\n        /* \"finger.sol\":2799:2813  token.decimals */\n      0xffffffffffffffffffffffffffffffffffffffff\n      and\n      0x313ce567\n        /* \"finger.sol\":2799:2815  token.decimals() */\n      mload(0x40)\n      dup2\n      0xffffffff\n      and\n      0xe0\n      shl\n      dup2\n      mstore\n      0x04\n      add\n      0x20\n      mload(0x40)\n      dup1\n      dup4\n      sub\n      dup2\n      dup7\n      gas\n      staticcall\n      iszero\n      dup1\n      iszero\n      tag_172\n      jumpi\n      returndatasize\n      0x00\n      dup1\n      returndatacopy\n      revert(0x00, returndatasize)\n    tag_172:\n      pop\n      pop\n      pop\n      pop\n      mload(0x40)\n      returndatasize\n      not(0x1f)\n      0x1f\n      dup3\n      add\n      and\n      dup3\n      add\n      dup1\n      0x40\n      mstore\n      pop\n      dup2\n      add\n      swap1\n      tag_173\n      swap2\n      swap1\n      tag_174\n      jump\t// in\n    tag_173:\n        /* \"finger.sol\":2780:2815  uint256 _decimal = token.decimals() */\n      0xff\n      and\n      swap1\n      pop\n        /* \"finger.sol\":2829:2834  token */\n      dup2\n        /* \"finger.sol\":2829:2847  token.transferFrom */\n      0xffffffffffffffffffffffffffffffffffffffff\n      and\n      0x23b872dd\n        /* \"finger.sol\":2848:2858  msg.sender */\n      caller\n        /* \"finger.sol\":2868:2872  this */\n      address\n        /* \"finger.sol\":2889:2897  _decimal */\n      dup5\n        /* \"finger.sol\":2884:2886  10 */\n      0x0a\n        /* \"finger.sol\":2884:2897  10 **_decimal */\n      tag_175\n      swap2\n      swap1\n      tag_176\n      jump\t// in\n    tag_175:\n        /* \"finger.sol\":2875:2881  _bonus */\n      dup8\n        /* \"finger.sol\":2875:2897  _bonus * 10 **_decimal */\n      tag_177\n      swap2\n      swap1\n      tag_178\n      jump\t// in\n    tag_177:\n        /* \"finger.sol\":2829:2898  token.transferFrom(msg.sender, address(this), _bonus * 10 **_decimal) */\n      mload(0x40)\n      dup5\n      0xffffffff\n      and\n      0xe0\n      shl\n      dup2\n      mstore\n      0x04\n      add\n      tag_179\n      swap4\n      swap3\n      swap2\n      swap1\n      tag_180\n      jump\t// in\n    tag_179:\n      0x20\n      mload(0x40)\n      dup1\n      dup4\n      sub\n      dup2\n      0x00\n      dup8\n      gas\n      call\n      iszero\n      dup1\n      iszero\n      tag_182\n      jumpi\n      returndatasize\n      0x00\n      dup1\n      returndatacopy\n      revert(0x00, returndatasize)\n    tag_182:\n      pop\n      pop\n      pop\n      pop\n      mload(0x40)\n      returndatasize\n      not(0x1f)\n      0x1f\n      dup3\n      add\n      and\n      dup3\n      add\n      dup1\n      0x40\n      mstore\n      pop\n      dup2\n      add\n      swap1\n      tag_183\n      swap2\n      swap1\n      tag_184\n      jump\t// in\n    tag_183:\n      pop\n        /* \"finger.sol\":2718:2909  {... */\n      pop\n      pop\n        /* \"finger.sol\":2687:2909  if(_tokenAddress != address(0)){... */\n    tag_170:\n        /* \"finger.sol\":2552:2915  function reciveToken(address _tokenAddress, uint256 _bonus)internal {... */\n      pop\n      pop\n      jump\t// out\n        /* \"finger.sol\":3788:4657  function compareLogic(Game storage _game, FingerType[] storage _guessResult )internal {... */\n    tag_78:\n        /* \"finger.sol\":3884:3899  uint256 _result */\n      0x00\n        /* \"finger.sol\":3957:3958  0 */\n      dup1\n        /* \"finger.sol\":3939:3944  _game */\n      dup4\n        /* \"finger.sol\":3939:3953  _game.gameType */\n      0x04\n      add\n      sload\n        /* \"finger.sol\":3939:3958  _game.gameType == 0 */\n      sub\n        /* \"finger.sol\":3936:4616  if(_game.gameType == 0){... */\n      tag_186\n      jumpi\n        /* \"finger.sol\":3983:4027  guessLogic(_guessResult[0], _guessResult[3]) */\n      tag_187\n        /* \"finger.sol\":3994:4006  _guessResult */\n      dup3\n        /* \"finger.sol\":4007:4008  0 */\n      0x00\n        /* \"finger.sol\":3994:4009  _guessResult[0] */\n      dup2\n      sload\n      dup2\n      lt\n      tag_188\n      jumpi\n      tag_189\n      tag_31\n      jump\t// in\n    tag_189:\n    tag_188:\n      swap1\n      0x00\n      mstore\n      keccak256(0x00, 0x20)\n      swap1\n      0x20\n      swap2\n      dup3\n      dup3\n      div\n      add\n      swap2\n      swap1\n      mod\n      swap1\n      sload\n      swap1\n      0x0100\n      exp\n      swap1\n      div\n      0xff\n      and\n        /* \"finger.sol\":4011:4023  _guessResult */\n      dup4\n        /* \"finger.sol\":4024:4025  3 */\n      0x03\n        /* \"finger.sol\":4011:4026  _guessResult[3] */\n      dup2\n      sload\n      dup2\n      lt\n      tag_191\n      jumpi\n      tag_192\n      tag_31\n      jump\t// in\n    tag_192:\n    tag_191:\n      swap1\n      0x00\n      mstore\n      keccak256(0x00, 0x20)\n      swap1\n      0x20\n      swap2\n      dup3\n      dup3\n      div\n      add\n      swap2\n      swap1\n      mod\n      swap1\n      sload\n      swap1\n      0x0100\n      exp\n      swap1\n      div\n      0xff\n      and\n        /* \"finger.sol\":3983:3993  guessLogic */\n      tag_194\n        /* \"finger.sol\":3983:4027  guessLogic(_guessResult[0], _guessResult[3]) */\n      jump\t// in\n    tag_187:\n        /* \"finger.sol\":3973:4027  _result = guessLogic(_guessResult[0], _guessResult[3]) */\n      swap1\n      pop\n        /* \"finger.sol\":3936:4616  if(_game.gameType == 0){... */\n      jump(tag_195)\n    tag_186:\n        /* \"finger.sol\":4056:4066  uint256 _a */\n      0x00\n        /* \"finger.sol\":4084:4094  uint256 _b */\n      dup1\n        /* \"finger.sol\":4165:4174  uint256 i */\n      0x00\n        /* \"finger.sol\":4161:4426  for(uint256 i=0;i<3;i++){... */\n    tag_196:\n        /* \"finger.sol\":4179:4180  3 */\n      0x03\n        /* \"finger.sol\":4177:4178  i */\n      dup2\n        /* \"finger.sol\":4177:4180  i<3 */\n      lt\n        /* \"finger.sol\":4161:4426  for(uint256 i=0;i<3;i++){... */\n      iszero\n      tag_197\n      jumpi\n        /* \"finger.sol\":4214:4260  guessLogic(_guessResult[i], _guessResult[i+3]) */\n      tag_199\n        /* \"finger.sol\":4225:4237  _guessResult */\n      dup6\n        /* \"finger.sol\":4238:4239  i */\n      dup3\n        /* \"finger.sol\":4225:4240  _guessResult[i] */\n      dup2\n      sload\n      dup2\n      lt\n      tag_200\n      jumpi\n      tag_201\n      tag_31\n      jump\t// in\n    tag_201:\n    tag_200:\n      swap1\n      0x00\n      mstore\n      keccak256(0x00, 0x20)\n      swap1\n      0x20\n      swap2\n      dup3\n      dup3\n      div\n      add\n      swap2\n      swap1\n      mod\n      swap1\n      sload\n      swap1\n      0x0100\n      exp\n      swap1\n      div\n      0xff\n      and\n        /* \"finger.sol\":4242:4254  _guessResult */\n      dup7\n        /* \"finger.sol\":4257:4258  3 */\n      0x03\n        /* \"finger.sol\":4255:4256  i */\n      dup5\n        /* \"finger.sol\":4255:4258  i+3 */\n      tag_203\n      swap2\n      swap1\n      tag_204\n      jump\t// in\n    tag_203:\n        /* \"finger.sol\":4242:4259  _guessResult[i+3] */\n      dup2\n      sload\n      dup2\n      lt\n      tag_205\n      jumpi\n      tag_206\n      tag_31\n      jump\t// in\n    tag_206:\n    tag_205:\n      swap1\n      0x00\n      mstore\n      keccak256(0x00, 0x20)\n      swap1\n      0x20\n      swap2\n      dup3\n      dup3\n      div\n      add\n      swap2\n      swap1\n      mod\n      swap1\n      sload\n      swap1\n      0x0100\n      exp\n      swap1\n      div\n      0xff\n      and\n        /* \"finger.sol\":4214:4224  guessLogic */\n      tag_194\n        /* \"finger.sol\":4214:4260  guessLogic(_guessResult[i], _guessResult[i+3]) */\n      jump\t// in\n    tag_199:\n        /* \"finger.sol\":4204:4260  _result = guessLogic(_guessResult[i], _guessResult[i+3]) */\n      swap4\n      pop\n        /* \"finger.sol\":4293:4294  1 */\n      0x01\n        /* \"finger.sol\":4282:4289  _result */\n      dup5\n        /* \"finger.sol\":4282:4294  _result == 1 */\n      sub\n        /* \"finger.sol\":4279:4412  if(_result == 1){... */\n      tag_208\n      jumpi\n        /* \"finger.sol\":4322:4323  1 */\n      0x01\n        /* \"finger.sol\":4318:4323  _a+=1 */\n      dup4\n      tag_209\n      swap2\n      swap1\n      tag_204\n      jump\t// in\n    tag_209:\n      swap3\n      pop\n        /* \"finger.sol\":4279:4412  if(_result == 1){... */\n      jump(tag_210)\n    tag_208:\n        /* \"finger.sol\":4362:4363  1 */\n      0x01\n        /* \"finger.sol\":4351:4358  _result */\n      dup5\n        /* \"finger.sol\":4351:4363  _result == 1 */\n      sub\n        /* \"finger.sol\":4348:4412  if(_result == 1){... */\n      tag_211\n      jumpi\n        /* \"finger.sol\":4391:4392  1 */\n      0x01\n        /* \"finger.sol\":4387:4392  _b+=1 */\n      dup3\n      tag_212\n      swap2\n      swap1\n      tag_204\n      jump\t// in\n    tag_212:\n      swap2\n      pop\n        /* \"finger.sol\":4348:4412  if(_result == 1){... */\n    tag_211:\n        /* \"finger.sol\":4279:4412  if(_result == 1){... */\n    tag_210:\n        /* \"finger.sol\":4181:4184  i++ */\n      dup1\n      dup1\n      tag_213\n      swap1\n      tag_168\n      jump\t// in\n    tag_213:\n      swap2\n      pop\n      pop\n        /* \"finger.sol\":4161:4426  for(uint256 i=0;i<3;i++){... */\n      jump(tag_196)\n    tag_197:\n      pop\n        /* \"finger.sol\":4042:4616  {... */\n      pop\n      pop\n        /* \"finger.sol\":3936:4616  if(_game.gameType == 0){... */\n    tag_195:\n        /* \"finger.sol\":4625:4650  sendToken(_game, _result) */\n      tag_218\n        /* \"finger.sol\":4635:4640  _game */\n      dup4\n        /* \"finger.sol\":4642:4649  _result */\n      dup3\n        /* \"finger.sol\":4625:4634  sendToken */\n      tag_219\n        /* \"finger.sol\":4625:4650  sendToken(_game, _result) */\n      jump\t// in\n    tag_218:\n        /* \"finger.sol\":3874:4657  {... */\n      pop\n        /* \"finger.sol\":3788:4657  function compareLogic(Game storage _game, FingerType[] storage _guessResult )internal {... */\n      pop\n      pop\n      jump\t// out\n        /* \"@openzeppelin/contracts/access/Ownable.sol\":1359:1489  function _checkOwner() internal view virtual {... */\n    tag_81:\n        /* \"@openzeppelin/contracts/access/Ownable.sol\":1433:1445  _msgSender() */\n      tag_221\n        /* \"@openzeppelin/contracts/access/Ownable.sol\":1433:1443  _msgSender */\n      tag_222\n        /* \"@openzeppelin/contracts/access/Ownable.sol\":1433:1445  _msgSender() */\n      jump\t// in\n    tag_221:\n        /* \"@openzeppelin/contracts/access/Ownable.sol\":1422:1445  owner() == _msgSender() */\n      0xffffffffffffffffffffffffffffffffffffffff\n      and\n        /* \"@openzeppelin/contracts/access/Ownable.sol\":1422:1429  owner() */\n      tag_223\n        /* \"@openzeppelin/contracts/access/Ownable.sol\":1422:1427  owner */\n      tag_16\n        /* \"@openzeppelin/contracts/access/Ownable.sol\":1422:1429  owner() */\n      jump\t// in\n    tag_223:\n        /* \"@openzeppelin/contracts/access/Ownable.sol\":1422:1445  owner() == _msgSender() */\n      0xffffffffffffffffffffffffffffffffffffffff\n      and\n      eq\n        /* \"@openzeppelin/contracts/access/Ownable.sol\":1414:1482  require(owner() == _msgSender(), \"Ownable: caller is not the owner\") */\n      tag_224\n      jumpi\n      mload(0x40)\n      0x08c379a000000000000000000000000000000000000000000000000000000000\n      dup2\n      mstore\n      0x04\n      add\n      tag_225\n      swap1\n      tag_226\n      jump\t// in\n    tag_225:\n      mload(0x40)\n      dup1\n      swap2\n      sub\n      swap1\n      revert\n    tag_224:\n        /* \"@openzeppelin/contracts/access/Ownable.sol\":1359:1489  function _checkOwner() internal view virtual {... */\n      jump\t// out\n        /* \"@openzeppelin/contracts/access/Ownable.sol\":2426:2613  function _transferOwnership(address newOwner) internal virtual {... */\n    tag_84:\n        /* \"@openzeppelin/contracts/access/Ownable.sol\":2499:2515  address oldOwner */\n      0x00\n        /* \"@openzeppelin/contracts/access/Ownable.sol\":2518:2524  _owner */\n      dup1\n      0x00\n      swap1\n      sload\n      swap1\n      0x0100\n      exp\n      swap1\n      div\n      0xffffffffffffffffffffffffffffffffffffffff\n      and\n        /* \"@openzeppelin/contracts/access/Ownable.sol\":2499:2524  address oldOwner = _owner */\n      swap1\n      pop\n        /* \"@openzeppelin/contracts/access/Ownable.sol\":2543:2551  newOwner */\n      dup2\n        /* \"@openzeppelin/contracts/access/Ownable.sol\":2534:2540  _owner */\n      0x00\n      dup1\n        /* \"@openzeppelin/contracts/access/Ownable.sol\":2534:2551  _owner = newOwner */\n      0x0100\n      exp\n      dup2\n      sload\n      dup2\n      0xffffffffffffffffffffffffffffffffffffffff\n      mul\n      not\n      and\n      swap1\n      dup4\n      0xffffffffffffffffffffffffffffffffffffffff\n      and\n      mul\n      or\n      swap1\n      sstore\n      pop\n        /* \"@openzeppelin/contracts/access/Ownable.sol\":2597:2605  newOwner */\n      dup2\n        /* \"@openzeppelin/contracts/access/Ownable.sol\":2566:2606  OwnershipTransferred(oldOwner, newOwner) */\n      0xffffffffffffffffffffffffffffffffffffffff\n      and\n        /* \"@openzeppelin/contracts/access/Ownable.sol\":2587:2595  oldOwner */\n      dup2\n        /* \"@openzeppelin/contracts/access/Ownable.sol\":2566:2606  OwnershipTransferred(oldOwner, newOwner) */\n      0xffffffffffffffffffffffffffffffffffffffff\n      and\n      0x8be0079c531659141344cd1fd0a4f28419497f9722a3daafe3b4186f6b6457e0\n      mload(0x40)\n      mload(0x40)\n      dup1\n      swap2\n      sub\n      swap1\n      log3\n        /* \"@openzeppelin/contracts/access/Ownable.sol\":2489:2613  {... */\n      pop\n        /* \"@openzeppelin/contracts/access/Ownable.sol\":2426:2613  function _transferOwnership(address newOwner) internal virtual {... */\n      pop\n      jump\t// out\n        /* \"finger.sol\":6233:6500  function guessLogic(FingerType a, FingerType b)internal pure returns (uint256){... */\n    tag_194:\n        /* \"finger.sol\":6303:6310  uint256 */\n      0x00\n        /* \"finger.sol\":6329:6330  b */\n      dup2\n        /* \"finger.sol\":6324:6330  a == b */\n      0x03\n      dup2\n      gt\n      iszero\n      tag_229\n      jumpi\n      tag_230\n      tag_53\n      jump\t// in\n    tag_230:\n    tag_229:\n        /* \"finger.sol\":6324:6325  a */\n      dup4\n        /* \"finger.sol\":6324:6330  a == b */\n      0x03\n      dup2\n      gt\n      iszero\n      tag_231\n      jumpi\n      tag_232\n      tag_53\n      jump\t// in\n    tag_232:\n    tag_231:\n      sub\n        /* \"finger.sol\":6321:6494  if(a == b){... */\n      tag_233\n      jumpi\n        /* \"finger.sol\":6352:6353  0 */\n      0x00\n        /* \"finger.sol\":6345:6353  return 0 */\n      swap1\n      pop\n      jump(tag_228)\n        /* \"finger.sol\":6321:6494  if(a == b){... */\n    tag_233:\n        /* \"finger.sol\":6386:6387  b */\n      dup2\n        /* \"finger.sol\":6382:6387  a > b */\n      0x03\n      dup2\n      gt\n      iszero\n      tag_235\n      jumpi\n      tag_236\n      tag_53\n      jump\t// in\n    tag_236:\n    tag_235:\n        /* \"finger.sol\":6382:6383  a */\n      dup4\n        /* \"finger.sol\":6382:6387  a > b */\n      0x03\n      dup2\n      gt\n      iszero\n      tag_237\n      jumpi\n      tag_238\n      tag_53\n      jump\t// in\n    tag_238:\n    tag_237:\n      gt\n        /* \"finger.sol\":6378:6494  if (a > b){... */\n      iszero\n      tag_239\n      jumpi\n        /* \"finger.sol\":6409:6410  1 */\n      0x01\n        /* \"finger.sol\":6402:6410  return 1 */\n      swap1\n      pop\n      jump(tag_228)\n        /* \"finger.sol\":6378:6494  if (a > b){... */\n    tag_239:\n        /* \"finger.sol\":6464:6465  2 */\n      0x02\n        /* \"finger.sol\":6457:6465  return 2 */\n      swap1\n      pop\n        /* \"finger.sol\":6233:6500  function guessLogic(FingerType a, FingerType b)internal pure returns (uint256){... */\n    tag_228:\n      swap3\n      swap2\n      pop\n      pop\n      jump\t// out\n        /* \"finger.sol\":4696:6228  function sendToken(Game storage _game, uint256 _result)internal {... */\n    tag_219:\n        /* \"finger.sol\":4771:4789  uint256 _singleFee */\n      0x00\n        /* \"finger.sol\":4816:4819  100 */\n      0x64\n        /* \"finger.sol\":4806:4813  feeRate */\n      sload(0x02)\n        /* \"finger.sol\":4792:4797  _game */\n      dup5\n        /* \"finger.sol\":4792:4803  _game.bonus */\n      0x03\n      add\n      sload\n        /* \"finger.sol\":4792:4813  _game.bonus * feeRate */\n      tag_242\n      swap2\n      swap1\n      tag_178\n      jump\t// in\n    tag_242:\n        /* \"finger.sol\":4792:4819  _game.bonus * feeRate / 100 */\n      tag_243\n      swap2\n      swap1\n      tag_244\n      jump\t// in\n    tag_243:\n        /* \"finger.sol\":4771:4819  uint256 _singleFee = _game.bonus * feeRate / 100 */\n      swap1\n      pop\n        /* \"finger.sol\":4904:4905  0 */\n      0x00\n        /* \"finger.sol\":4874:4906  _game.tokenAddress == address(0) */\n      0xffffffffffffffffffffffffffffffffffffffff\n      and\n        /* \"finger.sol\":4874:4879  _game */\n      dup4\n        /* \"finger.sol\":4874:4892  _game.tokenAddress */\n      0x02\n      add\n      0x00\n      swap1\n      sload\n      swap1\n      0x0100\n      exp\n      swap1\n      div\n      0xffffffffffffffffffffffffffffffffffffffff\n      and\n        /* \"finger.sol\":4874:4906  _game.tokenAddress == address(0) */\n      0xffffffffffffffffffffffffffffffffffffffff\n      and\n      sub\n        /* \"finger.sol\":4871:6196  if(_game.tokenAddress == address(0)){... */\n      tag_245\n      jumpi\n        /* \"finger.sol\":4956:4957  0 */\n      0x00\n        /* \"finger.sol\":4945:4952  _result */\n      dup3\n        /* \"finger.sol\":4945:4957  _result == 0 */\n      sub\n        /* \"finger.sol\":4942:5369  if(_result == 0){... */\n      tag_246\n      jumpi\n        /* \"finger.sol\":4984:4989  _game */\n      dup3\n        /* \"finger.sol\":4984:4997  _game.sponsor */\n      0x00\n      add\n      0x00\n      swap1\n      sload\n      swap1\n      0x0100\n      exp\n      swap1\n      div\n      0xffffffffffffffffffffffffffffffffffffffff\n      and\n        /* \"finger.sol\":4976:5007  payable(_game.sponsor).transfer */\n      0xffffffffffffffffffffffffffffffffffffffff\n      and\n        /* \"finger.sol\":4976:5033  payable(_game.sponsor).transfer(_game.bonus - _singleFee) */\n      0x08fc\n        /* \"finger.sol\":5022:5032  _singleFee */\n      dup3\n        /* \"finger.sol\":5008:5013  _game */\n      dup6\n        /* \"finger.sol\":5008:5019  _game.bonus */\n      0x03\n      add\n      sload\n        /* \"finger.sol\":5008:5032  _game.bonus - _singleFee */\n      tag_247\n      swap2\n      swap1\n      tag_103\n      jump\t// in\n    tag_247:\n        /* \"finger.sol\":4976:5033  payable(_game.sponsor).transfer(_game.bonus - _singleFee) */\n      swap1\n      dup2\n      iszero\n      mul\n      swap1\n      mload(0x40)\n      0x00\n      mload(0x40)\n      dup1\n      dup4\n      sub\n      dup2\n      dup6\n      dup9\n      dup9\n      call\n      swap4\n      pop\n      pop\n      pop\n      pop\n      iszero\n      dup1\n      iszero\n      tag_249\n      jumpi\n      returndatasize\n      0x00\n      dup1\n      returndatacopy\n      revert(0x00, returndatasize)\n    tag_249:\n      pop\n        /* \"finger.sol\":5059:5064  _game */\n      dup3\n        /* \"finger.sol\":5059:5071  _game.defier */\n      0x01\n      add\n      0x00\n      swap1\n      sload\n      swap1\n      0x0100\n      exp\n      swap1\n      div\n      0xffffffffffffffffffffffffffffffffffffffff\n      and\n        /* \"finger.sol\":5051:5081  payable(_game.defier).transfer */\n      0xffffffffffffffffffffffffffffffffffffffff\n      and\n        /* \"finger.sol\":5051:5107  payable(_game.defier).transfer(_game.bonus - _singleFee) */\n      0x08fc\n        /* \"finger.sol\":5096:5106  _singleFee */\n      dup3\n        /* \"finger.sol\":5082:5087  _game */\n      dup6\n        /* \"finger.sol\":5082:5093  _game.bonus */\n      0x03\n      add\n      sload\n        /* \"finger.sol\":5082:5106  _game.bonus - _singleFee */\n      tag_250\n      swap2\n      swap1\n      tag_103\n      jump\t// in\n    tag_250:\n        /* \"finger.sol\":5051:5107  payable(_game.defier).transfer(_game.bonus - _singleFee) */\n      swap1\n      dup2\n      iszero\n      mul\n      swap1\n      mload(0x40)\n      0x00\n      mload(0x40)\n      dup1\n      dup4\n      sub\n      dup2\n      dup6\n      dup9\n      dup9\n      call\n      swap4\n      pop\n      pop\n      pop\n      pop\n      iszero\n      dup1\n      iszero\n      tag_252\n      jumpi\n      returndatasize\n      0x00\n      dup1\n      returndatacopy\n      revert(0x00, returndatasize)\n    tag_252:\n      pop\n        /* \"finger.sol\":4942:5369  if(_result == 0){... */\n      jump(tag_253)\n    tag_246:\n        /* \"finger.sol\":5141:5142  1 */\n      0x01\n        /* \"finger.sol\":5130:5137  _result */\n      dup3\n        /* \"finger.sol\":5130:5142  _result == 1 */\n      sub\n        /* \"finger.sol\":5127:5369  if(_result == 1){//发起者胜利... */\n      tag_254\n      jumpi\n        /* \"finger.sol\":5186:5191  _game */\n      dup3\n        /* \"finger.sol\":5186:5199  _game.sponsor */\n      0x00\n      add\n      0x00\n      swap1\n      sload\n      swap1\n      0x0100\n      exp\n      swap1\n      div\n      0xffffffffffffffffffffffffffffffffffffffff\n      and\n        /* \"finger.sol\":5178:5209  payable(_game.sponsor).transfer */\n      0xffffffffffffffffffffffffffffffffffffffff\n      and\n        /* \"finger.sol\":5178:5239  payable(_game.sponsor).transfer(_game.bonus - _singleFee * 2) */\n      0x08fc\n        /* \"finger.sol\":5237:5238  2 */\n      0x02\n        /* \"finger.sol\":5224:5234  _singleFee */\n      dup4\n        /* \"finger.sol\":5224:5238  _singleFee * 2 */\n      tag_255\n      swap2\n      swap1\n      tag_178\n      jump\t// in\n    tag_255:\n        /* \"finger.sol\":5210:5215  _game */\n      dup6\n        /* \"finger.sol\":5210:5221  _game.bonus */\n      0x03\n      add\n      sload\n        /* \"finger.sol\":5210:5238  _game.bonus - _singleFee * 2 */\n      tag_256\n      swap2\n      swap1\n      tag_103\n      jump\t// in\n    tag_256:\n        /* \"finger.sol\":5178:5239  payable(_game.sponsor).transfer(_game.bonus - _singleFee * 2) */\n      swap1\n      dup2\n      iszero\n      mul\n      swap1\n      mload(0x40)\n      0x00\n      mload(0x40)\n      dup1\n      dup4\n      sub\n      dup2\n      dup6\n      dup9\n      dup9\n      call\n      swap4\n      pop\n      pop\n      pop\n      pop\n      iszero\n      dup1\n      iszero\n      tag_258\n      jumpi\n      returndatasize\n      0x00\n      dup1\n      returndatacopy\n      revert(0x00, returndatasize)\n    tag_258:\n      pop\n        /* \"finger.sol\":5127:5369  if(_result == 1){//发起者胜利... */\n      jump(tag_259)\n    tag_254:\n        /* \"finger.sol\":5302:5307  _game */\n      dup3\n        /* \"finger.sol\":5302:5314  _game.defier */\n      0x01\n      add\n      0x00\n      swap1\n      sload\n      swap1\n      0x0100\n      exp\n      swap1\n      div\n      0xffffffffffffffffffffffffffffffffffffffff\n      and\n        /* \"finger.sol\":5294:5324  payable(_game.defier).transfer */\n      0xffffffffffffffffffffffffffffffffffffffff\n      and\n        /* \"finger.sol\":5294:5354  payable(_game.defier).transfer(_game.bonus - _singleFee * 2) */\n      0x08fc\n        /* \"finger.sol\":5352:5353  2 */\n      0x02\n        /* \"finger.sol\":5339:5349  _singleFee */\n      dup4\n        /* \"finger.sol\":5339:5353  _singleFee * 2 */\n      tag_260\n      swap2\n      swap1\n      tag_178\n      jump\t// in\n    tag_260:\n        /* \"finger.sol\":5325:5330  _game */\n      dup6\n        /* \"finger.sol\":5325:5336  _game.bonus */\n      0x03\n      add\n      sload\n        /* \"finger.sol\":5325:5353  _game.bonus - _singleFee * 2 */\n      tag_261\n      swap2\n      swap1\n      tag_103\n      jump\t// in\n    tag_261:\n        /* \"finger.sol\":5294:5354  payable(_game.defier).transfer(_game.bonus - _singleFee * 2) */\n      swap1\n      dup2\n      iszero\n      mul\n      swap1\n      mload(0x40)\n      0x00\n      mload(0x40)\n      dup1\n      dup4\n      sub\n      dup2\n      dup6\n      dup9\n      dup9\n      call\n      swap4\n      pop\n      pop\n      pop\n      pop\n      iszero\n      dup1\n      iszero\n      tag_263\n      jumpi\n      returndatasize\n      0x00\n      dup1\n      returndatacopy\n      revert(0x00, returndatasize)\n    tag_263:\n      pop\n        /* \"finger.sol\":5127:5369  if(_result == 1){//发起者胜利... */\n    tag_259:\n        /* \"finger.sol\":4942:5369  if(_result == 0){... */\n    tag_253:\n        /* \"finger.sol\":5437:5438  0 */\n      0x00\n        /* \"finger.sol\":5415:5439  feeAddress != address(0) */\n      0xffffffffffffffffffffffffffffffffffffffff\n      and\n        /* \"finger.sol\":5415:5425  feeAddress */\n      0x03\n      0x00\n      swap1\n      sload\n      swap1\n      0x0100\n      exp\n      swap1\n      div\n      0xffffffffffffffffffffffffffffffffffffffff\n      and\n        /* \"finger.sol\":5415:5439  feeAddress != address(0) */\n      0xffffffffffffffffffffffffffffffffffffffff\n      and\n      eq\n        /* \"finger.sol\":5412:5518  if(feeAddress != address(0)){... */\n      tag_264\n      jumpi\n        /* \"finger.sol\":5466:5476  feeAddress */\n      0x03\n      0x00\n      swap1\n      sload\n      swap1\n      0x0100\n      exp\n      swap1\n      div\n      0xffffffffffffffffffffffffffffffffffffffff\n      and\n        /* \"finger.sol\":5458:5486  payable(feeAddress).transfer */\n      0xffffffffffffffffffffffffffffffffffffffff\n      and\n        /* \"finger.sol\":5458:5503  payable(feeAddress).transfer( _singleFee * 2) */\n      0x08fc\n        /* \"finger.sol\":5501:5502  2 */\n      0x02\n        /* \"finger.sol\":5488:5498  _singleFee */\n      dup4\n        /* \"finger.sol\":5488:5502  _singleFee * 2 */\n      tag_265\n      swap2\n      swap1\n      tag_178\n      jump\t// in\n    tag_265:\n        /* \"finger.sol\":5458:5503  payable(feeAddress).transfer( _singleFee * 2) */\n      swap1\n      dup2\n      iszero\n      mul\n      swap1\n      mload(0x40)\n      0x00\n      mload(0x40)\n      dup1\n      dup4\n      sub\n      dup2\n      dup6\n      dup9\n      dup9\n      call\n      swap4\n      pop\n      pop\n      pop\n      pop\n      iszero\n      dup1\n      iszero\n      tag_267\n      jumpi\n      returndatasize\n      0x00\n      dup1\n      returndatacopy\n      revert(0x00, returndatasize)\n    tag_267:\n      pop\n        /* \"finger.sol\":5412:5518  if(feeAddress != address(0)){... */\n    tag_264:\n        /* \"finger.sol\":4871:6196  if(_game.tokenAddress == address(0)){... */\n      jump(tag_268)\n    tag_245:\n        /* \"finger.sol\":5546:5557  ERC20 token */\n      0x00\n        /* \"finger.sol\":5566:5571  _game */\n      dup4\n        /* \"finger.sol\":5566:5584  _game.tokenAddress */\n      0x02\n      add\n      0x00\n      swap1\n      sload\n      swap1\n      0x0100\n      exp\n      swap1\n      div\n      0xffffffffffffffffffffffffffffffffffffffff\n      and\n        /* \"finger.sol\":5546:5585  ERC20 token = ERC20(_game.tokenAddress) */\n      swap1\n      pop\n        /* \"finger.sol\":5635:5636  0 */\n      0x00\n        /* \"finger.sol\":5624:5631  _result */\n      dup4\n        /* \"finger.sol\":5624:5636  _result == 0 */\n      sub\n        /* \"finger.sol\":5621:6040  if(_result == 0){... */\n      tag_269\n      jumpi\n        /* \"finger.sol\":5655:5660  token */\n      dup1\n        /* \"finger.sol\":5655:5669  token.transfer */\n      0xffffffffffffffffffffffffffffffffffffffff\n      and\n      0xa9059cbb\n        /* \"finger.sol\":5670:5675  _game */\n      dup6\n        /* \"finger.sol\":5670:5683  _game.sponsor */\n      0x00\n      add\n      0x00\n      swap1\n      sload\n      swap1\n      0x0100\n      exp\n      swap1\n      div\n      0xffffffffffffffffffffffffffffffffffffffff\n      and\n        /* \"finger.sol\":5699:5709  _singleFee */\n      dup5\n        /* \"finger.sol\":5685:5690  _game */\n      dup8\n        /* \"finger.sol\":5685:5696  _game.bonus */\n      0x03\n      add\n      sload\n        /* \"finger.sol\":5685:5709  _game.bonus - _singleFee */\n      tag_270\n      swap2\n      swap1\n      tag_103\n      jump\t// in\n    tag_270:\n        /* \"finger.sol\":5655:5710  token.transfer(_game.sponsor, _game.bonus - _singleFee) */\n      mload(0x40)\n      dup4\n      0xffffffff\n      and\n      0xe0\n      shl\n      dup2\n      mstore\n      0x04\n      add\n      tag_271\n      swap3\n      swap2\n      swap1\n      tag_272\n      jump\t// in\n    tag_271:\n      0x20\n      mload(0x40)\n      dup1\n      dup4\n      sub\n      dup2\n      0x00\n      dup8\n      gas\n      call\n      iszero\n      dup1\n      iszero\n      tag_274\n      jumpi\n      returndatasize\n      0x00\n      dup1\n      returndatacopy\n      revert(0x00, returndatasize)\n    tag_274:\n      pop\n      pop\n      pop\n      pop\n      mload(0x40)\n      returndatasize\n      not(0x1f)\n      0x1f\n      dup3\n      add\n      and\n      dup3\n      add\n      dup1\n      0x40\n      mstore\n      pop\n      dup2\n      add\n      swap1\n      tag_275\n      swap2\n      swap1\n      tag_184\n      jump\t// in\n    tag_275:\n      pop\n        /* \"finger.sol\":5728:5733  token */\n      dup1\n        /* \"finger.sol\":5728:5742  token.transfer */\n      0xffffffffffffffffffffffffffffffffffffffff\n      and\n      0xa9059cbb\n        /* \"finger.sol\":5743:5748  _game */\n      dup6\n        /* \"finger.sol\":5743:5755  _game.defier */\n      0x01\n      add\n      0x00\n      swap1\n      sload\n      swap1\n      0x0100\n      exp\n      swap1\n      div\n      0xffffffffffffffffffffffffffffffffffffffff\n      and\n        /* \"finger.sol\":5771:5781  _singleFee */\n      dup5\n        /* \"finger.sol\":5757:5762  _game */\n      dup8\n        /* \"finger.sol\":5757:5768  _game.bonus */\n      0x03\n      add\n      sload\n        /* \"finger.sol\":5757:5781  _game.bonus - _singleFee */\n      tag_276\n      swap2\n      swap1\n      tag_103\n      jump\t// in\n    tag_276:\n        /* \"finger.sol\":5728:5782  token.transfer(_game.defier, _game.bonus - _singleFee) */\n      mload(0x40)\n      dup4\n      0xffffffff\n      and\n      0xe0\n      shl\n      dup2\n      mstore\n      0x04\n      add\n      tag_277\n      swap3\n      swap2\n      swap1\n      tag_272\n      jump\t// in\n    tag_277:\n      0x20\n      mload(0x40)\n      dup1\n      dup4\n      sub\n      dup2\n      0x00\n      dup8\n      gas\n      call\n      iszero\n      dup1\n      iszero\n      tag_279\n      jumpi\n      returndatasize\n      0x00\n      dup1\n      returndatacopy\n      revert(0x00, returndatasize)\n    tag_279:\n      pop\n      pop\n      pop\n      pop\n      mload(0x40)\n      returndatasize\n      not(0x1f)\n      0x1f\n      dup3\n      add\n      and\n      dup3\n      add\n      dup1\n      0x40\n      mstore\n      pop\n      dup2\n      add\n      swap1\n      tag_280\n      swap2\n      swap1\n      tag_184\n      jump\t// in\n    tag_280:\n      pop\n        /* \"finger.sol\":5621:6040  if(_result == 0){... */\n      jump(tag_281)\n    tag_269:\n        /* \"finger.sol\":5816:5817  1 */\n      0x01\n        /* \"finger.sol\":5805:5812  _result */\n      dup4\n        /* \"finger.sol\":5805:5817  _result == 1 */\n      sub\n        /* \"finger.sol\":5802:6040  if(_result == 1){//发起者胜利... */\n      tag_282\n      jumpi\n        /* \"finger.sol\":5854:5859  token */\n      dup1\n        /* \"finger.sol\":5854:5868  token.transfer */\n      0xffffffffffffffffffffffffffffffffffffffff\n      and\n      0xa9059cbb\n        /* \"finger.sol\":5869:5874  _game */\n      dup6\n        /* \"finger.sol\":5869:5882  _game.sponsor */\n      0x00\n      add\n      0x00\n      swap1\n      sload\n      swap1\n      0x0100\n      exp\n      swap1\n      div\n      0xffffffffffffffffffffffffffffffffffffffff\n      and\n        /* \"finger.sol\":5911:5912  2 */\n      0x02\n        /* \"finger.sol\":5898:5908  _singleFee */\n      dup6\n        /* \"finger.sol\":5898:5912  _singleFee * 2 */\n      tag_283\n      swap2\n      swap1\n      tag_178\n      jump\t// in\n    tag_283:\n        /* \"finger.sol\":5884:5889  _game */\n      dup8\n        /* \"finger.sol\":5884:5895  _game.bonus */\n      0x03\n      add\n      sload\n        /* \"finger.sol\":5884:5912  _game.bonus - _singleFee * 2 */\n      tag_284\n      swap2\n      swap1\n      tag_103\n      jump\t// in\n    tag_284:\n        /* \"finger.sol\":5854:5913  token.transfer(_game.sponsor, _game.bonus - _singleFee * 2) */\n      mload(0x40)\n      dup4\n      0xffffffff\n      and\n      0xe0\n      shl\n      dup2\n      mstore\n      0x04\n      add\n      tag_285\n      swap3\n      swap2\n      swap1\n      tag_272\n      jump\t// in\n    tag_285:\n      0x20\n      mload(0x40)\n      dup1\n      dup4\n      sub\n      dup2\n      0x00\n      dup8\n      gas\n      call\n      iszero\n      dup1\n      iszero\n      tag_287\n      jumpi\n      returndatasize\n      0x00\n      dup1\n      returndatacopy\n      revert(0x00, returndatasize)\n    tag_287:\n      pop\n      pop\n      pop\n      pop\n      mload(0x40)\n      returndatasize\n      not(0x1f)\n      0x1f\n      dup3\n      add\n      and\n      dup3\n      add\n      dup1\n      0x40\n      mstore\n      pop\n      dup2\n      add\n      swap1\n      tag_288\n      swap2\n      swap1\n      tag_184\n      jump\t// in\n    tag_288:\n      pop\n        /* \"finger.sol\":5802:6040  if(_result == 1){//发起者胜利... */\n      jump(tag_289)\n    tag_282:\n        /* \"finger.sol\":5967:5972  token */\n      dup1\n        /* \"finger.sol\":5967:5981  token.transfer */\n      0xffffffffffffffffffffffffffffffffffffffff\n      and\n      0xa9059cbb\n        /* \"finger.sol\":5982:5987  _game */\n      dup6\n        /* \"finger.sol\":5982:5994  _game.defier */\n      0x01\n      add\n      0x00\n      swap1\n      sload\n      swap1\n      0x0100\n      exp\n      swap1\n      div\n      0xffffffffffffffffffffffffffffffffffffffff\n      and\n        /* \"finger.sol\":6023:6024  2 */\n      0x02\n        /* \"finger.sol\":6010:6020  _singleFee */\n      dup6\n        /* \"finger.sol\":6010:6024  _singleFee * 2 */\n      tag_290\n      swap2\n      swap1\n      tag_178\n      jump\t// in\n    tag_290:\n        /* \"finger.sol\":5996:6001  _game */\n      dup8\n        /* \"finger.sol\":5996:6007  _game.bonus */\n      0x03\n      add\n      sload\n        /* \"finger.sol\":5996:6024  _game.bonus - _singleFee * 2 */\n      tag_291\n      swap2\n      swap1\n      tag_103\n      jump\t// in\n    tag_291:\n        /* \"finger.sol\":5967:6025  token.transfer(_game.defier, _game.bonus - _singleFee * 2) */\n      mload(0x40)\n      dup4\n      0xffffffff\n      and\n      0xe0\n      shl\n      dup2\n      mstore\n      0x04\n      add\n      tag_292\n      swap3\n      swap2\n      swap1\n      tag_272\n      jump\t// in\n    tag_292:\n      0x20\n      mload(0x40)\n      dup1\n      dup4\n      sub\n      dup2\n      0x00\n      dup8\n      gas\n      call\n      iszero\n      dup1\n      iszero\n      tag_294\n      jumpi\n      returndatasize\n      0x00\n      dup1\n      returndatacopy\n      revert(0x00, returndatasize)\n    tag_294:\n      pop\n      pop\n      pop\n      pop\n      mload(0x40)\n      returndatasize\n      not(0x1f)\n      0x1f\n      dup3\n      add\n      and\n      dup3\n      add\n      dup1\n      0x40\n      mstore\n      pop\n      dup2\n      add\n      swap1\n      tag_295\n      swap2\n      swap1\n      tag_184\n      jump\t// in\n    tag_295:\n      pop\n        /* \"finger.sol\":5802:6040  if(_result == 1){//发起者胜利... */\n    tag_289:\n        /* \"finger.sol\":5621:6040  if(_result == 0){... */\n    tag_281:\n        /* \"finger.sol\":6108:6109  0 */\n      0x00\n        /* \"finger.sol\":6086:6110  feeAddress != address(0) */\n      0xffffffffffffffffffffffffffffffffffffffff\n      and\n        /* \"finger.sol\":6086:6096  feeAddress */\n      0x03\n      0x00\n      swap1\n      sload\n      swap1\n      0x0100\n      exp\n      swap1\n      div\n      0xffffffffffffffffffffffffffffffffffffffff\n      and\n        /* \"finger.sol\":6086:6110  feeAddress != address(0) */\n      0xffffffffffffffffffffffffffffffffffffffff\n      and\n      eq\n        /* \"finger.sol\":6083:6186  if(feeAddress != address(0)){... */\n      tag_296\n      jumpi\n        /* \"finger.sol\":6129:6134  token */\n      dup1\n        /* \"finger.sol\":6129:6143  token.transfer */\n      0xffffffffffffffffffffffffffffffffffffffff\n      and\n      0xa9059cbb\n        /* \"finger.sol\":6144:6154  feeAddress */\n      0x03\n      0x00\n      swap1\n      sload\n      swap1\n      0x0100\n      exp\n      swap1\n      div\n      0xffffffffffffffffffffffffffffffffffffffff\n      and\n        /* \"finger.sol\":6169:6170  2 */\n      0x02\n        /* \"finger.sol\":6156:6166  _singleFee */\n      dup6\n        /* \"finger.sol\":6156:6170  _singleFee * 2 */\n      tag_297\n      swap2\n      swap1\n      tag_178\n      jump\t// in\n    tag_297:\n        /* \"finger.sol\":6129:6171  token.transfer(feeAddress, _singleFee * 2) */\n      mload(0x40)\n      dup4\n      0xffffffff\n      and\n      0xe0\n      shl\n      dup2\n      mstore\n      0x04\n      add\n      tag_298\n      swap3\n      swap2\n      swap1\n      tag_272\n      jump\t// in\n    tag_298:\n      0x20\n      mload(0x40)\n      dup1\n      dup4\n      sub\n      dup2\n      0x00\n      dup8\n      gas\n      call\n      iszero\n      dup1\n      iszero\n      tag_300\n      jumpi\n      returndatasize\n      0x00\n      dup1\n      returndatacopy\n      revert(0x00, returndatasize)\n    tag_300:\n      pop\n      pop\n      pop\n      pop\n      mload(0x40)\n      returndatasize\n      not(0x1f)\n      0x1f\n      dup3\n      add\n      and\n      dup3\n      add\n      dup1\n      0x40\n      mstore\n      pop\n      dup2\n      add\n      swap1\n      tag_301\n      swap2\n      swap1\n      tag_184\n      jump\t// in\n    tag_301:\n      pop\n        /* \"finger.sol\":6083:6186  if(feeAddress != address(0)){... */\n    tag_296:\n        /* \"finger.sol\":5532:6196  {... */\n      pop\n        /* \"finger.sol\":4871:6196  if(_game.tokenAddress == address(0)){... */\n    tag_268:\n        /* \"finger.sol\":6220:6221  2 */\n      0x02\n        /* \"finger.sol\":6205:6210  _game */\n      dup4\n        /* \"finger.sol\":6205:6217  _game.status */\n      0x05\n      add\n        /* \"finger.sol\":6205:6221  _game.status = 2 */\n      dup2\n      swap1\n      sstore\n      pop\n        /* \"finger.sol\":4760:6228  {... */\n      pop\n        /* \"finger.sol\":4696:6228  function sendToken(Game storage _game, uint256 _result)internal {... */\n      pop\n      pop\n      jump\t// out\n        /* \"@openzeppelin/contracts/utils/Context.sol\":640:736  function _msgSender() internal view virtual returns (address) {... */\n    tag_222:\n        /* \"@openzeppelin/contracts/utils/Context.sol\":693:700  address */\n      0x00\n        /* \"@openzeppelin/contracts/utils/Context.sol\":719:729  msg.sender */\n      caller\n        /* \"@openzeppelin/contracts/utils/Context.sol\":712:729  return msg.sender */\n      swap1\n      pop\n        /* \"@openzeppelin/contracts/utils/Context.sol\":640:736  function _msgSender() internal view virtual returns (address) {... */\n      swap1\n      jump\t// out\n    tag_105:\n      dup3\n      dup1\n      sload\n      dup3\n      dup3\n      sstore\n      swap1\n      0x00\n      mstore\n      keccak256(0x00, 0x20)\n      swap1\n      0x1f\n      add\n      0x20\n      swap1\n      div\n      dup2\n      add\n      swap3\n      dup3\n      iszero\n      tag_303\n      jumpi\n      swap2\n      0x20\n      mul\n      dup3\n      add\n      0x00\n    tag_304:\n      dup4\n      dup3\n      gt\n      iszero\n      tag_305\n      jumpi\n      dup4\n      calldataload\n      0x03\n      dup2\n      gt\n      dup1\n      iszero\n      tag_306\n      jumpi\n      0x00\n      dup1\n      revert\n    tag_306:\n      pop\n      dup4\n      dup3\n      0x0100\n      exp\n      dup2\n      sload\n      dup2\n      0xff\n      mul\n      not\n      and\n      swap1\n      dup4\n      0x03\n      dup2\n      gt\n      iszero\n      tag_307\n      jumpi\n      tag_308\n      tag_53\n      jump\t// in\n    tag_308:\n    tag_307:\n      mul\n      or\n      swap1\n      sstore\n      pop\n      swap3\n      0x20\n      add\n      swap3\n      0x01\n      add\n      0x20\n      dup2\n      0x00\n      add\n      div\n      swap3\n      dup4\n      add\n      swap3\n      0x01\n      sub\n      mul\n      jump(tag_304)\n    tag_305:\n      dup1\n      iszero\n      tag_309\n      jumpi\n      dup3\n      dup2\n      0x0100\n      exp\n      dup2\n      sload\n      swap1\n      0xff\n      mul\n      not\n      and\n      swap1\n      sstore\n      0x01\n      add\n      0x20\n      dup2\n      0x00\n      add\n      div\n      swap3\n      dup4\n      add\n      swap3\n      0x01\n      sub\n      mul\n      jump(tag_305)\n    tag_309:\n      pop\n    tag_303:\n      pop\n      swap1\n      pop\n      tag_310\n      swap2\n      swap1\n      tag_311\n      jump\t// in\n    tag_310:\n      pop\n      swap1\n      jump\t// out\n    tag_311:\n    tag_312:\n      dup1\n      dup3\n      gt\n      iszero\n      tag_313\n      jumpi\n      0x00\n      dup2\n      0x00\n      swap1\n      sstore\n      pop\n      0x01\n      add\n      jump(tag_312)\n    tag_313:\n      pop\n      swap1\n      jump\t// out\n        /* \"#utility.yul\":88:205   */\n    tag_315:\n        /* \"#utility.yul\":197:198   */\n      0x00\n        /* \"#utility.yul\":194:195   */\n      dup1\n        /* \"#utility.yul\":187:199   */\n      revert\n        /* \"#utility.yul\":211:328   */\n    tag_316:\n        /* \"#utility.yul\":320:321   */\n      0x00\n        /* \"#utility.yul\":317:318   */\n      dup1\n        /* \"#utility.yul\":310:322   */\n      revert\n        /* \"#utility.yul\":334:411   */\n    tag_317:\n        /* \"#utility.yul\":371:378   */\n      0x00\n        /* \"#utility.yul\":400:405   */\n      dup2\n        /* \"#utility.yul\":389:405   */\n      swap1\n      pop\n        /* \"#utility.yul\":334:411   */\n      swap2\n      swap1\n      pop\n      jump\t// out\n        /* \"#utility.yul\":417:539   */\n    tag_318:\n        /* \"#utility.yul\":490:514   */\n      tag_364\n        /* \"#utility.yul\":508:513   */\n      dup2\n        /* \"#utility.yul\":490:514   */\n      tag_317\n      jump\t// in\n    tag_364:\n        /* \"#utility.yul\":483:488   */\n      dup2\n        /* \"#utility.yul\":480:515   */\n      eq\n        /* \"#utility.yul\":470:533   */\n      tag_365\n      jumpi\n        /* \"#utility.yul\":529:530   */\n      0x00\n        /* \"#utility.yul\":526:527   */\n      dup1\n        /* \"#utility.yul\":519:531   */\n      revert\n        /* \"#utility.yul\":470:533   */\n    tag_365:\n        /* \"#utility.yul\":417:539   */\n      pop\n      jump\t// out\n        /* \"#utility.yul\":545:684   */\n    tag_319:\n        /* \"#utility.yul\":591:596   */\n      0x00\n        /* \"#utility.yul\":629:635   */\n      dup2\n        /* \"#utility.yul\":616:636   */\n      calldataload\n        /* \"#utility.yul\":607:636   */\n      swap1\n      pop\n        /* \"#utility.yul\":645:678   */\n      tag_367\n        /* \"#utility.yul\":672:677   */\n      dup2\n        /* \"#utility.yul\":645:678   */\n      tag_318\n      jump\t// in\n    tag_367:\n        /* \"#utility.yul\":545:684   */\n      swap3\n      swap2\n      pop\n      pop\n      jump\t// out\n        /* \"#utility.yul\":690:807   */\n    tag_320:\n        /* \"#utility.yul\":799:800   */\n      0x00\n        /* \"#utility.yul\":796:797   */\n      dup1\n        /* \"#utility.yul\":789:801   */\n      revert\n        /* \"#utility.yul\":813:930   */\n    tag_321:\n        /* \"#utility.yul\":922:923   */\n      0x00\n        /* \"#utility.yul\":919:920   */\n      dup1\n        /* \"#utility.yul\":912:924   */\n      revert\n        /* \"#utility.yul\":936:1053   */\n    tag_322:\n        /* \"#utility.yul\":1045:1046   */\n      0x00\n        /* \"#utility.yul\":1042:1043   */\n      dup1\n        /* \"#utility.yul\":1035:1047   */\n      revert\n        /* \"#utility.yul\":1096:1678   */\n    tag_323:\n        /* \"#utility.yul\":1183:1191   */\n      0x00\n        /* \"#utility.yul\":1193:1199   */\n      dup1\n        /* \"#utility.yul\":1243:1246   */\n      dup4\n        /* \"#utility.yul\":1236:1240   */\n      0x1f\n        /* \"#utility.yul\":1228:1234   */\n      dup5\n        /* \"#utility.yul\":1224:1241   */\n      add\n        /* \"#utility.yul\":1220:1247   */\n      slt\n        /* \"#utility.yul\":1210:1332   */\n      tag_372\n      jumpi\n        /* \"#utility.yul\":1251:1330   */\n      tag_373\n      tag_320\n      jump\t// in\n    tag_373:\n        /* \"#utility.yul\":1210:1332   */\n    tag_372:\n        /* \"#utility.yul\":1364:1370   */\n      dup3\n        /* \"#utility.yul\":1351:1371   */\n      calldataload\n        /* \"#utility.yul\":1341:1371   */\n      swap1\n      pop\n        /* \"#utility.yul\":1394:1412   */\n      0xffffffffffffffff\n        /* \"#utility.yul\":1386:1392   */\n      dup2\n        /* \"#utility.yul\":1383:1413   */\n      gt\n        /* \"#utility.yul\":1380:1497   */\n      iszero\n      tag_374\n      jumpi\n        /* \"#utility.yul\":1416:1495   */\n      tag_375\n      tag_321\n      jump\t// in\n    tag_375:\n        /* \"#utility.yul\":1380:1497   */\n    tag_374:\n        /* \"#utility.yul\":1530:1534   */\n      0x20\n        /* \"#utility.yul\":1522:1528   */\n      dup4\n        /* \"#utility.yul\":1518:1535   */\n      add\n        /* \"#utility.yul\":1506:1535   */\n      swap2\n      pop\n        /* \"#utility.yul\":1584:1587   */\n      dup4\n        /* \"#utility.yul\":1576:1580   */\n      0x20\n        /* \"#utility.yul\":1568:1574   */\n      dup3\n        /* \"#utility.yul\":1564:1581   */\n      mul\n        /* \"#utility.yul\":1554:1562   */\n      dup4\n        /* \"#utility.yul\":1550:1582   */\n      add\n        /* \"#utility.yul\":1547:1588   */\n      gt\n        /* \"#utility.yul\":1544:1672   */\n      iszero\n      tag_376\n      jumpi\n        /* \"#utility.yul\":1591:1670   */\n      tag_377\n      tag_322\n      jump\t// in\n    tag_377:\n        /* \"#utility.yul\":1544:1672   */\n    tag_376:\n        /* \"#utility.yul\":1096:1678   */\n      swap3\n      pop\n      swap3\n      swap1\n      pop\n      jump\t// out\n        /* \"#utility.yul\":1684:2416   */\n    tag_9:\n        /* \"#utility.yul\":1793:1799   */\n      0x00\n        /* \"#utility.yul\":1801:1807   */\n      dup1\n        /* \"#utility.yul\":1809:1815   */\n      0x00\n        /* \"#utility.yul\":1858:1860   */\n      0x40\n        /* \"#utility.yul\":1846:1855   */\n      dup5\n        /* \"#utility.yul\":1837:1844   */\n      dup7\n        /* \"#utility.yul\":1833:1856   */\n      sub\n        /* \"#utility.yul\":1829:1861   */\n      slt\n        /* \"#utility.yul\":1826:1945   */\n      iszero\n      tag_379\n      jumpi\n        /* \"#utility.yul\":1864:1943   */\n      tag_380\n      tag_315\n      jump\t// in\n    tag_380:\n        /* \"#utility.yul\":1826:1945   */\n    tag_379:\n        /* \"#utility.yul\":1984:1985   */\n      0x00\n        /* \"#utility.yul\":2009:2062   */\n      tag_381\n        /* \"#utility.yul\":2054:2061   */\n      dup7\n        /* \"#utility.yul\":2045:2051   */\n      dup3\n        /* \"#utility.yul\":2034:2043   */\n      dup8\n        /* \"#utility.yul\":2030:2052   */\n      add\n        /* \"#utility.yul\":2009:2062   */\n      tag_319\n      jump\t// in\n    tag_381:\n        /* \"#utility.yul\":1999:2062   */\n      swap4\n      pop\n        /* \"#utility.yul\":1955:2072   */\n      pop\n        /* \"#utility.yul\":2139:2141   */\n      0x20\n        /* \"#utility.yul\":2128:2137   */\n      dup5\n        /* \"#utility.yul\":2124:2142   */\n      add\n        /* \"#utility.yul\":2111:2143   */\n      calldataload\n        /* \"#utility.yul\":2170:2188   */\n      0xffffffffffffffff\n        /* \"#utility.yul\":2162:2168   */\n      dup2\n        /* \"#utility.yul\":2159:2189   */\n      gt\n        /* \"#utility.yul\":2156:2273   */\n      iszero\n      tag_382\n      jumpi\n        /* \"#utility.yul\":2192:2271   */\n      tag_383\n      tag_316\n      jump\t// in\n    tag_383:\n        /* \"#utility.yul\":2156:2273   */\n    tag_382:\n        /* \"#utility.yul\":2305:2399   */\n      tag_384\n        /* \"#utility.yul\":2391:2398   */\n      dup7\n        /* \"#utility.yul\":2382:2388   */\n      dup3\n        /* \"#utility.yul\":2371:2380   */\n      dup8\n        /* \"#utility.yul\":2367:2389   */\n      add\n        /* \"#utility.yul\":2305:2399   */\n      tag_323\n      jump\t// in\n    tag_384:\n        /* \"#utility.yul\":2287:2399   */\n      swap3\n      pop\n      swap3\n      pop\n        /* \"#utility.yul\":2082:2409   */\n      pop\n        /* \"#utility.yul\":1684:2416   */\n      swap3\n      pop\n      swap3\n      pop\n      swap3\n      jump\t// out\n        /* \"#utility.yul\":2422:2548   */\n    tag_324:\n        /* \"#utility.yul\":2459:2466   */\n      0x00\n        /* \"#utility.yul\":2499:2541   */\n      0xffffffffffffffffffffffffffffffffffffffff\n        /* \"#utility.yul\":2492:2497   */\n      dup3\n        /* \"#utility.yul\":2488:2542   */\n      and\n        /* \"#utility.yul\":2477:2542   */\n      swap1\n      pop\n        /* \"#utility.yul\":2422:2548   */\n      swap2\n      swap1\n      pop\n      jump\t// out\n        /* \"#utility.yul\":2554:2650   */\n    tag_325:\n        /* \"#utility.yul\":2591:2598   */\n      0x00\n        /* \"#utility.yul\":2620:2644   */\n      tag_387\n        /* \"#utility.yul\":2638:2643   */\n      dup3\n        /* \"#utility.yul\":2620:2644   */\n      tag_324\n      jump\t// in\n    tag_387:\n        /* \"#utility.yul\":2609:2644   */\n      swap1\n      pop\n        /* \"#utility.yul\":2554:2650   */\n      swap2\n      swap1\n      pop\n      jump\t// out\n        /* \"#utility.yul\":2656:2774   */\n    tag_326:\n        /* \"#utility.yul\":2743:2767   */\n      tag_389\n        /* \"#utility.yul\":2761:2766   */\n      dup2\n        /* \"#utility.yul\":2743:2767   */\n      tag_325\n      jump\t// in\n    tag_389:\n        /* \"#utility.yul\":2738:2741   */\n      dup3\n        /* \"#utility.yul\":2731:2768   */\n      mstore\n        /* \"#utility.yul\":2656:2774   */\n      pop\n      pop\n      jump\t// out\n        /* \"#utility.yul\":2780:3002   */\n    tag_18:\n        /* \"#utility.yul\":2873:2877   */\n      0x00\n        /* \"#utility.yul\":2911:2913   */\n      0x20\n        /* \"#utility.yul\":2900:2909   */\n      dup3\n        /* \"#utility.yul\":2896:2914   */\n      add\n        /* \"#utility.yul\":2888:2914   */\n      swap1\n      pop\n        /* \"#utility.yul\":2924:2995   */\n      tag_391\n        /* \"#utility.yul\":2992:2993   */\n      0x00\n        /* \"#utility.yul\":2981:2990   */\n      dup4\n        /* \"#utility.yul\":2977:2994   */\n      add\n        /* \"#utility.yul\":2968:2974   */\n      dup5\n        /* \"#utility.yul\":2924:2995   */\n      tag_326\n      jump\t// in\n    tag_391:\n        /* \"#utility.yul\":2780:3002   */\n      swap3\n      swap2\n      pop\n      pop\n      jump\t// out\n        /* \"#utility.yul\":3008:3130   */\n    tag_327:\n        /* \"#utility.yul\":3081:3105   */\n      tag_393\n        /* \"#utility.yul\":3099:3104   */\n      dup2\n        /* \"#utility.yul\":3081:3105   */\n      tag_325\n      jump\t// in\n    tag_393:\n        /* \"#utility.yul\":3074:3079   */\n      dup2\n        /* \"#utility.yul\":3071:3106   */\n      eq\n        /* \"#utility.yul\":3061:3124   */\n      tag_394\n      jumpi\n        /* \"#utility.yul\":3120:3121   */\n      0x00\n        /* \"#utility.yul\":3117:3118   */\n      dup1\n        /* \"#utility.yul\":3110:3122   */\n      revert\n        /* \"#utility.yul\":3061:3124   */\n    tag_394:\n        /* \"#utility.yul\":3008:3130   */\n      pop\n      jump\t// out\n        /* \"#utility.yul\":3136:3275   */\n    tag_328:\n        /* \"#utility.yul\":3182:3187   */\n      0x00\n        /* \"#utility.yul\":3220:3226   */\n      dup2\n        /* \"#utility.yul\":3207:3227   */\n      calldataload\n        /* \"#utility.yul\":3198:3227   */\n      swap1\n      pop\n        /* \"#utility.yul\":3236:3269   */\n      tag_396\n        /* \"#utility.yul\":3263:3268   */\n      dup2\n        /* \"#utility.yul\":3236:3269   */\n      tag_327\n      jump\t// in\n    tag_396:\n        /* \"#utility.yul\":3136:3275   */\n      swap3\n      swap2\n      pop\n      pop\n      jump\t// out\n        /* \"#utility.yul\":3281:4304   */\n    tag_21:\n        /* \"#utility.yul\":3408:3414   */\n      0x00\n        /* \"#utility.yul\":3416:3422   */\n      dup1\n        /* \"#utility.yul\":3424:3430   */\n      0x00\n        /* \"#utility.yul\":3432:3438   */\n      dup1\n        /* \"#utility.yul\":3440:3446   */\n      0x00\n        /* \"#utility.yul\":3489:3492   */\n      0x80\n        /* \"#utility.yul\":3477:3486   */\n      dup7\n        /* \"#utility.yul\":3468:3475   */\n      dup9\n        /* \"#utility.yul\":3464:3487   */\n      sub\n        /* \"#utility.yul\":3460:3493   */\n      slt\n        /* \"#utility.yul\":3457:3577   */\n      iszero\n      tag_398\n      jumpi\n        /* \"#utility.yul\":3496:3575   */\n      tag_399\n      tag_315\n      jump\t// in\n    tag_399:\n        /* \"#utility.yul\":3457:3577   */\n    tag_398:\n        /* \"#utility.yul\":3616:3617   */\n      0x00\n        /* \"#utility.yul\":3641:3694   */\n      tag_400\n        /* \"#utility.yul\":3686:3693   */\n      dup9\n        /* \"#utility.yul\":3677:3683   */\n      dup3\n        /* \"#utility.yul\":3666:3675   */\n      dup10\n        /* \"#utility.yul\":3662:3684   */\n      add\n        /* \"#utility.yul\":3641:3694   */\n      tag_328\n      jump\t// in\n    tag_400:\n        /* \"#utility.yul\":3631:3694   */\n      swap6\n      pop\n        /* \"#utility.yul\":3587:3704   */\n      pop\n        /* \"#utility.yul\":3743:3745   */\n      0x20\n        /* \"#utility.yul\":3769:3822   */\n      tag_401\n        /* \"#utility.yul\":3814:3821   */\n      dup9\n        /* \"#utility.yul\":3805:3811   */\n      dup3\n        /* \"#utility.yul\":3794:3803   */\n      dup10\n        /* \"#utility.yul\":3790:3812   */\n      add\n        /* \"#utility.yul\":3769:3822   */\n      tag_319\n      jump\t// in\n    tag_401:\n        /* \"#utility.yul\":3759:3822   */\n      swap5\n      pop\n        /* \"#utility.yul\":3714:3832   */\n      pop\n        /* \"#utility.yul\":3871:3873   */\n      0x40\n        /* \"#utility.yul\":3897:3950   */\n      tag_402\n        /* \"#utility.yul\":3942:3949   */\n      dup9\n        /* \"#utility.yul\":3933:3939   */\n      dup3\n        /* \"#utility.yul\":3922:3931   */\n      dup10\n        /* \"#utility.yul\":3918:3940   */\n      add\n        /* \"#utility.yul\":3897:3950   */\n      tag_319\n      jump\t// in\n    tag_402:\n        /* \"#utility.yul\":3887:3950   */\n      swap4\n      pop\n        /* \"#utility.yul\":3842:3960   */\n      pop\n        /* \"#utility.yul\":4027:4029   */\n      0x60\n        /* \"#utility.yul\":4016:4025   */\n      dup7\n        /* \"#utility.yul\":4012:4030   */\n      add\n        /* \"#utility.yul\":3999:4031   */\n      calldataload\n        /* \"#utility.yul\":4058:4076   */\n      0xffffffffffffffff\n        /* \"#utility.yul\":4050:4056   */\n      dup2\n        /* \"#utility.yul\":4047:4077   */\n      gt\n        /* \"#utility.yul\":4044:4161   */\n      iszero\n      tag_403\n      jumpi\n        /* \"#utility.yul\":4080:4159   */\n      tag_404\n      tag_316\n      jump\t// in\n    tag_404:\n        /* \"#utility.yul\":4044:4161   */\n    tag_403:\n        /* \"#utility.yul\":4193:4287   */\n      tag_405\n        /* \"#utility.yul\":4279:4286   */\n      dup9\n        /* \"#utility.yul\":4270:4276   */\n      dup3\n        /* \"#utility.yul\":4259:4268   */\n      dup10\n        /* \"#utility.yul\":4255:4277   */\n      add\n        /* \"#utility.yul\":4193:4287   */\n      tag_323\n      jump\t// in\n    tag_405:\n        /* \"#utility.yul\":4175:4287   */\n      swap3\n      pop\n      swap3\n      pop\n        /* \"#utility.yul\":3970:4297   */\n      pop\n        /* \"#utility.yul\":3281:4304   */\n      swap3\n      swap6\n      pop\n      swap3\n      swap6\n      swap1\n      swap4\n      pop\n      jump\t// out\n        /* \"#utility.yul\":4310:4639   */\n    tag_26:\n        /* \"#utility.yul\":4369:4375   */\n      0x00\n        /* \"#utility.yul\":4418:4420   */\n      0x20\n        /* \"#utility.yul\":4406:4415   */\n      dup3\n        /* \"#utility.yul\":4397:4404   */\n      dup5\n        /* \"#utility.yul\":4393:4416   */\n      sub\n        /* \"#utility.yul\":4389:4421   */\n      slt\n        /* \"#utility.yul\":4386:4505   */\n      iszero\n      tag_407\n      jumpi\n        /* \"#utility.yul\":4424:4503   */\n      tag_408\n      tag_315\n      jump\t// in\n    tag_408:\n        /* \"#utility.yul\":4386:4505   */\n    tag_407:\n        /* \"#utility.yul\":4544:4545   */\n      0x00\n        /* \"#utility.yul\":4569:4622   */\n      tag_409\n        /* \"#utility.yul\":4614:4621   */\n      dup5\n        /* \"#utility.yul\":4605:4611   */\n      dup3\n        /* \"#utility.yul\":4594:4603   */\n      dup6\n        /* \"#utility.yul\":4590:4612   */\n      add\n        /* \"#utility.yul\":4569:4622   */\n      tag_328\n      jump\t// in\n    tag_409:\n        /* \"#utility.yul\":4559:4622   */\n      swap2\n      pop\n        /* \"#utility.yul\":4515:4632   */\n      pop\n        /* \"#utility.yul\":4310:4639   */\n      swap3\n      swap2\n      pop\n      pop\n      jump\t// out\n        /* \"#utility.yul\":4645:4825   */\n    tag_31:\n        /* \"#utility.yul\":4693:4770   */\n      0x4e487b7100000000000000000000000000000000000000000000000000000000\n        /* \"#utility.yul\":4690:4691   */\n      0x00\n        /* \"#utility.yul\":4683:4771   */\n      mstore\n        /* \"#utility.yul\":4790:4794   */\n      0x32\n        /* \"#utility.yul\":4787:4788   */\n      0x04\n        /* \"#utility.yul\":4780:4795   */\n      mstore\n        /* \"#utility.yul\":4814:4818   */\n      0x24\n        /* \"#utility.yul\":4811:4812   */\n      0x00\n        /* \"#utility.yul\":4804:4819   */\n      revert\n        /* \"#utility.yul\":4831:5000   */\n    tag_329:\n        /* \"#utility.yul\":4915:4926   */\n      0x00\n        /* \"#utility.yul\":4949:4955   */\n      dup3\n        /* \"#utility.yul\":4944:4947   */\n      dup3\n        /* \"#utility.yul\":4937:4956   */\n      mstore\n        /* \"#utility.yul\":4989:4993   */\n      0x20\n        /* \"#utility.yul\":4984:4987   */\n      dup3\n        /* \"#utility.yul\":4980:4994   */\n      add\n        /* \"#utility.yul\":4965:4994   */\n      swap1\n      pop\n        /* \"#utility.yul\":4831:5000   */\n      swap3\n      swap2\n      pop\n      pop\n      jump\t// out\n        /* \"#utility.yul\":5006:5171   */\n    tag_330:\n        /* \"#utility.yul\":5146:5163   */\n      0x47616d65206e6f74206578697374730000000000000000000000000000000000\n        /* \"#utility.yul\":5142:5143   */\n      0x00\n        /* \"#utility.yul\":5134:5140   */\n      dup3\n        /* \"#utility.yul\":5130:5144   */\n      add\n        /* \"#utility.yul\":5123:5164   */\n      mstore\n        /* \"#utility.yul\":5006:5171   */\n      pop\n      jump\t// out\n        /* \"#utility.yul\":5177:5543   */\n    tag_331:\n        /* \"#utility.yul\":5319:5322   */\n      0x00\n        /* \"#utility.yul\":5340:5407   */\n      tag_414\n        /* \"#utility.yul\":5404:5406   */\n      0x0f\n        /* \"#utility.yul\":5399:5402   */\n      dup4\n        /* \"#utility.yul\":5340:5407   */\n      tag_329\n      jump\t// in\n    tag_414:\n        /* \"#utility.yul\":5333:5407   */\n      swap2\n      pop\n        /* \"#utility.yul\":5416:5509   */\n      tag_415\n        /* \"#utility.yul\":5505:5508   */\n      dup3\n        /* \"#utility.yul\":5416:5509   */\n      tag_330\n      jump\t// in\n    tag_415:\n        /* \"#utility.yul\":5534:5536   */\n      0x20\n        /* \"#utility.yul\":5529:5532   */\n      dup3\n        /* \"#utility.yul\":5525:5537   */\n      add\n        /* \"#utility.yul\":5518:5537   */\n      swap1\n      pop\n        /* \"#utility.yul\":5177:5543   */\n      swap2\n      swap1\n      pop\n      jump\t// out\n        /* \"#utility.yul\":5549:5968   */\n    tag_35:\n        /* \"#utility.yul\":5715:5719   */\n      0x00\n        /* \"#utility.yul\":5753:5755   */\n      0x20\n        /* \"#utility.yul\":5742:5751   */\n      dup3\n        /* \"#utility.yul\":5738:5756   */\n      add\n        /* \"#utility.yul\":5730:5756   */\n      swap1\n      pop\n        /* \"#utility.yul\":5802:5811   */\n      dup2\n        /* \"#utility.yul\":5796:5800   */\n      dup2\n        /* \"#utility.yul\":5792:5812   */\n      sub\n        /* \"#utility.yul\":5788:5789   */\n      0x00\n        /* \"#utility.yul\":5777:5786   */\n      dup4\n        /* \"#utility.yul\":5773:5790   */\n      add\n        /* \"#utility.yul\":5766:5813   */\n      mstore\n        /* \"#utility.yul\":5830:5961   */\n      tag_417\n        /* \"#utility.yul\":5956:5960   */\n      dup2\n        /* \"#utility.yul\":5830:5961   */\n      tag_331\n      jump\t// in\n    tag_417:\n        /* \"#utility.yul\":5822:5961   */\n      swap1\n      pop\n        /* \"#utility.yul\":5549:5968   */\n      swap2\n      swap1\n      pop\n      jump\t// out\n        /* \"#utility.yul\":5974:6142   */\n    tag_332:\n        /* \"#utility.yul\":6114:6134   */\n      0x47616d6520686173206265656e206f7665720000000000000000000000000000\n        /* \"#utility.yul\":6110:6111   */\n      0x00\n        /* \"#utility.yul\":6102:6108   */\n      dup3\n        /* \"#utility.yul\":6098:6112   */\n      add\n        /* \"#utility.yul\":6091:6135   */\n      mstore\n        /* \"#utility.yul\":5974:6142   */\n      pop\n      jump\t// out\n        /* \"#utility.yul\":6148:6514   */\n    tag_333:\n        /* \"#utility.yul\":6290:6293   */\n      0x00\n        /* \"#utility.yul\":6311:6378   */\n      tag_420\n        /* \"#utility.yul\":6375:6377   */\n      0x12\n        /* \"#utility.yul\":6370:6373   */\n      dup4\n        /* \"#utility.yul\":6311:6378   */\n      tag_329\n      jump\t// in\n    tag_420:\n        /* \"#utility.yul\":6304:6378   */\n      swap2\n      pop\n        /* \"#utility.yul\":6387:6480   */\n      tag_421\n        /* \"#utility.yul\":6476:6479   */\n      dup3\n        /* \"#utility.yul\":6387:6480   */\n      tag_332\n      jump\t// in\n    tag_421:\n        /* \"#utility.yul\":6505:6507   */\n      0x20\n        /* \"#utility.yul\":6500:6503   */\n      dup3\n        /* \"#utility.yul\":6496:6508   */\n      add\n        /* \"#utility.yul\":6489:6508   */\n      swap1\n      pop\n        /* \"#utility.yul\":6148:6514   */\n      swap2\n      swap1\n      pop\n      jump\t// out\n        /* \"#utility.yul\":6520:6939   */\n    tag_38:\n        /* \"#utility.yul\":6686:6690   */\n      0x00\n        /* \"#utility.yul\":6724:6726   */\n      0x20\n        /* \"#utility.yul\":6713:6722   */\n      dup3\n        /* \"#utility.yul\":6709:6727   */\n      add\n        /* \"#utility.yul\":6701:6727   */\n      swap1\n      pop\n        /* \"#utility.yul\":6773:6782   */\n      dup2\n        /* \"#utility.yul\":6767:6771   */\n      dup2\n        /* \"#utility.yul\":6763:6783   */\n      sub\n        /* \"#utility.yul\":6759:6760   */\n      0x00\n        /* \"#utility.yul\":6748:6757   */\n      dup4\n        /* \"#utility.yul\":6744:6761   */\n      add\n        /* \"#utility.yul\":6737:6784   */\n      mstore\n        /* \"#utility.yul\":6801:6932   */\n      tag_423\n        /* \"#utility.yul\":6927:6931   */\n      dup2\n        /* \"#utility.yul\":6801:6932   */\n      tag_333\n      jump\t// in\n    tag_423:\n        /* \"#utility.yul\":6793:6932   */\n      swap1\n      pop\n        /* \"#utility.yul\":6520:6939   */\n      swap2\n      swap1\n      pop\n      jump\t// out\n        /* \"#utility.yul\":6945:7109   */\n    tag_334:\n        /* \"#utility.yul\":7085:7101   */\n      0x4775657373696e67206572726f72000000000000000000000000000000000000\n        /* \"#utility.yul\":7081:7082   */\n      0x00\n        /* \"#utility.yul\":7073:7079   */\n      dup3\n        /* \"#utility.yul\":7069:7083   */\n      add\n        /* \"#utility.yul\":7062:7102   */\n      mstore\n        /* \"#utility.yul\":6945:7109   */\n      pop\n      jump\t// out\n        /* \"#utility.yul\":7115:7481   */\n    tag_335:\n        /* \"#utility.yul\":7257:7260   */\n      0x00\n        /* \"#utility.yul\":7278:7345   */\n      tag_426\n        /* \"#utility.yul\":7342:7344   */\n      0x0e\n        /* \"#utility.yul\":7337:7340   */\n      dup4\n        /* \"#utility.yul\":7278:7345   */\n      tag_329\n      jump\t// in\n    tag_426:\n        /* \"#utility.yul\":7271:7345   */\n      swap2\n      pop\n        /* \"#utility.yul\":7354:7447   */\n      tag_427\n        /* \"#utility.yul\":7443:7446   */\n      dup3\n        /* \"#utility.yul\":7354:7447   */\n      tag_334\n      jump\t// in\n    tag_427:\n        /* \"#utility.yul\":7472:7474   */\n      0x20\n        /* \"#utility.yul\":7467:7470   */\n      dup3\n        /* \"#utility.yul\":7463:7475   */\n      add\n        /* \"#utility.yul\":7456:7475   */\n      swap1\n      pop\n        /* \"#utility.yul\":7115:7481   */\n      swap2\n      swap1\n      pop\n      jump\t// out\n        /* \"#utility.yul\":7487:7906   */\n    tag_43:\n        /* \"#utility.yul\":7653:7657   */\n      0x00\n        /* \"#utility.yul\":7691:7693   */\n      0x20\n        /* \"#utility.yul\":7680:7689   */\n      dup3\n        /* \"#utility.yul\":7676:7694   */\n      add\n        /* \"#utility.yul\":7668:7694   */\n      swap1\n      pop\n        /* \"#utility.yul\":7740:7749   */\n      dup2\n        /* \"#utility.yul\":7734:7738   */\n      dup2\n        /* \"#utility.yul\":7730:7750   */\n      sub\n        /* \"#utility.yul\":7726:7727   */\n      0x00\n        /* \"#utility.yul\":7715:7724   */\n      dup4\n        /* \"#utility.yul\":7711:7728   */\n      add\n        /* \"#utility.yul\":7704:7751   */\n      mstore\n        /* \"#utility.yul\":7768:7899   */\n      tag_429\n        /* \"#utility.yul\":7894:7898   */\n      dup2\n        /* \"#utility.yul\":7768:7899   */\n      tag_335\n      jump\t// in\n    tag_429:\n        /* \"#utility.yul\":7760:7899   */\n      swap1\n      pop\n        /* \"#utility.yul\":7487:7906   */\n      swap2\n      swap1\n      pop\n      jump\t// out\n        /* \"#utility.yul\":7912:8025   */\n    tag_336:\n        /* \"#utility.yul\":7999:8000   */\n      0x04\n        /* \"#utility.yul\":7992:7997   */\n      dup2\n        /* \"#utility.yul\":7989:8001   */\n      lt\n        /* \"#utility.yul\":7979:8019   */\n      tag_431\n      jumpi\n        /* \"#utility.yul\":8015:8016   */\n      0x00\n        /* \"#utility.yul\":8012:8013   */\n      dup1\n        /* \"#utility.yul\":8005:8017   */\n      revert\n        /* \"#utility.yul\":7979:8019   */\n    tag_431:\n        /* \"#utility.yul\":7912:8025   */\n      pop\n      jump\t// out\n        /* \"#utility.yul\":8031:8198   */\n    tag_337:\n        /* \"#utility.yul\":8091:8096   */\n      0x00\n        /* \"#utility.yul\":8129:8135   */\n      dup2\n        /* \"#utility.yul\":8116:8136   */\n      calldataload\n        /* \"#utility.yul\":8107:8136   */\n      swap1\n      pop\n        /* \"#utility.yul\":8145:8192   */\n      tag_433\n        /* \"#utility.yul\":8186:8191   */\n      dup2\n        /* \"#utility.yul\":8145:8192   */\n      tag_336\n      jump\t// in\n    tag_433:\n        /* \"#utility.yul\":8031:8198   */\n      swap3\n      swap2\n      pop\n      pop\n      jump\t// out\n        /* \"#utility.yul\":8204:8561   */\n    tag_47:\n        /* \"#utility.yul\":8277:8283   */\n      0x00\n        /* \"#utility.yul\":8326:8328   */\n      0x20\n        /* \"#utility.yul\":8314:8323   */\n      dup3\n        /* \"#utility.yul\":8305:8312   */\n      dup5\n        /* \"#utility.yul\":8301:8324   */\n      sub\n        /* \"#utility.yul\":8297:8329   */\n      slt\n        /* \"#utility.yul\":8294:8413   */\n      iszero\n      tag_435\n      jumpi\n        /* \"#utility.yul\":8332:8411   */\n      tag_436\n      tag_315\n      jump\t// in\n    tag_436:\n        /* \"#utility.yul\":8294:8413   */\n    tag_435:\n        /* \"#utility.yul\":8452:8453   */\n      0x00\n        /* \"#utility.yul\":8477:8544   */\n      tag_437\n        /* \"#utility.yul\":8536:8543   */\n      dup5\n        /* \"#utility.yul\":8527:8533   */\n      dup3\n        /* \"#utility.yul\":8516:8525   */\n      dup6\n        /* \"#utility.yul\":8512:8534   */\n      add\n        /* \"#utility.yul\":8477:8544   */\n      tag_337\n      jump\t// in\n    tag_437:\n        /* \"#utility.yul\":8467:8544   */\n      swap2\n      pop\n        /* \"#utility.yul\":8423:8554   */\n      pop\n        /* \"#utility.yul\":8204:8561   */\n      swap3\n      swap2\n      pop\n      pop\n      jump\t// out\n        /* \"#utility.yul\":8567:8747   */\n    tag_53:\n        /* \"#utility.yul\":8615:8692   */\n      0x4e487b7100000000000000000000000000000000000000000000000000000000\n        /* \"#utility.yul\":8612:8613   */\n      0x00\n        /* \"#utility.yul\":8605:8693   */\n      mstore\n        /* \"#utility.yul\":8712:8716   */\n      0x21\n        /* \"#utility.yul\":8709:8710   */\n      0x04\n        /* \"#utility.yul\":8702:8717   */\n      mstore\n        /* \"#utility.yul\":8736:8740   */\n      0x24\n        /* \"#utility.yul\":8733:8734   */\n      0x00\n        /* \"#utility.yul\":8726:8741   */\n      revert\n        /* \"#utility.yul\":8753:8922   */\n    tag_338:\n        /* \"#utility.yul\":8893:8914   */\n      0x496e73756666696369656e7420616d6f756e7400000000000000000000000000\n        /* \"#utility.yul\":8889:8890   */\n      0x00\n        /* \"#utility.yul\":8881:8887   */\n      dup3\n        /* \"#utility.yul\":8877:8891   */\n      add\n        /* \"#utility.yul\":8870:8915   */\n      mstore\n        /* \"#utility.yul\":8753:8922   */\n      pop\n      jump\t// out\n        /* \"#utility.yul\":8928:9294   */\n    tag_339:\n        /* \"#utility.yul\":9070:9073   */\n      0x00\n        /* \"#utility.yul\":9091:9158   */\n      tag_441\n        /* \"#utility.yul\":9155:9157   */\n      0x13\n        /* \"#utility.yul\":9150:9153   */\n      dup4\n        /* \"#utility.yul\":9091:9158   */\n      tag_329\n      jump\t// in\n    tag_441:\n        /* \"#utility.yul\":9084:9158   */\n      swap2\n      pop\n        /* \"#utility.yul\":9167:9260   */\n      tag_442\n        /* \"#utility.yul\":9256:9259   */\n      dup3\n        /* \"#utility.yul\":9167:9260   */\n      tag_338\n      jump\t// in\n    tag_442:\n        /* \"#utility.yul\":9285:9287   */\n      0x20\n        /* \"#utility.yul\":9280:9283   */\n      dup3\n        /* \"#utility.yul\":9276:9288   */\n      add\n        /* \"#utility.yul\":9269:9288   */\n      swap1\n      pop\n        /* \"#utility.yul\":8928:9294   */\n      swap2\n      swap1\n      pop\n      jump\t// out\n        /* \"#utility.yul\":9300:9719   */\n    tag_73:\n        /* \"#utility.yul\":9466:9470   */\n      0x00\n        /* \"#utility.yul\":9504:9506   */\n      0x20\n        /* \"#utility.yul\":9493:9502   */\n      dup3\n        /* \"#utility.yul\":9489:9507   */\n      add\n        /* \"#utility.yul\":9481:9507   */\n      swap1\n      pop\n        /* \"#utility.yul\":9553:9562   */\n      dup2\n        /* \"#utility.yul\":9547:9551   */\n      dup2\n        /* \"#utility.yul\":9543:9563   */\n      sub\n        /* \"#utility.yul\":9539:9540   */\n      0x00\n        /* \"#utility.yul\":9528:9537   */\n      dup4\n        /* \"#utility.yul\":9524:9541   */\n      add\n        /* \"#utility.yul\":9517:9564   */\n      mstore\n        /* \"#utility.yul\":9581:9712   */\n      tag_444\n        /* \"#utility.yul\":9707:9711   */\n      dup2\n        /* \"#utility.yul\":9581:9712   */\n      tag_339\n      jump\t// in\n    tag_444:\n        /* \"#utility.yul\":9573:9712   */\n      swap1\n      pop\n        /* \"#utility.yul\":9300:9719   */\n      swap2\n      swap1\n      pop\n      jump\t// out\n        /* \"#utility.yul\":9725:9900   */\n    tag_340:\n        /* \"#utility.yul\":9865:9892   */\n      0x47616d6520626f6e75732063616e6e6f74206265207a65726f00000000000000\n        /* \"#utility.yul\":9861:9862   */\n      0x00\n        /* \"#utility.yul\":9853:9859   */\n      dup3\n        /* \"#utility.yul\":9849:9863   */\n      add\n        /* \"#utility.yul\":9842:9893   */\n      mstore\n        /* \"#utility.yul\":9725:9900   */\n      pop\n      jump\t// out\n        /* \"#utility.yul\":9906:10272   */\n    tag_341:\n        /* \"#utility.yul\":10048:10051   */\n      0x00\n        /* \"#utility.yul\":10069:10136   */\n      tag_447\n        /* \"#utility.yul\":10133:10135   */\n      0x19\n        /* \"#utility.yul\":10128:10131   */\n      dup4\n        /* \"#utility.yul\":10069:10136   */\n      tag_329\n      jump\t// in\n    tag_447:\n        /* \"#utility.yul\":10062:10136   */\n      swap2\n      pop\n        /* \"#utility.yul\":10145:10238   */\n      tag_448\n        /* \"#utility.yul\":10234:10237   */\n      dup3\n        /* \"#utility.yul\":10145:10238   */\n      tag_340\n      jump\t// in\n    tag_448:\n        /* \"#utility.yul\":10263:10265   */\n      0x20\n        /* \"#utility.yul\":10258:10261   */\n      dup3\n        /* \"#utility.yul\":10254:10266   */\n      add\n        /* \"#utility.yul\":10247:10266   */\n      swap1\n      pop\n        /* \"#utility.yul\":9906:10272   */\n      swap2\n      swap1\n      pop\n      jump\t// out\n        /* \"#utility.yul\":10278:10697   */\n    tag_92:\n        /* \"#utility.yul\":10444:10448   */\n      0x00\n        /* \"#utility.yul\":10482:10484   */\n      0x20\n        /* \"#utility.yul\":10471:10480   */\n      dup3\n        /* \"#utility.yul\":10467:10485   */\n      add\n        /* \"#utility.yul\":10459:10485   */\n      swap1\n      pop\n        /* \"#utility.yul\":10531:10540   */\n      dup2\n        /* \"#utility.yul\":10525:10529   */\n      dup2\n        /* \"#utility.yul\":10521:10541   */\n      sub\n        /* \"#utility.yul\":10517:10518   */\n      0x00\n        /* \"#utility.yul\":10506:10515   */\n      dup4\n        /* \"#utility.yul\":10502:10519   */\n      add\n        /* \"#utility.yul\":10495:10542   */\n      mstore\n        /* \"#utility.yul\":10559:10690   */\n      tag_450\n        /* \"#utility.yul\":10685:10689   */\n      dup2\n        /* \"#utility.yul\":10559:10690   */\n      tag_341\n      jump\t// in\n    tag_450:\n        /* \"#utility.yul\":10551:10690   */\n      swap1\n      pop\n        /* \"#utility.yul\":10278:10697   */\n      swap2\n      swap1\n      pop\n      jump\t// out\n        /* \"#utility.yul\":10703:10883   */\n    tag_342:\n        /* \"#utility.yul\":10751:10828   */\n      0x4e487b7100000000000000000000000000000000000000000000000000000000\n        /* \"#utility.yul\":10748:10749   */\n      0x00\n        /* \"#utility.yul\":10741:10829   */\n      mstore\n        /* \"#utility.yul\":10848:10852   */\n      0x11\n        /* \"#utility.yul\":10845:10846   */\n      0x04\n        /* \"#utility.yul\":10838:10853   */\n      mstore\n        /* \"#utility.yul\":10872:10876   */\n      0x24\n        /* \"#utility.yul\":10869:10870   */\n      0x00\n        /* \"#utility.yul\":10862:10877   */\n      revert\n        /* \"#utility.yul\":10889:11083   */\n    tag_103:\n        /* \"#utility.yul\":10929:10933   */\n      0x00\n        /* \"#utility.yul\":10949:10969   */\n      tag_453\n        /* \"#utility.yul\":10967:10968   */\n      dup3\n        /* \"#utility.yul\":10949:10969   */\n      tag_317\n      jump\t// in\n    tag_453:\n        /* \"#utility.yul\":10944:10969   */\n      swap2\n      pop\n        /* \"#utility.yul\":10983:11003   */\n      tag_454\n        /* \"#utility.yul\":11001:11002   */\n      dup4\n        /* \"#utility.yul\":10983:11003   */\n      tag_317\n      jump\t// in\n    tag_454:\n        /* \"#utility.yul\":10978:11003   */\n      swap3\n      pop\n        /* \"#utility.yul\":11027:11028   */\n      dup3\n        /* \"#utility.yul\":11024:11025   */\n      dup3\n        /* \"#utility.yul\":11020:11029   */\n      sub\n        /* \"#utility.yul\":11012:11029   */\n      swap1\n      pop\n        /* \"#utility.yul\":11051:11052   */\n      dup2\n        /* \"#utility.yul\":11045:11049   */\n      dup2\n        /* \"#utility.yul\":11042:11053   */\n      gt\n        /* \"#utility.yul\":11039:11076   */\n      iszero\n      tag_455\n      jumpi\n        /* \"#utility.yul\":11056:11074   */\n      tag_456\n      tag_342\n      jump\t// in\n    tag_456:\n        /* \"#utility.yul\":11039:11076   */\n    tag_455:\n        /* \"#utility.yul\":10889:11083   */\n      swap3\n      swap2\n      pop\n      pop\n      jump\t// out\n        /* \"#utility.yul\":11089:11314   */\n    tag_343:\n        /* \"#utility.yul\":11229:11263   */\n      0x4f776e61626c653a206e6577206f776e657220697320746865207a65726f2061\n        /* \"#utility.yul\":11225:11226   */\n      0x00\n        /* \"#utility.yul\":11217:11223   */\n      dup3\n        /* \"#utility.yul\":11213:11227   */\n      add\n        /* \"#utility.yul\":11206:11264   */\n      mstore\n        /* \"#utility.yul\":11298:11306   */\n      0x6464726573730000000000000000000000000000000000000000000000000000\n        /* \"#utility.yul\":11293:11295   */\n      0x20\n        /* \"#utility.yul\":11285:11291   */\n      dup3\n        /* \"#utility.yul\":11281:11296   */\n      add\n        /* \"#utility.yul\":11274:11307   */\n      mstore\n        /* \"#utility.yul\":11089:11314   */\n      pop\n      jump\t// out\n        /* \"#utility.yul\":11320:11686   */\n    tag_344:\n        /* \"#utility.yul\":11462:11465   */\n      0x00\n        /* \"#utility.yul\":11483:11550   */\n      tag_459\n        /* \"#utility.yul\":11547:11549   */\n      0x26\n        /* \"#utility.yul\":11542:11545   */\n      dup4\n        /* \"#utility.yul\":11483:11550   */\n      tag_329\n      jump\t// in\n    tag_459:\n        /* \"#utility.yul\":11476:11550   */\n      swap2\n      pop\n        /* \"#utility.yul\":11559:11652   */\n      tag_460\n        /* \"#utility.yul\":11648:11651   */\n      dup3\n        /* \"#utility.yul\":11559:11652   */\n      tag_343\n      jump\t// in\n    tag_460:\n        /* \"#utility.yul\":11677:11679   */\n      0x40\n        /* \"#utility.yul\":11672:11675   */\n      dup3\n        /* \"#utility.yul\":11668:11680   */\n      add\n        /* \"#utility.yul\":11661:11680   */\n      swap1\n      pop\n        /* \"#utility.yul\":11320:11686   */\n      swap2\n      swap1\n      pop\n      jump\t// out\n        /* \"#utility.yul\":11692:12111   */\n    tag_112:\n        /* \"#utility.yul\":11858:11862   */\n      0x00\n        /* \"#utility.yul\":11896:11898   */\n      0x20\n        /* \"#utility.yul\":11885:11894   */\n      dup3\n        /* \"#utility.yul\":11881:11899   */\n      add\n        /* \"#utility.yul\":11873:11899   */\n      swap1\n      pop\n        /* \"#utility.yul\":11945:11954   */\n      dup2\n        /* \"#utility.yul\":11939:11943   */\n      dup2\n        /* \"#utility.yul\":11935:11955   */\n      sub\n        /* \"#utility.yul\":11931:11932   */\n      0x00\n        /* \"#utility.yul\":11920:11929   */\n      dup4\n        /* \"#utility.yul\":11916:11933   */\n      add\n        /* \"#utility.yul\":11909:11956   */\n      mstore\n        /* \"#utility.yul\":11973:12104   */\n      tag_462\n        /* \"#utility.yul\":12099:12103   */\n      dup2\n        /* \"#utility.yul\":11973:12104   */\n      tag_344\n      jump\t// in\n    tag_462:\n        /* \"#utility.yul\":11965:12104   */\n      swap1\n      pop\n        /* \"#utility.yul\":11692:12111   */\n      swap2\n      swap1\n      pop\n      jump\t// out\n        /* \"#utility.yul\":12117:12350   */\n    tag_168:\n        /* \"#utility.yul\":12156:12159   */\n      0x00\n        /* \"#utility.yul\":12179:12203   */\n      tag_464\n        /* \"#utility.yul\":12197:12202   */\n      dup3\n        /* \"#utility.yul\":12179:12203   */\n      tag_317\n      jump\t// in\n    tag_464:\n        /* \"#utility.yul\":12170:12203   */\n      swap2\n      pop\n        /* \"#utility.yul\":12225:12291   */\n      0xffffffffffffffffffffffffffffffffffffffffffffffffffffffffffffffff\n        /* \"#utility.yul\":12218:12223   */\n      dup3\n        /* \"#utility.yul\":12215:12292   */\n      sub\n        /* \"#utility.yul\":12212:12315   */\n      tag_465\n      jumpi\n        /* \"#utility.yul\":12295:12313   */\n      tag_466\n      tag_342\n      jump\t// in\n    tag_466:\n        /* \"#utility.yul\":12212:12315   */\n    tag_465:\n        /* \"#utility.yul\":12342:12343   */\n      0x01\n        /* \"#utility.yul\":12335:12340   */\n      dup3\n        /* \"#utility.yul\":12331:12344   */\n      add\n        /* \"#utility.yul\":12324:12344   */\n      swap1\n      pop\n        /* \"#utility.yul\":12117:12350   */\n      swap2\n      swap1\n      pop\n      jump\t// out\n        /* \"#utility.yul\":12356:12442   */\n    tag_345:\n        /* \"#utility.yul\":12391:12398   */\n      0x00\n        /* \"#utility.yul\":12431:12435   */\n      0xff\n        /* \"#utility.yul\":12424:12429   */\n      dup3\n        /* \"#utility.yul\":12420:12436   */\n      and\n        /* \"#utility.yul\":12409:12436   */\n      swap1\n      pop\n        /* \"#utility.yul\":12356:12442   */\n      swap2\n      swap1\n      pop\n      jump\t// out\n        /* \"#utility.yul\":12448:12566   */\n    tag_346:\n        /* \"#utility.yul\":12519:12541   */\n      tag_469\n        /* \"#utility.yul\":12535:12540   */\n      dup2\n        /* \"#utility.yul\":12519:12541   */\n      tag_345\n      jump\t// in\n    tag_469:\n        /* \"#utility.yul\":12512:12517   */\n      dup2\n        /* \"#utility.yul\":12509:12542   */\n      eq\n        /* \"#utility.yul\":12499:12560   */\n      tag_470\n      jumpi\n        /* \"#utility.yul\":12556:12557   */\n      0x00\n        /* \"#utility.yul\":12553:12554   */\n      dup1\n        /* \"#utility.yul\":12546:12558   */\n      revert\n        /* \"#utility.yul\":12499:12560   */\n    tag_470:\n        /* \"#utility.yul\":12448:12566   */\n      pop\n      jump\t// out\n        /* \"#utility.yul\":12572:12711   */\n    tag_347:\n        /* \"#utility.yul\":12627:12632   */\n      0x00\n        /* \"#utility.yul\":12658:12664   */\n      dup2\n        /* \"#utility.yul\":12652:12665   */\n      mload\n        /* \"#utility.yul\":12643:12665   */\n      swap1\n      pop\n        /* \"#utility.yul\":12674:12705   */\n      tag_472\n        /* \"#utility.yul\":12699:12704   */\n      dup2\n        /* \"#utility.yul\":12674:12705   */\n      tag_346\n      jump\t// in\n    tag_472:\n        /* \"#utility.yul\":12572:12711   */\n      swap3\n      swap2\n      pop\n      pop\n      jump\t// out\n        /* \"#utility.yul\":12717:13064   */\n    tag_174:\n        /* \"#utility.yul\":12785:12791   */\n      0x00\n        /* \"#utility.yul\":12834:12836   */\n      0x20\n        /* \"#utility.yul\":12822:12831   */\n      dup3\n        /* \"#utility.yul\":12813:12820   */\n      dup5\n        /* \"#utility.yul\":12809:12832   */\n      sub\n        /* \"#utility.yul\":12805:12837   */\n      slt\n        /* \"#utility.yul\":12802:12921   */\n      iszero\n      tag_474\n      jumpi\n        /* \"#utility.yul\":12840:12919   */\n      tag_475\n      tag_315\n      jump\t// in\n    tag_475:\n        /* \"#utility.yul\":12802:12921   */\n    tag_474:\n        /* \"#utility.yul\":12960:12961   */\n      0x00\n        /* \"#utility.yul\":12985:13047   */\n      tag_476\n        /* \"#utility.yul\":13039:13046   */\n      dup5\n        /* \"#utility.yul\":13030:13036   */\n      dup3\n        /* \"#utility.yul\":13019:13028   */\n      dup6\n        /* \"#utility.yul\":13015:13037   */\n      add\n        /* \"#utility.yul\":12985:13047   */\n      tag_347\n      jump\t// in\n    tag_476:\n        /* \"#utility.yul\":12975:13047   */\n      swap2\n      pop\n        /* \"#utility.yul\":12931:13057   */\n      pop\n        /* \"#utility.yul\":12717:13064   */\n      swap3\n      swap2\n      pop\n      pop\n      jump\t// out\n        /* \"#utility.yul\":13070:13172   */\n    tag_348:\n        /* \"#utility.yul\":13112:13120   */\n      0x00\n        /* \"#utility.yul\":13159:13164   */\n      dup2\n        /* \"#utility.yul\":13156:13157   */\n      0x01\n        /* \"#utility.yul\":13152:13165   */\n      shr\n        /* \"#utility.yul\":13131:13165   */\n      swap1\n      pop\n        /* \"#utility.yul\":13070:13172   */\n      swap2\n      swap1\n      pop\n      jump\t// out\n        /* \"#utility.yul\":13178:14026   */\n    tag_349:\n        /* \"#utility.yul\":13239:13244   */\n      0x00\n        /* \"#utility.yul\":13246:13250   */\n      dup1\n        /* \"#utility.yul\":13270:13276   */\n      dup3\n        /* \"#utility.yul\":13261:13276   */\n      swap2\n      pop\n        /* \"#utility.yul\":13294:13299   */\n      dup4\n        /* \"#utility.yul\":13285:13299   */\n      swap1\n      pop\n        /* \"#utility.yul\":13308:14020   */\n    tag_479:\n        /* \"#utility.yul\":13329:13330   */\n      0x01\n        /* \"#utility.yul\":13319:13327   */\n      dup6\n        /* \"#utility.yul\":13316:13331   */\n      gt\n        /* \"#utility.yul\":13308:14020   */\n      iszero\n      tag_481\n      jumpi\n        /* \"#utility.yul\":13424:13428   */\n      dup1\n        /* \"#utility.yul\":13419:13422   */\n      dup7\n        /* \"#utility.yul\":13415:13429   */\n      div\n        /* \"#utility.yul\":13409:13413   */\n      dup2\n        /* \"#utility.yul\":13406:13430   */\n      gt\n        /* \"#utility.yul\":13403:13453   */\n      iszero\n      tag_482\n      jumpi\n        /* \"#utility.yul\":13433:13451   */\n      tag_483\n      tag_342\n      jump\t// in\n    tag_483:\n        /* \"#utility.yul\":13403:13453   */\n    tag_482:\n        /* \"#utility.yul\":13483:13484   */\n      0x01\n        /* \"#utility.yul\":13473:13481   */\n      dup6\n        /* \"#utility.yul\":13469:13485   */\n      and\n        /* \"#utility.yul\":13466:13917   */\n      iszero\n      tag_484\n      jumpi\n        /* \"#utility.yul\":13898:13902   */\n      dup1\n        /* \"#utility.yul\":13891:13896   */\n      dup3\n        /* \"#utility.yul\":13887:13903   */\n      mul\n        /* \"#utility.yul\":13878:13903   */\n      swap2\n      pop\n        /* \"#utility.yul\":13466:13917   */\n    tag_484:\n        /* \"#utility.yul\":13948:13952   */\n      dup1\n        /* \"#utility.yul\":13942:13946   */\n      dup2\n        /* \"#utility.yul\":13938:13953   */\n      mul\n        /* \"#utility.yul\":13930:13953   */\n      swap1\n      pop\n        /* \"#utility.yul\":13978:14010   */\n      tag_485\n        /* \"#utility.yul\":14001:14009   */\n      dup6\n        /* \"#utility.yul\":13978:14010   */\n      tag_348\n      jump\t// in\n    tag_485:\n        /* \"#utility.yul\":13966:14010   */\n      swap5\n      pop\n        /* \"#utility.yul\":13308:14020   */\n      jump(tag_479)\n    tag_481:\n        /* \"#utility.yul\":13178:14026   */\n      swap5\n      pop\n      swap5\n      swap3\n      pop\n      pop\n      pop\n      jump\t// out\n        /* \"#utility.yul\":14032:15105   */\n    tag_350:\n        /* \"#utility.yul\":14086:14091   */\n      0x00\n        /* \"#utility.yul\":14277:14285   */\n      dup3\n        /* \"#utility.yul\":14267:14307   */\n      tag_487\n      jumpi\n        /* \"#utility.yul\":14298:14299   */\n      0x01\n        /* \"#utility.yul\":14289:14299   */\n      swap1\n      pop\n        /* \"#utility.yul\":14300:14305   */\n      jump(tag_486)\n        /* \"#utility.yul\":14267:14307   */\n    tag_487:\n        /* \"#utility.yul\":14326:14330   */\n      dup2\n        /* \"#utility.yul\":14316:14352   */\n      tag_488\n      jumpi\n        /* \"#utility.yul\":14343:14344   */\n      0x00\n        /* \"#utility.yul\":14334:14344   */\n      swap1\n      pop\n        /* \"#utility.yul\":14345:14350   */\n      jump(tag_486)\n        /* \"#utility.yul\":14316:14352   */\n    tag_488:\n        /* \"#utility.yul\":14412:14416   */\n      dup2\n        /* \"#utility.yul\":14460:14461   */\n      0x01\n        /* \"#utility.yul\":14455:14482   */\n      dup2\n      eq\n      tag_490\n      jumpi\n        /* \"#utility.yul\":14496:14497   */\n      0x02\n        /* \"#utility.yul\":14491:14682   */\n      dup2\n      eq\n      tag_491\n      jumpi\n        /* \"#utility.yul\":14405:14682   */\n      jump(tag_489)\n        /* \"#utility.yul\":14455:14482   */\n    tag_490:\n        /* \"#utility.yul\":14473:14474   */\n      0x01\n        /* \"#utility.yul\":14464:14474   */\n      swap2\n      pop\n        /* \"#utility.yul\":14475:14480   */\n      pop\n      jump(tag_486)\n        /* \"#utility.yul\":14491:14682   */\n    tag_491:\n        /* \"#utility.yul\":14536:14539   */\n      0xff\n        /* \"#utility.yul\":14526:14534   */\n      dup5\n        /* \"#utility.yul\":14523:14540   */\n      gt\n        /* \"#utility.yul\":14520:14563   */\n      iszero\n      tag_492\n      jumpi\n        /* \"#utility.yul\":14543:14561   */\n      tag_493\n      tag_342\n      jump\t// in\n    tag_493:\n        /* \"#utility.yul\":14520:14563   */\n    tag_492:\n        /* \"#utility.yul\":14592:14600   */\n      dup4\n        /* \"#utility.yul\":14589:14590   */\n      0x02\n        /* \"#utility.yul\":14585:14601   */\n      exp\n        /* \"#utility.yul\":14576:14601   */\n      swap2\n      pop\n        /* \"#utility.yul\":14627:14630   */\n      dup5\n        /* \"#utility.yul\":14620:14625   */\n      dup3\n        /* \"#utility.yul\":14617:14631   */\n      gt\n        /* \"#utility.yul\":14614:14654   */\n      iszero\n      tag_494\n      jumpi\n        /* \"#utility.yul\":14634:14652   */\n      tag_495\n      tag_342\n      jump\t// in\n    tag_495:\n        /* \"#utility.yul\":14614:14654   */\n    tag_494:\n        /* \"#utility.yul\":14667:14672   */\n      pop\n      jump(tag_486)\n        /* \"#utility.yul\":14405:14682   */\n    tag_489:\n      pop\n        /* \"#utility.yul\":14791:14793   */\n      0x20\n        /* \"#utility.yul\":14781:14789   */\n      dup4\n        /* \"#utility.yul\":14778:14794   */\n      lt\n        /* \"#utility.yul\":14772:14775   */\n      0x0133\n        /* \"#utility.yul\":14766:14770   */\n      dup4\n        /* \"#utility.yul\":14763:14776   */\n      lt\n        /* \"#utility.yul\":14759:14795   */\n      and\n        /* \"#utility.yul\":14741:14743   */\n      0x4e\n        /* \"#utility.yul\":14731:14739   */\n      dup5\n        /* \"#utility.yul\":14728:14744   */\n      lt\n        /* \"#utility.yul\":14723:14725   */\n      0x0b\n        /* \"#utility.yul\":14717:14721   */\n      dup5\n        /* \"#utility.yul\":14714:14726   */\n      lt\n        /* \"#utility.yul\":14710:14745   */\n      and\n        /* \"#utility.yul\":14694:14805   */\n      or\n        /* \"#utility.yul\":14691:14937   */\n      iszero\n      tag_496\n      jumpi\n        /* \"#utility.yul\":14847:14855   */\n      dup3\n        /* \"#utility.yul\":14841:14845   */\n      dup3\n        /* \"#utility.yul\":14837:14856   */\n      exp\n        /* \"#utility.yul\":14828:14856   */\n      swap1\n      pop\n        /* \"#utility.yul\":14882:14885   */\n      dup4\n        /* \"#utility.yul\":14875:14880   */\n      dup2\n        /* \"#utility.yul\":14872:14886   */\n      gt\n        /* \"#utility.yul\":14869:14909   */\n      iszero\n      tag_497\n      jumpi\n        /* \"#utility.yul\":14889:14907   */\n      tag_498\n      tag_342\n      jump\t// in\n    tag_498:\n        /* \"#utility.yul\":14869:14909   */\n    tag_497:\n        /* \"#utility.yul\":14922:14927   */\n      jump(tag_486)\n        /* \"#utility.yul\":14691:14937   */\n    tag_496:\n        /* \"#utility.yul\":14962:15004   */\n      tag_499\n        /* \"#utility.yul\":15000:15003   */\n      dup5\n        /* \"#utility.yul\":14990:14998   */\n      dup5\n        /* \"#utility.yul\":14984:14988   */\n      dup5\n        /* \"#utility.yul\":14981:14982   */\n      0x01\n        /* \"#utility.yul\":14962:15004   */\n      tag_349\n      jump\t// in\n    tag_499:\n        /* \"#utility.yul\":14947:15004   */\n      swap3\n      pop\n      swap1\n      pop\n        /* \"#utility.yul\":15036:15040   */\n      dup2\n        /* \"#utility.yul\":15031:15034   */\n      dup5\n        /* \"#utility.yul\":15027:15041   */\n      div\n        /* \"#utility.yul\":15020:15025   */\n      dup2\n        /* \"#utility.yul\":15017:15042   */\n      gt\n        /* \"#utility.yul\":15014:15065   */\n      iszero\n      tag_500\n      jumpi\n        /* \"#utility.yul\":15045:15063   */\n      tag_501\n      tag_342\n      jump\t// in\n    tag_501:\n        /* \"#utility.yul\":15014:15065   */\n    tag_500:\n        /* \"#utility.yul\":15094:15098   */\n      dup2\n        /* \"#utility.yul\":15087:15092   */\n      dup2\n        /* \"#utility.yul\":15083:15099   */\n      mul\n        /* \"#utility.yul\":15074:15099   */\n      swap1\n      pop\n        /* \"#utility.yul\":14032:15105   */\n    tag_486:\n      swap4\n      swap3\n      pop\n      pop\n      pop\n      jump\t// out\n        /* \"#utility.yul\":15111:15396   */\n    tag_176:\n        /* \"#utility.yul\":15171:15176   */\n      0x00\n        /* \"#utility.yul\":15195:15218   */\n      tag_503\n        /* \"#utility.yul\":15213:15217   */\n      dup3\n        /* \"#utility.yul\":15195:15218   */\n      tag_317\n      jump\t// in\n    tag_503:\n        /* \"#utility.yul\":15187:15218   */\n      swap2\n      pop\n        /* \"#utility.yul\":15239:15266   */\n      tag_504\n        /* \"#utility.yul\":15257:15265   */\n      dup4\n        /* \"#utility.yul\":15239:15266   */\n      tag_317\n      jump\t// in\n    tag_504:\n        /* \"#utility.yul\":15227:15266   */\n      swap3\n      pop\n        /* \"#utility.yul\":15285:15389   */\n      tag_505\n        /* \"#utility.yul\":15322:15388   */\n      0xffffffffffffffffffffffffffffffffffffffffffffffffffffffffffffffff\n        /* \"#utility.yul\":15312:15320   */\n      dup5\n        /* \"#utility.yul\":15306:15310   */\n      dup5\n        /* \"#utility.yul\":15285:15389   */\n      tag_350\n      jump\t// in\n    tag_505:\n        /* \"#utility.yul\":15276:15389   */\n      swap1\n      pop\n        /* \"#utility.yul\":15111:15396   */\n      swap3\n      swap2\n      pop\n      pop\n      jump\t// out\n        /* \"#utility.yul\":15402:15812   */\n    tag_178:\n        /* \"#utility.yul\":15442:15449   */\n      0x00\n        /* \"#utility.yul\":15465:15485   */\n      tag_507\n        /* \"#utility.yul\":15483:15484   */\n      dup3\n        /* \"#utility.yul\":15465:15485   */\n      tag_317\n      jump\t// in\n    tag_507:\n        /* \"#utility.yul\":15460:15485   */\n      swap2\n      pop\n        /* \"#utility.yul\":15499:15519   */\n      tag_508\n        /* \"#utility.yul\":15517:15518   */\n      dup4\n        /* \"#utility.yul\":15499:15519   */\n      tag_317\n      jump\t// in\n    tag_508:\n        /* \"#utility.yul\":15494:15519   */\n      swap3\n      pop\n        /* \"#utility.yul\":15554:15555   */\n      dup3\n        /* \"#utility.yul\":15551:15552   */\n      dup3\n        /* \"#utility.yul\":15547:15556   */\n      mul\n        /* \"#utility.yul\":15576:15606   */\n      tag_509\n        /* \"#utility.yul\":15594:15605   */\n      dup2\n        /* \"#utility.yul\":15576:15606   */\n      tag_317\n      jump\t// in\n    tag_509:\n        /* \"#utility.yul\":15565:15606   */\n      swap2\n      pop\n        /* \"#utility.yul\":15755:15756   */\n      dup3\n        /* \"#utility.yul\":15746:15753   */\n      dup3\n        /* \"#utility.yul\":15742:15757   */\n      div\n        /* \"#utility.yul\":15739:15740   */\n      dup5\n        /* \"#utility.yul\":15736:15758   */\n      eq\n        /* \"#utility.yul\":15716:15717   */\n      dup4\n        /* \"#utility.yul\":15709:15718   */\n      iszero\n        /* \"#utility.yul\":15689:15772   */\n      or\n        /* \"#utility.yul\":15666:15805   */\n      tag_510\n      jumpi\n        /* \"#utility.yul\":15785:15803   */\n      tag_511\n      tag_342\n      jump\t// in\n    tag_511:\n        /* \"#utility.yul\":15666:15805   */\n    tag_510:\n        /* \"#utility.yul\":15450:15812   */\n      pop\n        /* \"#utility.yul\":15402:15812   */\n      swap3\n      swap2\n      pop\n      pop\n      jump\t// out\n        /* \"#utility.yul\":15818:15936   */\n    tag_351:\n        /* \"#utility.yul\":15905:15929   */\n      tag_513\n        /* \"#utility.yul\":15923:15928   */\n      dup2\n        /* \"#utility.yul\":15905:15929   */\n      tag_317\n      jump\t// in\n    tag_513:\n        /* \"#utility.yul\":15900:15903   */\n      dup3\n        /* \"#utility.yul\":15893:15930   */\n      mstore\n        /* \"#utility.yul\":15818:15936   */\n      pop\n      pop\n      jump\t// out\n        /* \"#utility.yul\":15942:16384   */\n    tag_180:\n        /* \"#utility.yul\":16091:16095   */\n      0x00\n        /* \"#utility.yul\":16129:16131   */\n      0x60\n        /* \"#utility.yul\":16118:16127   */\n      dup3\n        /* \"#utility.yul\":16114:16132   */\n      add\n        /* \"#utility.yul\":16106:16132   */\n      swap1\n      pop\n        /* \"#utility.yul\":16142:16213   */\n      tag_515\n        /* \"#utility.yul\":16210:16211   */\n      0x00\n        /* \"#utility.yul\":16199:16208   */\n      dup4\n        /* \"#utility.yul\":16195:16212   */\n      add\n        /* \"#utility.yul\":16186:16192   */\n      dup7\n        /* \"#utility.yul\":16142:16213   */\n      tag_326\n      jump\t// in\n    tag_515:\n        /* \"#utility.yul\":16223:16295   */\n      tag_516\n        /* \"#utility.yul\":16291:16293   */\n      0x20\n        /* \"#utility.yul\":16280:16289   */\n      dup4\n        /* \"#utility.yul\":16276:16294   */\n      add\n        /* \"#utility.yul\":16267:16273   */\n      dup6\n        /* \"#utility.yul\":16223:16295   */\n      tag_326\n      jump\t// in\n    tag_516:\n        /* \"#utility.yul\":16305:16377   */\n      tag_517\n        /* \"#utility.yul\":16373:16375   */\n      0x40\n        /* \"#utility.yul\":16362:16371   */\n      dup4\n        /* \"#utility.yul\":16358:16376   */\n      add\n        /* \"#utility.yul\":16349:16355   */\n      dup5\n        /* \"#utility.yul\":16305:16377   */\n      tag_351\n      jump\t// in\n    tag_517:\n        /* \"#utility.yul\":15942:16384   */\n      swap5\n      swap4\n      pop\n      pop\n      pop\n      pop\n      jump\t// out\n        /* \"#utility.yul\":16390:16480   */\n    tag_352:\n        /* \"#utility.yul\":16424:16431   */\n      0x00\n        /* \"#utility.yul\":16467:16472   */\n      dup2\n        /* \"#utility.yul\":16460:16473   */\n      iszero\n        /* \"#utility.yul\":16453:16474   */\n      iszero\n        /* \"#utility.yul\":16442:16474   */\n      swap1\n      pop\n        /* \"#utility.yul\":16390:16480   */\n      swap2\n      swap1\n      pop\n      jump\t// out\n        /* \"#utility.yul\":16486:16602   */\n    tag_353:\n        /* \"#utility.yul\":16556:16577   */\n      tag_520\n        /* \"#utility.yul\":16571:16576   */\n      dup2\n        /* \"#utility.yul\":16556:16577   */\n      tag_352\n      jump\t// in\n    tag_520:\n        /* \"#utility.yul\":16549:16554   */\n      dup2\n        /* \"#utility.yul\":16546:16578   */\n      eq\n        /* \"#utility.yul\":16536:16596   */\n      tag_521\n      jumpi\n        /* \"#utility.yul\":16592:16593   */\n      0x00\n        /* \"#utility.yul\":16589:16590   */\n      dup1\n        /* \"#utility.yul\":16582:16594   */\n      revert\n        /* \"#utility.yul\":16536:16596   */\n    tag_521:\n        /* \"#utility.yul\":16486:16602   */\n      pop\n      jump\t// out\n        /* \"#utility.yul\":16608:16745   */\n    tag_354:\n        /* \"#utility.yul\":16662:16667   */\n      0x00\n        /* \"#utility.yul\":16693:16699   */\n      dup2\n        /* \"#utility.yul\":16687:16700   */\n      mload\n        /* \"#utility.yul\":16678:16700   */\n      swap1\n      pop\n        /* \"#utility.yul\":16709:16739   */\n      tag_523\n        /* \"#utility.yul\":16733:16738   */\n      dup2\n        /* \"#utility.yul\":16709:16739   */\n      tag_353\n      jump\t// in\n    tag_523:\n        /* \"#utility.yul\":16608:16745   */\n      swap3\n      swap2\n      pop\n      pop\n      jump\t// out\n        /* \"#utility.yul\":16751:17096   */\n    tag_184:\n        /* \"#utility.yul\":16818:16824   */\n      0x00\n        /* \"#utility.yul\":16867:16869   */\n      0x20\n        /* \"#utility.yul\":16855:16864   */\n      dup3\n        /* \"#utility.yul\":16846:16853   */\n      dup5\n        /* \"#utility.yul\":16842:16865   */\n      sub\n        /* \"#utility.yul\":16838:16870   */\n      slt\n        /* \"#utility.yul\":16835:16954   */\n      iszero\n      tag_525\n      jumpi\n        /* \"#utility.yul\":16873:16952   */\n      tag_526\n      tag_315\n      jump\t// in\n    tag_526:\n        /* \"#utility.yul\":16835:16954   */\n    tag_525:\n        /* \"#utility.yul\":16993:16994   */\n      0x00\n        /* \"#utility.yul\":17018:17079   */\n      tag_527\n        /* \"#utility.yul\":17071:17078   */\n      dup5\n        /* \"#utility.yul\":17062:17068   */\n      dup3\n        /* \"#utility.yul\":17051:17060   */\n      dup6\n        /* \"#utility.yul\":17047:17069   */\n      add\n        /* \"#utility.yul\":17018:17079   */\n      tag_354\n      jump\t// in\n    tag_527:\n        /* \"#utility.yul\":17008:17079   */\n      swap2\n      pop\n        /* \"#utility.yul\":16964:17089   */\n      pop\n        /* \"#utility.yul\":16751:17096   */\n      swap3\n      swap2\n      pop\n      pop\n      jump\t// out\n        /* \"#utility.yul\":17102:17293   */\n    tag_204:\n        /* \"#utility.yul\":17142:17145   */\n      0x00\n        /* \"#utility.yul\":17161:17181   */\n      tag_529\n        /* \"#utility.yul\":17179:17180   */\n      dup3\n        /* \"#utility.yul\":17161:17181   */\n      tag_317\n      jump\t// in\n    tag_529:\n        /* \"#utility.yul\":17156:17181   */\n      swap2\n      pop\n        /* \"#utility.yul\":17195:17215   */\n      tag_530\n        /* \"#utility.yul\":17213:17214   */\n      dup4\n        /* \"#utility.yul\":17195:17215   */\n      tag_317\n      jump\t// in\n    tag_530:\n        /* \"#utility.yul\":17190:17215   */\n      swap3\n      pop\n        /* \"#utility.yul\":17238:17239   */\n      dup3\n        /* \"#utility.yul\":17235:17236   */\n      dup3\n        /* \"#utility.yul\":17231:17240   */\n      add\n        /* \"#utility.yul\":17224:17240   */\n      swap1\n      pop\n        /* \"#utility.yul\":17259:17262   */\n      dup1\n        /* \"#utility.yul\":17256:17257   */\n      dup3\n        /* \"#utility.yul\":17253:17263   */\n      gt\n        /* \"#utility.yul\":17250:17286   */\n      iszero\n      tag_531\n      jumpi\n        /* \"#utility.yul\":17266:17284   */\n      tag_532\n      tag_342\n      jump\t// in\n    tag_532:\n        /* \"#utility.yul\":17250:17286   */\n    tag_531:\n        /* \"#utility.yul\":17102:17293   */\n      swap3\n      swap2\n      pop\n      pop\n      jump\t// out\n        /* \"#utility.yul\":17299:17481   */\n    tag_355:\n        /* \"#utility.yul\":17439:17473   */\n      0x4f776e61626c653a2063616c6c6572206973206e6f7420746865206f776e6572\n        /* \"#utility.yul\":17435:17436   */\n      0x00\n        /* \"#utility.yul\":17427:17433   */\n      dup3\n        /* \"#utility.yul\":17423:17437   */\n      add\n        /* \"#utility.yul\":17416:17474   */\n      mstore\n        /* \"#utility.yul\":17299:17481   */\n      pop\n      jump\t// out\n        /* \"#utility.yul\":17487:17853   */\n    tag_356:\n        /* \"#utility.yul\":17629:17632   */\n      0x00\n        /* \"#utility.yul\":17650:17717   */\n      tag_535\n        /* \"#utility.yul\":17714:17716   */\n      0x20\n        /* \"#utility.yul\":17709:17712   */\n      dup4\n        /* \"#utility.yul\":17650:17717   */\n      tag_329\n      jump\t// in\n    tag_535:\n        /* \"#utility.yul\":17643:17717   */\n      swap2\n      pop\n        /* \"#utility.yul\":17726:17819   */\n      tag_536\n        /* \"#utility.yul\":17815:17818   */\n      dup3\n        /* \"#utility.yul\":17726:17819   */\n      tag_355\n      jump\t// in\n    tag_536:\n        /* \"#utility.yul\":17844:17846   */\n      0x20\n        /* \"#utility.yul\":17839:17842   */\n      dup3\n        /* \"#utility.yul\":17835:17847   */\n      add\n        /* \"#utility.yul\":17828:17847   */\n      swap1\n      pop\n        /* \"#utility.yul\":17487:17853   */\n      swap2\n      swap1\n      pop\n      jump\t// out\n        /* \"#utility.yul\":17859:18278   */\n    tag_226:\n        /* \"#utility.yul\":18025:18029   */\n      0x00\n        /* \"#utility.yul\":18063:18065   */\n      0x20\n        /* \"#utility.yul\":18052:18061   */\n      dup3\n        /* \"#utility.yul\":18048:18066   */\n      add\n        /* \"#utility.yul\":18040:18066   */\n      swap1\n      pop\n        /* \"#utility.yul\":18112:18121   */\n      dup2\n        /* \"#utility.yul\":18106:18110   */\n      dup2\n        /* \"#utility.yul\":18102:18122   */\n      sub\n        /* \"#utility.yul\":18098:18099   */\n      0x00\n        /* \"#utility.yul\":18087:18096   */\n      dup4\n        /* \"#utility.yul\":18083:18100   */\n      add\n        /* \"#utility.yul\":18076:18123   */\n      mstore\n        /* \"#utility.yul\":18140:18271   */\n      tag_538\n        /* \"#utility.yul\":18266:18270   */\n      dup2\n        /* \"#utility.yul\":18140:18271   */\n      tag_356\n      jump\t// in\n    tag_538:\n        /* \"#utility.yul\":18132:18271   */\n      swap1\n      pop\n        /* \"#utility.yul\":17859:18278   */\n      swap2\n      swap1\n      pop\n      jump\t// out\n        /* \"#utility.yul\":18284:18464   */\n    tag_357:\n        /* \"#utility.yul\":18332:18409   */\n      0x4e487b7100000000000000000000000000000000000000000000000000000000\n        /* \"#utility.yul\":18329:18330   */\n      0x00\n        /* \"#utility.yul\":18322:18410   */\n      mstore\n        /* \"#utility.yul\":18429:18433   */\n      0x12\n        /* \"#utility.yul\":18426:18427   */\n      0x04\n        /* \"#utility.yul\":18419:18434   */\n      mstore\n        /* \"#utility.yul\":18453:18457   */\n      0x24\n        /* \"#utility.yul\":18450:18451   */\n      0x00\n        /* \"#utility.yul\":18443:18458   */\n      revert\n        /* \"#utility.yul\":18470:18655   */\n    tag_244:\n        /* \"#utility.yul\":18510:18511   */\n      0x00\n        /* \"#utility.yul\":18527:18547   */\n      tag_541\n        /* \"#utility.yul\":18545:18546   */\n      dup3\n        /* \"#utility.yul\":18527:18547   */\n      tag_317\n      jump\t// in\n    tag_541:\n        /* \"#utility.yul\":18522:18547   */\n      swap2\n      pop\n        /* \"#utility.yul\":18561:18581   */\n      tag_542\n        /* \"#utility.yul\":18579:18580   */\n      dup4\n        /* \"#utility.yul\":18561:18581   */\n      tag_317\n      jump\t// in\n    tag_542:\n        /* \"#utility.yul\":18556:18581   */\n      swap3\n      pop\n        /* \"#utility.yul\":18600:18601   */\n      dup3\n        /* \"#utility.yul\":18590:18625   */\n      tag_543\n      jumpi\n        /* \"#utility.yul\":18605:18623   */\n      tag_544\n      tag_357\n      jump\t// in\n    tag_544:\n        /* \"#utility.yul\":18590:18625   */\n    tag_543:\n        /* \"#utility.yul\":18647:18648   */\n      dup3\n        /* \"#utility.yul\":18644:18645   */\n      dup3\n        /* \"#utility.yul\":18640:18649   */\n      div\n        /* \"#utility.yul\":18635:18649   */\n      swap1\n      pop\n        /* \"#utility.yul\":18470:18655   */\n      swap3\n      swap2\n      pop\n      pop\n      jump\t// out\n        /* \"#utility.yul\":18661:18993   */\n    tag_272:\n        /* \"#utility.yul\":18782:18786   */\n      0x00\n        /* \"#utility.yul\":18820:18822   */\n      0x40\n        /* \"#utility.yul\":18809:18818   */\n      dup3\n        /* \"#utility.yul\":18805:18823   */\n      add\n        /* \"#utility.yul\":18797:18823   */\n      swap1\n      pop\n        /* \"#utility.yul\":18833:18904   */\n      tag_546\n        /* \"#utility.yul\":18901:18902   */\n      0x00\n        /* \"#utility.yul\":18890:18899   */\n      dup4\n        /* \"#utility.yul\":18886:18903   */\n      add\n        /* \"#utility.yul\":18877:18883   */\n      dup6\n        /* \"#utility.yul\":18833:18904   */\n      tag_326\n      jump\t// in\n    tag_546:\n        /* \"#utility.yul\":18914:18986   */\n      tag_547\n        /* \"#utility.yul\":18982:18984   */\n      0x20\n        /* \"#utility.yul\":18971:18980   */\n      dup4\n        /* \"#utility.yul\":18967:18985   */\n      add\n        /* \"#utility.yul\":18958:18964   */\n      dup5\n        /* \"#utility.yul\":18914:18986   */\n      tag_351\n      jump\t// in\n    tag_547:\n        /* \"#utility.yul\":18661:18993   */\n      swap4\n      swap3\n      pop\n      pop\n      pop\n      jump\t// out\n\n    auxdata: 0xa2646970667358221220a8eb19960728c113a2d3cc44ecf45a774a16ffc59868d5523d68a01e4529d0b164736f6c63430008150033\n}\n",
				"bytecode": {
					"linkReferences": {},
					"object": "60806040526005600255348015610014575f80fd5b5061003161002661003660201b60201c565b61003d60201b60201c565b6100fe565b5f33905090565b5f805f9054906101000a900473ffffffffffffffffffffffffffffffffffffffff169050815f806101000a81548173ffffffffffffffffffffffffffffffffffffffff021916908373ffffffffffffffffffffffffffffffffffffffff1602179055508173ffffffffffffffffffffffffffffffffffffffff168173ffffffffffffffffffffffffffffffffffffffff167f8be0079c531659141344cd1fd0a4f28419497f9722a3daafe3b4186f6b6457e060405160405180910390a35050565b612197806200010c5f395ff3fe608060405260043610610049575f3560e01c80634aaaa9c91461004d578063715018a6146100695780638da5cb5b1461007f578063ca99760e146100a9578063f2fde38b146100c5575b5f80fd5b61006760048036038101906100629190611800565b6100ed565b005b348015610074575f80fd5b5061007d610488565b005b34801561008a575f80fd5b5061009361049b565b6040516100a0919061189c565b60405180910390f35b6100c360048036038101906100be91906118df565b6104c2565b005b3480156100d0575f80fd5b506100eb60048036038101906100e69190611963565b610800565b005b5f600484815481106101025761010161198e565b5b905f5260205f20906007020190505f73ffffffffffffffffffffffffffffffffffffffff16815f015f9054906101000a900473ffffffffffffffffffffffffffffffffffffffff1673ffffffffffffffffffffffffffffffffffffffff16036101a0576040517f08c379a000000000000000000000000000000000000000000000000000000000815260040161019790611a15565b60405180910390fd5b5f8160050154146101e6576040517f08c379a00000000000000000000000000000000000000000000000000000000081526004016101dd90611a7d565b60405180910390fd5b6101f581600401548484610882565b610234576040517f08c379a000000000000000000000000000000000000000000000000000000000815260040161022b90611ae5565b60405180910390fd5b5f60015f8681526020019081526020015f20905083835f81811061025b5761025a61198e565b5b90506020020160208101906102709190611b26565b816003815481106102845761028361198e565b5b905f5260205f2090602091828204019190066101000a81548160ff021916908360038111156102b6576102b5611b51565b5b0217905550838360018181106102cf576102ce61198e565b5b90506020020160208101906102e49190611b26565b816004815481106102f8576102f761198e565b5b905f5260205f2090602091828204019190066101000a81548160ff0219169083600381111561032a57610329611b51565b5b0217905550838360028181106103435761034261198e565b5b90506020020160208101906103589190611b26565b8160058154811061036c5761036b61198e565b5b905f5260205f2090602091828204019190066101000a81548160ff0219169083600381111561039e5761039d611b51565b5b02179055505f73ffffffffffffffffffffffffffffffffffffffff16826002015f9054906101000a900473ffffffffffffffffffffffffffffffffffffffff1673ffffffffffffffffffffffffffffffffffffffff1603610445578160030154341015610440576040517f08c379a000000000000000000000000000000000000000000000000000000000815260040161043790611bc8565b60405180910390fd5b610477565b610476826002015f9054906101000a900473ffffffffffffffffffffffffffffffffffffffff168360030154610ac1565b5b6104818282610c07565b5050505050565b610490610d65565b6104995f610de3565b565b5f805f9054906101000a900473ffffffffffffffffffffffffffffffffffffffff16905090565b84848484845f73ffffffffffffffffffffffffffffffffffffffff168573ffffffffffffffffffffffffffffffffffffffff161415801561050257505f84115b8061054357505f73ffffffffffffffffffffffffffffffffffffffff168573ffffffffffffffffffffffffffffffffffffffff1614801561054257505f34115b5b610582576040517f08c379a000000000000000000000000000000000000000000000000000000000815260040161057990611c30565b60405180910390fd5b5f8314806105905750600183145b80156105a357506105a2838383610882565b5b6105e2576040517f08c379a00000000000000000000000000000000000000000000000000000000081526004016105d990611ae5565b60405180910390fd5b5f6040518060e001604052803373ffffffffffffffffffffffffffffffffffffffff1681526020015f73ffffffffffffffffffffffffffffffffffffffff1681526020018c73ffffffffffffffffffffffffffffffffffffffff1681526020015f73ffffffffffffffffffffffffffffffffffffffff168d73ffffffffffffffffffffffffffffffffffffffff161461067b578b61067d565b345b81526020018a81526020015f8152602001428152509050600481908060018154018082558091505060019003905f5260205f2090600702015f909190919091505f820151815f015f6101000a81548173ffffffffffffffffffffffffffffffffffffffff021916908373ffffffffffffffffffffffffffffffffffffffff1602179055506020820151816001015f6101000a81548173ffffffffffffffffffffffffffffffffffffffff021916908373ffffffffffffffffffffffffffffffffffffffff1602179055506040820151816002015f6101000a81548173ffffffffffffffffffffffffffffffffffffffff021916908373ffffffffffffffffffffffffffffffffffffffff160217905550606082015181600301556080820151816004015560a0820151816005015560c082015181600601555050878760015f60016004805490506107ce9190611c7b565b81526020019081526020015f2091906107e8929190611689565b506107f38b8b610ac1565b5050505050505050505050565b610808610d65565b5f73ffffffffffffffffffffffffffffffffffffffff168173ffffffffffffffffffffffffffffffffffffffff1603610876576040517f08c379a000000000000000000000000000000000000000000000000000000000815260040161086d90611d1e565b60405180910390fd5b61087f81610de3565b50565b5f80600190505f850361098c57600160038111156108a3576108a2611b51565b5b84845f8181106108b6576108b561198e565b5b90506020020160208101906108cb9190611b26565b60038111156108dd576108dc611b51565b5b14806109345750600260038111156108f8576108f7611b51565b5b84845f81811061090b5761090a61198e565b5b90506020020160208101906109209190611b26565b600381111561093257610931611b51565b5b145b80610989575060038081111561094d5761094c611b51565b5b84845f8181106109605761095f61198e565b5b90506020020160208101906109759190611b26565b600381111561098757610986611b51565b5b145b90505b60018503610ab6575f5b6003811015610ab457600160038111156109b3576109b2611b51565b5b8585838181106109c6576109c561198e565b5b90506020020160208101906109db9190611b26565b60038111156109ed576109ec611b51565b5b1480610a44575060026003811115610a0857610a07611b51565b5b858583818110610a1b57610a1a61198e565b5b9050602002016020810190610a309190611b26565b6003811115610a4257610a41611b51565b5b145b80610a995750600380811115610a5d57610a5c611b51565b5b858583818110610a7057610a6f61198e565b5b9050602002016020810190610a859190611b26565b6003811115610a9757610a96611b51565b5b145b91508115610ab4578080610aac90611d3c565b915050610996565b505b809150509392505050565b5f73ffffffffffffffffffffffffffffffffffffffff168273ffffffffffffffffffffffffffffffffffffffff1614610c03575f8290505f8173ffffffffffffffffffffffffffffffffffffffff1663313ce5676040518163ffffffff1660e01b8152600401602060405180830381865afa158015610b42573d5f803e3d5ffd5b505050506040513d601f19601f82011682018060405250810190610b669190611db9565b60ff1690508173ffffffffffffffffffffffffffffffffffffffff166323b872dd333084600a610b969190611f13565b87610ba19190611f5d565b6040518463ffffffff1660e01b8152600401610bbf93929190611fad565b6020604051808303815f875af1158015610bdb573d5f803e3d5ffd5b505050506040513d601f19601f82011682018060405250810190610bff9190612017565b5050505b5050565b5f80836004015403610c8557610c7e825f81548110610c2957610c2861198e565b5b905f5260205f2090602091828204019190069054906101000a900460ff1683600381548110610c5b57610c5a61198e565b5b905f5260205f2090602091828204019190069054906101000a900460ff16610ea4565b9050610d56565b5f805f5b6003811015610d5257610d08858281548110610ca857610ca761198e565b5b905f5260205f2090602091828204019190069054906101000a900460ff1686600384610cd49190612042565b81548110610ce557610ce461198e565b5b905f5260205f2090602091828204019190069054906101000a900460ff16610ea4565b935060018403610d2657600183610d1f9190612042565b9250610d3f565b60018403610d3e57600182610d3b9190612042565b91505b5b8080610d4a90611d3c565b915050610c89565b5050505b610d608382610f18565b505050565b610d6d611682565b73ffffffffffffffffffffffffffffffffffffffff16610d8b61049b565b73ffffffffffffffffffffffffffffffffffffffff1614610de1576040517f08c379a0000000000000000000000000000000000000000000000000000000008152600401610dd8906120bf565b60405180910390fd5b565b5f805f9054906101000a900473ffffffffffffffffffffffffffffffffffffffff169050815f806101000a81548173ffffffffffffffffffffffffffffffffffffffff021916908373ffffffffffffffffffffffffffffffffffffffff1602179055508173ffffffffffffffffffffffffffffffffffffffff168173ffffffffffffffffffffffffffffffffffffffff167f8be0079c531659141344cd1fd0a4f28419497f9722a3daafe3b4186f6b6457e060405160405180910390a35050565b5f816003811115610eb857610eb7611b51565b5b836003811115610ecb57610eca611b51565b5b03610ed8575f9050610f12565b816003811115610eeb57610eea611b51565b5b836003811115610efe57610efd611b51565b5b1115610f0d5760019050610f12565b600290505b92915050565b5f60646002548460030154610f2d9190611f5d565b610f37919061210a565b90505f73ffffffffffffffffffffffffffffffffffffffff16836002015f9054906101000a900473ffffffffffffffffffffffffffffffffffffffff1673ffffffffffffffffffffffffffffffffffffffff1603611263575f820361108657825f015f9054906101000a900473ffffffffffffffffffffffffffffffffffffffff1673ffffffffffffffffffffffffffffffffffffffff166108fc828560030154610fe29190611c7b565b90811502906040515f60405180830381858888f1935050505015801561100a573d5f803e3d5ffd5b50826001015f9054906101000a900473ffffffffffffffffffffffffffffffffffffffff1673ffffffffffffffffffffffffffffffffffffffff166108fc8285600301546110589190611c7b565b90811502906040515f60405180830381858888f19350505050158015611080573d5f803e3d5ffd5b50611198565b6001820361111457825f015f9054906101000a900473ffffffffffffffffffffffffffffffffffffffff1673ffffffffffffffffffffffffffffffffffffffff166108fc6002836110d79190611f5d565b85600301546110e69190611c7b565b90811502906040515f60405180830381858888f1935050505015801561110e573d5f803e3d5ffd5b50611197565b826001015f9054906101000a900473ffffffffffffffffffffffffffffffffffffffff1673ffffffffffffffffffffffffffffffffffffffff166108fc60028361115e9190611f5d565b856003015461116d9190611c7b565b90811502906040515f60405180830381858888f19350505050158015611195573d5f803e3d5ffd5b505b5b5f73ffffffffffffffffffffffffffffffffffffffff1660035f9054906101000a900473ffffffffffffffffffffffffffffffffffffffff1673ffffffffffffffffffffffffffffffffffffffff161461125e5760035f9054906101000a900473ffffffffffffffffffffffffffffffffffffffff1673ffffffffffffffffffffffffffffffffffffffff166108fc6002836112349190611f5d565b90811502906040515f60405180830381858888f1935050505015801561125c573d5f803e3d5ffd5b505b611673565b5f836002015f9054906101000a900473ffffffffffffffffffffffffffffffffffffffff1690505f83036113f1578073ffffffffffffffffffffffffffffffffffffffff1663a9059cbb855f015f9054906101000a900473ffffffffffffffffffffffffffffffffffffffff168487600301546112e09190611c7b565b6040518363ffffffff1660e01b81526004016112fd92919061213a565b6020604051808303815f875af1158015611319573d5f803e3d5ffd5b505050506040513d601f19601f8201168201806040525081019061133d9190612017565b508073ffffffffffffffffffffffffffffffffffffffff1663a9059cbb856001015f9054906101000a900473ffffffffffffffffffffffffffffffffffffffff1684876003015461138e9190611c7b565b6040518363ffffffff1660e01b81526004016113ab92919061213a565b6020604051808303815f875af11580156113c7573d5f803e3d5ffd5b505050506040513d601f19601f820116820180604052508101906113eb9190612017565b50611573565b600183036114b7578073ffffffffffffffffffffffffffffffffffffffff1663a9059cbb855f015f9054906101000a900473ffffffffffffffffffffffffffffffffffffffff166002856114459190611f5d565b87600301546114549190611c7b565b6040518363ffffffff1660e01b815260040161147192919061213a565b6020604051808303815f875af115801561148d573d5f803e3d5ffd5b505050506040513d601f19601f820116820180604052508101906114b19190612017565b50611572565b8073ffffffffffffffffffffffffffffffffffffffff1663a9059cbb856001015f9054906101000a900473ffffffffffffffffffffffffffffffffffffffff166002856115049190611f5d565b87600301546115139190611c7b565b6040518363ffffffff1660e01b815260040161153092919061213a565b6020604051808303815f875af115801561154c573d5f803e3d5ffd5b505050506040513d601f19601f820116820180604052508101906115709190612017565b505b5b5f73ffffffffffffffffffffffffffffffffffffffff1660035f9054906101000a900473ffffffffffffffffffffffffffffffffffffffff1673ffffffffffffffffffffffffffffffffffffffff1614611671578073ffffffffffffffffffffffffffffffffffffffff1663a9059cbb60035f9054906101000a900473ffffffffffffffffffffffffffffffffffffffff166002856116129190611f5d565b6040518363ffffffff1660e01b815260040161162f92919061213a565b6020604051808303815f875af115801561164b573d5f803e3d5ffd5b505050506040513d601f19601f8201168201806040525081019061166f9190612017565b505b505b60028360050181905550505050565b5f33905090565b828054828255905f5260205f2090601f01602090048101928215611738579160200282015f5b8382111561170a5783356003811180156116c7575f80fd5b5083826101000a81548160ff021916908360038111156116ea576116e9611b51565b5b021790555092602001926001016020815f010492830192600103026116af565b80156117365782816101000a81549060ff02191690556001016020815f0104928301926001030261170a565b505b5090506117459190611749565b5090565b5b80821115611760575f815f90555060010161174a565b5090565b5f80fd5b5f80fd5b5f819050919050565b61177e8161176c565b8114611788575f80fd5b50565b5f8135905061179981611775565b92915050565b5f80fd5b5f80fd5b5f80fd5b5f8083601f8401126117c0576117bf61179f565b5b8235905067ffffffffffffffff8111156117dd576117dc6117a3565b5b6020830191508360208202830111156117f9576117f86117a7565b5b9250929050565b5f805f6040848603121561181757611816611764565b5b5f6118248682870161178b565b935050602084013567ffffffffffffffff81111561184557611844611768565b5b611851868287016117ab565b92509250509250925092565b5f73ffffffffffffffffffffffffffffffffffffffff82169050919050565b5f6118868261185d565b9050919050565b6118968161187c565b82525050565b5f6020820190506118af5f83018461188d565b92915050565b6118be8161187c565b81146118c8575f80fd5b50565b5f813590506118d9816118b5565b92915050565b5f805f805f608086880312156118f8576118f7611764565b5b5f611905888289016118cb565b95505060206119168882890161178b565b94505060406119278882890161178b565b935050606086013567ffffffffffffffff81111561194857611947611768565b5b611954888289016117ab565b92509250509295509295909350565b5f6020828403121561197857611977611764565b5b5f611985848285016118cb565b91505092915050565b7f4e487b71000000000000000000000000000000000000000000000000000000005f52603260045260245ffd5b5f82825260208201905092915050565b7f47616d65206e6f742065786973747300000000000000000000000000000000005f82015250565b5f6119ff600f836119bb565b9150611a0a826119cb565b602082019050919050565b5f6020820190508181035f830152611a2c816119f3565b9050919050565b7f47616d6520686173206265656e206f76657200000000000000000000000000005f82015250565b5f611a676012836119bb565b9150611a7282611a33565b602082019050919050565b5f6020820190508181035f830152611a9481611a5b565b9050919050565b7f4775657373696e67206572726f720000000000000000000000000000000000005f82015250565b5f611acf600e836119bb565b9150611ada82611a9b565b602082019050919050565b5f6020820190508181035f830152611afc81611ac3565b9050919050565b60048110611b0f575f80fd5b50565b5f81359050611b2081611b03565b92915050565b5f60208284031215611b3b57611b3a611764565b5b5f611b4884828501611b12565b91505092915050565b7f4e487b71000000000000000000000000000000000000000000000000000000005f52602160045260245ffd5b7f496e73756666696369656e7420616d6f756e74000000000000000000000000005f82015250565b5f611bb26013836119bb565b9150611bbd82611b7e565b602082019050919050565b5f6020820190508181035f830152611bdf81611ba6565b9050919050565b7f47616d6520626f6e75732063616e6e6f74206265207a65726f000000000000005f82015250565b5f611c1a6019836119bb565b9150611c2582611be6565b602082019050919050565b5f6020820190508181035f830152611c4781611c0e565b9050919050565b7f4e487b71000000000000000000000000000000000000000000000000000000005f52601160045260245ffd5b5f611c858261176c565b9150611c908361176c565b9250828203905081811115611ca857611ca7611c4e565b5b92915050565b7f4f776e61626c653a206e6577206f776e657220697320746865207a65726f20615f8201527f6464726573730000000000000000000000000000000000000000000000000000602082015250565b5f611d086026836119bb565b9150611d1382611cae565b604082019050919050565b5f6020820190508181035f830152611d3581611cfc565b9050919050565b5f611d468261176c565b91507fffffffffffffffffffffffffffffffffffffffffffffffffffffffffffffffff8203611d7857611d77611c4e565b5b600182019050919050565b5f60ff82169050919050565b611d9881611d83565b8114611da2575f80fd5b50565b5f81519050611db381611d8f565b92915050565b5f60208284031215611dce57611dcd611764565b5b5f611ddb84828501611da5565b91505092915050565b5f8160011c9050919050565b5f808291508390505b6001851115611e3957808604811115611e1557611e14611c4e565b5b6001851615611e245780820291505b8081029050611e3285611de4565b9450611df9565b94509492505050565b5f82611e515760019050611f0c565b81611e5e575f9050611f0c565b8160018114611e745760028114611e7e57611ead565b6001915050611f0c565b60ff841115611e9057611e8f611c4e565b5b8360020a915084821115611ea757611ea6611c4e565b5b50611f0c565b5060208310610133831016604e8410600b8410161715611ee25782820a905083811115611edd57611edc611c4e565b5b611f0c565b611eef8484846001611df0565b92509050818404811115611f0657611f05611c4e565b5b81810290505b9392505050565b5f611f1d8261176c565b9150611f288361176c565b9250611f557fffffffffffffffffffffffffffffffffffffffffffffffffffffffffffffffff8484611e42565b905092915050565b5f611f678261176c565b9150611f728361176c565b9250828202611f808161176c565b91508282048414831517611f9757611f96611c4e565b5b5092915050565b611fa78161176c565b82525050565b5f606082019050611fc05f83018661188d565b611fcd602083018561188d565b611fda6040830184611f9e565b949350505050565b5f8115159050919050565b611ff681611fe2565b8114612000575f80fd5b50565b5f8151905061201181611fed565b92915050565b5f6020828403121561202c5761202b611764565b5b5f61203984828501612003565b91505092915050565b5f61204c8261176c565b91506120578361176c565b925082820190508082111561206f5761206e611c4e565b5b92915050565b7f4f776e61626c653a2063616c6c6572206973206e6f7420746865206f776e65725f82015250565b5f6120a96020836119bb565b91506120b482612075565b602082019050919050565b5f6020820190508181035f8301526120d68161209d565b9050919050565b7f4e487b71000000000000000000000000000000000000000000000000000000005f52601260045260245ffd5b5f6121148261176c565b915061211f8361176c565b92508261212f5761212e6120dd565b5b828204905092915050565b5f60408201905061214d5f83018561188d565b61215a6020830184611f9e565b939250505056fea2646970667358221220a8eb19960728c113a2d3cc44ecf45a774a16ffc59868d5523d68a01e4529d0b164736f6c63430008150033",
					"opcodes": "PUSH1 0x80 PUSH1 0x40 MSTORE PUSH1 0x5 PUSH1 0x2 SSTORE CALLVALUE DUP1 ISZERO PUSH2 0x14 JUMPI PUSH0 DUP1 REVERT JUMPDEST POP PUSH2 0x31 PUSH2 0x26 PUSH2 0x36 PUSH1 0x20 SHL PUSH1 0x20 SHR JUMP JUMPDEST PUSH2 0x3D PUSH1 0x20 SHL PUSH1 0x20 SHR JUMP JUMPDEST PUSH2 0xFE JUMP JUMPDEST PUSH0 CALLER SWAP1 POP SWAP1 JUMP JUMPDEST PUSH0 DUP1 PUSH0 SWAP1 SLOAD SWAP1 PUSH2 0x100 EXP SWAP1 DIV PUSH20 0xFFFFFFFFFFFFFFFFFFFFFFFFFFFFFFFFFFFFFFFF AND SWAP1 POP DUP2 PUSH0 DUP1 PUSH2 0x100 EXP DUP2 SLOAD DUP2 PUSH20 0xFFFFFFFFFFFFFFFFFFFFFFFFFFFFFFFFFFFFFFFF MUL NOT AND SWAP1 DUP4 PUSH20 0xFFFFFFFFFFFFFFFFFFFFFFFFFFFFFFFFFFFFFFFF AND MUL OR SWAP1 SSTORE POP DUP2 PUSH20 0xFFFFFFFFFFFFFFFFFFFFFFFFFFFFFFFFFFFFFFFF AND DUP2 PUSH20 0xFFFFFFFFFFFFFFFFFFFFFFFFFFFFFFFFFFFFFFFF AND PUSH32 0x8BE0079C531659141344CD1FD0A4F28419497F9722A3DAAFE3B4186F6B6457E0 PUSH1 0x40 MLOAD PUSH1 0x40 MLOAD DUP1 SWAP2 SUB SWAP1 LOG3 POP POP JUMP JUMPDEST PUSH2 0x2197 DUP1 PUSH3 0x10C PUSH0 CODECOPY PUSH0 RETURN INVALID PUSH1 0x80 PUSH1 0x40 MSTORE PUSH1 0x4 CALLDATASIZE LT PUSH2 0x49 JUMPI PUSH0 CALLDATALOAD PUSH1 0xE0 SHR DUP1 PUSH4 0x4AAAA9C9 EQ PUSH2 0x4D JUMPI DUP1 PUSH4 0x715018A6 EQ PUSH2 0x69 JUMPI DUP1 PUSH4 0x8DA5CB5B EQ PUSH2 0x7F JUMPI DUP1 PUSH4 0xCA99760E EQ PUSH2 0xA9 JUMPI DUP1 PUSH4 0xF2FDE38B EQ PUSH2 0xC5 JUMPI JUMPDEST PUSH0 DUP1 REVERT JUMPDEST PUSH2 0x67 PUSH1 0x4 DUP1 CALLDATASIZE SUB DUP2 ADD SWAP1 PUSH2 0x62 SWAP2 SWAP1 PUSH2 0x1800 JUMP JUMPDEST PUSH2 0xED JUMP JUMPDEST STOP JUMPDEST CALLVALUE DUP1 ISZERO PUSH2 0x74 JUMPI PUSH0 DUP1 REVERT JUMPDEST POP PUSH2 0x7D PUSH2 0x488 JUMP JUMPDEST STOP JUMPDEST CALLVALUE DUP1 ISZERO PUSH2 0x8A JUMPI PUSH0 DUP1 REVERT JUMPDEST POP PUSH2 0x93 PUSH2 0x49B JUMP JUMPDEST PUSH1 0x40 MLOAD PUSH2 0xA0 SWAP2 SWAP1 PUSH2 0x189C JUMP JUMPDEST PUSH1 0x40 MLOAD DUP1 SWAP2 SUB SWAP1 RETURN JUMPDEST PUSH2 0xC3 PUSH1 0x4 DUP1 CALLDATASIZE SUB DUP2 ADD SWAP1 PUSH2 0xBE SWAP2 SWAP1 PUSH2 0x18DF JUMP JUMPDEST PUSH2 0x4C2 JUMP JUMPDEST STOP JUMPDEST CALLVALUE DUP1 ISZERO PUSH2 0xD0 JUMPI PUSH0 DUP1 REVERT JUMPDEST POP PUSH2 0xEB PUSH1 0x4 DUP1 CALLDATASIZE SUB DUP2 ADD SWAP1 PUSH2 0xE6 SWAP2 SWAP1 PUSH2 0x1963 JUMP JUMPDEST PUSH2 0x800 JUMP JUMPDEST STOP JUMPDEST PUSH0 PUSH1 0x4 DUP5 DUP2 SLOAD DUP2 LT PUSH2 0x102 JUMPI PUSH2 0x101 PUSH2 0x198E JUMP JUMPDEST JUMPDEST SWAP1 PUSH0 MSTORE PUSH1 0x20 PUSH0 KECCAK256 SWAP1 PUSH1 0x7 MUL ADD SWAP1 POP PUSH0 PUSH20 0xFFFFFFFFFFFFFFFFFFFFFFFFFFFFFFFFFFFFFFFF AND DUP2 PUSH0 ADD PUSH0 SWAP1 SLOAD SWAP1 PUSH2 0x100 EXP SWAP1 DIV PUSH20 0xFFFFFFFFFFFFFFFFFFFFFFFFFFFFFFFFFFFFFFFF AND PUSH20 0xFFFFFFFFFFFFFFFFFFFFFFFFFFFFFFFFFFFFFFFF AND SUB PUSH2 0x1A0 JUMPI PUSH1 0x40 MLOAD PUSH32 0x8C379A000000000000000000000000000000000000000000000000000000000 DUP2 MSTORE PUSH1 0x4 ADD PUSH2 0x197 SWAP1 PUSH2 0x1A15 JUMP JUMPDEST PUSH1 0x40 MLOAD DUP1 SWAP2 SUB SWAP1 REVERT JUMPDEST PUSH0 DUP2 PUSH1 0x5 ADD SLOAD EQ PUSH2 0x1E6 JUMPI PUSH1 0x40 MLOAD PUSH32 0x8C379A000000000000000000000000000000000000000000000000000000000 DUP2 MSTORE PUSH1 0x4 ADD PUSH2 0x1DD SWAP1 PUSH2 0x1A7D JUMP JUMPDEST PUSH1 0x40 MLOAD DUP1 SWAP2 SUB SWAP1 REVERT JUMPDEST PUSH2 0x1F5 DUP2 PUSH1 0x4 ADD SLOAD DUP5 DUP5 PUSH2 0x882 JUMP JUMPDEST PUSH2 0x234 JUMPI PUSH1 0x40 MLOAD PUSH32 0x8C379A000000000000000000000000000000000000000000000000000000000 DUP2 MSTORE PUSH1 0x4 ADD PUSH2 0x22B SWAP1 PUSH2 0x1AE5 JUMP JUMPDEST PUSH1 0x40 MLOAD DUP1 SWAP2 SUB SWAP1 REVERT JUMPDEST PUSH0 PUSH1 0x1 PUSH0 DUP7 DUP2 MSTORE PUSH1 0x20 ADD SWAP1 DUP2 MSTORE PUSH1 0x20 ADD PUSH0 KECCAK256 SWAP1 POP DUP4 DUP4 PUSH0 DUP2 DUP2 LT PUSH2 0x25B JUMPI PUSH2 0x25A PUSH2 0x198E JUMP JUMPDEST JUMPDEST SWAP1 POP PUSH1 0x20 MUL ADD PUSH1 0x20 DUP2 ADD SWAP1 PUSH2 0x270 SWAP2 SWAP1 PUSH2 0x1B26 JUMP JUMPDEST DUP2 PUSH1 0x3 DUP2 SLOAD DUP2 LT PUSH2 0x284 JUMPI PUSH2 0x283 PUSH2 0x198E JUMP JUMPDEST JUMPDEST SWAP1 PUSH0 MSTORE PUSH1 0x20 PUSH0 KECCAK256 SWAP1 PUSH1 0x20 SWAP2 DUP3 DUP3 DIV ADD SWAP2 SWAP1 MOD PUSH2 0x100 EXP DUP2 SLOAD DUP2 PUSH1 0xFF MUL NOT AND SWAP1 DUP4 PUSH1 0x3 DUP2 GT ISZERO PUSH2 0x2B6 JUMPI PUSH2 0x2B5 PUSH2 0x1B51 JUMP JUMPDEST JUMPDEST MUL OR SWAP1 SSTORE POP DUP4 DUP4 PUSH1 0x1 DUP2 DUP2 LT PUSH2 0x2CF JUMPI PUSH2 0x2CE PUSH2 0x198E JUMP JUMPDEST JUMPDEST SWAP1 POP PUSH1 0x20 MUL ADD PUSH1 0x20 DUP2 ADD SWAP1 PUSH2 0x2E4 SWAP2 SWAP1 PUSH2 0x1B26 JUMP JUMPDEST DUP2 PUSH1 0x4 DUP2 SLOAD DUP2 LT PUSH2 0x2F8 JUMPI PUSH2 0x2F7 PUSH2 0x198E JUMP JUMPDEST JUMPDEST SWAP1 PUSH0 MSTORE PUSH1 0x20 PUSH0 KECCAK256 SWAP1 PUSH1 0x20 SWAP2 DUP3 DUP3 DIV ADD SWAP2 SWAP1 MOD PUSH2 0x100 EXP DUP2 SLOAD DUP2 PUSH1 0xFF MUL NOT AND SWAP1 DUP4 PUSH1 0x3 DUP2 GT ISZERO PUSH2 0x32A JUMPI PUSH2 0x329 PUSH2 0x1B51 JUMP JUMPDEST JUMPDEST MUL OR SWAP1 SSTORE POP DUP4 DUP4 PUSH1 0x2 DUP2 DUP2 LT PUSH2 0x343 JUMPI PUSH2 0x342 PUSH2 0x198E JUMP JUMPDEST JUMPDEST SWAP1 POP PUSH1 0x20 MUL ADD PUSH1 0x20 DUP2 ADD SWAP1 PUSH2 0x358 SWAP2 SWAP1 PUSH2 0x1B26 JUMP JUMPDEST DUP2 PUSH1 0x5 DUP2 SLOAD DUP2 LT PUSH2 0x36C JUMPI PUSH2 0x36B PUSH2 0x198E JUMP JUMPDEST JUMPDEST SWAP1 PUSH0 MSTORE PUSH1 0x20 PUSH0 KECCAK256 SWAP1 PUSH1 0x20 SWAP2 DUP3 DUP3 DIV ADD SWAP2 SWAP1 MOD PUSH2 0x100 EXP DUP2 SLOAD DUP2 PUSH1 0xFF MUL NOT AND SWAP1 DUP4 PUSH1 0x3 DUP2 GT ISZERO PUSH2 0x39E JUMPI PUSH2 0x39D PUSH2 0x1B51 JUMP JUMPDEST JUMPDEST MUL OR SWAP1 SSTORE POP PUSH0 PUSH20 0xFFFFFFFFFFFFFFFFFFFFFFFFFFFFFFFFFFFFFFFF AND DUP3 PUSH1 0x2 ADD PUSH0 SWAP1 SLOAD SWAP1 PUSH2 0x100 EXP SWAP1 DIV PUSH20 0xFFFFFFFFFFFFFFFFFFFFFFFFFFFFFFFFFFFFFFFF AND PUSH20 0xFFFFFFFFFFFFFFFFFFFFFFFFFFFFFFFFFFFFFFFF AND SUB PUSH2 0x445 JUMPI DUP2 PUSH1 0x3 ADD SLOAD CALLVALUE LT ISZERO PUSH2 0x440 JUMPI PUSH1 0x40 MLOAD PUSH32 0x8C379A000000000000000000000000000000000000000000000000000000000 DUP2 MSTORE PUSH1 0x4 ADD PUSH2 0x437 SWAP1 PUSH2 0x1BC8 JUMP JUMPDEST PUSH1 0x40 MLOAD DUP1 SWAP2 SUB SWAP1 REVERT JUMPDEST PUSH2 0x477 JUMP JUMPDEST PUSH2 0x476 DUP3 PUSH1 0x2 ADD PUSH0 SWAP1 SLOAD SWAP1 PUSH2 0x100 EXP SWAP1 DIV PUSH20 0xFFFFFFFFFFFFFFFFFFFFFFFFFFFFFFFFFFFFFFFF AND DUP4 PUSH1 0x3 ADD SLOAD PUSH2 0xAC1 JUMP JUMPDEST JUMPDEST PUSH2 0x481 DUP3 DUP3 PUSH2 0xC07 JUMP JUMPDEST POP POP POP POP POP JUMP JUMPDEST PUSH2 0x490 PUSH2 0xD65 JUMP JUMPDEST PUSH2 0x499 PUSH0 PUSH2 0xDE3 JUMP JUMPDEST JUMP JUMPDEST PUSH0 DUP1 PUSH0 SWAP1 SLOAD SWAP1 PUSH2 0x100 EXP SWAP1 DIV PUSH20 0xFFFFFFFFFFFFFFFFFFFFFFFFFFFFFFFFFFFFFFFF AND SWAP1 POP SWAP1 JUMP JUMPDEST DUP5 DUP5 DUP5 DUP5 DUP5 PUSH0 PUSH20 0xFFFFFFFFFFFFFFFFFFFFFFFFFFFFFFFFFFFFFFFF AND DUP6 PUSH20 0xFFFFFFFFFFFFFFFFFFFFFFFFFFFFFFFFFFFFFFFF AND EQ ISZERO DUP1 ISZERO PUSH2 0x502 JUMPI POP PUSH0 DUP5 GT JUMPDEST DUP1 PUSH2 0x543 JUMPI POP PUSH0 PUSH20 0xFFFFFFFFFFFFFFFFFFFFFFFFFFFFFFFFFFFFFFFF AND DUP6 PUSH20 0xFFFFFFFFFFFFFFFFFFFFFFFFFFFFFFFFFFFFFFFF AND EQ DUP1 ISZERO PUSH2 0x542 JUMPI POP PUSH0 CALLVALUE GT JUMPDEST JUMPDEST PUSH2 0x582 JUMPI PUSH1 0x40 MLOAD PUSH32 0x8C379A000000000000000000000000000000000000000000000000000000000 DUP2 MSTORE PUSH1 0x4 ADD PUSH2 0x579 SWAP1 PUSH2 0x1C30 JUMP JUMPDEST PUSH1 0x40 MLOAD DUP1 SWAP2 SUB SWAP1 REVERT JUMPDEST PUSH0 DUP4 EQ DUP1 PUSH2 0x590 JUMPI POP PUSH1 0x1 DUP4 EQ JUMPDEST DUP1 ISZERO PUSH2 0x5A3 JUMPI POP PUSH2 0x5A2 DUP4 DUP4 DUP4 PUSH2 0x882 JUMP JUMPDEST JUMPDEST PUSH2 0x5E2 JUMPI PUSH1 0x40 MLOAD PUSH32 0x8C379A000000000000000000000000000000000000000000000000000000000 DUP2 MSTORE PUSH1 0x4 ADD PUSH2 0x5D9 SWAP1 PUSH2 0x1AE5 JUMP JUMPDEST PUSH1 0x40 MLOAD DUP1 SWAP2 SUB SWAP1 REVERT JUMPDEST PUSH0 PUSH1 0x40 MLOAD DUP1 PUSH1 0xE0 ADD PUSH1 0x40 MSTORE DUP1 CALLER PUSH20 0xFFFFFFFFFFFFFFFFFFFFFFFFFFFFFFFFFFFFFFFF AND DUP2 MSTORE PUSH1 0x20 ADD PUSH0 PUSH20 0xFFFFFFFFFFFFFFFFFFFFFFFFFFFFFFFFFFFFFFFF AND DUP2 MSTORE PUSH1 0x20 ADD DUP13 PUSH20 0xFFFFFFFFFFFFFFFFFFFFFFFFFFFFFFFFFFFFFFFF AND DUP2 MSTORE PUSH1 0x20 ADD PUSH0 PUSH20 0xFFFFFFFFFFFFFFFFFFFFFFFFFFFFFFFFFFFFFFFF AND DUP14 PUSH20 0xFFFFFFFFFFFFFFFFFFFFFFFFFFFFFFFFFFFFFFFF AND EQ PUSH2 0x67B JUMPI DUP12 PUSH2 0x67D JUMP JUMPDEST CALLVALUE JUMPDEST DUP2 MSTORE PUSH1 0x20 ADD DUP11 DUP2 MSTORE PUSH1 0x20 ADD PUSH0 DUP2 MSTORE PUSH1 0x20 ADD TIMESTAMP DUP2 MSTORE POP SWAP1 POP PUSH1 0x4 DUP2 SWAP1 DUP1 PUSH1 0x1 DUP2 SLOAD ADD DUP1 DUP3 SSTORE DUP1 SWAP2 POP POP PUSH1 0x1 SWAP1 SUB SWAP1 PUSH0 MSTORE PUSH1 0x20 PUSH0 KECCAK256 SWAP1 PUSH1 0x7 MUL ADD PUSH0 SWAP1 SWAP2 SWAP1 SWAP2 SWAP1 SWAP2 POP PUSH0 DUP3 ADD MLOAD DUP2 PUSH0 ADD PUSH0 PUSH2 0x100 EXP DUP2 SLOAD DUP2 PUSH20 0xFFFFFFFFFFFFFFFFFFFFFFFFFFFFFFFFFFFFFFFF MUL NOT AND SWAP1 DUP4 PUSH20 0xFFFFFFFFFFFFFFFFFFFFFFFFFFFFFFFFFFFFFFFF AND MUL OR SWAP1 SSTORE POP PUSH1 0x20 DUP3 ADD MLOAD DUP2 PUSH1 0x1 ADD PUSH0 PUSH2 0x100 EXP DUP2 SLOAD DUP2 PUSH20 0xFFFFFFFFFFFFFFFFFFFFFFFFFFFFFFFFFFFFFFFF MUL NOT AND SWAP1 DUP4 PUSH20 0xFFFFFFFFFFFFFFFFFFFFFFFFFFFFFFFFFFFFFFFF AND MUL OR SWAP1 SSTORE POP PUSH1 0x40 DUP3 ADD MLOAD DUP2 PUSH1 0x2 ADD PUSH0 PUSH2 0x100 EXP DUP2 SLOAD DUP2 PUSH20 0xFFFFFFFFFFFFFFFFFFFFFFFFFFFFFFFFFFFFFFFF MUL NOT AND SWAP1 DUP4 PUSH20 0xFFFFFFFFFFFFFFFFFFFFFFFFFFFFFFFFFFFFFFFF AND MUL OR SWAP1 SSTORE POP PUSH1 0x60 DUP3 ADD MLOAD DUP2 PUSH1 0x3 ADD SSTORE PUSH1 0x80 DUP3 ADD MLOAD DUP2 PUSH1 0x4 ADD SSTORE PUSH1 0xA0 DUP3 ADD MLOAD DUP2 PUSH1 0x5 ADD SSTORE PUSH1 0xC0 DUP3 ADD MLOAD DUP2 PUSH1 0x6 ADD SSTORE POP POP DUP8 DUP8 PUSH1 0x1 PUSH0 PUSH1 0x1 PUSH1 0x4 DUP1 SLOAD SWAP1 POP PUSH2 0x7CE SWAP2 SWAP1 PUSH2 0x1C7B JUMP JUMPDEST DUP2 MSTORE PUSH1 0x20 ADD SWAP1 DUP2 MSTORE PUSH1 0x20 ADD PUSH0 KECCAK256 SWAP2 SWAP1 PUSH2 0x7E8 SWAP3 SWAP2 SWAP1 PUSH2 0x1689 JUMP JUMPDEST POP PUSH2 0x7F3 DUP12 DUP12 PUSH2 0xAC1 JUMP JUMPDEST POP POP POP POP POP POP POP POP POP POP POP JUMP JUMPDEST PUSH2 0x808 PUSH2 0xD65 JUMP JUMPDEST PUSH0 PUSH20 0xFFFFFFFFFFFFFFFFFFFFFFFFFFFFFFFFFFFFFFFF AND DUP2 PUSH20 0xFFFFFFFFFFFFFFFFFFFFFFFFFFFFFFFFFFFFFFFF AND SUB PUSH2 0x876 JUMPI PUSH1 0x40 MLOAD PUSH32 0x8C379A000000000000000000000000000000000000000000000000000000000 DUP2 MSTORE PUSH1 0x4 ADD PUSH2 0x86D SWAP1 PUSH2 0x1D1E JUMP JUMPDEST PUSH1 0x40 MLOAD DUP1 SWAP2 SUB SWAP1 REVERT JUMPDEST PUSH2 0x87F DUP2 PUSH2 0xDE3 JUMP JUMPDEST POP JUMP JUMPDEST PUSH0 DUP1 PUSH1 0x1 SWAP1 POP PUSH0 DUP6 SUB PUSH2 0x98C JUMPI PUSH1 0x1 PUSH1 0x3 DUP2 GT ISZERO PUSH2 0x8A3 JUMPI PUSH2 0x8A2 PUSH2 0x1B51 JUMP JUMPDEST JUMPDEST DUP5 DUP5 PUSH0 DUP2 DUP2 LT PUSH2 0x8B6 JUMPI PUSH2 0x8B5 PUSH2 0x198E JUMP JUMPDEST JUMPDEST SWAP1 POP PUSH1 0x20 MUL ADD PUSH1 0x20 DUP2 ADD SWAP1 PUSH2 0x8CB SWAP2 SWAP1 PUSH2 0x1B26 JUMP JUMPDEST PUSH1 0x3 DUP2 GT ISZERO PUSH2 0x8DD JUMPI PUSH2 0x8DC PUSH2 0x1B51 JUMP JUMPDEST JUMPDEST EQ DUP1 PUSH2 0x934 JUMPI POP PUSH1 0x2 PUSH1 0x3 DUP2 GT ISZERO PUSH2 0x8F8 JUMPI PUSH2 0x8F7 PUSH2 0x1B51 JUMP JUMPDEST JUMPDEST DUP5 DUP5 PUSH0 DUP2 DUP2 LT PUSH2 0x90B JUMPI PUSH2 0x90A PUSH2 0x198E JUMP JUMPDEST JUMPDEST SWAP1 POP PUSH1 0x20 MUL ADD PUSH1 0x20 DUP2 ADD SWAP1 PUSH2 0x920 SWAP2 SWAP1 PUSH2 0x1B26 JUMP JUMPDEST PUSH1 0x3 DUP2 GT ISZERO PUSH2 0x932 JUMPI PUSH2 0x931 PUSH2 0x1B51 JUMP JUMPDEST JUMPDEST EQ JUMPDEST DUP1 PUSH2 0x989 JUMPI POP PUSH1 0x3 DUP1 DUP2 GT ISZERO PUSH2 0x94D JUMPI PUSH2 0x94C PUSH2 0x1B51 JUMP JUMPDEST JUMPDEST DUP5 DUP5 PUSH0 DUP2 DUP2 LT PUSH2 0x960 JUMPI PUSH2 0x95F PUSH2 0x198E JUMP JUMPDEST JUMPDEST SWAP1 POP PUSH1 0x20 MUL ADD PUSH1 0x20 DUP2 ADD SWAP1 PUSH2 0x975 SWAP2 SWAP1 PUSH2 0x1B26 JUMP JUMPDEST PUSH1 0x3 DUP2 GT ISZERO PUSH2 0x987 JUMPI PUSH2 0x986 PUSH2 0x1B51 JUMP JUMPDEST JUMPDEST EQ JUMPDEST SWAP1 POP JUMPDEST PUSH1 0x1 DUP6 SUB PUSH2 0xAB6 JUMPI PUSH0 JUMPDEST PUSH1 0x3 DUP2 LT ISZERO PUSH2 0xAB4 JUMPI PUSH1 0x1 PUSH1 0x3 DUP2 GT ISZERO PUSH2 0x9B3 JUMPI PUSH2 0x9B2 PUSH2 0x1B51 JUMP JUMPDEST JUMPDEST DUP6 DUP6 DUP4 DUP2 DUP2 LT PUSH2 0x9C6 JUMPI PUSH2 0x9C5 PUSH2 0x198E JUMP JUMPDEST JUMPDEST SWAP1 POP PUSH1 0x20 MUL ADD PUSH1 0x20 DUP2 ADD SWAP1 PUSH2 0x9DB SWAP2 SWAP1 PUSH2 0x1B26 JUMP JUMPDEST PUSH1 0x3 DUP2 GT ISZERO PUSH2 0x9ED JUMPI PUSH2 0x9EC PUSH2 0x1B51 JUMP JUMPDEST JUMPDEST EQ DUP1 PUSH2 0xA44 JUMPI POP PUSH1 0x2 PUSH1 0x3 DUP2 GT ISZERO PUSH2 0xA08 JUMPI PUSH2 0xA07 PUSH2 0x1B51 JUMP JUMPDEST JUMPDEST DUP6 DUP6 DUP4 DUP2 DUP2 LT PUSH2 0xA1B JUMPI PUSH2 0xA1A PUSH2 0x198E JUMP JUMPDEST JUMPDEST SWAP1 POP PUSH1 0x20 MUL ADD PUSH1 0x20 DUP2 ADD SWAP1 PUSH2 0xA30 SWAP2 SWAP1 PUSH2 0x1B26 JUMP JUMPDEST PUSH1 0x3 DUP2 GT ISZERO PUSH2 0xA42 JUMPI PUSH2 0xA41 PUSH2 0x1B51 JUMP JUMPDEST JUMPDEST EQ JUMPDEST DUP1 PUSH2 0xA99 JUMPI POP PUSH1 0x3 DUP1 DUP2 GT ISZERO PUSH2 0xA5D JUMPI PUSH2 0xA5C PUSH2 0x1B51 JUMP JUMPDEST JUMPDEST DUP6 DUP6 DUP4 DUP2 DUP2 LT PUSH2 0xA70 JUMPI PUSH2 0xA6F PUSH2 0x198E JUMP JUMPDEST JUMPDEST SWAP1 POP PUSH1 0x20 MUL ADD PUSH1 0x20 DUP2 ADD SWAP1 PUSH2 0xA85 SWAP2 SWAP1 PUSH2 0x1B26 JUMP JUMPDEST PUSH1 0x3 DUP2 GT ISZERO PUSH2 0xA97 JUMPI PUSH2 0xA96 PUSH2 0x1B51 JUMP JUMPDEST JUMPDEST EQ JUMPDEST SWAP2 POP DUP2 ISZERO PUSH2 0xAB4 JUMPI DUP1 DUP1 PUSH2 0xAAC SWAP1 PUSH2 0x1D3C JUMP JUMPDEST SWAP2 POP POP PUSH2 0x996 JUMP JUMPDEST POP JUMPDEST DUP1 SWAP2 POP POP SWAP4 SWAP3 POP POP POP JUMP JUMPDEST PUSH0 PUSH20 0xFFFFFFFFFFFFFFFFFFFFFFFFFFFFFFFFFFFFFFFF AND DUP3 PUSH20 0xFFFFFFFFFFFFFFFFFFFFFFFFFFFFFFFFFFFFFFFF AND EQ PUSH2 0xC03 JUMPI PUSH0 DUP3 SWAP1 POP PUSH0 DUP2 PUSH20 0xFFFFFFFFFFFFFFFFFFFFFFFFFFFFFFFFFFFFFFFF AND PUSH4 0x313CE567 PUSH1 0x40 MLOAD DUP2 PUSH4 0xFFFFFFFF AND PUSH1 0xE0 SHL DUP2 MSTORE PUSH1 0x4 ADD PUSH1 0x20 PUSH1 0x40 MLOAD DUP1 DUP4 SUB DUP2 DUP7 GAS STATICCALL ISZERO DUP1 ISZERO PUSH2 0xB42 JUMPI RETURNDATASIZE PUSH0 DUP1 RETURNDATACOPY RETURNDATASIZE PUSH0 REVERT JUMPDEST POP POP POP POP PUSH1 0x40 MLOAD RETURNDATASIZE PUSH1 0x1F NOT PUSH1 0x1F DUP3 ADD AND DUP3 ADD DUP1 PUSH1 0x40 MSTORE POP DUP2 ADD SWAP1 PUSH2 0xB66 SWAP2 SWAP1 PUSH2 0x1DB9 JUMP JUMPDEST PUSH1 0xFF AND SWAP1 POP DUP2 PUSH20 0xFFFFFFFFFFFFFFFFFFFFFFFFFFFFFFFFFFFFFFFF AND PUSH4 0x23B872DD CALLER ADDRESS DUP5 PUSH1 0xA PUSH2 0xB96 SWAP2 SWAP1 PUSH2 0x1F13 JUMP JUMPDEST DUP8 PUSH2 0xBA1 SWAP2 SWAP1 PUSH2 0x1F5D JUMP JUMPDEST PUSH1 0x40 MLOAD DUP5 PUSH4 0xFFFFFFFF AND PUSH1 0xE0 SHL DUP2 MSTORE PUSH1 0x4 ADD PUSH2 0xBBF SWAP4 SWAP3 SWAP2 SWAP1 PUSH2 0x1FAD JUMP JUMPDEST PUSH1 0x20 PUSH1 0x40 MLOAD DUP1 DUP4 SUB DUP2 PUSH0 DUP8 GAS CALL ISZERO DUP1 ISZERO PUSH2 0xBDB JUMPI RETURNDATASIZE PUSH0 DUP1 RETURNDATACOPY RETURNDATASIZE PUSH0 REVERT JUMPDEST POP POP POP POP PUSH1 0x40 MLOAD RETURNDATASIZE PUSH1 0x1F NOT PUSH1 0x1F DUP3 ADD AND DUP3 ADD DUP1 PUSH1 0x40 MSTORE POP DUP2 ADD SWAP1 PUSH2 0xBFF SWAP2 SWAP1 PUSH2 0x2017 JUMP JUMPDEST POP POP POP JUMPDEST POP POP JUMP JUMPDEST PUSH0 DUP1 DUP4 PUSH1 0x4 ADD SLOAD SUB PUSH2 0xC85 JUMPI PUSH2 0xC7E DUP3 PUSH0 DUP2 SLOAD DUP2 LT PUSH2 0xC29 JUMPI PUSH2 0xC28 PUSH2 0x198E JUMP JUMPDEST JUMPDEST SWAP1 PUSH0 MSTORE PUSH1 0x20 PUSH0 KECCAK256 SWAP1 PUSH1 0x20 SWAP2 DUP3 DUP3 DIV ADD SWAP2 SWAP1 MOD SWAP1 SLOAD SWAP1 PUSH2 0x100 EXP SWAP1 DIV PUSH1 0xFF AND DUP4 PUSH1 0x3 DUP2 SLOAD DUP2 LT PUSH2 0xC5B JUMPI PUSH2 0xC5A PUSH2 0x198E JUMP JUMPDEST JUMPDEST SWAP1 PUSH0 MSTORE PUSH1 0x20 PUSH0 KECCAK256 SWAP1 PUSH1 0x20 SWAP2 DUP3 DUP3 DIV ADD SWAP2 SWAP1 MOD SWAP1 SLOAD SWAP1 PUSH2 0x100 EXP SWAP1 DIV PUSH1 0xFF AND PUSH2 0xEA4 JUMP JUMPDEST SWAP1 POP PUSH2 0xD56 JUMP JUMPDEST PUSH0 DUP1 PUSH0 JUMPDEST PUSH1 0x3 DUP2 LT ISZERO PUSH2 0xD52 JUMPI PUSH2 0xD08 DUP6 DUP3 DUP2 SLOAD DUP2 LT PUSH2 0xCA8 JUMPI PUSH2 0xCA7 PUSH2 0x198E JUMP JUMPDEST JUMPDEST SWAP1 PUSH0 MSTORE PUSH1 0x20 PUSH0 KECCAK256 SWAP1 PUSH1 0x20 SWAP2 DUP3 DUP3 DIV ADD SWAP2 SWAP1 MOD SWAP1 SLOAD SWAP1 PUSH2 0x100 EXP SWAP1 DIV PUSH1 0xFF AND DUP7 PUSH1 0x3 DUP5 PUSH2 0xCD4 SWAP2 SWAP1 PUSH2 0x2042 JUMP JUMPDEST DUP2 SLOAD DUP2 LT PUSH2 0xCE5 JUMPI PUSH2 0xCE4 PUSH2 0x198E JUMP JUMPDEST JUMPDEST SWAP1 PUSH0 MSTORE PUSH1 0x20 PUSH0 KECCAK256 SWAP1 PUSH1 0x20 SWAP2 DUP3 DUP3 DIV ADD SWAP2 SWAP1 MOD SWAP1 SLOAD SWAP1 PUSH2 0x100 EXP SWAP1 DIV PUSH1 0xFF AND PUSH2 0xEA4 JUMP JUMPDEST SWAP4 POP PUSH1 0x1 DUP5 SUB PUSH2 0xD26 JUMPI PUSH1 0x1 DUP4 PUSH2 0xD1F SWAP2 SWAP1 PUSH2 0x2042 JUMP JUMPDEST SWAP3 POP PUSH2 0xD3F JUMP JUMPDEST PUSH1 0x1 DUP5 SUB PUSH2 0xD3E JUMPI PUSH1 0x1 DUP3 PUSH2 0xD3B SWAP2 SWAP1 PUSH2 0x2042 JUMP JUMPDEST SWAP2 POP JUMPDEST JUMPDEST DUP1 DUP1 PUSH2 0xD4A SWAP1 PUSH2 0x1D3C JUMP JUMPDEST SWAP2 POP POP PUSH2 0xC89 JUMP JUMPDEST POP POP POP JUMPDEST PUSH2 0xD60 DUP4 DUP3 PUSH2 0xF18 JUMP JUMPDEST POP POP POP JUMP JUMPDEST PUSH2 0xD6D PUSH2 0x1682 JUMP JUMPDEST PUSH20 0xFFFFFFFFFFFFFFFFFFFFFFFFFFFFFFFFFFFFFFFF AND PUSH2 0xD8B PUSH2 0x49B JUMP JUMPDEST PUSH20 0xFFFFFFFFFFFFFFFFFFFFFFFFFFFFFFFFFFFFFFFF AND EQ PUSH2 0xDE1 JUMPI PUSH1 0x40 MLOAD PUSH32 0x8C379A000000000000000000000000000000000000000000000000000000000 DUP2 MSTORE PUSH1 0x4 ADD PUSH2 0xDD8 SWAP1 PUSH2 0x20BF JUMP JUMPDEST PUSH1 0x40 MLOAD DUP1 SWAP2 SUB SWAP1 REVERT JUMPDEST JUMP JUMPDEST PUSH0 DUP1 PUSH0 SWAP1 SLOAD SWAP1 PUSH2 0x100 EXP SWAP1 DIV PUSH20 0xFFFFFFFFFFFFFFFFFFFFFFFFFFFFFFFFFFFFFFFF AND SWAP1 POP DUP2 PUSH0 DUP1 PUSH2 0x100 EXP DUP2 SLOAD DUP2 PUSH20 0xFFFFFFFFFFFFFFFFFFFFFFFFFFFFFFFFFFFFFFFF MUL NOT AND SWAP1 DUP4 PUSH20 0xFFFFFFFFFFFFFFFFFFFFFFFFFFFFFFFFFFFFFFFF AND MUL OR SWAP1 SSTORE POP DUP2 PUSH20 0xFFFFFFFFFFFFFFFFFFFFFFFFFFFFFFFFFFFFFFFF AND DUP2 PUSH20 0xFFFFFFFFFFFFFFFFFFFFFFFFFFFFFFFFFFFFFFFF AND PUSH32 0x8BE0079C531659141344CD1FD0A4F28419497F9722A3DAAFE3B4186F6B6457E0 PUSH1 0x40 MLOAD PUSH1 0x40 MLOAD DUP1 SWAP2 SUB SWAP1 LOG3 POP POP JUMP JUMPDEST PUSH0 DUP2 PUSH1 0x3 DUP2 GT ISZERO PUSH2 0xEB8 JUMPI PUSH2 0xEB7 PUSH2 0x1B51 JUMP JUMPDEST JUMPDEST DUP4 PUSH1 0x3 DUP2 GT ISZERO PUSH2 0xECB JUMPI PUSH2 0xECA PUSH2 0x1B51 JUMP JUMPDEST JUMPDEST SUB PUSH2 0xED8 JUMPI PUSH0 SWAP1 POP PUSH2 0xF12 JUMP JUMPDEST DUP2 PUSH1 0x3 DUP2 GT ISZERO PUSH2 0xEEB JUMPI PUSH2 0xEEA PUSH2 0x1B51 JUMP JUMPDEST JUMPDEST DUP4 PUSH1 0x3 DUP2 GT ISZERO PUSH2 0xEFE JUMPI PUSH2 0xEFD PUSH2 0x1B51 JUMP JUMPDEST JUMPDEST GT ISZERO PUSH2 0xF0D JUMPI PUSH1 0x1 SWAP1 POP PUSH2 0xF12 JUMP JUMPDEST PUSH1 0x2 SWAP1 POP JUMPDEST SWAP3 SWAP2 POP POP JUMP JUMPDEST PUSH0 PUSH1 0x64 PUSH1 0x2 SLOAD DUP5 PUSH1 0x3 ADD SLOAD PUSH2 0xF2D SWAP2 SWAP1 PUSH2 0x1F5D JUMP JUMPDEST PUSH2 0xF37 SWAP2 SWAP1 PUSH2 0x210A JUMP JUMPDEST SWAP1 POP PUSH0 PUSH20 0xFFFFFFFFFFFFFFFFFFFFFFFFFFFFFFFFFFFFFFFF AND DUP4 PUSH1 0x2 ADD PUSH0 SWAP1 SLOAD SWAP1 PUSH2 0x100 EXP SWAP1 DIV PUSH20 0xFFFFFFFFFFFFFFFFFFFFFFFFFFFFFFFFFFFFFFFF AND PUSH20 0xFFFFFFFFFFFFFFFFFFFFFFFFFFFFFFFFFFFFFFFF AND SUB PUSH2 0x1263 JUMPI PUSH0 DUP3 SUB PUSH2 0x1086 JUMPI DUP3 PUSH0 ADD PUSH0 SWAP1 SLOAD SWAP1 PUSH2 0x100 EXP SWAP1 DIV PUSH20 0xFFFFFFFFFFFFFFFFFFFFFFFFFFFFFFFFFFFFFFFF AND PUSH20 0xFFFFFFFFFFFFFFFFFFFFFFFFFFFFFFFFFFFFFFFF AND PUSH2 0x8FC DUP3 DUP6 PUSH1 0x3 ADD SLOAD PUSH2 0xFE2 SWAP2 SWAP1 PUSH2 0x1C7B JUMP JUMPDEST SWAP1 DUP2 ISZERO MUL SWAP1 PUSH1 0x40 MLOAD PUSH0 PUSH1 0x40 MLOAD DUP1 DUP4 SUB DUP2 DUP6 DUP9 DUP9 CALL SWAP4 POP POP POP POP ISZERO DUP1 ISZERO PUSH2 0x100A JUMPI RETURNDATASIZE PUSH0 DUP1 RETURNDATACOPY RETURNDATASIZE PUSH0 REVERT JUMPDEST POP DUP3 PUSH1 0x1 ADD PUSH0 SWAP1 SLOAD SWAP1 PUSH2 0x100 EXP SWAP1 DIV PUSH20 0xFFFFFFFFFFFFFFFFFFFFFFFFFFFFFFFFFFFFFFFF AND PUSH20 0xFFFFFFFFFFFFFFFFFFFFFFFFFFFFFFFFFFFFFFFF AND PUSH2 0x8FC DUP3 DUP6 PUSH1 0x3 ADD SLOAD PUSH2 0x1058 SWAP2 SWAP1 PUSH2 0x1C7B JUMP JUMPDEST SWAP1 DUP2 ISZERO MUL SWAP1 PUSH1 0x40 MLOAD PUSH0 PUSH1 0x40 MLOAD DUP1 DUP4 SUB DUP2 DUP6 DUP9 DUP9 CALL SWAP4 POP POP POP POP ISZERO DUP1 ISZERO PUSH2 0x1080 JUMPI RETURNDATASIZE PUSH0 DUP1 RETURNDATACOPY RETURNDATASIZE PUSH0 REVERT JUMPDEST POP PUSH2 0x1198 JUMP JUMPDEST PUSH1 0x1 DUP3 SUB PUSH2 0x1114 JUMPI DUP3 PUSH0 ADD PUSH0 SWAP1 SLOAD SWAP1 PUSH2 0x100 EXP SWAP1 DIV PUSH20 0xFFFFFFFFFFFFFFFFFFFFFFFFFFFFFFFFFFFFFFFF AND PUSH20 0xFFFFFFFFFFFFFFFFFFFFFFFFFFFFFFFFFFFFFFFF AND PUSH2 0x8FC PUSH1 0x2 DUP4 PUSH2 0x10D7 SWAP2 SWAP1 PUSH2 0x1F5D JUMP JUMPDEST DUP6 PUSH1 0x3 ADD SLOAD PUSH2 0x10E6 SWAP2 SWAP1 PUSH2 0x1C7B JUMP JUMPDEST SWAP1 DUP2 ISZERO MUL SWAP1 PUSH1 0x40 MLOAD PUSH0 PUSH1 0x40 MLOAD DUP1 DUP4 SUB DUP2 DUP6 DUP9 DUP9 CALL SWAP4 POP POP POP POP ISZERO DUP1 ISZERO PUSH2 0x110E JUMPI RETURNDATASIZE PUSH0 DUP1 RETURNDATACOPY RETURNDATASIZE PUSH0 REVERT JUMPDEST POP PUSH2 0x1197 JUMP JUMPDEST DUP3 PUSH1 0x1 ADD PUSH0 SWAP1 SLOAD SWAP1 PUSH2 0x100 EXP SWAP1 DIV PUSH20 0xFFFFFFFFFFFFFFFFFFFFFFFFFFFFFFFFFFFFFFFF AND PUSH20 0xFFFFFFFFFFFFFFFFFFFFFFFFFFFFFFFFFFFFFFFF AND PUSH2 0x8FC PUSH1 0x2 DUP4 PUSH2 0x115E SWAP2 SWAP1 PUSH2 0x1F5D JUMP JUMPDEST DUP6 PUSH1 0x3 ADD SLOAD PUSH2 0x116D SWAP2 SWAP1 PUSH2 0x1C7B JUMP JUMPDEST SWAP1 DUP2 ISZERO MUL SWAP1 PUSH1 0x40 MLOAD PUSH0 PUSH1 0x40 MLOAD DUP1 DUP4 SUB DUP2 DUP6 DUP9 DUP9 CALL SWAP4 POP POP POP POP ISZERO DUP1 ISZERO PUSH2 0x1195 JUMPI RETURNDATASIZE PUSH0 DUP1 RETURNDATACOPY RETURNDATASIZE PUSH0 REVERT JUMPDEST POP JUMPDEST JUMPDEST PUSH0 PUSH20 0xFFFFFFFFFFFFFFFFFFFFFFFFFFFFFFFFFFFFFFFF AND PUSH1 0x3 PUSH0 SWAP1 SLOAD SWAP1 PUSH2 0x100 EXP SWAP1 DIV PUSH20 0xFFFFFFFFFFFFFFFFFFFFFFFFFFFFFFFFFFFFFFFF AND PUSH20 0xFFFFFFFFFFFFFFFFFFFFFFFFFFFFFFFFFFFFFFFF AND EQ PUSH2 0x125E JUMPI PUSH1 0x3 PUSH0 SWAP1 SLOAD SWAP1 PUSH2 0x100 EXP SWAP1 DIV PUSH20 0xFFFFFFFFFFFFFFFFFFFFFFFFFFFFFFFFFFFFFFFF AND PUSH20 0xFFFFFFFFFFFFFFFFFFFFFFFFFFFFFFFFFFFFFFFF AND PUSH2 0x8FC PUSH1 0x2 DUP4 PUSH2 0x1234 SWAP2 SWAP1 PUSH2 0x1F5D JUMP JUMPDEST SWAP1 DUP2 ISZERO MUL SWAP1 PUSH1 0x40 MLOAD PUSH0 PUSH1 0x40 MLOAD DUP1 DUP4 SUB DUP2 DUP6 DUP9 DUP9 CALL SWAP4 POP POP POP POP ISZERO DUP1 ISZERO PUSH2 0x125C JUMPI RETURNDATASIZE PUSH0 DUP1 RETURNDATACOPY RETURNDATASIZE PUSH0 REVERT JUMPDEST POP JUMPDEST PUSH2 0x1673 JUMP JUMPDEST PUSH0 DUP4 PUSH1 0x2 ADD PUSH0 SWAP1 SLOAD SWAP1 PUSH2 0x100 EXP SWAP1 DIV PUSH20 0xFFFFFFFFFFFFFFFFFFFFFFFFFFFFFFFFFFFFFFFF AND SWAP1 POP PUSH0 DUP4 SUB PUSH2 0x13F1 JUMPI DUP1 PUSH20 0xFFFFFFFFFFFFFFFFFFFFFFFFFFFFFFFFFFFFFFFF AND PUSH4 0xA9059CBB DUP6 PUSH0 ADD PUSH0 SWAP1 SLOAD SWAP1 PUSH2 0x100 EXP SWAP1 DIV PUSH20 0xFFFFFFFFFFFFFFFFFFFFFFFFFFFFFFFFFFFFFFFF AND DUP5 DUP8 PUSH1 0x3 ADD SLOAD PUSH2 0x12E0 SWAP2 SWAP1 PUSH2 0x1C7B JUMP JUMPDEST PUSH1 0x40 MLOAD DUP4 PUSH4 0xFFFFFFFF AND PUSH1 0xE0 SHL DUP2 MSTORE PUSH1 0x4 ADD PUSH2 0x12FD SWAP3 SWAP2 SWAP1 PUSH2 0x213A JUMP JUMPDEST PUSH1 0x20 PUSH1 0x40 MLOAD DUP1 DUP4 SUB DUP2 PUSH0 DUP8 GAS CALL ISZERO DUP1 ISZERO PUSH2 0x1319 JUMPI RETURNDATASIZE PUSH0 DUP1 RETURNDATACOPY RETURNDATASIZE PUSH0 REVERT JUMPDEST POP POP POP POP PUSH1 0x40 MLOAD RETURNDATASIZE PUSH1 0x1F NOT PUSH1 0x1F DUP3 ADD AND DUP3 ADD DUP1 PUSH1 0x40 MSTORE POP DUP2 ADD SWAP1 PUSH2 0x133D SWAP2 SWAP1 PUSH2 0x2017 JUMP JUMPDEST POP DUP1 PUSH20 0xFFFFFFFFFFFFFFFFFFFFFFFFFFFFFFFFFFFFFFFF AND PUSH4 0xA9059CBB DUP6 PUSH1 0x1 ADD PUSH0 SWAP1 SLOAD SWAP1 PUSH2 0x100 EXP SWAP1 DIV PUSH20 0xFFFFFFFFFFFFFFFFFFFFFFFFFFFFFFFFFFFFFFFF AND DUP5 DUP8 PUSH1 0x3 ADD SLOAD PUSH2 0x138E SWAP2 SWAP1 PUSH2 0x1C7B JUMP JUMPDEST PUSH1 0x40 MLOAD DUP4 PUSH4 0xFFFFFFFF AND PUSH1 0xE0 SHL DUP2 MSTORE PUSH1 0x4 ADD PUSH2 0x13AB SWAP3 SWAP2 SWAP1 PUSH2 0x213A JUMP JUMPDEST PUSH1 0x20 PUSH1 0x40 MLOAD DUP1 DUP4 SUB DUP2 PUSH0 DUP8 GAS CALL ISZERO DUP1 ISZERO PUSH2 0x13C7 JUMPI RETURNDATASIZE PUSH0 DUP1 RETURNDATACOPY RETURNDATASIZE PUSH0 REVERT JUMPDEST POP POP POP POP PUSH1 0x40 MLOAD RETURNDATASIZE PUSH1 0x1F NOT PUSH1 0x1F DUP3 ADD AND DUP3 ADD DUP1 PUSH1 0x40 MSTORE POP DUP2 ADD SWAP1 PUSH2 0x13EB SWAP2 SWAP1 PUSH2 0x2017 JUMP JUMPDEST POP PUSH2 0x1573 JUMP JUMPDEST PUSH1 0x1 DUP4 SUB PUSH2 0x14B7 JUMPI DUP1 PUSH20 0xFFFFFFFFFFFFFFFFFFFFFFFFFFFFFFFFFFFFFFFF AND PUSH4 0xA9059CBB DUP6 PUSH0 ADD PUSH0 SWAP1 SLOAD SWAP1 PUSH2 0x100 EXP SWAP1 DIV PUSH20 0xFFFFFFFFFFFFFFFFFFFFFFFFFFFFFFFFFFFFFFFF AND PUSH1 0x2 DUP6 PUSH2 0x1445 SWAP2 SWAP1 PUSH2 0x1F5D JUMP JUMPDEST DUP8 PUSH1 0x3 ADD SLOAD PUSH2 0x1454 SWAP2 SWAP1 PUSH2 0x1C7B JUMP JUMPDEST PUSH1 0x40 MLOAD DUP4 PUSH4 0xFFFFFFFF AND PUSH1 0xE0 SHL DUP2 MSTORE PUSH1 0x4 ADD PUSH2 0x1471 SWAP3 SWAP2 SWAP1 PUSH2 0x213A JUMP JUMPDEST PUSH1 0x20 PUSH1 0x40 MLOAD DUP1 DUP4 SUB DUP2 PUSH0 DUP8 GAS CALL ISZERO DUP1 ISZERO PUSH2 0x148D JUMPI RETURNDATASIZE PUSH0 DUP1 RETURNDATACOPY RETURNDATASIZE PUSH0 REVERT JUMPDEST POP POP POP POP PUSH1 0x40 MLOAD RETURNDATASIZE PUSH1 0x1F NOT PUSH1 0x1F DUP3 ADD AND DUP3 ADD DUP1 PUSH1 0x40 MSTORE POP DUP2 ADD SWAP1 PUSH2 0x14B1 SWAP2 SWAP1 PUSH2 0x2017 JUMP JUMPDEST POP PUSH2 0x1572 JUMP JUMPDEST DUP1 PUSH20 0xFFFFFFFFFFFFFFFFFFFFFFFFFFFFFFFFFFFFFFFF AND PUSH4 0xA9059CBB DUP6 PUSH1 0x1 ADD PUSH0 SWAP1 SLOAD SWAP1 PUSH2 0x100 EXP SWAP1 DIV PUSH20 0xFFFFFFFFFFFFFFFFFFFFFFFFFFFFFFFFFFFFFFFF AND PUSH1 0x2 DUP6 PUSH2 0x1504 SWAP2 SWAP1 PUSH2 0x1F5D JUMP JUMPDEST DUP8 PUSH1 0x3 ADD SLOAD PUSH2 0x1513 SWAP2 SWAP1 PUSH2 0x1C7B JUMP JUMPDEST PUSH1 0x40 MLOAD DUP4 PUSH4 0xFFFFFFFF AND PUSH1 0xE0 SHL DUP2 MSTORE PUSH1 0x4 ADD PUSH2 0x1530 SWAP3 SWAP2 SWAP1 PUSH2 0x213A JUMP JUMPDEST PUSH1 0x20 PUSH1 0x40 MLOAD DUP1 DUP4 SUB DUP2 PUSH0 DUP8 GAS CALL ISZERO DUP1 ISZERO PUSH2 0x154C JUMPI RETURNDATASIZE PUSH0 DUP1 RETURNDATACOPY RETURNDATASIZE PUSH0 REVERT JUMPDEST POP POP POP POP PUSH1 0x40 MLOAD RETURNDATASIZE PUSH1 0x1F NOT PUSH1 0x1F DUP3 ADD AND DUP3 ADD DUP1 PUSH1 0x40 MSTORE POP DUP2 ADD SWAP1 PUSH2 0x1570 SWAP2 SWAP1 PUSH2 0x2017 JUMP JUMPDEST POP JUMPDEST JUMPDEST PUSH0 PUSH20 0xFFFFFFFFFFFFFFFFFFFFFFFFFFFFFFFFFFFFFFFF AND PUSH1 0x3 PUSH0 SWAP1 SLOAD SWAP1 PUSH2 0x100 EXP SWAP1 DIV PUSH20 0xFFFFFFFFFFFFFFFFFFFFFFFFFFFFFFFFFFFFFFFF AND PUSH20 0xFFFFFFFFFFFFFFFFFFFFFFFFFFFFFFFFFFFFFFFF AND EQ PUSH2 0x1671 JUMPI DUP1 PUSH20 0xFFFFFFFFFFFFFFFFFFFFFFFFFFFFFFFFFFFFFFFF AND PUSH4 0xA9059CBB PUSH1 0x3 PUSH0 SWAP1 SLOAD SWAP1 PUSH2 0x100 EXP SWAP1 DIV PUSH20 0xFFFFFFFFFFFFFFFFFFFFFFFFFFFFFFFFFFFFFFFF AND PUSH1 0x2 DUP6 PUSH2 0x1612 SWAP2 SWAP1 PUSH2 0x1F5D JUMP JUMPDEST PUSH1 0x40 MLOAD DUP4 PUSH4 0xFFFFFFFF AND PUSH1 0xE0 SHL DUP2 MSTORE PUSH1 0x4 ADD PUSH2 0x162F SWAP3 SWAP2 SWAP1 PUSH2 0x213A JUMP JUMPDEST PUSH1 0x20 PUSH1 0x40 MLOAD DUP1 DUP4 SUB DUP2 PUSH0 DUP8 GAS CALL ISZERO DUP1 ISZERO PUSH2 0x164B JUMPI RETURNDATASIZE PUSH0 DUP1 RETURNDATACOPY RETURNDATASIZE PUSH0 REVERT JUMPDEST POP POP POP POP PUSH1 0x40 MLOAD RETURNDATASIZE PUSH1 0x1F NOT PUSH1 0x1F DUP3 ADD AND DUP3 ADD DUP1 PUSH1 0x40 MSTORE POP DUP2 ADD SWAP1 PUSH2 0x166F SWAP2 SWAP1 PUSH2 0x2017 JUMP JUMPDEST POP JUMPDEST POP JUMPDEST PUSH1 0x2 DUP4 PUSH1 0x5 ADD DUP2 SWAP1 SSTORE POP POP POP POP JUMP JUMPDEST PUSH0 CALLER SWAP1 POP SWAP1 JUMP JUMPDEST DUP3 DUP1 SLOAD DUP3 DUP3 SSTORE SWAP1 PUSH0 MSTORE PUSH1 0x20 PUSH0 KECCAK256 SWAP1 PUSH1 0x1F ADD PUSH1 0x20 SWAP1 DIV DUP2 ADD SWAP3 DUP3 ISZERO PUSH2 0x1738 JUMPI SWAP2 PUSH1 0x20 MUL DUP3 ADD PUSH0 JUMPDEST DUP4 DUP3 GT ISZERO PUSH2 0x170A JUMPI DUP4 CALLDATALOAD PUSH1 0x3 DUP2 GT DUP1 ISZERO PUSH2 0x16C7 JUMPI PUSH0 DUP1 REVERT JUMPDEST POP DUP4 DUP3 PUSH2 0x100 EXP DUP2 SLOAD DUP2 PUSH1 0xFF MUL NOT AND SWAP1 DUP4 PUSH1 0x3 DUP2 GT ISZERO PUSH2 0x16EA JUMPI PUSH2 0x16E9 PUSH2 0x1B51 JUMP JUMPDEST JUMPDEST MUL OR SWAP1 SSTORE POP SWAP3 PUSH1 0x20 ADD SWAP3 PUSH1 0x1 ADD PUSH1 0x20 DUP2 PUSH0 ADD DIV SWAP3 DUP4 ADD SWAP3 PUSH1 0x1 SUB MUL PUSH2 0x16AF JUMP JUMPDEST DUP1 ISZERO PUSH2 0x1736 JUMPI DUP3 DUP2 PUSH2 0x100 EXP DUP2 SLOAD SWAP1 PUSH1 0xFF MUL NOT AND SWAP1 SSTORE PUSH1 0x1 ADD PUSH1 0x20 DUP2 PUSH0 ADD DIV SWAP3 DUP4 ADD SWAP3 PUSH1 0x1 SUB MUL PUSH2 0x170A JUMP JUMPDEST POP JUMPDEST POP SWAP1 POP PUSH2 0x1745 SWAP2 SWAP1 PUSH2 0x1749 JUMP JUMPDEST POP SWAP1 JUMP JUMPDEST JUMPDEST DUP1 DUP3 GT ISZERO PUSH2 0x1760 JUMPI PUSH0 DUP2 PUSH0 SWAP1 SSTORE POP PUSH1 0x1 ADD PUSH2 0x174A JUMP JUMPDEST POP SWAP1 JUMP JUMPDEST PUSH0 DUP1 REVERT JUMPDEST PUSH0 DUP1 REVERT JUMPDEST PUSH0 DUP2 SWAP1 POP SWAP2 SWAP1 POP JUMP JUMPDEST PUSH2 0x177E DUP2 PUSH2 0x176C JUMP JUMPDEST DUP2 EQ PUSH2 0x1788 JUMPI PUSH0 DUP1 REVERT JUMPDEST POP JUMP JUMPDEST PUSH0 DUP2 CALLDATALOAD SWAP1 POP PUSH2 0x1799 DUP2 PUSH2 0x1775 JUMP JUMPDEST SWAP3 SWAP2 POP POP JUMP JUMPDEST PUSH0 DUP1 REVERT JUMPDEST PUSH0 DUP1 REVERT JUMPDEST PUSH0 DUP1 REVERT JUMPDEST PUSH0 DUP1 DUP4 PUSH1 0x1F DUP5 ADD SLT PUSH2 0x17C0 JUMPI PUSH2 0x17BF PUSH2 0x179F JUMP JUMPDEST JUMPDEST DUP3 CALLDATALOAD SWAP1 POP PUSH8 0xFFFFFFFFFFFFFFFF DUP2 GT ISZERO PUSH2 0x17DD JUMPI PUSH2 0x17DC PUSH2 0x17A3 JUMP JUMPDEST JUMPDEST PUSH1 0x20 DUP4 ADD SWAP2 POP DUP4 PUSH1 0x20 DUP3 MUL DUP4 ADD GT ISZERO PUSH2 0x17F9 JUMPI PUSH2 0x17F8 PUSH2 0x17A7 JUMP JUMPDEST JUMPDEST SWAP3 POP SWAP3 SWAP1 POP JUMP JUMPDEST PUSH0 DUP1 PUSH0 PUSH1 0x40 DUP5 DUP7 SUB SLT ISZERO PUSH2 0x1817 JUMPI PUSH2 0x1816 PUSH2 0x1764 JUMP JUMPDEST JUMPDEST PUSH0 PUSH2 0x1824 DUP7 DUP3 DUP8 ADD PUSH2 0x178B JUMP JUMPDEST SWAP4 POP POP PUSH1 0x20 DUP5 ADD CALLDATALOAD PUSH8 0xFFFFFFFFFFFFFFFF DUP2 GT ISZERO PUSH2 0x1845 JUMPI PUSH2 0x1844 PUSH2 0x1768 JUMP JUMPDEST JUMPDEST PUSH2 0x1851 DUP7 DUP3 DUP8 ADD PUSH2 0x17AB JUMP JUMPDEST SWAP3 POP SWAP3 POP POP SWAP3 POP SWAP3 POP SWAP3 JUMP JUMPDEST PUSH0 PUSH20 0xFFFFFFFFFFFFFFFFFFFFFFFFFFFFFFFFFFFFFFFF DUP3 AND SWAP1 POP SWAP2 SWAP1 POP JUMP JUMPDEST PUSH0 PUSH2 0x1886 DUP3 PUSH2 0x185D JUMP JUMPDEST SWAP1 POP SWAP2 SWAP1 POP JUMP JUMPDEST PUSH2 0x1896 DUP2 PUSH2 0x187C JUMP JUMPDEST DUP3 MSTORE POP POP JUMP JUMPDEST PUSH0 PUSH1 0x20 DUP3 ADD SWAP1 POP PUSH2 0x18AF PUSH0 DUP4 ADD DUP5 PUSH2 0x188D JUMP JUMPDEST SWAP3 SWAP2 POP POP JUMP JUMPDEST PUSH2 0x18BE DUP2 PUSH2 0x187C JUMP JUMPDEST DUP2 EQ PUSH2 0x18C8 JUMPI PUSH0 DUP1 REVERT JUMPDEST POP JUMP JUMPDEST PUSH0 DUP2 CALLDATALOAD SWAP1 POP PUSH2 0x18D9 DUP2 PUSH2 0x18B5 JUMP JUMPDEST SWAP3 SWAP2 POP POP JUMP JUMPDEST PUSH0 DUP1 PUSH0 DUP1 PUSH0 PUSH1 0x80 DUP7 DUP9 SUB SLT ISZERO PUSH2 0x18F8 JUMPI PUSH2 0x18F7 PUSH2 0x1764 JUMP JUMPDEST JUMPDEST PUSH0 PUSH2 0x1905 DUP9 DUP3 DUP10 ADD PUSH2 0x18CB JUMP JUMPDEST SWAP6 POP POP PUSH1 0x20 PUSH2 0x1916 DUP9 DUP3 DUP10 ADD PUSH2 0x178B JUMP JUMPDEST SWAP5 POP POP PUSH1 0x40 PUSH2 0x1927 DUP9 DUP3 DUP10 ADD PUSH2 0x178B JUMP JUMPDEST SWAP4 POP POP PUSH1 0x60 DUP7 ADD CALLDATALOAD PUSH8 0xFFFFFFFFFFFFFFFF DUP2 GT ISZERO PUSH2 0x1948 JUMPI PUSH2 0x1947 PUSH2 0x1768 JUMP JUMPDEST JUMPDEST PUSH2 0x1954 DUP9 DUP3 DUP10 ADD PUSH2 0x17AB JUMP JUMPDEST SWAP3 POP SWAP3 POP POP SWAP3 SWAP6 POP SWAP3 SWAP6 SWAP1 SWAP4 POP JUMP JUMPDEST PUSH0 PUSH1 0x20 DUP3 DUP5 SUB SLT ISZERO PUSH2 0x1978 JUMPI PUSH2 0x1977 PUSH2 0x1764 JUMP JUMPDEST JUMPDEST PUSH0 PUSH2 0x1985 DUP5 DUP3 DUP6 ADD PUSH2 0x18CB JUMP JUMPDEST SWAP2 POP POP SWAP3 SWAP2 POP POP JUMP JUMPDEST PUSH32 0x4E487B7100000000000000000000000000000000000000000000000000000000 PUSH0 MSTORE PUSH1 0x32 PUSH1 0x4 MSTORE PUSH1 0x24 PUSH0 REVERT JUMPDEST PUSH0 DUP3 DUP3 MSTORE PUSH1 0x20 DUP3 ADD SWAP1 POP SWAP3 SWAP2 POP POP JUMP JUMPDEST PUSH32 0x47616D65206E6F74206578697374730000000000000000000000000000000000 PUSH0 DUP3 ADD MSTORE POP JUMP JUMPDEST PUSH0 PUSH2 0x19FF PUSH1 0xF DUP4 PUSH2 0x19BB JUMP JUMPDEST SWAP2 POP PUSH2 0x1A0A DUP3 PUSH2 0x19CB JUMP JUMPDEST PUSH1 0x20 DUP3 ADD SWAP1 POP SWAP2 SWAP1 POP JUMP JUMPDEST PUSH0 PUSH1 0x20 DUP3 ADD SWAP1 POP DUP2 DUP2 SUB PUSH0 DUP4 ADD MSTORE PUSH2 0x1A2C DUP2 PUSH2 0x19F3 JUMP JUMPDEST SWAP1 POP SWAP2 SWAP1 POP JUMP JUMPDEST PUSH32 0x47616D6520686173206265656E206F7665720000000000000000000000000000 PUSH0 DUP3 ADD MSTORE POP JUMP JUMPDEST PUSH0 PUSH2 0x1A67 PUSH1 0x12 DUP4 PUSH2 0x19BB JUMP JUMPDEST SWAP2 POP PUSH2 0x1A72 DUP3 PUSH2 0x1A33 JUMP JUMPDEST PUSH1 0x20 DUP3 ADD SWAP1 POP SWAP2 SWAP1 POP JUMP JUMPDEST PUSH0 PUSH1 0x20 DUP3 ADD SWAP1 POP DUP2 DUP2 SUB PUSH0 DUP4 ADD MSTORE PUSH2 0x1A94 DUP2 PUSH2 0x1A5B JUMP JUMPDEST SWAP1 POP SWAP2 SWAP1 POP JUMP JUMPDEST PUSH32 0x4775657373696E67206572726F72000000000000000000000000000000000000 PUSH0 DUP3 ADD MSTORE POP JUMP JUMPDEST PUSH0 PUSH2 0x1ACF PUSH1 0xE DUP4 PUSH2 0x19BB JUMP JUMPDEST SWAP2 POP PUSH2 0x1ADA DUP3 PUSH2 0x1A9B JUMP JUMPDEST PUSH1 0x20 DUP3 ADD SWAP1 POP SWAP2 SWAP1 POP JUMP JUMPDEST PUSH0 PUSH1 0x20 DUP3 ADD SWAP1 POP DUP2 DUP2 SUB PUSH0 DUP4 ADD MSTORE PUSH2 0x1AFC DUP2 PUSH2 0x1AC3 JUMP JUMPDEST SWAP1 POP SWAP2 SWAP1 POP JUMP JUMPDEST PUSH1 0x4 DUP2 LT PUSH2 0x1B0F JUMPI PUSH0 DUP1 REVERT JUMPDEST POP JUMP JUMPDEST PUSH0 DUP2 CALLDATALOAD SWAP1 POP PUSH2 0x1B20 DUP2 PUSH2 0x1B03 JUMP JUMPDEST SWAP3 SWAP2 POP POP JUMP JUMPDEST PUSH0 PUSH1 0x20 DUP3 DUP5 SUB SLT ISZERO PUSH2 0x1B3B JUMPI PUSH2 0x1B3A PUSH2 0x1764 JUMP JUMPDEST JUMPDEST PUSH0 PUSH2 0x1B48 DUP5 DUP3 DUP6 ADD PUSH2 0x1B12 JUMP JUMPDEST SWAP2 POP POP SWAP3 SWAP2 POP POP JUMP JUMPDEST PUSH32 0x4E487B7100000000000000000000000000000000000000000000000000000000 PUSH0 MSTORE PUSH1 0x21 PUSH1 0x4 MSTORE PUSH1 0x24 PUSH0 REVERT JUMPDEST PUSH32 0x496E73756666696369656E7420616D6F756E7400000000000000000000000000 PUSH0 DUP3 ADD MSTORE POP JUMP JUMPDEST PUSH0 PUSH2 0x1BB2 PUSH1 0x13 DUP4 PUSH2 0x19BB JUMP JUMPDEST SWAP2 POP PUSH2 0x1BBD DUP3 PUSH2 0x1B7E JUMP JUMPDEST PUSH1 0x20 DUP3 ADD SWAP1 POP SWAP2 SWAP1 POP JUMP JUMPDEST PUSH0 PUSH1 0x20 DUP3 ADD SWAP1 POP DUP2 DUP2 SUB PUSH0 DUP4 ADD MSTORE PUSH2 0x1BDF DUP2 PUSH2 0x1BA6 JUMP JUMPDEST SWAP1 POP SWAP2 SWAP1 POP JUMP JUMPDEST PUSH32 0x47616D6520626F6E75732063616E6E6F74206265207A65726F00000000000000 PUSH0 DUP3 ADD MSTORE POP JUMP JUMPDEST PUSH0 PUSH2 0x1C1A PUSH1 0x19 DUP4 PUSH2 0x19BB JUMP JUMPDEST SWAP2 POP PUSH2 0x1C25 DUP3 PUSH2 0x1BE6 JUMP JUMPDEST PUSH1 0x20 DUP3 ADD SWAP1 POP SWAP2 SWAP1 POP JUMP JUMPDEST PUSH0 PUSH1 0x20 DUP3 ADD SWAP1 POP DUP2 DUP2 SUB PUSH0 DUP4 ADD MSTORE PUSH2 0x1C47 DUP2 PUSH2 0x1C0E JUMP JUMPDEST SWAP1 POP SWAP2 SWAP1 POP JUMP JUMPDEST PUSH32 0x4E487B7100000000000000000000000000000000000000000000000000000000 PUSH0 MSTORE PUSH1 0x11 PUSH1 0x4 MSTORE PUSH1 0x24 PUSH0 REVERT JUMPDEST PUSH0 PUSH2 0x1C85 DUP3 PUSH2 0x176C JUMP JUMPDEST SWAP2 POP PUSH2 0x1C90 DUP4 PUSH2 0x176C JUMP JUMPDEST SWAP3 POP DUP3 DUP3 SUB SWAP1 POP DUP2 DUP2 GT ISZERO PUSH2 0x1CA8 JUMPI PUSH2 0x1CA7 PUSH2 0x1C4E JUMP JUMPDEST JUMPDEST SWAP3 SWAP2 POP POP JUMP JUMPDEST PUSH32 0x4F776E61626C653A206E6577206F776E657220697320746865207A65726F2061 PUSH0 DUP3 ADD MSTORE PUSH32 0x6464726573730000000000000000000000000000000000000000000000000000 PUSH1 0x20 DUP3 ADD MSTORE POP JUMP JUMPDEST PUSH0 PUSH2 0x1D08 PUSH1 0x26 DUP4 PUSH2 0x19BB JUMP JUMPDEST SWAP2 POP PUSH2 0x1D13 DUP3 PUSH2 0x1CAE JUMP JUMPDEST PUSH1 0x40 DUP3 ADD SWAP1 POP SWAP2 SWAP1 POP JUMP JUMPDEST PUSH0 PUSH1 0x20 DUP3 ADD SWAP1 POP DUP2 DUP2 SUB PUSH0 DUP4 ADD MSTORE PUSH2 0x1D35 DUP2 PUSH2 0x1CFC JUMP JUMPDEST SWAP1 POP SWAP2 SWAP1 POP JUMP JUMPDEST PUSH0 PUSH2 0x1D46 DUP3 PUSH2 0x176C JUMP JUMPDEST SWAP2 POP PUSH32 0xFFFFFFFFFFFFFFFFFFFFFFFFFFFFFFFFFFFFFFFFFFFFFFFFFFFFFFFFFFFFFFFF DUP3 SUB PUSH2 0x1D78 JUMPI PUSH2 0x1D77 PUSH2 0x1C4E JUMP JUMPDEST JUMPDEST PUSH1 0x1 DUP3 ADD SWAP1 POP SWAP2 SWAP1 POP JUMP JUMPDEST PUSH0 PUSH1 0xFF DUP3 AND SWAP1 POP SWAP2 SWAP1 POP JUMP JUMPDEST PUSH2 0x1D98 DUP2 PUSH2 0x1D83 JUMP JUMPDEST DUP2 EQ PUSH2 0x1DA2 JUMPI PUSH0 DUP1 REVERT JUMPDEST POP JUMP JUMPDEST PUSH0 DUP2 MLOAD SWAP1 POP PUSH2 0x1DB3 DUP2 PUSH2 0x1D8F JUMP JUMPDEST SWAP3 SWAP2 POP POP JUMP JUMPDEST PUSH0 PUSH1 0x20 DUP3 DUP5 SUB SLT ISZERO PUSH2 0x1DCE JUMPI PUSH2 0x1DCD PUSH2 0x1764 JUMP JUMPDEST JUMPDEST PUSH0 PUSH2 0x1DDB DUP5 DUP3 DUP6 ADD PUSH2 0x1DA5 JUMP JUMPDEST SWAP2 POP POP SWAP3 SWAP2 POP POP JUMP JUMPDEST PUSH0 DUP2 PUSH1 0x1 SHR SWAP1 POP SWAP2 SWAP1 POP JUMP JUMPDEST PUSH0 DUP1 DUP3 SWAP2 POP DUP4 SWAP1 POP JUMPDEST PUSH1 0x1 DUP6 GT ISZERO PUSH2 0x1E39 JUMPI DUP1 DUP7 DIV DUP2 GT ISZERO PUSH2 0x1E15 JUMPI PUSH2 0x1E14 PUSH2 0x1C4E JUMP JUMPDEST JUMPDEST PUSH1 0x1 DUP6 AND ISZERO PUSH2 0x1E24 JUMPI DUP1 DUP3 MUL SWAP2 POP JUMPDEST DUP1 DUP2 MUL SWAP1 POP PUSH2 0x1E32 DUP6 PUSH2 0x1DE4 JUMP JUMPDEST SWAP5 POP PUSH2 0x1DF9 JUMP JUMPDEST SWAP5 POP SWAP5 SWAP3 POP POP POP JUMP JUMPDEST PUSH0 DUP3 PUSH2 0x1E51 JUMPI PUSH1 0x1 SWAP1 POP PUSH2 0x1F0C JUMP JUMPDEST DUP2 PUSH2 0x1E5E JUMPI PUSH0 SWAP1 POP PUSH2 0x1F0C JUMP JUMPDEST DUP2 PUSH1 0x1 DUP2 EQ PUSH2 0x1E74 JUMPI PUSH1 0x2 DUP2 EQ PUSH2 0x1E7E JUMPI PUSH2 0x1EAD JUMP JUMPDEST PUSH1 0x1 SWAP2 POP POP PUSH2 0x1F0C JUMP JUMPDEST PUSH1 0xFF DUP5 GT ISZERO PUSH2 0x1E90 JUMPI PUSH2 0x1E8F PUSH2 0x1C4E JUMP JUMPDEST JUMPDEST DUP4 PUSH1 0x2 EXP SWAP2 POP DUP5 DUP3 GT ISZERO PUSH2 0x1EA7 JUMPI PUSH2 0x1EA6 PUSH2 0x1C4E JUMP JUMPDEST JUMPDEST POP PUSH2 0x1F0C JUMP JUMPDEST POP PUSH1 0x20 DUP4 LT PUSH2 0x133 DUP4 LT AND PUSH1 0x4E DUP5 LT PUSH1 0xB DUP5 LT AND OR ISZERO PUSH2 0x1EE2 JUMPI DUP3 DUP3 EXP SWAP1 POP DUP4 DUP2 GT ISZERO PUSH2 0x1EDD JUMPI PUSH2 0x1EDC PUSH2 0x1C4E JUMP JUMPDEST JUMPDEST PUSH2 0x1F0C JUMP JUMPDEST PUSH2 0x1EEF DUP5 DUP5 DUP5 PUSH1 0x1 PUSH2 0x1DF0 JUMP JUMPDEST SWAP3 POP SWAP1 POP DUP2 DUP5 DIV DUP2 GT ISZERO PUSH2 0x1F06 JUMPI PUSH2 0x1F05 PUSH2 0x1C4E JUMP JUMPDEST JUMPDEST DUP2 DUP2 MUL SWAP1 POP JUMPDEST SWAP4 SWAP3 POP POP POP JUMP JUMPDEST PUSH0 PUSH2 0x1F1D DUP3 PUSH2 0x176C JUMP JUMPDEST SWAP2 POP PUSH2 0x1F28 DUP4 PUSH2 0x176C JUMP JUMPDEST SWAP3 POP PUSH2 0x1F55 PUSH32 0xFFFFFFFFFFFFFFFFFFFFFFFFFFFFFFFFFFFFFFFFFFFFFFFFFFFFFFFFFFFFFFFF DUP5 DUP5 PUSH2 0x1E42 JUMP JUMPDEST SWAP1 POP SWAP3 SWAP2 POP POP JUMP JUMPDEST PUSH0 PUSH2 0x1F67 DUP3 PUSH2 0x176C JUMP JUMPDEST SWAP2 POP PUSH2 0x1F72 DUP4 PUSH2 0x176C JUMP JUMPDEST SWAP3 POP DUP3 DUP3 MUL PUSH2 0x1F80 DUP2 PUSH2 0x176C JUMP JUMPDEST SWAP2 POP DUP3 DUP3 DIV DUP5 EQ DUP4 ISZERO OR PUSH2 0x1F97 JUMPI PUSH2 0x1F96 PUSH2 0x1C4E JUMP JUMPDEST JUMPDEST POP SWAP3 SWAP2 POP POP JUMP JUMPDEST PUSH2 0x1FA7 DUP2 PUSH2 0x176C JUMP JUMPDEST DUP3 MSTORE POP POP JUMP JUMPDEST PUSH0 PUSH1 0x60 DUP3 ADD SWAP1 POP PUSH2 0x1FC0 PUSH0 DUP4 ADD DUP7 PUSH2 0x188D JUMP JUMPDEST PUSH2 0x1FCD PUSH1 0x20 DUP4 ADD DUP6 PUSH2 0x188D JUMP JUMPDEST PUSH2 0x1FDA PUSH1 0x40 DUP4 ADD DUP5 PUSH2 0x1F9E JUMP JUMPDEST SWAP5 SWAP4 POP POP POP POP JUMP JUMPDEST PUSH0 DUP2 ISZERO ISZERO SWAP1 POP SWAP2 SWAP1 POP JUMP JUMPDEST PUSH2 0x1FF6 DUP2 PUSH2 0x1FE2 JUMP JUMPDEST DUP2 EQ PUSH2 0x2000 JUMPI PUSH0 DUP1 REVERT JUMPDEST POP JUMP JUMPDEST PUSH0 DUP2 MLOAD SWAP1 POP PUSH2 0x2011 DUP2 PUSH2 0x1FED JUMP JUMPDEST SWAP3 SWAP2 POP POP JUMP JUMPDEST PUSH0 PUSH1 0x20 DUP3 DUP5 SUB SLT ISZERO PUSH2 0x202C JUMPI PUSH2 0x202B PUSH2 0x1764 JUMP JUMPDEST JUMPDEST PUSH0 PUSH2 0x2039 DUP5 DUP3 DUP6 ADD PUSH2 0x2003 JUMP JUMPDEST SWAP2 POP POP SWAP3 SWAP2 POP POP JUMP JUMPDEST PUSH0 PUSH2 0x204C DUP3 PUSH2 0x176C JUMP JUMPDEST SWAP2 POP PUSH2 0x2057 DUP4 PUSH2 0x176C JUMP JUMPDEST SWAP3 POP DUP3 DUP3 ADD SWAP1 POP DUP1 DUP3 GT ISZERO PUSH2 0x206F JUMPI PUSH2 0x206E PUSH2 0x1C4E JUMP JUMPDEST JUMPDEST SWAP3 SWAP2 POP POP JUMP JUMPDEST PUSH32 0x4F776E61626C653A2063616C6C6572206973206E6F7420746865206F776E6572 PUSH0 DUP3 ADD MSTORE POP JUMP JUMPDEST PUSH0 PUSH2 0x20A9 PUSH1 0x20 DUP4 PUSH2 0x19BB JUMP JUMPDEST SWAP2 POP PUSH2 0x20B4 DUP3 PUSH2 0x2075 JUMP JUMPDEST PUSH1 0x20 DUP3 ADD SWAP1 POP SWAP2 SWAP1 POP JUMP JUMPDEST PUSH0 PUSH1 0x20 DUP3 ADD SWAP1 POP DUP2 DUP2 SUB PUSH0 DUP4 ADD MSTORE PUSH2 0x20D6 DUP2 PUSH2 0x209D JUMP JUMPDEST SWAP1 POP SWAP2 SWAP1 POP JUMP JUMPDEST PUSH32 0x4E487B7100000000000000000000000000000000000000000000000000000000 PUSH0 MSTORE PUSH1 0x12 PUSH1 0x4 MSTORE PUSH1 0x24 PUSH0 REVERT JUMPDEST PUSH0 PUSH2 0x2114 DUP3 PUSH2 0x176C JUMP JUMPDEST SWAP2 POP PUSH2 0x211F DUP4 PUSH2 0x176C JUMP JUMPDEST SWAP3 POP DUP3 PUSH2 0x212F JUMPI PUSH2 0x212E PUSH2 0x20DD JUMP JUMPDEST JUMPDEST DUP3 DUP3 DIV SWAP1 POP SWAP3 SWAP2 POP POP JUMP JUMPDEST PUSH0 PUSH1 0x40 DUP3 ADD SWAP1 POP PUSH2 0x214D PUSH0 DUP4 ADD DUP6 PUSH2 0x188D JUMP JUMPDEST PUSH2 0x215A PUSH1 0x20 DUP4 ADD DUP5 PUSH2 0x1F9E JUMP JUMPDEST SWAP4 SWAP3 POP POP POP JUMP INVALID LOG2 PUSH5 0x6970667358 0x22 SLT KECCAK256 0xA8 0xEB NOT SWAP7 SMOD 0x28 0xC1 SGT LOG2 0xD3 0xCC PREVRANDAO 0xEC DELEGATECALL GAS PUSH24 0x4A16FFC59868D5523D68A01E4529D0B164736F6C63430008 ISZERO STOP CALLER "
				},
				"gasEstimates": {
					"creation": {
						"codeDepositCost": "1719800",
						"executionCost": "infinite",
						"totalCost": "infinite"
					},
					"external": {
						"joinGame(uint256,uint8[])": "infinite",
						"owner()": "2537",
						"renounceOwnership()": "30390",
						"startGame(address,uint256,uint256,uint8[])": "infinite",
						"transferOwnership(address)": "30797"
					},
					"internal": {
						"checkFingerGuess(uint256,enum FingerGuess.FingerType[] calldata)": "infinite",
						"compareLogic(struct FingerGuess.Game storage pointer,enum FingerGuess.FingerType[] storage pointer)": "infinite",
						"guessLogic(enum FingerGuess.FingerType,enum FingerGuess.FingerType)": "193",
						"reciveToken(address,uint256)": "infinite",
						"sendToken(struct FingerGuess.Game storage pointer,uint256)": "infinite"
					}
				},
				"methodIdentifiers": {
					"joinGame(uint256,uint8[])": "4aaaa9c9",
					"owner()": "8da5cb5b",
					"renounceOwnership()": "715018a6",
					"startGame(address,uint256,uint256,uint8[])": "ca99760e",
					"transferOwnership(address)": "f2fde38b"
				}
			},
			"storageLayout": {
				"storage": [
					{
						"astId": 7,
						"contract": "finger.sol:FingerGuess",
						"label": "_owner",
						"offset": 0,
						"slot": "0",
						"type": "t_address"
					},
					{
						"astId": 856,
						"contract": "finger.sol:FingerGuess",
						"label": "guessResult",
						"offset": 0,
						"slot": "1",
						"type": "t_mapping(t_uint256,t_array(t_enum(FingerType)850)dyn_storage)"
					},
					{
						"astId": 859,
						"contract": "finger.sol:FingerGuess",
						"label": "feeRate",
						"offset": 0,
						"slot": "2",
						"type": "t_uint256"
					},
					{
						"astId": 861,
						"contract": "finger.sol:FingerGuess",
						"label": "feeAddress",
						"offset": 0,
						"slot": "3",
						"type": "t_address"
					},
					{
						"astId": 865,
						"contract": "finger.sol:FingerGuess",
						"label": "games",
						"offset": 0,
						"slot": "4",
						"type": "t_array(t_struct(Game)845_storage)dyn_storage"
					}
				],
				"types": {
					"t_address": {
						"encoding": "inplace",
						"label": "address",
						"numberOfBytes": "20"
					},
					"t_array(t_enum(FingerType)850)dyn_storage": {
						"base": "t_enum(FingerType)850",
						"encoding": "dynamic_array",
						"label": "enum FingerGuess.FingerType[]",
						"numberOfBytes": "32"
					},
					"t_array(t_struct(Game)845_storage)dyn_storage": {
						"base": "t_struct(Game)845_storage",
						"encoding": "dynamic_array",
						"label": "struct FingerGuess.Game[]",
						"numberOfBytes": "32"
					},
					"t_enum(FingerType)850": {
						"encoding": "inplace",
						"label": "enum FingerGuess.FingerType",
						"numberOfBytes": "1"
					},
					"t_mapping(t_uint256,t_array(t_enum(FingerType)850)dyn_storage)": {
						"encoding": "mapping",
						"key": "t_uint256",
						"label": "mapping(uint256 => enum FingerGuess.FingerType[])",
						"numberOfBytes": "32",
						"value": "t_array(t_enum(FingerType)850)dyn_storage"
					},
					"t_struct(Game)845_storage": {
						"encoding": "inplace",
						"label": "struct FingerGuess.Game",
						"members": [
							{
								"astId": 832,
								"contract": "finger.sol:FingerGuess",
								"label": "sponsor",
								"offset": 0,
								"slot": "0",
								"type": "t_address"
							},
							{
								"astId": 834,
								"contract": "finger.sol:FingerGuess",
								"label": "defier",
								"offset": 0,
								"slot": "1",
								"type": "t_address"
							},
							{
								"astId": 836,
								"contract": "finger.sol:FingerGuess",
								"label": "tokenAddress",
								"offset": 0,
								"slot": "2",
								"type": "t_address"
							},
							{
								"astId": 838,
								"contract": "finger.sol:FingerGuess",
								"label": "bonus",
								"offset": 0,
								"slot": "3",
								"type": "t_uint256"
							},
							{
								"astId": 840,
								"contract": "finger.sol:FingerGuess",
								"label": "gameType",
								"offset": 0,
								"slot": "4",
								"type": "t_uint256"
							},
							{
								"astId": 842,
								"contract": "finger.sol:FingerGuess",
								"label": "status",
								"offset": 0,
								"slot": "5",
								"type": "t_uint256"
							},
							{
								"astId": 844,
								"contract": "finger.sol:FingerGuess",
								"label": "createTime",
								"offset": 0,
								"slot": "6",
								"type": "t_uint256"
							}
						],
						"numberOfBytes": "224"
					},
					"t_uint256": {
						"encoding": "inplace",
						"label": "uint256",
						"numberOfBytes": "32"
					}
				}
			},
			"userdoc": {
				"kind": "user",
				"methods": {},
				"version": 1
			}
		}
	}
}