{
	"finger.sol": {
		"FingerGuess": {
			"abi": [
				{
					"anonymous": false,
					"inputs": [
						{
							"indexed": true,
							"internalType": "address",
							"name": "previousOwner",
							"type": "address"
						},
						{
							"indexed": true,
							"internalType": "address",
							"name": "newOwner",
							"type": "address"
						}
					],
					"name": "OwnershipTransferred",
					"type": "event"
				},
				{
					"inputs": [],
					"name": "owner",
					"outputs": [
						{
							"internalType": "address",
							"name": "",
							"type": "address"
						}
					],
					"stateMutability": "view",
					"type": "function"
				},
				{
					"inputs": [],
					"name": "renounceOwnership",
					"outputs": [],
					"stateMutability": "nonpayable",
					"type": "function"
				},
				{
					"inputs": [
						{
							"internalType": "address",
							"name": "_tokenAddress",
							"type": "address"
						},
						{
							"internalType": "uint256",
							"name": "_bonus",
							"type": "uint256"
						},
						{
							"internalType": "uint256",
							"name": "_gameType",
							"type": "uint256"
						},
						{
							"internalType": "enum FingerGuess.FingerType[]",
							"name": "_guessResult",
							"type": "uint8[]"
						}
					],
					"name": "startGame",
					"outputs": [],
					"stateMutability": "payable",
					"type": "function"
				},
				{
					"inputs": [
						{
							"internalType": "address",
							"name": "newOwner",
							"type": "address"
						}
					],
					"name": "transferOwnership",
					"outputs": [],
					"stateMutability": "nonpayable",
					"type": "function"
				}
			],
			"devdoc": {
				"kind": "dev",
				"methods": {
					"owner()": {
						"details": "Returns the address of the current owner."
					},
					"renounceOwnership()": {
						"details": "Leaves the contract without owner. It will not be possible to call `onlyOwner` functions. Can only be called by the current owner. NOTE: Renouncing ownership will leave the contract without an owner, thereby disabling any functionality that is only available to the owner."
					},
					"transferOwnership(address)": {
						"details": "Transfers ownership of the contract to a new account (`newOwner`). Can only be called by the current owner."
					}
				},
				"version": 1
			},
			"evm": {
				"assembly": "    /* \"finger.sol\":111:2996  contract FingerGuess is Ownable{... */\n  mstore(0x40, 0x80)\n  callvalue\n  dup1\n  iszero\n  tag_1\n  jumpi\n  0x00\n  dup1\n  revert\ntag_1:\n  pop\n    /* \"@openzeppelin/contracts/access/Ownable.sol\":936:968  _transferOwnership(_msgSender()) */\n  tag_4\n    /* \"@openzeppelin/contracts/access/Ownable.sol\":955:967  _msgSender() */\n  tag_5\n    /* \"@openzeppelin/contracts/access/Ownable.sol\":955:965  _msgSender */\n  shl(0x20, tag_6)\n    /* \"@openzeppelin/contracts/access/Ownable.sol\":955:967  _msgSender() */\n  0x20\n  shr\n  jump\t// in\ntag_5:\n    /* \"@openzeppelin/contracts/access/Ownable.sol\":936:954  _transferOwnership */\n  shl(0x20, tag_7)\n    /* \"@openzeppelin/contracts/access/Ownable.sol\":936:968  _transferOwnership(_msgSender()) */\n  0x20\n  shr\n  jump\t// in\ntag_4:\n    /* \"finger.sol\":111:2996  contract FingerGuess is Ownable{... */\n  jump(tag_8)\n    /* \"@openzeppelin/contracts/utils/Context.sol\":640:736  function _msgSender() internal view virtual returns (address) {... */\ntag_6:\n    /* \"@openzeppelin/contracts/utils/Context.sol\":693:700  address */\n  0x00\n    /* \"@openzeppelin/contracts/utils/Context.sol\":719:729  msg.sender */\n  caller\n    /* \"@openzeppelin/contracts/utils/Context.sol\":712:729  return msg.sender */\n  swap1\n  pop\n    /* \"@openzeppelin/contracts/utils/Context.sol\":640:736  function _msgSender() internal view virtual returns (address) {... */\n  swap1\n  jump\t// out\n    /* \"@openzeppelin/contracts/access/Ownable.sol\":2426:2613  function _transferOwnership(address newOwner) internal virtual {... */\ntag_7:\n    /* \"@openzeppelin/contracts/access/Ownable.sol\":2499:2515  address oldOwner */\n  0x00\n    /* \"@openzeppelin/contracts/access/Ownable.sol\":2518:2524  _owner */\n  dup1\n  0x00\n  swap1\n  sload\n  swap1\n  0x0100\n  exp\n  swap1\n  div\n  0xffffffffffffffffffffffffffffffffffffffff\n  and\n    /* \"@openzeppelin/contracts/access/Ownable.sol\":2499:2524  address oldOwner = _owner */\n  swap1\n  pop\n    /* \"@openzeppelin/contracts/access/Ownable.sol\":2543:2551  newOwner */\n  dup2\n    /* \"@openzeppelin/contracts/access/Ownable.sol\":2534:2540  _owner */\n  0x00\n  dup1\n    /* \"@openzeppelin/contracts/access/Ownable.sol\":2534:2551  _owner = newOwner */\n  0x0100\n  exp\n  dup2\n  sload\n  dup2\n  0xffffffffffffffffffffffffffffffffffffffff\n  mul\n  not\n  and\n  swap1\n  dup4\n  0xffffffffffffffffffffffffffffffffffffffff\n  and\n  mul\n  or\n  swap1\n  sstore\n  pop\n    /* \"@openzeppelin/contracts/access/Ownable.sol\":2597:2605  newOwner */\n  dup2\n    /* \"@openzeppelin/contracts/access/Ownable.sol\":2566:2606  OwnershipTransferred(oldOwner, newOwner) */\n  0xffffffffffffffffffffffffffffffffffffffff\n  and\n    /* \"@openzeppelin/contracts/access/Ownable.sol\":2587:2595  oldOwner */\n  dup2\n    /* \"@openzeppelin/contracts/access/Ownable.sol\":2566:2606  OwnershipTransferred(oldOwner, newOwner) */\n  0xffffffffffffffffffffffffffffffffffffffff\n  and\n  0x8be0079c531659141344cd1fd0a4f28419497f9722a3daafe3b4186f6b6457e0\n  mload(0x40)\n  mload(0x40)\n  dup1\n  swap2\n  sub\n  swap1\n  log3\n    /* \"@openzeppelin/contracts/access/Ownable.sol\":2489:2613  {... */\n  pop\n    /* \"@openzeppelin/contracts/access/Ownable.sol\":2426:2613  function _transferOwnership(address newOwner) internal virtual {... */\n  pop\n  jump\t// out\n    /* \"finger.sol\":111:2996  contract FingerGuess is Ownable{... */\ntag_8:\n  dataSize(sub_0)\n  dup1\n  dataOffset(sub_0)\n  0x00\n  codecopy\n  0x00\n  return\nstop\n\nsub_0: assembly {\n        /* \"finger.sol\":111:2996  contract FingerGuess is Ownable{... */\n      mstore(0x40, 0x80)\n      jumpi(tag_1, lt(calldatasize, 0x04))\n      shr(0xe0, calldataload(0x00))\n      dup1\n      0x715018a6\n      eq\n      tag_2\n      jumpi\n      dup1\n      0x8da5cb5b\n      eq\n      tag_3\n      jumpi\n      dup1\n      0xca99760e\n      eq\n      tag_4\n      jumpi\n      dup1\n      0xf2fde38b\n      eq\n      tag_5\n      jumpi\n    tag_1:\n      0x00\n      dup1\n      revert\n        /* \"@openzeppelin/contracts/access/Ownable.sol\":1824:1925  function renounceOwnership() public virtual onlyOwner {... */\n    tag_2:\n      callvalue\n      dup1\n      iszero\n      tag_6\n      jumpi\n      0x00\n      dup1\n      revert\n    tag_6:\n      pop\n      tag_7\n      tag_8\n      jump\t// in\n    tag_7:\n      stop\n        /* \"@openzeppelin/contracts/access/Ownable.sol\":1201:1286  function owner() public view virtual returns (address) {... */\n    tag_3:\n      callvalue\n      dup1\n      iszero\n      tag_9\n      jumpi\n      0x00\n      dup1\n      revert\n    tag_9:\n      pop\n      tag_10\n      tag_11\n      jump\t// in\n    tag_10:\n      mload(0x40)\n      tag_12\n      swap2\n      swap1\n      tag_13\n      jump\t// in\n    tag_12:\n      mload(0x40)\n      dup1\n      swap2\n      sub\n      swap1\n      return\n        /* \"finger.sol\":922:1567  function startGame(address _tokenAddress, uint256 _bonus,uint256 _gameType,FingerType[] calldata _guessResult)external payable gameChecker(_tokenAddress,_bonus,_gameType,_guessResult) {... */\n    tag_4:\n      tag_14\n      0x04\n      dup1\n      calldatasize\n      sub\n      dup2\n      add\n      swap1\n      tag_15\n      swap2\n      swap1\n      tag_16\n      jump\t// in\n    tag_15:\n      tag_17\n      jump\t// in\n    tag_14:\n      stop\n        /* \"@openzeppelin/contracts/access/Ownable.sol\":2074:2272  function transferOwnership(address newOwner) public virtual onlyOwner {... */\n    tag_5:\n      callvalue\n      dup1\n      iszero\n      tag_18\n      jumpi\n      0x00\n      dup1\n      revert\n    tag_18:\n      pop\n      tag_19\n      0x04\n      dup1\n      calldatasize\n      sub\n      dup2\n      add\n      swap1\n      tag_20\n      swap2\n      swap1\n      tag_21\n      jump\t// in\n    tag_20:\n      tag_22\n      jump\t// in\n    tag_19:\n      stop\n        /* \"@openzeppelin/contracts/access/Ownable.sol\":1824:1925  function renounceOwnership() public virtual onlyOwner {... */\n    tag_8:\n        /* \"@openzeppelin/contracts/access/Ownable.sol\":1094:1107  _checkOwner() */\n      tag_24\n        /* \"@openzeppelin/contracts/access/Ownable.sol\":1094:1105  _checkOwner */\n      tag_25\n        /* \"@openzeppelin/contracts/access/Ownable.sol\":1094:1107  _checkOwner() */\n      jump\t// in\n    tag_24:\n        /* \"@openzeppelin/contracts/access/Ownable.sol\":1888:1918  _transferOwnership(address(0)) */\n      tag_27\n        /* \"@openzeppelin/contracts/access/Ownable.sol\":1915:1916  0 */\n      0x00\n        /* \"@openzeppelin/contracts/access/Ownable.sol\":1888:1906  _transferOwnership */\n      tag_28\n        /* \"@openzeppelin/contracts/access/Ownable.sol\":1888:1918  _transferOwnership(address(0)) */\n      jump\t// in\n    tag_27:\n        /* \"@openzeppelin/contracts/access/Ownable.sol\":1824:1925  function renounceOwnership() public virtual onlyOwner {... */\n      jump\t// out\n        /* \"@openzeppelin/contracts/access/Ownable.sol\":1201:1286  function owner() public view virtual returns (address) {... */\n    tag_11:\n        /* \"@openzeppelin/contracts/access/Ownable.sol\":1247:1254  address */\n      0x00\n        /* \"@openzeppelin/contracts/access/Ownable.sol\":1273:1279  _owner */\n      dup1\n      0x00\n      swap1\n      sload\n      swap1\n      0x0100\n      exp\n      swap1\n      div\n      0xffffffffffffffffffffffffffffffffffffffff\n      and\n        /* \"@openzeppelin/contracts/access/Ownable.sol\":1266:1279  return _owner */\n      swap1\n      pop\n        /* \"@openzeppelin/contracts/access/Ownable.sol\":1201:1286  function owner() public view virtual returns (address) {... */\n      swap1\n      jump\t// out\n        /* \"finger.sol\":922:1567  function startGame(address _tokenAddress, uint256 _bonus,uint256 _gameType,FingerType[] calldata _guessResult)external payable gameChecker(_tokenAddress,_bonus,_gameType,_guessResult) {... */\n    tag_17:\n        /* \"finger.sol\":1061:1074  _tokenAddress */\n      dup5\n        /* \"finger.sol\":1075:1081  _bonus */\n      dup5\n        /* \"finger.sol\":1082:1091  _gameType */\n      dup5\n        /* \"finger.sol\":1092:1104  _guessResult */\n      dup5\n      dup5\n        /* \"finger.sol\":2571:2572  0 */\n      0x00\n        /* \"finger.sol\":2546:2573  _tokenAddress != address(0) */\n      0xffffffffffffffffffffffffffffffffffffffff\n      and\n        /* \"finger.sol\":2546:2559  _tokenAddress */\n      dup6\n        /* \"finger.sol\":2546:2573  _tokenAddress != address(0) */\n      0xffffffffffffffffffffffffffffffffffffffff\n      and\n      eq\n      iszero\n        /* \"finger.sol\":2546:2587  _tokenAddress != address(0) && _bonus > 0 */\n      dup1\n      iszero\n      tag_31\n      jumpi\n      pop\n        /* \"finger.sol\":2586:2587  0 */\n      0x00\n        /* \"finger.sol\":2577:2583  _bonus */\n      dup5\n        /* \"finger.sol\":2577:2587  _bonus > 0 */\n      gt\n        /* \"finger.sol\":2546:2587  _tokenAddress != address(0) && _bonus > 0 */\n    tag_31:\n        /* \"finger.sol\":2545:2638  (_tokenAddress != address(0) && _bonus > 0) || (_tokenAddress == address(0) && msg.value >0 ) */\n      dup1\n      tag_32\n      jumpi\n      pop\n        /* \"finger.sol\":2618:2619  0 */\n      0x00\n        /* \"finger.sol\":2593:2620  _tokenAddress == address(0) */\n      0xffffffffffffffffffffffffffffffffffffffff\n      and\n        /* \"finger.sol\":2593:2606  _tokenAddress */\n      dup6\n        /* \"finger.sol\":2593:2620  _tokenAddress == address(0) */\n      0xffffffffffffffffffffffffffffffffffffffff\n      and\n      eq\n        /* \"finger.sol\":2593:2636  _tokenAddress == address(0) && msg.value >0 */\n      dup1\n      iszero\n      tag_33\n      jumpi\n      pop\n        /* \"finger.sol\":2635:2636  0 */\n      0x00\n        /* \"finger.sol\":2624:2633  msg.value */\n      callvalue\n        /* \"finger.sol\":2624:2636  msg.value >0 */\n      gt\n        /* \"finger.sol\":2593:2636  _tokenAddress == address(0) && msg.value >0 */\n    tag_33:\n        /* \"finger.sol\":2545:2638  (_tokenAddress != address(0) && _bonus > 0) || (_tokenAddress == address(0) && msg.value >0 ) */\n    tag_32:\n        /* \"finger.sol\":2537:2667  require((_tokenAddress != address(0) && _bonus > 0) || (_tokenAddress == address(0) && msg.value >0 ),\"Game bonus cannot be zero\") */\n      tag_34\n      jumpi\n      mload(0x40)\n      0x08c379a000000000000000000000000000000000000000000000000000000000\n      dup2\n      mstore\n      0x04\n      add\n      tag_35\n      swap1\n      tag_36\n      jump\t// in\n    tag_35:\n      mload(0x40)\n      dup1\n      swap2\n      sub\n      swap1\n      revert\n    tag_34:\n        /* \"finger.sol\":2889:2890  0 */\n      0x00\n        /* \"finger.sol\":2876:2885  _gameType */\n      dup4\n        /* \"finger.sol\":2876:2890  _gameType == 0 */\n      eq\n        /* \"finger.sol\":2876:2908  _gameType == 0 || _gameType == 1 */\n      dup1\n      tag_37\n      jumpi\n      pop\n        /* \"finger.sol\":2907:2908  1 */\n      0x01\n        /* \"finger.sol\":2894:2903  _gameType */\n      dup4\n        /* \"finger.sol\":2894:2908  _gameType == 1 */\n      eq\n        /* \"finger.sol\":2876:2908  _gameType == 0 || _gameType == 1 */\n    tag_37:\n        /* \"finger.sol\":2875:2954  (_gameType == 0 || _gameType == 1) && checkFingerGuess(_gameType, _guessResult) */\n      dup1\n      iszero\n      tag_38\n      jumpi\n      pop\n        /* \"finger.sol\":2913:2954  checkFingerGuess(_gameType, _guessResult) */\n      tag_39\n        /* \"finger.sol\":2930:2939  _gameType */\n      dup4\n        /* \"finger.sol\":2941:2953  _guessResult */\n      dup4\n      dup4\n        /* \"finger.sol\":2913:2929  checkFingerGuess */\n      tag_40\n        /* \"finger.sol\":2913:2954  checkFingerGuess(_gameType, _guessResult) */\n      jump\t// in\n    tag_39:\n        /* \"finger.sol\":2875:2954  (_gameType == 0 || _gameType == 1) && checkFingerGuess(_gameType, _guessResult) */\n    tag_38:\n        /* \"finger.sol\":2867:2974  require((_gameType == 0 || _gameType == 1) && checkFingerGuess(_gameType, _guessResult), \"Guessing error\" ) */\n      tag_41\n      jumpi\n      mload(0x40)\n      0x08c379a000000000000000000000000000000000000000000000000000000000\n      dup2\n      mstore\n      0x04\n      add\n      tag_42\n      swap1\n      tag_43\n      jump\t// in\n    tag_42:\n      mload(0x40)\n      dup1\n      swap2\n      sub\n      swap1\n      revert\n    tag_41:\n        /* \"finger.sol\":1116:1133  Game memory _game */\n      0x00\n        /* \"finger.sol\":1136:1424  Game({... */\n      mload(0x40)\n      dup1\n      0xe0\n      add\n      0x40\n      mstore\n      dup1\n        /* \"finger.sol\":1164:1174  msg.sender */\n      caller\n        /* \"finger.sol\":1136:1424  Game({... */\n      0xffffffffffffffffffffffffffffffffffffffff\n      and\n      dup2\n      mstore\n      0x20\n      add\n        /* \"finger.sol\":1204:1205  0 */\n      0x00\n        /* \"finger.sol\":1136:1424  Game({... */\n      0xffffffffffffffffffffffffffffffffffffffff\n      and\n      dup2\n      mstore\n      0x20\n      add\n        /* \"finger.sol\":1234:1247  _tokenAddress */\n      dup13\n        /* \"finger.sol\":1136:1424  Game({... */\n      0xffffffffffffffffffffffffffffffffffffffff\n      and\n      dup2\n      mstore\n      0x20\n      add\n        /* \"finger.sol\":1293:1294  0 */\n      0x00\n        /* \"finger.sol\":1268:1295  _tokenAddress == address(0) */\n      0xffffffffffffffffffffffffffffffffffffffff\n      and\n        /* \"finger.sol\":1268:1281  _tokenAddress */\n      dup14\n        /* \"finger.sol\":1268:1295  _tokenAddress == address(0) */\n      0xffffffffffffffffffffffffffffffffffffffff\n      and\n      eq\n        /* \"finger.sol\":1268:1316  _tokenAddress == address(0) ? msg.value : _bonus */\n      tag_45\n      jumpi\n        /* \"finger.sol\":1310:1316  _bonus */\n      dup12\n        /* \"finger.sol\":1268:1316  _tokenAddress == address(0) ? msg.value : _bonus */\n      jump(tag_46)\n    tag_45:\n        /* \"finger.sol\":1298:1307  msg.value */\n      callvalue\n        /* \"finger.sol\":1268:1316  _tokenAddress == address(0) ? msg.value : _bonus */\n    tag_46:\n        /* \"finger.sol\":1136:1424  Game({... */\n      dup2\n      mstore\n      0x20\n      add\n        /* \"finger.sol\":1340:1349  _gameType */\n      dup11\n        /* \"finger.sol\":1136:1424  Game({... */\n      dup2\n      mstore\n      0x20\n      add\n        /* \"finger.sol\":1371:1372  0 */\n      0x00\n        /* \"finger.sol\":1136:1424  Game({... */\n      dup2\n      mstore\n      0x20\n      add\n        /* \"finger.sol\":1398:1413  block.timestamp */\n      timestamp\n        /* \"finger.sol\":1136:1424  Game({... */\n      dup2\n      mstore\n      pop\n        /* \"finger.sol\":1116:1424  Game memory _game = Game({... */\n      swap1\n      pop\n        /* \"finger.sol\":1433:1438  games */\n      0x02\n        /* \"finger.sol\":1444:1449  _game */\n      dup2\n        /* \"finger.sol\":1433:1450  games.push(_game) */\n      swap1\n      dup1\n      0x01\n      dup2\n      sload\n      add\n      dup1\n      dup3\n      sstore\n      dup1\n      swap2\n      pop\n      pop\n      0x01\n      swap1\n      sub\n      swap1\n      0x00\n      mstore\n      keccak256(0x00, 0x20)\n      swap1\n      0x07\n      mul\n      add\n      0x00\n      swap1\n      swap2\n      swap1\n      swap2\n      swap1\n      swap2\n      pop\n      0x00\n      dup3\n      add\n      mload\n      dup2\n      0x00\n      add\n      exp(0x0100, 0x00)\n      dup2\n      sload\n      dup2\n      0xffffffffffffffffffffffffffffffffffffffff\n      mul\n      not\n      and\n      swap1\n      dup4\n      0xffffffffffffffffffffffffffffffffffffffff\n      and\n      mul\n      or\n      swap1\n      sstore\n      pop\n      0x20\n      dup3\n      add\n      mload\n      dup2\n      0x01\n      add\n      exp(0x0100, 0x00)\n      dup2\n      sload\n      dup2\n      0xffffffffffffffffffffffffffffffffffffffff\n      mul\n      not\n      and\n      swap1\n      dup4\n      0xffffffffffffffffffffffffffffffffffffffff\n      and\n      mul\n      or\n      swap1\n      sstore\n      pop\n      0x40\n      dup3\n      add\n      mload\n      dup2\n      0x02\n      add\n      exp(0x0100, 0x00)\n      dup2\n      sload\n      dup2\n      0xffffffffffffffffffffffffffffffffffffffff\n      mul\n      not\n      and\n      swap1\n      dup4\n      0xffffffffffffffffffffffffffffffffffffffff\n      and\n      mul\n      or\n      swap1\n      sstore\n      pop\n      0x60\n      dup3\n      add\n      mload\n      dup2\n      0x03\n      add\n      sstore\n      0x80\n      dup3\n      add\n      mload\n      dup2\n      0x04\n      add\n      sstore\n      0xa0\n      dup3\n      add\n      mload\n      dup2\n      0x05\n      add\n      sstore\n      0xc0\n      dup3\n      add\n      mload\n      dup2\n      0x06\n      add\n      sstore\n      pop\n      pop\n        /* \"finger.sol\":1513:1525  _guessResult */\n      dup8\n      dup8\n        /* \"finger.sol\":1483:1494  guessResult */\n      0x01\n        /* \"finger.sol\":1483:1510  guessResult[games.length-1] */\n      0x00\n        /* \"finger.sol\":1508:1509  1 */\n      0x01\n        /* \"finger.sol\":1495:1500  games */\n      0x02\n        /* \"finger.sol\":1495:1507  games.length */\n      dup1\n      sload\n      swap1\n      pop\n        /* \"finger.sol\":1495:1509  games.length-1 */\n      tag_48\n      swap2\n      swap1\n      tag_49\n      jump\t// in\n    tag_48:\n        /* \"finger.sol\":1483:1510  guessResult[games.length-1] */\n      dup2\n      mstore\n      0x20\n      add\n      swap1\n      dup2\n      mstore\n      0x20\n      add\n      0x00\n      keccak256\n        /* \"finger.sol\":1483:1525  guessResult[games.length-1] = _guessResult */\n      swap2\n      swap1\n      tag_50\n      swap3\n      swap2\n      swap1\n      tag_51\n      jump\t// in\n    tag_50:\n      pop\n        /* \"finger.sol\":1106:1567  {... */\n      pop\n        /* \"finger.sol\":922:1567  function startGame(address _tokenAddress, uint256 _bonus,uint256 _gameType,FingerType[] calldata _guessResult)external payable gameChecker(_tokenAddress,_bonus,_gameType,_guessResult) {... */\n      pop\n      pop\n      pop\n      pop\n      pop\n      pop\n      pop\n      pop\n      pop\n      pop\n      jump\t// out\n        /* \"@openzeppelin/contracts/access/Ownable.sol\":2074:2272  function transferOwnership(address newOwner) public virtual onlyOwner {... */\n    tag_22:\n        /* \"@openzeppelin/contracts/access/Ownable.sol\":1094:1107  _checkOwner() */\n      tag_53\n        /* \"@openzeppelin/contracts/access/Ownable.sol\":1094:1105  _checkOwner */\n      tag_25\n        /* \"@openzeppelin/contracts/access/Ownable.sol\":1094:1107  _checkOwner() */\n      jump\t// in\n    tag_53:\n        /* \"@openzeppelin/contracts/access/Ownable.sol\":2182:2183  0 */\n      0x00\n        /* \"@openzeppelin/contracts/access/Ownable.sol\":2162:2184  newOwner != address(0) */\n      0xffffffffffffffffffffffffffffffffffffffff\n      and\n        /* \"@openzeppelin/contracts/access/Ownable.sol\":2162:2170  newOwner */\n      dup2\n        /* \"@openzeppelin/contracts/access/Ownable.sol\":2162:2184  newOwner != address(0) */\n      0xffffffffffffffffffffffffffffffffffffffff\n      and\n      sub\n        /* \"@openzeppelin/contracts/access/Ownable.sol\":2154:2227  require(newOwner != address(0), \"Ownable: new owner is the zero address\") */\n      tag_55\n      jumpi\n      mload(0x40)\n      0x08c379a000000000000000000000000000000000000000000000000000000000\n      dup2\n      mstore\n      0x04\n      add\n      tag_56\n      swap1\n      tag_57\n      jump\t// in\n    tag_56:\n      mload(0x40)\n      dup1\n      swap2\n      sub\n      swap1\n      revert\n    tag_55:\n        /* \"@openzeppelin/contracts/access/Ownable.sol\":2237:2265  _transferOwnership(newOwner) */\n      tag_58\n        /* \"@openzeppelin/contracts/access/Ownable.sol\":2256:2264  newOwner */\n      dup2\n        /* \"@openzeppelin/contracts/access/Ownable.sol\":2237:2255  _transferOwnership */\n      tag_28\n        /* \"@openzeppelin/contracts/access/Ownable.sol\":2237:2265  _transferOwnership(newOwner) */\n      jump\t// in\n    tag_58:\n        /* \"@openzeppelin/contracts/access/Ownable.sol\":2074:2272  function transferOwnership(address newOwner) public virtual onlyOwner {... */\n      pop\n      jump\t// out\n        /* \"@openzeppelin/contracts/access/Ownable.sol\":1359:1489  function _checkOwner() internal view virtual {... */\n    tag_25:\n        /* \"@openzeppelin/contracts/access/Ownable.sol\":1433:1445  _msgSender() */\n      tag_60\n        /* \"@openzeppelin/contracts/access/Ownable.sol\":1433:1443  _msgSender */\n      tag_61\n        /* \"@openzeppelin/contracts/access/Ownable.sol\":1433:1445  _msgSender() */\n      jump\t// in\n    tag_60:\n        /* \"@openzeppelin/contracts/access/Ownable.sol\":1422:1445  owner() == _msgSender() */\n      0xffffffffffffffffffffffffffffffffffffffff\n      and\n        /* \"@openzeppelin/contracts/access/Ownable.sol\":1422:1429  owner() */\n      tag_62\n        /* \"@openzeppelin/contracts/access/Ownable.sol\":1422:1427  owner */\n      tag_11\n        /* \"@openzeppelin/contracts/access/Ownable.sol\":1422:1429  owner() */\n      jump\t// in\n    tag_62:\n        /* \"@openzeppelin/contracts/access/Ownable.sol\":1422:1445  owner() == _msgSender() */\n      0xffffffffffffffffffffffffffffffffffffffff\n      and\n      eq\n        /* \"@openzeppelin/contracts/access/Ownable.sol\":1414:1482  require(owner() == _msgSender(), \"Ownable: caller is not the owner\") */\n      tag_63\n      jumpi\n      mload(0x40)\n      0x08c379a000000000000000000000000000000000000000000000000000000000\n      dup2\n      mstore\n      0x04\n      add\n      tag_64\n      swap1\n      tag_65\n      jump\t// in\n    tag_64:\n      mload(0x40)\n      dup1\n      swap2\n      sub\n      swap1\n      revert\n    tag_63:\n        /* \"@openzeppelin/contracts/access/Ownable.sol\":1359:1489  function _checkOwner() internal view virtual {... */\n      jump\t// out\n        /* \"@openzeppelin/contracts/access/Ownable.sol\":2426:2613  function _transferOwnership(address newOwner) internal virtual {... */\n    tag_28:\n        /* \"@openzeppelin/contracts/access/Ownable.sol\":2499:2515  address oldOwner */\n      0x00\n        /* \"@openzeppelin/contracts/access/Ownable.sol\":2518:2524  _owner */\n      dup1\n      0x00\n      swap1\n      sload\n      swap1\n      0x0100\n      exp\n      swap1\n      div\n      0xffffffffffffffffffffffffffffffffffffffff\n      and\n        /* \"@openzeppelin/contracts/access/Ownable.sol\":2499:2524  address oldOwner = _owner */\n      swap1\n      pop\n        /* \"@openzeppelin/contracts/access/Ownable.sol\":2543:2551  newOwner */\n      dup2\n        /* \"@openzeppelin/contracts/access/Ownable.sol\":2534:2540  _owner */\n      0x00\n      dup1\n        /* \"@openzeppelin/contracts/access/Ownable.sol\":2534:2551  _owner = newOwner */\n      0x0100\n      exp\n      dup2\n      sload\n      dup2\n      0xffffffffffffffffffffffffffffffffffffffff\n      mul\n      not\n      and\n      swap1\n      dup4\n      0xffffffffffffffffffffffffffffffffffffffff\n      and\n      mul\n      or\n      swap1\n      sstore\n      pop\n        /* \"@openzeppelin/contracts/access/Ownable.sol\":2597:2605  newOwner */\n      dup2\n        /* \"@openzeppelin/contracts/access/Ownable.sol\":2566:2606  OwnershipTransferred(oldOwner, newOwner) */\n      0xffffffffffffffffffffffffffffffffffffffff\n      and\n        /* \"@openzeppelin/contracts/access/Ownable.sol\":2587:2595  oldOwner */\n      dup2\n        /* \"@openzeppelin/contracts/access/Ownable.sol\":2566:2606  OwnershipTransferred(oldOwner, newOwner) */\n      0xffffffffffffffffffffffffffffffffffffffff\n      and\n      0x8be0079c531659141344cd1fd0a4f28419497f9722a3daafe3b4186f6b6457e0\n      mload(0x40)\n      mload(0x40)\n      dup1\n      swap2\n      sub\n      swap1\n      log3\n        /* \"@openzeppelin/contracts/access/Ownable.sol\":2489:2613  {... */\n      pop\n        /* \"@openzeppelin/contracts/access/Ownable.sol\":2426:2613  function _transferOwnership(address newOwner) internal virtual {... */\n      pop\n      jump\t// out\n        /* \"finger.sol\":1597:2261  function checkFingerGuess(uint256 _gameType, FingerType[] calldata _guessResult)internal pure returns ( bool ) {... */\n    tag_40:\n        /* \"finger.sol\":1701:1705  bool */\n      0x00\n        /* \"finger.sol\":1718:1730  bool _result */\n      dup1\n        /* \"finger.sol\":1733:1737  true */\n      0x01\n        /* \"finger.sol\":1718:1737  bool _result = true */\n      swap1\n      pop\n        /* \"finger.sol\":1763:1764  0 */\n      0x00\n        /* \"finger.sol\":1750:1759  _gameType */\n      dup6\n        /* \"finger.sol\":1750:1764  _gameType == 0 */\n      sub\n        /* \"finger.sol\":1747:1915  if(_gameType == 0){... */\n      tag_68\n      jumpi\n        /* \"finger.sol\":1808:1826  FingerType.Scissor */\n      0x01\n        /* \"finger.sol\":1789:1826  _guessResult[0] == FingerType.Scissor */\n      0x03\n      dup2\n      gt\n      iszero\n      tag_69\n      jumpi\n      tag_70\n      tag_71\n      jump\t// in\n    tag_70:\n    tag_69:\n        /* \"finger.sol\":1789:1801  _guessResult */\n      dup5\n      dup5\n        /* \"finger.sol\":1802:1803  0 */\n      0x00\n        /* \"finger.sol\":1789:1804  _guessResult[0] */\n      dup2\n      dup2\n      lt\n      tag_72\n      jumpi\n      tag_73\n      tag_74\n      jump\t// in\n    tag_73:\n    tag_72:\n      swap1\n      pop\n      0x20\n      mul\n      add\n      0x20\n      dup2\n      add\n      swap1\n      tag_75\n      swap2\n      swap1\n      tag_76\n      jump\t// in\n    tag_75:\n        /* \"finger.sol\":1789:1826  _guessResult[0] == FingerType.Scissor */\n      0x03\n      dup2\n      gt\n      iszero\n      tag_77\n      jumpi\n      tag_78\n      tag_71\n      jump\t// in\n    tag_78:\n    tag_77:\n      eq\n        /* \"finger.sol\":1789:1865  _guessResult[0] == FingerType.Scissor || _guessResult[0] == FingerType.Stone */\n      dup1\n      tag_79\n      jumpi\n      pop\n        /* \"finger.sol\":1849:1865  FingerType.Stone */\n      0x02\n        /* \"finger.sol\":1830:1865  _guessResult[0] == FingerType.Stone */\n      0x03\n      dup2\n      gt\n      iszero\n      tag_80\n      jumpi\n      tag_81\n      tag_71\n      jump\t// in\n    tag_81:\n    tag_80:\n        /* \"finger.sol\":1830:1842  _guessResult */\n      dup5\n      dup5\n        /* \"finger.sol\":1843:1844  0 */\n      0x00\n        /* \"finger.sol\":1830:1845  _guessResult[0] */\n      dup2\n      dup2\n      lt\n      tag_82\n      jumpi\n      tag_83\n      tag_74\n      jump\t// in\n    tag_83:\n    tag_82:\n      swap1\n      pop\n      0x20\n      mul\n      add\n      0x20\n      dup2\n      add\n      swap1\n      tag_84\n      swap2\n      swap1\n      tag_76\n      jump\t// in\n    tag_84:\n        /* \"finger.sol\":1830:1865  _guessResult[0] == FingerType.Stone */\n      0x03\n      dup2\n      gt\n      iszero\n      tag_85\n      jumpi\n      tag_86\n      tag_71\n      jump\t// in\n    tag_86:\n    tag_85:\n      eq\n        /* \"finger.sol\":1789:1865  _guessResult[0] == FingerType.Scissor || _guessResult[0] == FingerType.Stone */\n    tag_79:\n        /* \"finger.sol\":1789:1904  _guessResult[0] == FingerType.Scissor || _guessResult[0] == FingerType.Stone || _guessResult[0] == FingerType.Cloth */\n      dup1\n      tag_87\n      jumpi\n      pop\n        /* \"finger.sol\":1888:1904  FingerType.Cloth */\n      0x03\n        /* \"finger.sol\":1869:1904  _guessResult[0] == FingerType.Cloth */\n      dup1\n      dup2\n      gt\n      iszero\n      tag_88\n      jumpi\n      tag_89\n      tag_71\n      jump\t// in\n    tag_89:\n    tag_88:\n        /* \"finger.sol\":1869:1881  _guessResult */\n      dup5\n      dup5\n        /* \"finger.sol\":1882:1883  0 */\n      0x00\n        /* \"finger.sol\":1869:1884  _guessResult[0] */\n      dup2\n      dup2\n      lt\n      tag_90\n      jumpi\n      tag_91\n      tag_74\n      jump\t// in\n    tag_91:\n    tag_90:\n      swap1\n      pop\n      0x20\n      mul\n      add\n      0x20\n      dup2\n      add\n      swap1\n      tag_92\n      swap2\n      swap1\n      tag_76\n      jump\t// in\n    tag_92:\n        /* \"finger.sol\":1869:1904  _guessResult[0] == FingerType.Cloth */\n      0x03\n      dup2\n      gt\n      iszero\n      tag_93\n      jumpi\n      tag_94\n      tag_71\n      jump\t// in\n    tag_94:\n    tag_93:\n      eq\n        /* \"finger.sol\":1789:1904  _guessResult[0] == FingerType.Scissor || _guessResult[0] == FingerType.Stone || _guessResult[0] == FingerType.Cloth */\n    tag_87:\n        /* \"finger.sol\":1779:1904  _result = _guessResult[0] == FingerType.Scissor || _guessResult[0] == FingerType.Stone || _guessResult[0] == FingerType.Cloth */\n      swap1\n      pop\n        /* \"finger.sol\":1747:1915  if(_gameType == 0){... */\n    tag_68:\n        /* \"finger.sol\":1940:1941  1 */\n      0x01\n        /* \"finger.sol\":1927:1936  _gameType */\n      dup6\n        /* \"finger.sol\":1927:1941  _gameType == 1 */\n      sub\n        /* \"finger.sol\":1924:2223  if(_gameType == 1){... */\n      tag_95\n      jumpi\n        /* \"finger.sol\":1960:1969  uint256 i */\n      0x00\n        /* \"finger.sol\":1956:2213  for(uint256 i=0;i<3;i++){... */\n    tag_96:\n        /* \"finger.sol\":1974:1975  3 */\n      0x03\n        /* \"finger.sol\":1972:1973  i */\n      dup2\n        /* \"finger.sol\":1972:1975  i<3 */\n      lt\n        /* \"finger.sol\":1956:2213  for(uint256 i=0;i<3;i++){... */\n      iszero\n      tag_97\n      jumpi\n        /* \"finger.sol\":2027:2045  FingerType.Scissor */\n      0x01\n        /* \"finger.sol\":2008:2045  _guessResult[i] == FingerType.Scissor */\n      0x03\n      dup2\n      gt\n      iszero\n      tag_99\n      jumpi\n      tag_100\n      tag_71\n      jump\t// in\n    tag_100:\n    tag_99:\n        /* \"finger.sol\":2008:2020  _guessResult */\n      dup6\n      dup6\n        /* \"finger.sol\":2021:2022  i */\n      dup4\n        /* \"finger.sol\":2008:2023  _guessResult[i] */\n      dup2\n      dup2\n      lt\n      tag_101\n      jumpi\n      tag_102\n      tag_74\n      jump\t// in\n    tag_102:\n    tag_101:\n      swap1\n      pop\n      0x20\n      mul\n      add\n      0x20\n      dup2\n      add\n      swap1\n      tag_103\n      swap2\n      swap1\n      tag_76\n      jump\t// in\n    tag_103:\n        /* \"finger.sol\":2008:2045  _guessResult[i] == FingerType.Scissor */\n      0x03\n      dup2\n      gt\n      iszero\n      tag_104\n      jumpi\n      tag_105\n      tag_71\n      jump\t// in\n    tag_105:\n    tag_104:\n      eq\n        /* \"finger.sol\":2008:2084  _guessResult[i] == FingerType.Scissor || _guessResult[i] == FingerType.Stone */\n      dup1\n      tag_106\n      jumpi\n      pop\n        /* \"finger.sol\":2068:2084  FingerType.Stone */\n      0x02\n        /* \"finger.sol\":2049:2084  _guessResult[i] == FingerType.Stone */\n      0x03\n      dup2\n      gt\n      iszero\n      tag_107\n      jumpi\n      tag_108\n      tag_71\n      jump\t// in\n    tag_108:\n    tag_107:\n        /* \"finger.sol\":2049:2061  _guessResult */\n      dup6\n      dup6\n        /* \"finger.sol\":2062:2063  i */\n      dup4\n        /* \"finger.sol\":2049:2064  _guessResult[i] */\n      dup2\n      dup2\n      lt\n      tag_109\n      jumpi\n      tag_110\n      tag_74\n      jump\t// in\n    tag_110:\n    tag_109:\n      swap1\n      pop\n      0x20\n      mul\n      add\n      0x20\n      dup2\n      add\n      swap1\n      tag_111\n      swap2\n      swap1\n      tag_76\n      jump\t// in\n    tag_111:\n        /* \"finger.sol\":2049:2084  _guessResult[i] == FingerType.Stone */\n      0x03\n      dup2\n      gt\n      iszero\n      tag_112\n      jumpi\n      tag_113\n      tag_71\n      jump\t// in\n    tag_113:\n    tag_112:\n      eq\n        /* \"finger.sol\":2008:2084  _guessResult[i] == FingerType.Scissor || _guessResult[i] == FingerType.Stone */\n    tag_106:\n        /* \"finger.sol\":2008:2123  _guessResult[i] == FingerType.Scissor || _guessResult[i] == FingerType.Stone || _guessResult[i] == FingerType.Cloth */\n      dup1\n      tag_114\n      jumpi\n      pop\n        /* \"finger.sol\":2107:2123  FingerType.Cloth */\n      0x03\n        /* \"finger.sol\":2088:2123  _guessResult[i] == FingerType.Cloth */\n      dup1\n      dup2\n      gt\n      iszero\n      tag_115\n      jumpi\n      tag_116\n      tag_71\n      jump\t// in\n    tag_116:\n    tag_115:\n        /* \"finger.sol\":2088:2100  _guessResult */\n      dup6\n      dup6\n        /* \"finger.sol\":2101:2102  i */\n      dup4\n        /* \"finger.sol\":2088:2103  _guessResult[i] */\n      dup2\n      dup2\n      lt\n      tag_117\n      jumpi\n      tag_118\n      tag_74\n      jump\t// in\n    tag_118:\n    tag_117:\n      swap1\n      pop\n      0x20\n      mul\n      add\n      0x20\n      dup2\n      add\n      swap1\n      tag_119\n      swap2\n      swap1\n      tag_76\n      jump\t// in\n    tag_119:\n        /* \"finger.sol\":2088:2123  _guessResult[i] == FingerType.Cloth */\n      0x03\n      dup2\n      gt\n      iszero\n      tag_120\n      jumpi\n      tag_121\n      tag_71\n      jump\t// in\n    tag_121:\n    tag_120:\n      eq\n        /* \"finger.sol\":2008:2123  _guessResult[i] == FingerType.Scissor || _guessResult[i] == FingerType.Stone || _guessResult[i] == FingerType.Cloth */\n    tag_114:\n        /* \"finger.sol\":1998:2123  _result = _guessResult[i] == FingerType.Scissor || _guessResult[i] == FingerType.Stone || _guessResult[i] == FingerType.Cloth */\n      swap2\n      pop\n        /* \"finger.sol\":2145:2152  _result */\n      dup2\n        /* \"finger.sol\":2141:2199  if(!_result){... */\n      iszero\n        /* \"finger.sol\":2175:2180  break */\n      tag_97\n        /* \"finger.sol\":2141:2199  if(!_result){... */\n      jumpi\n        /* \"finger.sol\":1976:1979  i++ */\n      dup1\n      dup1\n      tag_123\n      swap1\n      tag_124\n      jump\t// in\n    tag_123:\n      swap2\n      pop\n      pop\n        /* \"finger.sol\":1956:2213  for(uint256 i=0;i<3;i++){... */\n      jump(tag_96)\n    tag_97:\n      pop\n        /* \"finger.sol\":1924:2223  if(_gameType == 1){... */\n    tag_95:\n        /* \"finger.sol\":2239:2246  _result */\n      dup1\n        /* \"finger.sol\":2232:2246  return _result */\n      swap2\n      pop\n      pop\n        /* \"finger.sol\":1597:2261  function checkFingerGuess(uint256 _gameType, FingerType[] calldata _guessResult)internal pure returns ( bool ) {... */\n      swap4\n      swap3\n      pop\n      pop\n      pop\n      jump\t// out\n        /* \"@openzeppelin/contracts/utils/Context.sol\":640:736  function _msgSender() internal view virtual returns (address) {... */\n    tag_61:\n        /* \"@openzeppelin/contracts/utils/Context.sol\":693:700  address */\n      0x00\n        /* \"@openzeppelin/contracts/utils/Context.sol\":719:729  msg.sender */\n      caller\n        /* \"@openzeppelin/contracts/utils/Context.sol\":712:729  return msg.sender */\n      swap1\n      pop\n        /* \"@openzeppelin/contracts/utils/Context.sol\":640:736  function _msgSender() internal view virtual returns (address) {... */\n      swap1\n      jump\t// out\n    tag_51:\n      dup3\n      dup1\n      sload\n      dup3\n      dup3\n      sstore\n      swap1\n      0x00\n      mstore\n      keccak256(0x00, 0x20)\n      swap1\n      0x1f\n      add\n      0x20\n      swap1\n      div\n      dup2\n      add\n      swap3\n      dup3\n      iszero\n      tag_126\n      jumpi\n      swap2\n      0x20\n      mul\n      dup3\n      add\n      0x00\n    tag_127:\n      dup4\n      dup3\n      gt\n      iszero\n      tag_128\n      jumpi\n      dup4\n      calldataload\n      0x03\n      dup2\n      gt\n      dup1\n      iszero\n      tag_129\n      jumpi\n      0x00\n      dup1\n      revert\n    tag_129:\n      pop\n      dup4\n      dup3\n      0x0100\n      exp\n      dup2\n      sload\n      dup2\n      0xff\n      mul\n      not\n      and\n      swap1\n      dup4\n      0x03\n      dup2\n      gt\n      iszero\n      tag_130\n      jumpi\n      tag_131\n      tag_71\n      jump\t// in\n    tag_131:\n    tag_130:\n      mul\n      or\n      swap1\n      sstore\n      pop\n      swap3\n      0x20\n      add\n      swap3\n      0x01\n      add\n      0x20\n      dup2\n      0x00\n      add\n      div\n      swap3\n      dup4\n      add\n      swap3\n      0x01\n      sub\n      mul\n      jump(tag_127)\n    tag_128:\n      dup1\n      iszero\n      tag_132\n      jumpi\n      dup3\n      dup2\n      0x0100\n      exp\n      dup2\n      sload\n      swap1\n      0xff\n      mul\n      not\n      and\n      swap1\n      sstore\n      0x01\n      add\n      0x20\n      dup2\n      0x00\n      add\n      div\n      swap3\n      dup4\n      add\n      swap3\n      0x01\n      sub\n      mul\n      jump(tag_128)\n    tag_132:\n      pop\n    tag_126:\n      pop\n      swap1\n      pop\n      tag_133\n      swap2\n      swap1\n      tag_134\n      jump\t// in\n    tag_133:\n      pop\n      swap1\n      jump\t// out\n    tag_134:\n    tag_135:\n      dup1\n      dup3\n      gt\n      iszero\n      tag_136\n      jumpi\n      0x00\n      dup2\n      0x00\n      swap1\n      sstore\n      pop\n      0x01\n      add\n      jump(tag_135)\n    tag_136:\n      pop\n      swap1\n      jump\t// out\n        /* \"#utility.yul\":7:133   */\n    tag_137:\n        /* \"#utility.yul\":44:51   */\n      0x00\n        /* \"#utility.yul\":84:126   */\n      0xffffffffffffffffffffffffffffffffffffffff\n        /* \"#utility.yul\":77:82   */\n      dup3\n        /* \"#utility.yul\":73:127   */\n      and\n        /* \"#utility.yul\":62:127   */\n      swap1\n      pop\n        /* \"#utility.yul\":7:133   */\n      swap2\n      swap1\n      pop\n      jump\t// out\n        /* \"#utility.yul\":139:235   */\n    tag_138:\n        /* \"#utility.yul\":176:183   */\n      0x00\n        /* \"#utility.yul\":205:229   */\n      tag_167\n        /* \"#utility.yul\":223:228   */\n      dup3\n        /* \"#utility.yul\":205:229   */\n      tag_137\n      jump\t// in\n    tag_167:\n        /* \"#utility.yul\":194:229   */\n      swap1\n      pop\n        /* \"#utility.yul\":139:235   */\n      swap2\n      swap1\n      pop\n      jump\t// out\n        /* \"#utility.yul\":241:359   */\n    tag_139:\n        /* \"#utility.yul\":328:352   */\n      tag_169\n        /* \"#utility.yul\":346:351   */\n      dup2\n        /* \"#utility.yul\":328:352   */\n      tag_138\n      jump\t// in\n    tag_169:\n        /* \"#utility.yul\":323:326   */\n      dup3\n        /* \"#utility.yul\":316:353   */\n      mstore\n        /* \"#utility.yul\":241:359   */\n      pop\n      pop\n      jump\t// out\n        /* \"#utility.yul\":365:587   */\n    tag_13:\n        /* \"#utility.yul\":458:462   */\n      0x00\n        /* \"#utility.yul\":496:498   */\n      0x20\n        /* \"#utility.yul\":485:494   */\n      dup3\n        /* \"#utility.yul\":481:499   */\n      add\n        /* \"#utility.yul\":473:499   */\n      swap1\n      pop\n        /* \"#utility.yul\":509:580   */\n      tag_171\n        /* \"#utility.yul\":577:578   */\n      0x00\n        /* \"#utility.yul\":566:575   */\n      dup4\n        /* \"#utility.yul\":562:579   */\n      add\n        /* \"#utility.yul\":553:559   */\n      dup5\n        /* \"#utility.yul\":509:580   */\n      tag_139\n      jump\t// in\n    tag_171:\n        /* \"#utility.yul\":365:587   */\n      swap3\n      swap2\n      pop\n      pop\n      jump\t// out\n        /* \"#utility.yul\":674:791   */\n    tag_141:\n        /* \"#utility.yul\":783:784   */\n      0x00\n        /* \"#utility.yul\":780:781   */\n      dup1\n        /* \"#utility.yul\":773:785   */\n      revert\n        /* \"#utility.yul\":797:914   */\n    tag_142:\n        /* \"#utility.yul\":906:907   */\n      0x00\n        /* \"#utility.yul\":903:904   */\n      dup1\n        /* \"#utility.yul\":896:908   */\n      revert\n        /* \"#utility.yul\":920:1042   */\n    tag_143:\n        /* \"#utility.yul\":993:1017   */\n      tag_176\n        /* \"#utility.yul\":1011:1016   */\n      dup2\n        /* \"#utility.yul\":993:1017   */\n      tag_138\n      jump\t// in\n    tag_176:\n        /* \"#utility.yul\":986:991   */\n      dup2\n        /* \"#utility.yul\":983:1018   */\n      eq\n        /* \"#utility.yul\":973:1036   */\n      tag_177\n      jumpi\n        /* \"#utility.yul\":1032:1033   */\n      0x00\n        /* \"#utility.yul\":1029:1030   */\n      dup1\n        /* \"#utility.yul\":1022:1034   */\n      revert\n        /* \"#utility.yul\":973:1036   */\n    tag_177:\n        /* \"#utility.yul\":920:1042   */\n      pop\n      jump\t// out\n        /* \"#utility.yul\":1048:1187   */\n    tag_144:\n        /* \"#utility.yul\":1094:1099   */\n      0x00\n        /* \"#utility.yul\":1132:1138   */\n      dup2\n        /* \"#utility.yul\":1119:1139   */\n      calldataload\n        /* \"#utility.yul\":1110:1139   */\n      swap1\n      pop\n        /* \"#utility.yul\":1148:1181   */\n      tag_179\n        /* \"#utility.yul\":1175:1180   */\n      dup2\n        /* \"#utility.yul\":1148:1181   */\n      tag_143\n      jump\t// in\n    tag_179:\n        /* \"#utility.yul\":1048:1187   */\n      swap3\n      swap2\n      pop\n      pop\n      jump\t// out\n        /* \"#utility.yul\":1193:1270   */\n    tag_145:\n        /* \"#utility.yul\":1230:1237   */\n      0x00\n        /* \"#utility.yul\":1259:1264   */\n      dup2\n        /* \"#utility.yul\":1248:1264   */\n      swap1\n      pop\n        /* \"#utility.yul\":1193:1270   */\n      swap2\n      swap1\n      pop\n      jump\t// out\n        /* \"#utility.yul\":1276:1398   */\n    tag_146:\n        /* \"#utility.yul\":1349:1373   */\n      tag_182\n        /* \"#utility.yul\":1367:1372   */\n      dup2\n        /* \"#utility.yul\":1349:1373   */\n      tag_145\n      jump\t// in\n    tag_182:\n        /* \"#utility.yul\":1342:1347   */\n      dup2\n        /* \"#utility.yul\":1339:1374   */\n      eq\n        /* \"#utility.yul\":1329:1392   */\n      tag_183\n      jumpi\n        /* \"#utility.yul\":1388:1389   */\n      0x00\n        /* \"#utility.yul\":1385:1386   */\n      dup1\n        /* \"#utility.yul\":1378:1390   */\n      revert\n        /* \"#utility.yul\":1329:1392   */\n    tag_183:\n        /* \"#utility.yul\":1276:1398   */\n      pop\n      jump\t// out\n        /* \"#utility.yul\":1404:1543   */\n    tag_147:\n        /* \"#utility.yul\":1450:1455   */\n      0x00\n        /* \"#utility.yul\":1488:1494   */\n      dup2\n        /* \"#utility.yul\":1475:1495   */\n      calldataload\n        /* \"#utility.yul\":1466:1495   */\n      swap1\n      pop\n        /* \"#utility.yul\":1504:1537   */\n      tag_185\n        /* \"#utility.yul\":1531:1536   */\n      dup2\n        /* \"#utility.yul\":1504:1537   */\n      tag_146\n      jump\t// in\n    tag_185:\n        /* \"#utility.yul\":1404:1543   */\n      swap3\n      swap2\n      pop\n      pop\n      jump\t// out\n        /* \"#utility.yul\":1549:1666   */\n    tag_148:\n        /* \"#utility.yul\":1658:1659   */\n      0x00\n        /* \"#utility.yul\":1655:1656   */\n      dup1\n        /* \"#utility.yul\":1648:1660   */\n      revert\n        /* \"#utility.yul\":1672:1789   */\n    tag_149:\n        /* \"#utility.yul\":1781:1782   */\n      0x00\n        /* \"#utility.yul\":1778:1779   */\n      dup1\n        /* \"#utility.yul\":1771:1783   */\n      revert\n        /* \"#utility.yul\":1795:1912   */\n    tag_150:\n        /* \"#utility.yul\":1904:1905   */\n      0x00\n        /* \"#utility.yul\":1901:1902   */\n      dup1\n        /* \"#utility.yul\":1894:1906   */\n      revert\n        /* \"#utility.yul\":1955:2537   */\n    tag_151:\n        /* \"#utility.yul\":2042:2050   */\n      0x00\n        /* \"#utility.yul\":2052:2058   */\n      dup1\n        /* \"#utility.yul\":2102:2105   */\n      dup4\n        /* \"#utility.yul\":2095:2099   */\n      0x1f\n        /* \"#utility.yul\":2087:2093   */\n      dup5\n        /* \"#utility.yul\":2083:2100   */\n      add\n        /* \"#utility.yul\":2079:2106   */\n      slt\n        /* \"#utility.yul\":2069:2191   */\n      tag_190\n      jumpi\n        /* \"#utility.yul\":2110:2189   */\n      tag_191\n      tag_148\n      jump\t// in\n    tag_191:\n        /* \"#utility.yul\":2069:2191   */\n    tag_190:\n        /* \"#utility.yul\":2223:2229   */\n      dup3\n        /* \"#utility.yul\":2210:2230   */\n      calldataload\n        /* \"#utility.yul\":2200:2230   */\n      swap1\n      pop\n        /* \"#utility.yul\":2253:2271   */\n      0xffffffffffffffff\n        /* \"#utility.yul\":2245:2251   */\n      dup2\n        /* \"#utility.yul\":2242:2272   */\n      gt\n        /* \"#utility.yul\":2239:2356   */\n      iszero\n      tag_192\n      jumpi\n        /* \"#utility.yul\":2275:2354   */\n      tag_193\n      tag_149\n      jump\t// in\n    tag_193:\n        /* \"#utility.yul\":2239:2356   */\n    tag_192:\n        /* \"#utility.yul\":2389:2393   */\n      0x20\n        /* \"#utility.yul\":2381:2387   */\n      dup4\n        /* \"#utility.yul\":2377:2394   */\n      add\n        /* \"#utility.yul\":2365:2394   */\n      swap2\n      pop\n        /* \"#utility.yul\":2443:2446   */\n      dup4\n        /* \"#utility.yul\":2435:2439   */\n      0x20\n        /* \"#utility.yul\":2427:2433   */\n      dup3\n        /* \"#utility.yul\":2423:2440   */\n      mul\n        /* \"#utility.yul\":2413:2421   */\n      dup4\n        /* \"#utility.yul\":2409:2441   */\n      add\n        /* \"#utility.yul\":2406:2447   */\n      gt\n        /* \"#utility.yul\":2403:2531   */\n      iszero\n      tag_194\n      jumpi\n        /* \"#utility.yul\":2450:2529   */\n      tag_195\n      tag_150\n      jump\t// in\n    tag_195:\n        /* \"#utility.yul\":2403:2531   */\n    tag_194:\n        /* \"#utility.yul\":1955:2537   */\n      swap3\n      pop\n      swap3\n      swap1\n      pop\n      jump\t// out\n        /* \"#utility.yul\":2543:3566   */\n    tag_16:\n        /* \"#utility.yul\":2670:2676   */\n      0x00\n        /* \"#utility.yul\":2678:2684   */\n      dup1\n        /* \"#utility.yul\":2686:2692   */\n      0x00\n        /* \"#utility.yul\":2694:2700   */\n      dup1\n        /* \"#utility.yul\":2702:2708   */\n      0x00\n        /* \"#utility.yul\":2751:2754   */\n      0x80\n        /* \"#utility.yul\":2739:2748   */\n      dup7\n        /* \"#utility.yul\":2730:2737   */\n      dup9\n        /* \"#utility.yul\":2726:2749   */\n      sub\n        /* \"#utility.yul\":2722:2755   */\n      slt\n        /* \"#utility.yul\":2719:2839   */\n      iszero\n      tag_197\n      jumpi\n        /* \"#utility.yul\":2758:2837   */\n      tag_198\n      tag_141\n      jump\t// in\n    tag_198:\n        /* \"#utility.yul\":2719:2839   */\n    tag_197:\n        /* \"#utility.yul\":2878:2879   */\n      0x00\n        /* \"#utility.yul\":2903:2956   */\n      tag_199\n        /* \"#utility.yul\":2948:2955   */\n      dup9\n        /* \"#utility.yul\":2939:2945   */\n      dup3\n        /* \"#utility.yul\":2928:2937   */\n      dup10\n        /* \"#utility.yul\":2924:2946   */\n      add\n        /* \"#utility.yul\":2903:2956   */\n      tag_144\n      jump\t// in\n    tag_199:\n        /* \"#utility.yul\":2893:2956   */\n      swap6\n      pop\n        /* \"#utility.yul\":2849:2966   */\n      pop\n        /* \"#utility.yul\":3005:3007   */\n      0x20\n        /* \"#utility.yul\":3031:3084   */\n      tag_200\n        /* \"#utility.yul\":3076:3083   */\n      dup9\n        /* \"#utility.yul\":3067:3073   */\n      dup3\n        /* \"#utility.yul\":3056:3065   */\n      dup10\n        /* \"#utility.yul\":3052:3074   */\n      add\n        /* \"#utility.yul\":3031:3084   */\n      tag_147\n      jump\t// in\n    tag_200:\n        /* \"#utility.yul\":3021:3084   */\n      swap5\n      pop\n        /* \"#utility.yul\":2976:3094   */\n      pop\n        /* \"#utility.yul\":3133:3135   */\n      0x40\n        /* \"#utility.yul\":3159:3212   */\n      tag_201\n        /* \"#utility.yul\":3204:3211   */\n      dup9\n        /* \"#utility.yul\":3195:3201   */\n      dup3\n        /* \"#utility.yul\":3184:3193   */\n      dup10\n        /* \"#utility.yul\":3180:3202   */\n      add\n        /* \"#utility.yul\":3159:3212   */\n      tag_147\n      jump\t// in\n    tag_201:\n        /* \"#utility.yul\":3149:3212   */\n      swap4\n      pop\n        /* \"#utility.yul\":3104:3222   */\n      pop\n        /* \"#utility.yul\":3289:3291   */\n      0x60\n        /* \"#utility.yul\":3278:3287   */\n      dup7\n        /* \"#utility.yul\":3274:3292   */\n      add\n        /* \"#utility.yul\":3261:3293   */\n      calldataload\n        /* \"#utility.yul\":3320:3338   */\n      0xffffffffffffffff\n        /* \"#utility.yul\":3312:3318   */\n      dup2\n        /* \"#utility.yul\":3309:3339   */\n      gt\n        /* \"#utility.yul\":3306:3423   */\n      iszero\n      tag_202\n      jumpi\n        /* \"#utility.yul\":3342:3421   */\n      tag_203\n      tag_142\n      jump\t// in\n    tag_203:\n        /* \"#utility.yul\":3306:3423   */\n    tag_202:\n        /* \"#utility.yul\":3455:3549   */\n      tag_204\n        /* \"#utility.yul\":3541:3548   */\n      dup9\n        /* \"#utility.yul\":3532:3538   */\n      dup3\n        /* \"#utility.yul\":3521:3530   */\n      dup10\n        /* \"#utility.yul\":3517:3539   */\n      add\n        /* \"#utility.yul\":3455:3549   */\n      tag_151\n      jump\t// in\n    tag_204:\n        /* \"#utility.yul\":3437:3549   */\n      swap3\n      pop\n      swap3\n      pop\n        /* \"#utility.yul\":3232:3559   */\n      pop\n        /* \"#utility.yul\":2543:3566   */\n      swap3\n      swap6\n      pop\n      swap3\n      swap6\n      swap1\n      swap4\n      pop\n      jump\t// out\n        /* \"#utility.yul\":3572:3901   */\n    tag_21:\n        /* \"#utility.yul\":3631:3637   */\n      0x00\n        /* \"#utility.yul\":3680:3682   */\n      0x20\n        /* \"#utility.yul\":3668:3677   */\n      dup3\n        /* \"#utility.yul\":3659:3666   */\n      dup5\n        /* \"#utility.yul\":3655:3678   */\n      sub\n        /* \"#utility.yul\":3651:3683   */\n      slt\n        /* \"#utility.yul\":3648:3767   */\n      iszero\n      tag_206\n      jumpi\n        /* \"#utility.yul\":3686:3765   */\n      tag_207\n      tag_141\n      jump\t// in\n    tag_207:\n        /* \"#utility.yul\":3648:3767   */\n    tag_206:\n        /* \"#utility.yul\":3806:3807   */\n      0x00\n        /* \"#utility.yul\":3831:3884   */\n      tag_208\n        /* \"#utility.yul\":3876:3883   */\n      dup5\n        /* \"#utility.yul\":3867:3873   */\n      dup3\n        /* \"#utility.yul\":3856:3865   */\n      dup6\n        /* \"#utility.yul\":3852:3874   */\n      add\n        /* \"#utility.yul\":3831:3884   */\n      tag_144\n      jump\t// in\n    tag_208:\n        /* \"#utility.yul\":3821:3884   */\n      swap2\n      pop\n        /* \"#utility.yul\":3777:3894   */\n      pop\n        /* \"#utility.yul\":3572:3901   */\n      swap3\n      swap2\n      pop\n      pop\n      jump\t// out\n        /* \"#utility.yul\":3907:4076   */\n    tag_152:\n        /* \"#utility.yul\":3991:4002   */\n      0x00\n        /* \"#utility.yul\":4025:4031   */\n      dup3\n        /* \"#utility.yul\":4020:4023   */\n      dup3\n        /* \"#utility.yul\":4013:4032   */\n      mstore\n        /* \"#utility.yul\":4065:4069   */\n      0x20\n        /* \"#utility.yul\":4060:4063   */\n      dup3\n        /* \"#utility.yul\":4056:4070   */\n      add\n        /* \"#utility.yul\":4041:4070   */\n      swap1\n      pop\n        /* \"#utility.yul\":3907:4076   */\n      swap3\n      swap2\n      pop\n      pop\n      jump\t// out\n        /* \"#utility.yul\":4082:4257   */\n    tag_153:\n        /* \"#utility.yul\":4222:4249   */\n      0x47616d6520626f6e75732063616e6e6f74206265207a65726f00000000000000\n        /* \"#utility.yul\":4218:4219   */\n      0x00\n        /* \"#utility.yul\":4210:4216   */\n      dup3\n        /* \"#utility.yul\":4206:4220   */\n      add\n        /* \"#utility.yul\":4199:4250   */\n      mstore\n        /* \"#utility.yul\":4082:4257   */\n      pop\n      jump\t// out\n        /* \"#utility.yul\":4263:4629   */\n    tag_154:\n        /* \"#utility.yul\":4405:4408   */\n      0x00\n        /* \"#utility.yul\":4426:4493   */\n      tag_212\n        /* \"#utility.yul\":4490:4492   */\n      0x19\n        /* \"#utility.yul\":4485:4488   */\n      dup4\n        /* \"#utility.yul\":4426:4493   */\n      tag_152\n      jump\t// in\n    tag_212:\n        /* \"#utility.yul\":4419:4493   */\n      swap2\n      pop\n        /* \"#utility.yul\":4502:4595   */\n      tag_213\n        /* \"#utility.yul\":4591:4594   */\n      dup3\n        /* \"#utility.yul\":4502:4595   */\n      tag_153\n      jump\t// in\n    tag_213:\n        /* \"#utility.yul\":4620:4622   */\n      0x20\n        /* \"#utility.yul\":4615:4618   */\n      dup3\n        /* \"#utility.yul\":4611:4623   */\n      add\n        /* \"#utility.yul\":4604:4623   */\n      swap1\n      pop\n        /* \"#utility.yul\":4263:4629   */\n      swap2\n      swap1\n      pop\n      jump\t// out\n        /* \"#utility.yul\":4635:5054   */\n    tag_36:\n        /* \"#utility.yul\":4801:4805   */\n      0x00\n        /* \"#utility.yul\":4839:4841   */\n      0x20\n        /* \"#utility.yul\":4828:4837   */\n      dup3\n        /* \"#utility.yul\":4824:4842   */\n      add\n        /* \"#utility.yul\":4816:4842   */\n      swap1\n      pop\n        /* \"#utility.yul\":4888:4897   */\n      dup2\n        /* \"#utility.yul\":4882:4886   */\n      dup2\n        /* \"#utility.yul\":4878:4898   */\n      sub\n        /* \"#utility.yul\":4874:4875   */\n      0x00\n        /* \"#utility.yul\":4863:4872   */\n      dup4\n        /* \"#utility.yul\":4859:4876   */\n      add\n        /* \"#utility.yul\":4852:4899   */\n      mstore\n        /* \"#utility.yul\":4916:5047   */\n      tag_215\n        /* \"#utility.yul\":5042:5046   */\n      dup2\n        /* \"#utility.yul\":4916:5047   */\n      tag_154\n      jump\t// in\n    tag_215:\n        /* \"#utility.yul\":4908:5047   */\n      swap1\n      pop\n        /* \"#utility.yul\":4635:5054   */\n      swap2\n      swap1\n      pop\n      jump\t// out\n        /* \"#utility.yul\":5060:5224   */\n    tag_155:\n        /* \"#utility.yul\":5200:5216   */\n      0x4775657373696e67206572726f72000000000000000000000000000000000000\n        /* \"#utility.yul\":5196:5197   */\n      0x00\n        /* \"#utility.yul\":5188:5194   */\n      dup3\n        /* \"#utility.yul\":5184:5198   */\n      add\n        /* \"#utility.yul\":5177:5217   */\n      mstore\n        /* \"#utility.yul\":5060:5224   */\n      pop\n      jump\t// out\n        /* \"#utility.yul\":5230:5596   */\n    tag_156:\n        /* \"#utility.yul\":5372:5375   */\n      0x00\n        /* \"#utility.yul\":5393:5460   */\n      tag_218\n        /* \"#utility.yul\":5457:5459   */\n      0x0e\n        /* \"#utility.yul\":5452:5455   */\n      dup4\n        /* \"#utility.yul\":5393:5460   */\n      tag_152\n      jump\t// in\n    tag_218:\n        /* \"#utility.yul\":5386:5460   */\n      swap2\n      pop\n        /* \"#utility.yul\":5469:5562   */\n      tag_219\n        /* \"#utility.yul\":5558:5561   */\n      dup3\n        /* \"#utility.yul\":5469:5562   */\n      tag_155\n      jump\t// in\n    tag_219:\n        /* \"#utility.yul\":5587:5589   */\n      0x20\n        /* \"#utility.yul\":5582:5585   */\n      dup3\n        /* \"#utility.yul\":5578:5590   */\n      add\n        /* \"#utility.yul\":5571:5590   */\n      swap1\n      pop\n        /* \"#utility.yul\":5230:5596   */\n      swap2\n      swap1\n      pop\n      jump\t// out\n        /* \"#utility.yul\":5602:6021   */\n    tag_43:\n        /* \"#utility.yul\":5768:5772   */\n      0x00\n        /* \"#utility.yul\":5806:5808   */\n      0x20\n        /* \"#utility.yul\":5795:5804   */\n      dup3\n        /* \"#utility.yul\":5791:5809   */\n      add\n        /* \"#utility.yul\":5783:5809   */\n      swap1\n      pop\n        /* \"#utility.yul\":5855:5864   */\n      dup2\n        /* \"#utility.yul\":5849:5853   */\n      dup2\n        /* \"#utility.yul\":5845:5865   */\n      sub\n        /* \"#utility.yul\":5841:5842   */\n      0x00\n        /* \"#utility.yul\":5830:5839   */\n      dup4\n        /* \"#utility.yul\":5826:5843   */\n      add\n        /* \"#utility.yul\":5819:5866   */\n      mstore\n        /* \"#utility.yul\":5883:6014   */\n      tag_221\n        /* \"#utility.yul\":6009:6013   */\n      dup2\n        /* \"#utility.yul\":5883:6014   */\n      tag_156\n      jump\t// in\n    tag_221:\n        /* \"#utility.yul\":5875:6014   */\n      swap1\n      pop\n        /* \"#utility.yul\":5602:6021   */\n      swap2\n      swap1\n      pop\n      jump\t// out\n        /* \"#utility.yul\":6027:6207   */\n    tag_157:\n        /* \"#utility.yul\":6075:6152   */\n      0x4e487b7100000000000000000000000000000000000000000000000000000000\n        /* \"#utility.yul\":6072:6073   */\n      0x00\n        /* \"#utility.yul\":6065:6153   */\n      mstore\n        /* \"#utility.yul\":6172:6176   */\n      0x11\n        /* \"#utility.yul\":6169:6170   */\n      0x04\n        /* \"#utility.yul\":6162:6177   */\n      mstore\n        /* \"#utility.yul\":6196:6200   */\n      0x24\n        /* \"#utility.yul\":6193:6194   */\n      0x00\n        /* \"#utility.yul\":6186:6201   */\n      revert\n        /* \"#utility.yul\":6213:6407   */\n    tag_49:\n        /* \"#utility.yul\":6253:6257   */\n      0x00\n        /* \"#utility.yul\":6273:6293   */\n      tag_224\n        /* \"#utility.yul\":6291:6292   */\n      dup3\n        /* \"#utility.yul\":6273:6293   */\n      tag_145\n      jump\t// in\n    tag_224:\n        /* \"#utility.yul\":6268:6293   */\n      swap2\n      pop\n        /* \"#utility.yul\":6307:6327   */\n      tag_225\n        /* \"#utility.yul\":6325:6326   */\n      dup4\n        /* \"#utility.yul\":6307:6327   */\n      tag_145\n      jump\t// in\n    tag_225:\n        /* \"#utility.yul\":6302:6327   */\n      swap3\n      pop\n        /* \"#utility.yul\":6351:6352   */\n      dup3\n        /* \"#utility.yul\":6348:6349   */\n      dup3\n        /* \"#utility.yul\":6344:6353   */\n      sub\n        /* \"#utility.yul\":6336:6353   */\n      swap1\n      pop\n        /* \"#utility.yul\":6375:6376   */\n      dup2\n        /* \"#utility.yul\":6369:6373   */\n      dup2\n        /* \"#utility.yul\":6366:6377   */\n      gt\n        /* \"#utility.yul\":6363:6400   */\n      iszero\n      tag_226\n      jumpi\n        /* \"#utility.yul\":6380:6398   */\n      tag_227\n      tag_157\n      jump\t// in\n    tag_227:\n        /* \"#utility.yul\":6363:6400   */\n    tag_226:\n        /* \"#utility.yul\":6213:6407   */\n      swap3\n      swap2\n      pop\n      pop\n      jump\t// out\n        /* \"#utility.yul\":6413:6638   */\n    tag_158:\n        /* \"#utility.yul\":6553:6587   */\n      0x4f776e61626c653a206e6577206f776e657220697320746865207a65726f2061\n        /* \"#utility.yul\":6549:6550   */\n      0x00\n        /* \"#utility.yul\":6541:6547   */\n      dup3\n        /* \"#utility.yul\":6537:6551   */\n      add\n        /* \"#utility.yul\":6530:6588   */\n      mstore\n        /* \"#utility.yul\":6622:6630   */\n      0x6464726573730000000000000000000000000000000000000000000000000000\n        /* \"#utility.yul\":6617:6619   */\n      0x20\n        /* \"#utility.yul\":6609:6615   */\n      dup3\n        /* \"#utility.yul\":6605:6620   */\n      add\n        /* \"#utility.yul\":6598:6631   */\n      mstore\n        /* \"#utility.yul\":6413:6638   */\n      pop\n      jump\t// out\n        /* \"#utility.yul\":6644:7010   */\n    tag_159:\n        /* \"#utility.yul\":6786:6789   */\n      0x00\n        /* \"#utility.yul\":6807:6874   */\n      tag_230\n        /* \"#utility.yul\":6871:6873   */\n      0x26\n        /* \"#utility.yul\":6866:6869   */\n      dup4\n        /* \"#utility.yul\":6807:6874   */\n      tag_152\n      jump\t// in\n    tag_230:\n        /* \"#utility.yul\":6800:6874   */\n      swap2\n      pop\n        /* \"#utility.yul\":6883:6976   */\n      tag_231\n        /* \"#utility.yul\":6972:6975   */\n      dup3\n        /* \"#utility.yul\":6883:6976   */\n      tag_158\n      jump\t// in\n    tag_231:\n        /* \"#utility.yul\":7001:7003   */\n      0x40\n        /* \"#utility.yul\":6996:6999   */\n      dup3\n        /* \"#utility.yul\":6992:7004   */\n      add\n        /* \"#utility.yul\":6985:7004   */\n      swap1\n      pop\n        /* \"#utility.yul\":6644:7010   */\n      swap2\n      swap1\n      pop\n      jump\t// out\n        /* \"#utility.yul\":7016:7435   */\n    tag_57:\n        /* \"#utility.yul\":7182:7186   */\n      0x00\n        /* \"#utility.yul\":7220:7222   */\n      0x20\n        /* \"#utility.yul\":7209:7218   */\n      dup3\n        /* \"#utility.yul\":7205:7223   */\n      add\n        /* \"#utility.yul\":7197:7223   */\n      swap1\n      pop\n        /* \"#utility.yul\":7269:7278   */\n      dup2\n        /* \"#utility.yul\":7263:7267   */\n      dup2\n        /* \"#utility.yul\":7259:7279   */\n      sub\n        /* \"#utility.yul\":7255:7256   */\n      0x00\n        /* \"#utility.yul\":7244:7253   */\n      dup4\n        /* \"#utility.yul\":7240:7257   */\n      add\n        /* \"#utility.yul\":7233:7280   */\n      mstore\n        /* \"#utility.yul\":7297:7428   */\n      tag_233\n        /* \"#utility.yul\":7423:7427   */\n      dup2\n        /* \"#utility.yul\":7297:7428   */\n      tag_159\n      jump\t// in\n    tag_233:\n        /* \"#utility.yul\":7289:7428   */\n      swap1\n      pop\n        /* \"#utility.yul\":7016:7435   */\n      swap2\n      swap1\n      pop\n      jump\t// out\n        /* \"#utility.yul\":7441:7623   */\n    tag_160:\n        /* \"#utility.yul\":7581:7615   */\n      0x4f776e61626c653a2063616c6c6572206973206e6f7420746865206f776e6572\n        /* \"#utility.yul\":7577:7578   */\n      0x00\n        /* \"#utility.yul\":7569:7575   */\n      dup3\n        /* \"#utility.yul\":7565:7579   */\n      add\n        /* \"#utility.yul\":7558:7616   */\n      mstore\n        /* \"#utility.yul\":7441:7623   */\n      pop\n      jump\t// out\n        /* \"#utility.yul\":7629:7995   */\n    tag_161:\n        /* \"#utility.yul\":7771:7774   */\n      0x00\n        /* \"#utility.yul\":7792:7859   */\n      tag_236\n        /* \"#utility.yul\":7856:7858   */\n      0x20\n        /* \"#utility.yul\":7851:7854   */\n      dup4\n        /* \"#utility.yul\":7792:7859   */\n      tag_152\n      jump\t// in\n    tag_236:\n        /* \"#utility.yul\":7785:7859   */\n      swap2\n      pop\n        /* \"#utility.yul\":7868:7961   */\n      tag_237\n        /* \"#utility.yul\":7957:7960   */\n      dup3\n        /* \"#utility.yul\":7868:7961   */\n      tag_160\n      jump\t// in\n    tag_237:\n        /* \"#utility.yul\":7986:7988   */\n      0x20\n        /* \"#utility.yul\":7981:7984   */\n      dup3\n        /* \"#utility.yul\":7977:7989   */\n      add\n        /* \"#utility.yul\":7970:7989   */\n      swap1\n      pop\n        /* \"#utility.yul\":7629:7995   */\n      swap2\n      swap1\n      pop\n      jump\t// out\n        /* \"#utility.yul\":8001:8420   */\n    tag_65:\n        /* \"#utility.yul\":8167:8171   */\n      0x00\n        /* \"#utility.yul\":8205:8207   */\n      0x20\n        /* \"#utility.yul\":8194:8203   */\n      dup3\n        /* \"#utility.yul\":8190:8208   */\n      add\n        /* \"#utility.yul\":8182:8208   */\n      swap1\n      pop\n        /* \"#utility.yul\":8254:8263   */\n      dup2\n        /* \"#utility.yul\":8248:8252   */\n      dup2\n        /* \"#utility.yul\":8244:8264   */\n      sub\n        /* \"#utility.yul\":8240:8241   */\n      0x00\n        /* \"#utility.yul\":8229:8238   */\n      dup4\n        /* \"#utility.yul\":8225:8242   */\n      add\n        /* \"#utility.yul\":8218:8265   */\n      mstore\n        /* \"#utility.yul\":8282:8413   */\n      tag_239\n        /* \"#utility.yul\":8408:8412   */\n      dup2\n        /* \"#utility.yul\":8282:8413   */\n      tag_161\n      jump\t// in\n    tag_239:\n        /* \"#utility.yul\":8274:8413   */\n      swap1\n      pop\n        /* \"#utility.yul\":8001:8420   */\n      swap2\n      swap1\n      pop\n      jump\t// out\n        /* \"#utility.yul\":8426:8606   */\n    tag_71:\n        /* \"#utility.yul\":8474:8551   */\n      0x4e487b7100000000000000000000000000000000000000000000000000000000\n        /* \"#utility.yul\":8471:8472   */\n      0x00\n        /* \"#utility.yul\":8464:8552   */\n      mstore\n        /* \"#utility.yul\":8571:8575   */\n      0x21\n        /* \"#utility.yul\":8568:8569   */\n      0x04\n        /* \"#utility.yul\":8561:8576   */\n      mstore\n        /* \"#utility.yul\":8595:8599   */\n      0x24\n        /* \"#utility.yul\":8592:8593   */\n      0x00\n        /* \"#utility.yul\":8585:8600   */\n      revert\n        /* \"#utility.yul\":8612:8792   */\n    tag_74:\n        /* \"#utility.yul\":8660:8737   */\n      0x4e487b7100000000000000000000000000000000000000000000000000000000\n        /* \"#utility.yul\":8657:8658   */\n      0x00\n        /* \"#utility.yul\":8650:8738   */\n      mstore\n        /* \"#utility.yul\":8757:8761   */\n      0x32\n        /* \"#utility.yul\":8754:8755   */\n      0x04\n        /* \"#utility.yul\":8747:8762   */\n      mstore\n        /* \"#utility.yul\":8781:8785   */\n      0x24\n        /* \"#utility.yul\":8778:8779   */\n      0x00\n        /* \"#utility.yul\":8771:8786   */\n      revert\n        /* \"#utility.yul\":8798:8911   */\n    tag_162:\n        /* \"#utility.yul\":8885:8886   */\n      0x04\n        /* \"#utility.yul\":8878:8883   */\n      dup2\n        /* \"#utility.yul\":8875:8887   */\n      lt\n        /* \"#utility.yul\":8865:8905   */\n      tag_243\n      jumpi\n        /* \"#utility.yul\":8901:8902   */\n      0x00\n        /* \"#utility.yul\":8898:8899   */\n      dup1\n        /* \"#utility.yul\":8891:8903   */\n      revert\n        /* \"#utility.yul\":8865:8905   */\n    tag_243:\n        /* \"#utility.yul\":8798:8911   */\n      pop\n      jump\t// out\n        /* \"#utility.yul\":8917:9084   */\n    tag_163:\n        /* \"#utility.yul\":8977:8982   */\n      0x00\n        /* \"#utility.yul\":9015:9021   */\n      dup2\n        /* \"#utility.yul\":9002:9022   */\n      calldataload\n        /* \"#utility.yul\":8993:9022   */\n      swap1\n      pop\n        /* \"#utility.yul\":9031:9078   */\n      tag_245\n        /* \"#utility.yul\":9072:9077   */\n      dup2\n        /* \"#utility.yul\":9031:9078   */\n      tag_162\n      jump\t// in\n    tag_245:\n        /* \"#utility.yul\":8917:9084   */\n      swap3\n      swap2\n      pop\n      pop\n      jump\t// out\n        /* \"#utility.yul\":9090:9447   */\n    tag_76:\n        /* \"#utility.yul\":9163:9169   */\n      0x00\n        /* \"#utility.yul\":9212:9214   */\n      0x20\n        /* \"#utility.yul\":9200:9209   */\n      dup3\n        /* \"#utility.yul\":9191:9198   */\n      dup5\n        /* \"#utility.yul\":9187:9210   */\n      sub\n        /* \"#utility.yul\":9183:9215   */\n      slt\n        /* \"#utility.yul\":9180:9299   */\n      iszero\n      tag_247\n      jumpi\n        /* \"#utility.yul\":9218:9297   */\n      tag_248\n      tag_141\n      jump\t// in\n    tag_248:\n        /* \"#utility.yul\":9180:9299   */\n    tag_247:\n        /* \"#utility.yul\":9338:9339   */\n      0x00\n        /* \"#utility.yul\":9363:9430   */\n      tag_249\n        /* \"#utility.yul\":9422:9429   */\n      dup5\n        /* \"#utility.yul\":9413:9419   */\n      dup3\n        /* \"#utility.yul\":9402:9411   */\n      dup6\n        /* \"#utility.yul\":9398:9420   */\n      add\n        /* \"#utility.yul\":9363:9430   */\n      tag_163\n      jump\t// in\n    tag_249:\n        /* \"#utility.yul\":9353:9430   */\n      swap2\n      pop\n        /* \"#utility.yul\":9309:9440   */\n      pop\n        /* \"#utility.yul\":9090:9447   */\n      swap3\n      swap2\n      pop\n      pop\n      jump\t// out\n        /* \"#utility.yul\":9453:9686   */\n    tag_124:\n        /* \"#utility.yul\":9492:9495   */\n      0x00\n        /* \"#utility.yul\":9515:9539   */\n      tag_251\n        /* \"#utility.yul\":9533:9538   */\n      dup3\n        /* \"#utility.yul\":9515:9539   */\n      tag_145\n      jump\t// in\n    tag_251:\n        /* \"#utility.yul\":9506:9539   */\n      swap2\n      pop\n        /* \"#utility.yul\":9561:9627   */\n      0xffffffffffffffffffffffffffffffffffffffffffffffffffffffffffffffff\n        /* \"#utility.yul\":9554:9559   */\n      dup3\n        /* \"#utility.yul\":9551:9628   */\n      sub\n        /* \"#utility.yul\":9548:9651   */\n      tag_252\n      jumpi\n        /* \"#utility.yul\":9631:9649   */\n      tag_253\n      tag_157\n      jump\t// in\n    tag_253:\n        /* \"#utility.yul\":9548:9651   */\n    tag_252:\n        /* \"#utility.yul\":9678:9679   */\n      0x01\n        /* \"#utility.yul\":9671:9676   */\n      dup3\n        /* \"#utility.yul\":9667:9680   */\n      add\n        /* \"#utility.yul\":9660:9680   */\n      swap1\n      pop\n        /* \"#utility.yul\":9453:9686   */\n      swap2\n      swap1\n      pop\n      jump\t// out\n\n    auxdata: 0xa2646970667358221220a83a17fded3cf3e36c79ff720d63f7b99cfbb9089dd68a46674c34af46bb1e2864736f6c63430008150033\n}\n",
				"bytecode": {
					"linkReferences": {},
					"object": "608060405234801561000f575f80fd5b5061002c61002161003160201b60201c565b61003860201b60201c565b6100f9565b5f33905090565b5f805f9054906101000a900473ffffffffffffffffffffffffffffffffffffffff169050815f806101000a81548173ffffffffffffffffffffffffffffffffffffffff021916908373ffffffffffffffffffffffffffffffffffffffff1602179055508173ffffffffffffffffffffffffffffffffffffffff168173ffffffffffffffffffffffffffffffffffffffff167f8be0079c531659141344cd1fd0a4f28419497f9722a3daafe3b4186f6b6457e060405160405180910390a35050565b610e3e806101065f395ff3fe60806040526004361061003e575f3560e01c8063715018a6146100425780638da5cb5b14610058578063ca99760e14610082578063f2fde38b1461009e575b5f80fd5b34801561004d575f80fd5b506100566100c6565b005b348015610063575f80fd5b5061006c6100d9565b6040516100799190610955565b60405180910390f35b61009c60048036038101906100979190610a34565b610100565b005b3480156100a9575f80fd5b506100c460048036038101906100bf9190610ab8565b610434565b005b6100ce6104b6565b6100d75f610534565b565b5f805f9054906101000a900473ffffffffffffffffffffffffffffffffffffffff16905090565b84848484845f73ffffffffffffffffffffffffffffffffffffffff168573ffffffffffffffffffffffffffffffffffffffff161415801561014057505f84115b8061018157505f73ffffffffffffffffffffffffffffffffffffffff168573ffffffffffffffffffffffffffffffffffffffff1614801561018057505f34115b5b6101c0576040517f08c379a00000000000000000000000000000000000000000000000000000000081526004016101b790610b3d565b60405180910390fd5b5f8314806101ce5750600183145b80156101e157506101e08383836105f5565b5b610220576040517f08c379a000000000000000000000000000000000000000000000000000000000815260040161021790610ba5565b60405180910390fd5b5f6040518060e001604052803373ffffffffffffffffffffffffffffffffffffffff1681526020015f73ffffffffffffffffffffffffffffffffffffffff1681526020018c73ffffffffffffffffffffffffffffffffffffffff1681526020015f73ffffffffffffffffffffffffffffffffffffffff168d73ffffffffffffffffffffffffffffffffffffffff16146102b9578b6102bb565b345b81526020018a81526020015f8152602001428152509050600281908060018154018082558091505060019003905f5260205f2090600702015f909190919091505f820151815f015f6101000a81548173ffffffffffffffffffffffffffffffffffffffff021916908373ffffffffffffffffffffffffffffffffffffffff1602179055506020820151816001015f6101000a81548173ffffffffffffffffffffffffffffffffffffffff021916908373ffffffffffffffffffffffffffffffffffffffff1602179055506040820151816002015f6101000a81548173ffffffffffffffffffffffffffffffffffffffff021916908373ffffffffffffffffffffffffffffffffffffffff160217905550606082015181600301556080820151816004015560a0820151816005015560c082015181600601555050878760015f600160028054905061040c9190610bf0565b81526020019081526020015f20919061042692919061083b565b505050505050505050505050565b61043c6104b6565b5f73ffffffffffffffffffffffffffffffffffffffff168173ffffffffffffffffffffffffffffffffffffffff16036104aa576040517f08c379a00000000000000000000000000000000000000000000000000000000081526004016104a190610c93565b60405180910390fd5b6104b381610534565b50565b6104be610834565b73ffffffffffffffffffffffffffffffffffffffff166104dc6100d9565b73ffffffffffffffffffffffffffffffffffffffff1614610532576040517f08c379a000000000000000000000000000000000000000000000000000000000815260040161052990610cfb565b60405180910390fd5b565b5f805f9054906101000a900473ffffffffffffffffffffffffffffffffffffffff169050815f806101000a81548173ffffffffffffffffffffffffffffffffffffffff021916908373ffffffffffffffffffffffffffffffffffffffff1602179055508173ffffffffffffffffffffffffffffffffffffffff168173ffffffffffffffffffffffffffffffffffffffff167f8be0079c531659141344cd1fd0a4f28419497f9722a3daafe3b4186f6b6457e060405160405180910390a35050565b5f80600190505f85036106ff576001600381111561061657610615610d19565b5b84845f81811061062957610628610d46565b5b905060200201602081019061063e9190610d96565b60038111156106505761064f610d19565b5b14806106a757506002600381111561066b5761066a610d19565b5b84845f81811061067e5761067d610d46565b5b90506020020160208101906106939190610d96565b60038111156106a5576106a4610d19565b5b145b806106fc57506003808111156106c0576106bf610d19565b5b84845f8181106106d3576106d2610d46565b5b90506020020160208101906106e89190610d96565b60038111156106fa576106f9610d19565b5b145b90505b60018503610829575f5b6003811015610827576001600381111561072657610725610d19565b5b85858381811061073957610738610d46565b5b905060200201602081019061074e9190610d96565b60038111156107605761075f610d19565b5b14806107b757506002600381111561077b5761077a610d19565b5b85858381811061078e5761078d610d46565b5b90506020020160208101906107a39190610d96565b60038111156107b5576107b4610d19565b5b145b8061080c57506003808111156107d0576107cf610d19565b5b8585838181106107e3576107e2610d46565b5b90506020020160208101906107f89190610d96565b600381111561080a57610809610d19565b5b145b9150811561082757808061081f90610dc1565b915050610709565b505b809150509392505050565b5f33905090565b828054828255905f5260205f2090601f016020900481019282156108ea579160200282015f5b838211156108bc578335600381118015610879575f80fd5b5083826101000a81548160ff0219169083600381111561089c5761089b610d19565b5b021790555092602001926001016020815f01049283019260010302610861565b80156108e85782816101000a81549060ff02191690556001016020815f010492830192600103026108bc565b505b5090506108f791906108fb565b5090565b5b80821115610912575f815f9055506001016108fc565b5090565b5f73ffffffffffffffffffffffffffffffffffffffff82169050919050565b5f61093f82610916565b9050919050565b61094f81610935565b82525050565b5f6020820190506109685f830184610946565b92915050565b5f80fd5b5f80fd5b61097f81610935565b8114610989575f80fd5b50565b5f8135905061099a81610976565b92915050565b5f819050919050565b6109b2816109a0565b81146109bc575f80fd5b50565b5f813590506109cd816109a9565b92915050565b5f80fd5b5f80fd5b5f80fd5b5f8083601f8401126109f4576109f36109d3565b5b8235905067ffffffffffffffff811115610a1157610a106109d7565b5b602083019150836020820283011115610a2d57610a2c6109db565b5b9250929050565b5f805f805f60808688031215610a4d57610a4c61096e565b5b5f610a5a8882890161098c565b9550506020610a6b888289016109bf565b9450506040610a7c888289016109bf565b935050606086013567ffffffffffffffff811115610a9d57610a9c610972565b5b610aa9888289016109df565b92509250509295509295909350565b5f60208284031215610acd57610acc61096e565b5b5f610ada8482850161098c565b91505092915050565b5f82825260208201905092915050565b7f47616d6520626f6e75732063616e6e6f74206265207a65726f000000000000005f82015250565b5f610b27601983610ae3565b9150610b3282610af3565b602082019050919050565b5f6020820190508181035f830152610b5481610b1b565b9050919050565b7f4775657373696e67206572726f720000000000000000000000000000000000005f82015250565b5f610b8f600e83610ae3565b9150610b9a82610b5b565b602082019050919050565b5f6020820190508181035f830152610bbc81610b83565b9050919050565b7f4e487b71000000000000000000000000000000000000000000000000000000005f52601160045260245ffd5b5f610bfa826109a0565b9150610c05836109a0565b9250828203905081811115610c1d57610c1c610bc3565b5b92915050565b7f4f776e61626c653a206e6577206f776e657220697320746865207a65726f20615f8201527f6464726573730000000000000000000000000000000000000000000000000000602082015250565b5f610c7d602683610ae3565b9150610c8882610c23565b604082019050919050565b5f6020820190508181035f830152610caa81610c71565b9050919050565b7f4f776e61626c653a2063616c6c6572206973206e6f7420746865206f776e65725f82015250565b5f610ce5602083610ae3565b9150610cf082610cb1565b602082019050919050565b5f6020820190508181035f830152610d1281610cd9565b9050919050565b7f4e487b71000000000000000000000000000000000000000000000000000000005f52602160045260245ffd5b7f4e487b71000000000000000000000000000000000000000000000000000000005f52603260045260245ffd5b60048110610d7f575f80fd5b50565b5f81359050610d9081610d73565b92915050565b5f60208284031215610dab57610daa61096e565b5b5f610db884828501610d82565b91505092915050565b5f610dcb826109a0565b91507fffffffffffffffffffffffffffffffffffffffffffffffffffffffffffffffff8203610dfd57610dfc610bc3565b5b60018201905091905056fea2646970667358221220a83a17fded3cf3e36c79ff720d63f7b99cfbb9089dd68a46674c34af46bb1e2864736f6c63430008150033",
					"opcodes": "PUSH1 0x80 PUSH1 0x40 MSTORE CALLVALUE DUP1 ISZERO PUSH2 0xF JUMPI PUSH0 DUP1 REVERT JUMPDEST POP PUSH2 0x2C PUSH2 0x21 PUSH2 0x31 PUSH1 0x20 SHL PUSH1 0x20 SHR JUMP JUMPDEST PUSH2 0x38 PUSH1 0x20 SHL PUSH1 0x20 SHR JUMP JUMPDEST PUSH2 0xF9 JUMP JUMPDEST PUSH0 CALLER SWAP1 POP SWAP1 JUMP JUMPDEST PUSH0 DUP1 PUSH0 SWAP1 SLOAD SWAP1 PUSH2 0x100 EXP SWAP1 DIV PUSH20 0xFFFFFFFFFFFFFFFFFFFFFFFFFFFFFFFFFFFFFFFF AND SWAP1 POP DUP2 PUSH0 DUP1 PUSH2 0x100 EXP DUP2 SLOAD DUP2 PUSH20 0xFFFFFFFFFFFFFFFFFFFFFFFFFFFFFFFFFFFFFFFF MUL NOT AND SWAP1 DUP4 PUSH20 0xFFFFFFFFFFFFFFFFFFFFFFFFFFFFFFFFFFFFFFFF AND MUL OR SWAP1 SSTORE POP DUP2 PUSH20 0xFFFFFFFFFFFFFFFFFFFFFFFFFFFFFFFFFFFFFFFF AND DUP2 PUSH20 0xFFFFFFFFFFFFFFFFFFFFFFFFFFFFFFFFFFFFFFFF AND PUSH32 0x8BE0079C531659141344CD1FD0A4F28419497F9722A3DAAFE3B4186F6B6457E0 PUSH1 0x40 MLOAD PUSH1 0x40 MLOAD DUP1 SWAP2 SUB SWAP1 LOG3 POP POP JUMP JUMPDEST PUSH2 0xE3E DUP1 PUSH2 0x106 PUSH0 CODECOPY PUSH0 RETURN INVALID PUSH1 0x80 PUSH1 0x40 MSTORE PUSH1 0x4 CALLDATASIZE LT PUSH2 0x3E JUMPI PUSH0 CALLDATALOAD PUSH1 0xE0 SHR DUP1 PUSH4 0x715018A6 EQ PUSH2 0x42 JUMPI DUP1 PUSH4 0x8DA5CB5B EQ PUSH2 0x58 JUMPI DUP1 PUSH4 0xCA99760E EQ PUSH2 0x82 JUMPI DUP1 PUSH4 0xF2FDE38B EQ PUSH2 0x9E JUMPI JUMPDEST PUSH0 DUP1 REVERT JUMPDEST CALLVALUE DUP1 ISZERO PUSH2 0x4D JUMPI PUSH0 DUP1 REVERT JUMPDEST POP PUSH2 0x56 PUSH2 0xC6 JUMP JUMPDEST STOP JUMPDEST CALLVALUE DUP1 ISZERO PUSH2 0x63 JUMPI PUSH0 DUP1 REVERT JUMPDEST POP PUSH2 0x6C PUSH2 0xD9 JUMP JUMPDEST PUSH1 0x40 MLOAD PUSH2 0x79 SWAP2 SWAP1 PUSH2 0x955 JUMP JUMPDEST PUSH1 0x40 MLOAD DUP1 SWAP2 SUB SWAP1 RETURN JUMPDEST PUSH2 0x9C PUSH1 0x4 DUP1 CALLDATASIZE SUB DUP2 ADD SWAP1 PUSH2 0x97 SWAP2 SWAP1 PUSH2 0xA34 JUMP JUMPDEST PUSH2 0x100 JUMP JUMPDEST STOP JUMPDEST CALLVALUE DUP1 ISZERO PUSH2 0xA9 JUMPI PUSH0 DUP1 REVERT JUMPDEST POP PUSH2 0xC4 PUSH1 0x4 DUP1 CALLDATASIZE SUB DUP2 ADD SWAP1 PUSH2 0xBF SWAP2 SWAP1 PUSH2 0xAB8 JUMP JUMPDEST PUSH2 0x434 JUMP JUMPDEST STOP JUMPDEST PUSH2 0xCE PUSH2 0x4B6 JUMP JUMPDEST PUSH2 0xD7 PUSH0 PUSH2 0x534 JUMP JUMPDEST JUMP JUMPDEST PUSH0 DUP1 PUSH0 SWAP1 SLOAD SWAP1 PUSH2 0x100 EXP SWAP1 DIV PUSH20 0xFFFFFFFFFFFFFFFFFFFFFFFFFFFFFFFFFFFFFFFF AND SWAP1 POP SWAP1 JUMP JUMPDEST DUP5 DUP5 DUP5 DUP5 DUP5 PUSH0 PUSH20 0xFFFFFFFFFFFFFFFFFFFFFFFFFFFFFFFFFFFFFFFF AND DUP6 PUSH20 0xFFFFFFFFFFFFFFFFFFFFFFFFFFFFFFFFFFFFFFFF AND EQ ISZERO DUP1 ISZERO PUSH2 0x140 JUMPI POP PUSH0 DUP5 GT JUMPDEST DUP1 PUSH2 0x181 JUMPI POP PUSH0 PUSH20 0xFFFFFFFFFFFFFFFFFFFFFFFFFFFFFFFFFFFFFFFF AND DUP6 PUSH20 0xFFFFFFFFFFFFFFFFFFFFFFFFFFFFFFFFFFFFFFFF AND EQ DUP1 ISZERO PUSH2 0x180 JUMPI POP PUSH0 CALLVALUE GT JUMPDEST JUMPDEST PUSH2 0x1C0 JUMPI PUSH1 0x40 MLOAD PUSH32 0x8C379A000000000000000000000000000000000000000000000000000000000 DUP2 MSTORE PUSH1 0x4 ADD PUSH2 0x1B7 SWAP1 PUSH2 0xB3D JUMP JUMPDEST PUSH1 0x40 MLOAD DUP1 SWAP2 SUB SWAP1 REVERT JUMPDEST PUSH0 DUP4 EQ DUP1 PUSH2 0x1CE JUMPI POP PUSH1 0x1 DUP4 EQ JUMPDEST DUP1 ISZERO PUSH2 0x1E1 JUMPI POP PUSH2 0x1E0 DUP4 DUP4 DUP4 PUSH2 0x5F5 JUMP JUMPDEST JUMPDEST PUSH2 0x220 JUMPI PUSH1 0x40 MLOAD PUSH32 0x8C379A000000000000000000000000000000000000000000000000000000000 DUP2 MSTORE PUSH1 0x4 ADD PUSH2 0x217 SWAP1 PUSH2 0xBA5 JUMP JUMPDEST PUSH1 0x40 MLOAD DUP1 SWAP2 SUB SWAP1 REVERT JUMPDEST PUSH0 PUSH1 0x40 MLOAD DUP1 PUSH1 0xE0 ADD PUSH1 0x40 MSTORE DUP1 CALLER PUSH20 0xFFFFFFFFFFFFFFFFFFFFFFFFFFFFFFFFFFFFFFFF AND DUP2 MSTORE PUSH1 0x20 ADD PUSH0 PUSH20 0xFFFFFFFFFFFFFFFFFFFFFFFFFFFFFFFFFFFFFFFF AND DUP2 MSTORE PUSH1 0x20 ADD DUP13 PUSH20 0xFFFFFFFFFFFFFFFFFFFFFFFFFFFFFFFFFFFFFFFF AND DUP2 MSTORE PUSH1 0x20 ADD PUSH0 PUSH20 0xFFFFFFFFFFFFFFFFFFFFFFFFFFFFFFFFFFFFFFFF AND DUP14 PUSH20 0xFFFFFFFFFFFFFFFFFFFFFFFFFFFFFFFFFFFFFFFF AND EQ PUSH2 0x2B9 JUMPI DUP12 PUSH2 0x2BB JUMP JUMPDEST CALLVALUE JUMPDEST DUP2 MSTORE PUSH1 0x20 ADD DUP11 DUP2 MSTORE PUSH1 0x20 ADD PUSH0 DUP2 MSTORE PUSH1 0x20 ADD TIMESTAMP DUP2 MSTORE POP SWAP1 POP PUSH1 0x2 DUP2 SWAP1 DUP1 PUSH1 0x1 DUP2 SLOAD ADD DUP1 DUP3 SSTORE DUP1 SWAP2 POP POP PUSH1 0x1 SWAP1 SUB SWAP1 PUSH0 MSTORE PUSH1 0x20 PUSH0 KECCAK256 SWAP1 PUSH1 0x7 MUL ADD PUSH0 SWAP1 SWAP2 SWAP1 SWAP2 SWAP1 SWAP2 POP PUSH0 DUP3 ADD MLOAD DUP2 PUSH0 ADD PUSH0 PUSH2 0x100 EXP DUP2 SLOAD DUP2 PUSH20 0xFFFFFFFFFFFFFFFFFFFFFFFFFFFFFFFFFFFFFFFF MUL NOT AND SWAP1 DUP4 PUSH20 0xFFFFFFFFFFFFFFFFFFFFFFFFFFFFFFFFFFFFFFFF AND MUL OR SWAP1 SSTORE POP PUSH1 0x20 DUP3 ADD MLOAD DUP2 PUSH1 0x1 ADD PUSH0 PUSH2 0x100 EXP DUP2 SLOAD DUP2 PUSH20 0xFFFFFFFFFFFFFFFFFFFFFFFFFFFFFFFFFFFFFFFF MUL NOT AND SWAP1 DUP4 PUSH20 0xFFFFFFFFFFFFFFFFFFFFFFFFFFFFFFFFFFFFFFFF AND MUL OR SWAP1 SSTORE POP PUSH1 0x40 DUP3 ADD MLOAD DUP2 PUSH1 0x2 ADD PUSH0 PUSH2 0x100 EXP DUP2 SLOAD DUP2 PUSH20 0xFFFFFFFFFFFFFFFFFFFFFFFFFFFFFFFFFFFFFFFF MUL NOT AND SWAP1 DUP4 PUSH20 0xFFFFFFFFFFFFFFFFFFFFFFFFFFFFFFFFFFFFFFFF AND MUL OR SWAP1 SSTORE POP PUSH1 0x60 DUP3 ADD MLOAD DUP2 PUSH1 0x3 ADD SSTORE PUSH1 0x80 DUP3 ADD MLOAD DUP2 PUSH1 0x4 ADD SSTORE PUSH1 0xA0 DUP3 ADD MLOAD DUP2 PUSH1 0x5 ADD SSTORE PUSH1 0xC0 DUP3 ADD MLOAD DUP2 PUSH1 0x6 ADD SSTORE POP POP DUP8 DUP8 PUSH1 0x1 PUSH0 PUSH1 0x1 PUSH1 0x2 DUP1 SLOAD SWAP1 POP PUSH2 0x40C SWAP2 SWAP1 PUSH2 0xBF0 JUMP JUMPDEST DUP2 MSTORE PUSH1 0x20 ADD SWAP1 DUP2 MSTORE PUSH1 0x20 ADD PUSH0 KECCAK256 SWAP2 SWAP1 PUSH2 0x426 SWAP3 SWAP2 SWAP1 PUSH2 0x83B JUMP JUMPDEST POP POP POP POP POP POP POP POP POP POP POP POP JUMP JUMPDEST PUSH2 0x43C PUSH2 0x4B6 JUMP JUMPDEST PUSH0 PUSH20 0xFFFFFFFFFFFFFFFFFFFFFFFFFFFFFFFFFFFFFFFF AND DUP2 PUSH20 0xFFFFFFFFFFFFFFFFFFFFFFFFFFFFFFFFFFFFFFFF AND SUB PUSH2 0x4AA JUMPI PUSH1 0x40 MLOAD PUSH32 0x8C379A000000000000000000000000000000000000000000000000000000000 DUP2 MSTORE PUSH1 0x4 ADD PUSH2 0x4A1 SWAP1 PUSH2 0xC93 JUMP JUMPDEST PUSH1 0x40 MLOAD DUP1 SWAP2 SUB SWAP1 REVERT JUMPDEST PUSH2 0x4B3 DUP2 PUSH2 0x534 JUMP JUMPDEST POP JUMP JUMPDEST PUSH2 0x4BE PUSH2 0x834 JUMP JUMPDEST PUSH20 0xFFFFFFFFFFFFFFFFFFFFFFFFFFFFFFFFFFFFFFFF AND PUSH2 0x4DC PUSH2 0xD9 JUMP JUMPDEST PUSH20 0xFFFFFFFFFFFFFFFFFFFFFFFFFFFFFFFFFFFFFFFF AND EQ PUSH2 0x532 JUMPI PUSH1 0x40 MLOAD PUSH32 0x8C379A000000000000000000000000000000000000000000000000000000000 DUP2 MSTORE PUSH1 0x4 ADD PUSH2 0x529 SWAP1 PUSH2 0xCFB JUMP JUMPDEST PUSH1 0x40 MLOAD DUP1 SWAP2 SUB SWAP1 REVERT JUMPDEST JUMP JUMPDEST PUSH0 DUP1 PUSH0 SWAP1 SLOAD SWAP1 PUSH2 0x100 EXP SWAP1 DIV PUSH20 0xFFFFFFFFFFFFFFFFFFFFFFFFFFFFFFFFFFFFFFFF AND SWAP1 POP DUP2 PUSH0 DUP1 PUSH2 0x100 EXP DUP2 SLOAD DUP2 PUSH20 0xFFFFFFFFFFFFFFFFFFFFFFFFFFFFFFFFFFFFFFFF MUL NOT AND SWAP1 DUP4 PUSH20 0xFFFFFFFFFFFFFFFFFFFFFFFFFFFFFFFFFFFFFFFF AND MUL OR SWAP1 SSTORE POP DUP2 PUSH20 0xFFFFFFFFFFFFFFFFFFFFFFFFFFFFFFFFFFFFFFFF AND DUP2 PUSH20 0xFFFFFFFFFFFFFFFFFFFFFFFFFFFFFFFFFFFFFFFF AND PUSH32 0x8BE0079C531659141344CD1FD0A4F28419497F9722A3DAAFE3B4186F6B6457E0 PUSH1 0x40 MLOAD PUSH1 0x40 MLOAD DUP1 SWAP2 SUB SWAP1 LOG3 POP POP JUMP JUMPDEST PUSH0 DUP1 PUSH1 0x1 SWAP1 POP PUSH0 DUP6 SUB PUSH2 0x6FF JUMPI PUSH1 0x1 PUSH1 0x3 DUP2 GT ISZERO PUSH2 0x616 JUMPI PUSH2 0x615 PUSH2 0xD19 JUMP JUMPDEST JUMPDEST DUP5 DUP5 PUSH0 DUP2 DUP2 LT PUSH2 0x629 JUMPI PUSH2 0x628 PUSH2 0xD46 JUMP JUMPDEST JUMPDEST SWAP1 POP PUSH1 0x20 MUL ADD PUSH1 0x20 DUP2 ADD SWAP1 PUSH2 0x63E SWAP2 SWAP1 PUSH2 0xD96 JUMP JUMPDEST PUSH1 0x3 DUP2 GT ISZERO PUSH2 0x650 JUMPI PUSH2 0x64F PUSH2 0xD19 JUMP JUMPDEST JUMPDEST EQ DUP1 PUSH2 0x6A7 JUMPI POP PUSH1 0x2 PUSH1 0x3 DUP2 GT ISZERO PUSH2 0x66B JUMPI PUSH2 0x66A PUSH2 0xD19 JUMP JUMPDEST JUMPDEST DUP5 DUP5 PUSH0 DUP2 DUP2 LT PUSH2 0x67E JUMPI PUSH2 0x67D PUSH2 0xD46 JUMP JUMPDEST JUMPDEST SWAP1 POP PUSH1 0x20 MUL ADD PUSH1 0x20 DUP2 ADD SWAP1 PUSH2 0x693 SWAP2 SWAP1 PUSH2 0xD96 JUMP JUMPDEST PUSH1 0x3 DUP2 GT ISZERO PUSH2 0x6A5 JUMPI PUSH2 0x6A4 PUSH2 0xD19 JUMP JUMPDEST JUMPDEST EQ JUMPDEST DUP1 PUSH2 0x6FC JUMPI POP PUSH1 0x3 DUP1 DUP2 GT ISZERO PUSH2 0x6C0 JUMPI PUSH2 0x6BF PUSH2 0xD19 JUMP JUMPDEST JUMPDEST DUP5 DUP5 PUSH0 DUP2 DUP2 LT PUSH2 0x6D3 JUMPI PUSH2 0x6D2 PUSH2 0xD46 JUMP JUMPDEST JUMPDEST SWAP1 POP PUSH1 0x20 MUL ADD PUSH1 0x20 DUP2 ADD SWAP1 PUSH2 0x6E8 SWAP2 SWAP1 PUSH2 0xD96 JUMP JUMPDEST PUSH1 0x3 DUP2 GT ISZERO PUSH2 0x6FA JUMPI PUSH2 0x6F9 PUSH2 0xD19 JUMP JUMPDEST JUMPDEST EQ JUMPDEST SWAP1 POP JUMPDEST PUSH1 0x1 DUP6 SUB PUSH2 0x829 JUMPI PUSH0 JUMPDEST PUSH1 0x3 DUP2 LT ISZERO PUSH2 0x827 JUMPI PUSH1 0x1 PUSH1 0x3 DUP2 GT ISZERO PUSH2 0x726 JUMPI PUSH2 0x725 PUSH2 0xD19 JUMP JUMPDEST JUMPDEST DUP6 DUP6 DUP4 DUP2 DUP2 LT PUSH2 0x739 JUMPI PUSH2 0x738 PUSH2 0xD46 JUMP JUMPDEST JUMPDEST SWAP1 POP PUSH1 0x20 MUL ADD PUSH1 0x20 DUP2 ADD SWAP1 PUSH2 0x74E SWAP2 SWAP1 PUSH2 0xD96 JUMP JUMPDEST PUSH1 0x3 DUP2 GT ISZERO PUSH2 0x760 JUMPI PUSH2 0x75F PUSH2 0xD19 JUMP JUMPDEST JUMPDEST EQ DUP1 PUSH2 0x7B7 JUMPI POP PUSH1 0x2 PUSH1 0x3 DUP2 GT ISZERO PUSH2 0x77B JUMPI PUSH2 0x77A PUSH2 0xD19 JUMP JUMPDEST JUMPDEST DUP6 DUP6 DUP4 DUP2 DUP2 LT PUSH2 0x78E JUMPI PUSH2 0x78D PUSH2 0xD46 JUMP JUMPDEST JUMPDEST SWAP1 POP PUSH1 0x20 MUL ADD PUSH1 0x20 DUP2 ADD SWAP1 PUSH2 0x7A3 SWAP2 SWAP1 PUSH2 0xD96 JUMP JUMPDEST PUSH1 0x3 DUP2 GT ISZERO PUSH2 0x7B5 JUMPI PUSH2 0x7B4 PUSH2 0xD19 JUMP JUMPDEST JUMPDEST EQ JUMPDEST DUP1 PUSH2 0x80C JUMPI POP PUSH1 0x3 DUP1 DUP2 GT ISZERO PUSH2 0x7D0 JUMPI PUSH2 0x7CF PUSH2 0xD19 JUMP JUMPDEST JUMPDEST DUP6 DUP6 DUP4 DUP2 DUP2 LT PUSH2 0x7E3 JUMPI PUSH2 0x7E2 PUSH2 0xD46 JUMP JUMPDEST JUMPDEST SWAP1 POP PUSH1 0x20 MUL ADD PUSH1 0x20 DUP2 ADD SWAP1 PUSH2 0x7F8 SWAP2 SWAP1 PUSH2 0xD96 JUMP JUMPDEST PUSH1 0x3 DUP2 GT ISZERO PUSH2 0x80A JUMPI PUSH2 0x809 PUSH2 0xD19 JUMP JUMPDEST JUMPDEST EQ JUMPDEST SWAP2 POP DUP2 ISZERO PUSH2 0x827 JUMPI DUP1 DUP1 PUSH2 0x81F SWAP1 PUSH2 0xDC1 JUMP JUMPDEST SWAP2 POP POP PUSH2 0x709 JUMP JUMPDEST POP JUMPDEST DUP1 SWAP2 POP POP SWAP4 SWAP3 POP POP POP JUMP JUMPDEST PUSH0 CALLER SWAP1 POP SWAP1 JUMP JUMPDEST DUP3 DUP1 SLOAD DUP3 DUP3 SSTORE SWAP1 PUSH0 MSTORE PUSH1 0x20 PUSH0 KECCAK256 SWAP1 PUSH1 0x1F ADD PUSH1 0x20 SWAP1 DIV DUP2 ADD SWAP3 DUP3 ISZERO PUSH2 0x8EA JUMPI SWAP2 PUSH1 0x20 MUL DUP3 ADD PUSH0 JUMPDEST DUP4 DUP3 GT ISZERO PUSH2 0x8BC JUMPI DUP4 CALLDATALOAD PUSH1 0x3 DUP2 GT DUP1 ISZERO PUSH2 0x879 JUMPI PUSH0 DUP1 REVERT JUMPDEST POP DUP4 DUP3 PUSH2 0x100 EXP DUP2 SLOAD DUP2 PUSH1 0xFF MUL NOT AND SWAP1 DUP4 PUSH1 0x3 DUP2 GT ISZERO PUSH2 0x89C JUMPI PUSH2 0x89B PUSH2 0xD19 JUMP JUMPDEST JUMPDEST MUL OR SWAP1 SSTORE POP SWAP3 PUSH1 0x20 ADD SWAP3 PUSH1 0x1 ADD PUSH1 0x20 DUP2 PUSH0 ADD DIV SWAP3 DUP4 ADD SWAP3 PUSH1 0x1 SUB MUL PUSH2 0x861 JUMP JUMPDEST DUP1 ISZERO PUSH2 0x8E8 JUMPI DUP3 DUP2 PUSH2 0x100 EXP DUP2 SLOAD SWAP1 PUSH1 0xFF MUL NOT AND SWAP1 SSTORE PUSH1 0x1 ADD PUSH1 0x20 DUP2 PUSH0 ADD DIV SWAP3 DUP4 ADD SWAP3 PUSH1 0x1 SUB MUL PUSH2 0x8BC JUMP JUMPDEST POP JUMPDEST POP SWAP1 POP PUSH2 0x8F7 SWAP2 SWAP1 PUSH2 0x8FB JUMP JUMPDEST POP SWAP1 JUMP JUMPDEST JUMPDEST DUP1 DUP3 GT ISZERO PUSH2 0x912 JUMPI PUSH0 DUP2 PUSH0 SWAP1 SSTORE POP PUSH1 0x1 ADD PUSH2 0x8FC JUMP JUMPDEST POP SWAP1 JUMP JUMPDEST PUSH0 PUSH20 0xFFFFFFFFFFFFFFFFFFFFFFFFFFFFFFFFFFFFFFFF DUP3 AND SWAP1 POP SWAP2 SWAP1 POP JUMP JUMPDEST PUSH0 PUSH2 0x93F DUP3 PUSH2 0x916 JUMP JUMPDEST SWAP1 POP SWAP2 SWAP1 POP JUMP JUMPDEST PUSH2 0x94F DUP2 PUSH2 0x935 JUMP JUMPDEST DUP3 MSTORE POP POP JUMP JUMPDEST PUSH0 PUSH1 0x20 DUP3 ADD SWAP1 POP PUSH2 0x968 PUSH0 DUP4 ADD DUP5 PUSH2 0x946 JUMP JUMPDEST SWAP3 SWAP2 POP POP JUMP JUMPDEST PUSH0 DUP1 REVERT JUMPDEST PUSH0 DUP1 REVERT JUMPDEST PUSH2 0x97F DUP2 PUSH2 0x935 JUMP JUMPDEST DUP2 EQ PUSH2 0x989 JUMPI PUSH0 DUP1 REVERT JUMPDEST POP JUMP JUMPDEST PUSH0 DUP2 CALLDATALOAD SWAP1 POP PUSH2 0x99A DUP2 PUSH2 0x976 JUMP JUMPDEST SWAP3 SWAP2 POP POP JUMP JUMPDEST PUSH0 DUP2 SWAP1 POP SWAP2 SWAP1 POP JUMP JUMPDEST PUSH2 0x9B2 DUP2 PUSH2 0x9A0 JUMP JUMPDEST DUP2 EQ PUSH2 0x9BC JUMPI PUSH0 DUP1 REVERT JUMPDEST POP JUMP JUMPDEST PUSH0 DUP2 CALLDATALOAD SWAP1 POP PUSH2 0x9CD DUP2 PUSH2 0x9A9 JUMP JUMPDEST SWAP3 SWAP2 POP POP JUMP JUMPDEST PUSH0 DUP1 REVERT JUMPDEST PUSH0 DUP1 REVERT JUMPDEST PUSH0 DUP1 REVERT JUMPDEST PUSH0 DUP1 DUP4 PUSH1 0x1F DUP5 ADD SLT PUSH2 0x9F4 JUMPI PUSH2 0x9F3 PUSH2 0x9D3 JUMP JUMPDEST JUMPDEST DUP3 CALLDATALOAD SWAP1 POP PUSH8 0xFFFFFFFFFFFFFFFF DUP2 GT ISZERO PUSH2 0xA11 JUMPI PUSH2 0xA10 PUSH2 0x9D7 JUMP JUMPDEST JUMPDEST PUSH1 0x20 DUP4 ADD SWAP2 POP DUP4 PUSH1 0x20 DUP3 MUL DUP4 ADD GT ISZERO PUSH2 0xA2D JUMPI PUSH2 0xA2C PUSH2 0x9DB JUMP JUMPDEST JUMPDEST SWAP3 POP SWAP3 SWAP1 POP JUMP JUMPDEST PUSH0 DUP1 PUSH0 DUP1 PUSH0 PUSH1 0x80 DUP7 DUP9 SUB SLT ISZERO PUSH2 0xA4D JUMPI PUSH2 0xA4C PUSH2 0x96E JUMP JUMPDEST JUMPDEST PUSH0 PUSH2 0xA5A DUP9 DUP3 DUP10 ADD PUSH2 0x98C JUMP JUMPDEST SWAP6 POP POP PUSH1 0x20 PUSH2 0xA6B DUP9 DUP3 DUP10 ADD PUSH2 0x9BF JUMP JUMPDEST SWAP5 POP POP PUSH1 0x40 PUSH2 0xA7C DUP9 DUP3 DUP10 ADD PUSH2 0x9BF JUMP JUMPDEST SWAP4 POP POP PUSH1 0x60 DUP7 ADD CALLDATALOAD PUSH8 0xFFFFFFFFFFFFFFFF DUP2 GT ISZERO PUSH2 0xA9D JUMPI PUSH2 0xA9C PUSH2 0x972 JUMP JUMPDEST JUMPDEST PUSH2 0xAA9 DUP9 DUP3 DUP10 ADD PUSH2 0x9DF JUMP JUMPDEST SWAP3 POP SWAP3 POP POP SWAP3 SWAP6 POP SWAP3 SWAP6 SWAP1 SWAP4 POP JUMP JUMPDEST PUSH0 PUSH1 0x20 DUP3 DUP5 SUB SLT ISZERO PUSH2 0xACD JUMPI PUSH2 0xACC PUSH2 0x96E JUMP JUMPDEST JUMPDEST PUSH0 PUSH2 0xADA DUP5 DUP3 DUP6 ADD PUSH2 0x98C JUMP JUMPDEST SWAP2 POP POP SWAP3 SWAP2 POP POP JUMP JUMPDEST PUSH0 DUP3 DUP3 MSTORE PUSH1 0x20 DUP3 ADD SWAP1 POP SWAP3 SWAP2 POP POP JUMP JUMPDEST PUSH32 0x47616D6520626F6E75732063616E6E6F74206265207A65726F00000000000000 PUSH0 DUP3 ADD MSTORE POP JUMP JUMPDEST PUSH0 PUSH2 0xB27 PUSH1 0x19 DUP4 PUSH2 0xAE3 JUMP JUMPDEST SWAP2 POP PUSH2 0xB32 DUP3 PUSH2 0xAF3 JUMP JUMPDEST PUSH1 0x20 DUP3 ADD SWAP1 POP SWAP2 SWAP1 POP JUMP JUMPDEST PUSH0 PUSH1 0x20 DUP3 ADD SWAP1 POP DUP2 DUP2 SUB PUSH0 DUP4 ADD MSTORE PUSH2 0xB54 DUP2 PUSH2 0xB1B JUMP JUMPDEST SWAP1 POP SWAP2 SWAP1 POP JUMP JUMPDEST PUSH32 0x4775657373696E67206572726F72000000000000000000000000000000000000 PUSH0 DUP3 ADD MSTORE POP JUMP JUMPDEST PUSH0 PUSH2 0xB8F PUSH1 0xE DUP4 PUSH2 0xAE3 JUMP JUMPDEST SWAP2 POP PUSH2 0xB9A DUP3 PUSH2 0xB5B JUMP JUMPDEST PUSH1 0x20 DUP3 ADD SWAP1 POP SWAP2 SWAP1 POP JUMP JUMPDEST PUSH0 PUSH1 0x20 DUP3 ADD SWAP1 POP DUP2 DUP2 SUB PUSH0 DUP4 ADD MSTORE PUSH2 0xBBC DUP2 PUSH2 0xB83 JUMP JUMPDEST SWAP1 POP SWAP2 SWAP1 POP JUMP JUMPDEST PUSH32 0x4E487B7100000000000000000000000000000000000000000000000000000000 PUSH0 MSTORE PUSH1 0x11 PUSH1 0x4 MSTORE PUSH1 0x24 PUSH0 REVERT JUMPDEST PUSH0 PUSH2 0xBFA DUP3 PUSH2 0x9A0 JUMP JUMPDEST SWAP2 POP PUSH2 0xC05 DUP4 PUSH2 0x9A0 JUMP JUMPDEST SWAP3 POP DUP3 DUP3 SUB SWAP1 POP DUP2 DUP2 GT ISZERO PUSH2 0xC1D JUMPI PUSH2 0xC1C PUSH2 0xBC3 JUMP JUMPDEST JUMPDEST SWAP3 SWAP2 POP POP JUMP JUMPDEST PUSH32 0x4F776E61626C653A206E6577206F776E657220697320746865207A65726F2061 PUSH0 DUP3 ADD MSTORE PUSH32 0x6464726573730000000000000000000000000000000000000000000000000000 PUSH1 0x20 DUP3 ADD MSTORE POP JUMP JUMPDEST PUSH0 PUSH2 0xC7D PUSH1 0x26 DUP4 PUSH2 0xAE3 JUMP JUMPDEST SWAP2 POP PUSH2 0xC88 DUP3 PUSH2 0xC23 JUMP JUMPDEST PUSH1 0x40 DUP3 ADD SWAP1 POP SWAP2 SWAP1 POP JUMP JUMPDEST PUSH0 PUSH1 0x20 DUP3 ADD SWAP1 POP DUP2 DUP2 SUB PUSH0 DUP4 ADD MSTORE PUSH2 0xCAA DUP2 PUSH2 0xC71 JUMP JUMPDEST SWAP1 POP SWAP2 SWAP1 POP JUMP JUMPDEST PUSH32 0x4F776E61626C653A2063616C6C6572206973206E6F7420746865206F776E6572 PUSH0 DUP3 ADD MSTORE POP JUMP JUMPDEST PUSH0 PUSH2 0xCE5 PUSH1 0x20 DUP4 PUSH2 0xAE3 JUMP JUMPDEST SWAP2 POP PUSH2 0xCF0 DUP3 PUSH2 0xCB1 JUMP JUMPDEST PUSH1 0x20 DUP3 ADD SWAP1 POP SWAP2 SWAP1 POP JUMP JUMPDEST PUSH0 PUSH1 0x20 DUP3 ADD SWAP1 POP DUP2 DUP2 SUB PUSH0 DUP4 ADD MSTORE PUSH2 0xD12 DUP2 PUSH2 0xCD9 JUMP JUMPDEST SWAP1 POP SWAP2 SWAP1 POP JUMP JUMPDEST PUSH32 0x4E487B7100000000000000000000000000000000000000000000000000000000 PUSH0 MSTORE PUSH1 0x21 PUSH1 0x4 MSTORE PUSH1 0x24 PUSH0 REVERT JUMPDEST PUSH32 0x4E487B7100000000000000000000000000000000000000000000000000000000 PUSH0 MSTORE PUSH1 0x32 PUSH1 0x4 MSTORE PUSH1 0x24 PUSH0 REVERT JUMPDEST PUSH1 0x4 DUP2 LT PUSH2 0xD7F JUMPI PUSH0 DUP1 REVERT JUMPDEST POP JUMP JUMPDEST PUSH0 DUP2 CALLDATALOAD SWAP1 POP PUSH2 0xD90 DUP2 PUSH2 0xD73 JUMP JUMPDEST SWAP3 SWAP2 POP POP JUMP JUMPDEST PUSH0 PUSH1 0x20 DUP3 DUP5 SUB SLT ISZERO PUSH2 0xDAB JUMPI PUSH2 0xDAA PUSH2 0x96E JUMP JUMPDEST JUMPDEST PUSH0 PUSH2 0xDB8 DUP5 DUP3 DUP6 ADD PUSH2 0xD82 JUMP JUMPDEST SWAP2 POP POP SWAP3 SWAP2 POP POP JUMP JUMPDEST PUSH0 PUSH2 0xDCB DUP3 PUSH2 0x9A0 JUMP JUMPDEST SWAP2 POP PUSH32 0xFFFFFFFFFFFFFFFFFFFFFFFFFFFFFFFFFFFFFFFFFFFFFFFFFFFFFFFFFFFFFFFF DUP3 SUB PUSH2 0xDFD JUMPI PUSH2 0xDFC PUSH2 0xBC3 JUMP JUMPDEST JUMPDEST PUSH1 0x1 DUP3 ADD SWAP1 POP SWAP2 SWAP1 POP JUMP INVALID LOG2 PUSH5 0x6970667358 0x22 SLT KECCAK256 0xA8 GASPRICE OR REVERT 0xED EXTCODECOPY RETURN 0xE3 PUSH13 0x79FF720D63F7B99CFBB9089DD6 DUP11 CHAINID PUSH8 0x4C34AF46BB1E2864 PUSH20 0x6F6C634300081500330000000000000000000000 "
				},
				"gasEstimates": {
					"creation": {
						"codeDepositCost": "729200",
						"executionCost": "infinite",
						"totalCost": "infinite"
					},
					"external": {
						"owner()": "2515",
						"renounceOwnership()": "30368",
						"startGame(address,uint256,uint256,uint8[])": "infinite",
						"transferOwnership(address)": "30775"
					},
					"internal": {
						"checkFingerGuess(uint256,enum FingerGuess.FingerType[] calldata)": "infinite",
						"tokenSend(uint256,address,uint256)": "infinite"
					}
				},
				"methodIdentifiers": {
					"owner()": "8da5cb5b",
					"renounceOwnership()": "715018a6",
					"startGame(address,uint256,uint256,uint8[])": "ca99760e",
					"transferOwnership(address)": "f2fde38b"
				}
			},
			"storageLayout": {
				"storage": [
					{
						"astId": 7,
						"contract": "finger.sol:FingerGuess",
						"label": "_owner",
						"offset": 0,
						"slot": "0",
						"type": "t_address"
					},
					{
						"astId": 165,
						"contract": "finger.sol:FingerGuess",
						"label": "guessResult",
						"offset": 0,
						"slot": "1",
						"type": "t_mapping(t_uint256,t_array(t_enum(FingerType)159)dyn_storage)"
					},
					{
						"astId": 169,
						"contract": "finger.sol:FingerGuess",
						"label": "games",
						"offset": 0,
						"slot": "2",
						"type": "t_array(t_struct(Game)154_storage)dyn_storage"
					}
				],
				"types": {
					"t_address": {
						"encoding": "inplace",
						"label": "address",
						"numberOfBytes": "20"
					},
					"t_array(t_enum(FingerType)159)dyn_storage": {
						"base": "t_enum(FingerType)159",
						"encoding": "dynamic_array",
						"label": "enum FingerGuess.FingerType[]",
						"numberOfBytes": "32"
					},
					"t_array(t_struct(Game)154_storage)dyn_storage": {
						"base": "t_struct(Game)154_storage",
						"encoding": "dynamic_array",
						"label": "struct FingerGuess.Game[]",
						"numberOfBytes": "32"
					},
					"t_enum(FingerType)159": {
						"encoding": "inplace",
						"label": "enum FingerGuess.FingerType",
						"numberOfBytes": "1"
					},
					"t_mapping(t_uint256,t_array(t_enum(FingerType)159)dyn_storage)": {
						"encoding": "mapping",
						"key": "t_uint256",
						"label": "mapping(uint256 => enum FingerGuess.FingerType[])",
						"numberOfBytes": "32",
						"value": "t_array(t_enum(FingerType)159)dyn_storage"
					},
					"t_struct(Game)154_storage": {
						"encoding": "inplace",
						"label": "struct FingerGuess.Game",
						"members": [
							{
								"astId": 141,
								"contract": "finger.sol:FingerGuess",
								"label": "sponsor",
								"offset": 0,
								"slot": "0",
								"type": "t_address"
							},
							{
								"astId": 143,
								"contract": "finger.sol:FingerGuess",
								"label": "defier",
								"offset": 0,
								"slot": "1",
								"type": "t_address"
							},
							{
								"astId": 145,
								"contract": "finger.sol:FingerGuess",
								"label": "tokenAddress",
								"offset": 0,
								"slot": "2",
								"type": "t_address"
							},
							{
								"astId": 147,
								"contract": "finger.sol:FingerGuess",
								"label": "bonus",
								"offset": 0,
								"slot": "3",
								"type": "t_uint256"
							},
							{
								"astId": 149,
								"contract": "finger.sol:FingerGuess",
								"label": "gameType",
								"offset": 0,
								"slot": "4",
								"type": "t_uint256"
							},
							{
								"astId": 151,
								"contract": "finger.sol:FingerGuess",
								"label": "status",
								"offset": 0,
								"slot": "5",
								"type": "t_uint256"
							},
							{
								"astId": 153,
								"contract": "finger.sol:FingerGuess",
								"label": "createTime",
								"offset": 0,
								"slot": "6",
								"type": "t_uint256"
							}
						],
						"numberOfBytes": "224"
					},
					"t_uint256": {
						"encoding": "inplace",
						"label": "uint256",
						"numberOfBytes": "32"
					}
				}
			},
			"userdoc": {
				"kind": "user",
				"methods": {},
				"version": 1
			}
		}
	}
}